:02000004080AE8
:1000000000000A08580E0A08000006000600050154
:0800100004029A080000000040
:04001800840C0A0842
:10001C0009480A4908B5884205D0094A824202D0EB
:10002C00121A00F07FFD0748074A0021121A00F04F
:10003C0087FD064808BD00BF00000020C40D0A085B
:10004C006C0000206C000020F9050020F905002050
:10005C0070B500F01FFD0025054E064CA41BA4082E
:10006C00A54200D170BD56F8043B98470135F7E71F
:10007C00A40D0A08C00D0A0800F011B808B500F06C
:10008C002DF8BDE8084000F0BDBC00F089B900783F
:10009C00B0FA80F04009704701230370704708B52F
:1000AC0000F0BCFB4FF4165100F09EFB00F026FB59
:1000BC00BDE808404FF4165100F01ABB054B064A38
:1000CC00186800231946984203DD02F8011B01331E
:1000DC00F9E77047AC0000206C00002038B500F048
:1000EC000DFB03681B699847E8B1194C194D00F0DA
:1000FC0005FB03681B69984750B100F0FFFA0368D1
:10010C005B6998472268531C402B2360A854EED19E
:10011C0000F084FB03682268DB680E499847FFF700
:10012C00CDFF0023236000F079FB03681B6998471F
:10013C0068B100F0E3FA044600F070FB03685B69F9
:10014C00984781B22046BDE8384000F0D4BA38BD9B
:10015C00AC0000206C00002008B5024B1B685B68EB
:10016C00019308BD9C01060808B5024B1B685B692E
:10017C00019308BD9C01060808B5024B1B689B69DE
:10018C00019308BDC401060808B5024B1B685B6AE5
:10019C00019308BDC401060808B5024B1B689B6A95
:1001AC00019308BDC401060808B5024B1B68DB6A45
:1001BC00019308BDC401060808B5024B1B681B6BF4
:1001CC00019308BDC401060808B5024B1B685B6BA4
:1001DC00019308BDC401060808B5024B1B681B6CD3
:1001EC00019308BDC401060808B5024B1B68DB6C03
:1001FC00019308BDC401060808B5024B1B681B6DB2
:10020C00019308BDC401060808B5024B1B681B68A6
:10021C00019308BDD801060808B5024B1B685B6842
:10022C00019308BDD801060808B5024B1B681B6971
:10023C00019308BDD801060808B5024B1B685B6921
:10024C00019308BDD801060808B5024B1B689B69D1
:10025C00019308BDD801060808B5024B1B68DB6981
:10026C00019308BDD801060808B5024B1B681B6A30
:10027C00019308BDD801060808B5024B1B689B6C9E
:10028C00019308BDC001060808B5024B1B685B68EA
:10029C00019308BDA401060808B5034B1B68D3F8ED
:1002AC009030019308BD0000A401060808B5034B6B
:1002BC001B68D3F89C30019308BD0000A40106080C
:1002CC0008B5024B1B68DB6B019308BDCC0106081B
:1002DC0008B5024B1B685B68019308BDC801060892
:1002EC0008B5024B1B689B68019308BDC801060842
:1002FC0008B5024B1B68DB68019308BDC8010608F2
:10030C0008B5024B1B681B69019308BDC8010608A0
:10031C0008B5024B1B685B69019308BDC801060850
:10032C0008B5024B1B689B69019308BDC801060800
:10033C0008B5024B1B68DB69019308BDC8010608B0
:10034C0008B5024B1B681B6A019308BDC80106085F
:10035C0008B5024B1B681B6B019308BDC80106084E
:10036C0008B5024B1B685B6B019308BDC8010608FE
:10037C0008B5024B1B681B6C019308BDC80106082D
:10038C0008B5024B1B685B6C019308BDC8010608DD
:10039C0008B5024B1B681B68019308BDA001060839
:1003AC0008B5024B1B685B68019308BDA0010608E9
:1003BC0008B5024B1B685B6C019308BDA0010608D5
:1003CC00704710B50446182100F0A4FB204610BD60
:1003DC00F8B50E46002400F10807051D17F8011D9D
:1003EC000A22304600F0EFF8AF42044401D1204617
:1003FC00F8BD002CF2D02E21304600F0E1F8044478
:10040C00ECE7000010B50446044B1122002140F823
:10041C00043B00F095FB204610BD00BFA00C0A0861
:10042C000346074A10B543F8042B01F1100251F8AA
:10043C00044B914243F8044BF9D10A781A7010BD61
:10044C00A00C0A08024AC0E9002104220275704778
:10045C00A00C0A0810B59DF8084044EA03240423B4
:10046C0044EA024444EA01644460037510BD000090
:10047C0037B5044D05609DF818500095FFF7EAFF5D
:10048C0003B030BDA00C0A08014B024A1A60704739
:10049C00B0000020AC0C0A08002340681A46FFF795
:1004AC0017BF002202214068FFF722BF00224068DC
:1004BC001146FFF715BF002240681146FFF720BF19
:1004CC00002340681A461946FFF722BF00234068F4
:1004DC001A461946FFF724BF00214068FFF748BFB2
:1004EC0000214068FFF74CBF0022406881F00101F9
:1004FC00FFF71EBF00224068FFF72ABF00224068AA
:10050C001146FFF72DBF002240681146FFF718BFB8
:10051C0070B515468EB0044608A8FFF773FF11227C
:10052C00002103A800F00CFB0026284600F034FB49
:10053C000A4B009681B25B68284603AAFFF79CFE23
:10054C0030B131462046FFF77DFF20460EB070BD1E
:10055C00204603A9FFF764FFF7E700BF340500202E
:10056C00024B034A1A6000225A607047B400002004
:10057C00B80C0A08F8B506460D4600248F18BD4283
:10058C000CD0336830469B6815F8011B9847031E46
:10059C0001DB1C44F3E7002C08BF1C462046F8BDC9
:1005AC0070B505460C46084649B100F0F5FA2B68C3
:1005BC00024621462846BDE87040DB68184770BDEE
:1005CC0003689B6818470023012A98BF0A2230B59C
:1005DC008BB00C468DF8243009A92546B4FBF2F4F7
:1005EC0004FB1253DBB2092B94BF30333733DBB22D
:1005FC00AA4201F8013DF0D9FFF7D2FF0BB030BD94
:10060C000022014B9A607047BC000020022200209F
:10061C00044B1A60044B054A1860988098719A60D4
:10062C00FFF732BED8000020CC0000200000FFFFF6
:10063C00024B1A68024B1A60704700BF0000002082
:10064C00DC000020704741747047704708B5007C8F
:10065C00FFF7C2FD20EAE07008BD08B5007CFFF78B
:10066C009BFD20EAE07008BD08B5007CFFF7A4FDF7
:10067C0040EAE07008BD08B5007CFFF795FD40EA44
:10068C00E07008BD007CFFF79FBD70B5467C04464A
:10069C000D462EB12946207CBDE87040FFF774BD95
:1006AC00007CFFF799FD0028F4DC304670BD10B5D6
:1006BC000446142100F02EFA204610BD4FF0000C19
:1006CC0010B50446084611464FF47A72C4E901C2CB
:1006DC00044A20742260012262741A46FFF74CFD12
:1006EC00204610BD100D0A080023007CFFF77CBDCE
:1006FC000022FFF7F9BF007CFFF77EBD38B50C4D2B
:10070C002978BFF35B8F11F001040FD12846FFF756
:10071C00BEFC58B12146074B074A0848FFF7CEFFED
:10072C002846FFF7B9FC064800F0F6F9034838BD37
:10073C00E000002068010020E4000020EC01002013
:10074C0057060A08417470477047704708B5002176
:10075C00007CFFF779FD40EAE07008BD08B5012187
:10076C00007CFFF771FD40EAE07008BD08B5007C25
:10077C00FFF762FD20EAE07008BD08B5007CFFF7CA
:10078C0053FD20EAE07008BD38B50446007C0D46E8
:10079C00FFF752FD002801DC607C28B12946207C43
:1007AC00FFF75AFD20EAE07038BD007CFFF75CBD16
:1007BC0010B50446142100F0ADF9204610BD704769
:1007CC0010B54FF47A73044608460021C4E90113AE
:1007DC00044B20742360012311466374FFF714FD4E
:1007EC00204610BD400D0A080022007CFFF714BD06
:1007FC0010B504461422002100F0A2F9054B204646
:10080C006360054BE36040F2011323818123238253
:10081C0010BD00BF300200203103002030B50E4D5A
:10082C0087B001A8FFF7E4FF2978BFF35B8F11F0C5
:10083C0001040ED12846FFF72AFC50B1214601AA2B
:10084C000648FFF7BDFF2846FFF726FC044800F0DA
:10085C0063F9024807B030BD0002002008020020F6
:10086C0055070A0810B504461422002100F068F957
:10087C00054B20466360054BE36040F20113238176
:10088C008123238210BD00BFB2030020B3040020DB
:10089C0010B50E4C86B001A8FFF7E4FF2378BFF328
:1008AC005B8FDB070ED42046FFF7F1FB50B1012123
:1008BC0001AA0748FFF784FF2046FFF7EDFB054828
:1008CC0000F02AF9024806B010BD00BF0402002057
:1008DC001C020020CB070A08002240681146FFF7D3
:1008EC000FBDF0B5154689B011220E460446002105
:1008FC0003A800F025F9284600F04EF9002781B234
:10090C0073682846009703AAFFF7B6FC30B1394646
:10091C002046FFF797FD204609B0F0BD204603A9FD
:10092C00FFF77EFDF7E7002240681146FFF708BD90
:10093C00002240681146FFF713BD00224068FFF704
:10094C0007BD0022406881F00101FFF7F1BC0023D4
:10095C0040681A461946FFF7E3BC002340681A4664
:10096C001946FFF7D5BC002240681146FFF7B8BC0A
:10097C00002202214068FFF7BBBC002340681A46E6
:10098C00FFF7A6BC0422024B5A60024A1A60704759
:10099C0034050020700D0A08014B1860704700BF29
:1009AC000400002008B5134B43B1FFF737FF036871
:1009BC001B699847002801DDAFF300800E4B43B153
:1009CC00FFF79CFE03681B699847002801DDAFF315
:1009DC0000800A4B0BB1AFF30080094B43B1FFF71A
:1009EC0057FF03681B699847002801DDAFF30080AF
:1009FC0008BD00BF00000000000000000000000067
:100A0C000000000008B5FFF7CDFFFFF7ADFB014B71
:100A1C00186008BD440500200548064A08B5121A9E
:100A2C00054900F07FF8054B054A1A6008BD00BF68
:100A3C000040024004400240C00D0A080040024041
:100A4C001E1C279A002307B51A466FF077010093F6
:100A5C00FFF72CFC03B05DF804FB000007B54388DE
:100A6C000A2B08D0502B0BD1094B1B684BB103B090
:100A7C005DF804EB1847FFF7E5FF03B05DF804FBE6
:100A8C0000231A466FF077010093FFF70FFCF4E791
:100A9C0040050020002110B51148FFF789FC114BCF
:100AAC001A68114B9A420CBF012200220F4B1A708C
:100ABC0001D0FFF7B1FFFFF74FFB044600F048F8F9
:100ACC000B4B13B12046AFF3008000210848FFF711
:100ADC00F7FBBDE8104000210648FFF7DDBB00BF67
:100AEC00A5090A08004002401E1C279A3C0500205C
:100AFC0000000000690A0A08002307B51A461946C7
:100B0C0000930348FFF7B4FC03B05DF804FB00BF8F
:100B1C0048050020FFF7B9BA002301461A461846CB
:100B2C0000F042B80A44914200F1FF3300D1704703
:100B3C0010B511F8014B914203F8014FF9D110BDDA
:100B4C0003460244934200D1704703F8011BF9E7B6
:100B5C0038B50D4B04461D68AB6B7BB91820FFF7FD
:100B6C0017FC0A4A0A4BA863C0E90023094B01226F
:100B7C0083600B2383810023C0E904230022AB6B29
:100B8C001C615A6138BD00BF040000200E33CDAB90
:100B9C0034126DE6ECDE0500034613F8012B002A37
:100BAC00FBD1181A013870472DE9F843DFF8BC80E7
:100BBC000646D8F800001F460D46914600F058F83E
:100BCC00264B1C6834B9264C1C60264B13B11B6891
:100BDC00C4F8883063681F2B07DDD8F8000000F0DC
:100BEC0049F84FF0FF30BDE8F8835EB3D4F88800C5
:100BFC0088B91D4B23B9D8F8000000F03AF8F0E79B
:100C0C004FF48470FFF7C4FB0028F4D00023C0E934
:100C1C004033C4F8880001226368022E40F8239008
:100C2C0002FA03F200EB8301D0F8003143EA02032D
:100C3C00C0F80031C1F8807002BFD0F804311A43FB
:100C4C00C0F804216368D8F800005A1C02336260B3
:100C5C0044F8235000F00EF80020C4E7EC05002007
:100C6C0060050020000000009D030A0868000020B9
:100C7C0070477047704700001D000A085D000A08A5
:100C8C0085000A0889000A08000000000000000026
:100C9C0000000000DD030A08CD030A08CF030A0890
:100CAC00617070000000000000000000A5040A083C
:100CBC00AF040A08B9040A08C3040A08CD040A08D8
:100CCC00D9040A08E5040A08ED040A08F5040A0820
:100CDC0001050A0809050A0813050A081D050A0872
:100CEC0025592D256D2D25645425483A254D3A2539
:100CFC0053257A0061736374696D65000000000010
:100D0C000000000051060A08BB060A0897060A08EC
:100D1C0081050A0867060A0883060A0875060A0888
:100D2C0091060A0853060A0859060A080000000032
:100D3C000000000057070A08BD070A0895070A08B3
:100D4C0081050A0887070A0859070A0869070A086B
:100D5C00B7070A0879070A0851070A0800000000BB
:100D6C000000000087090A087D090A0873090A08AF
:100D7C00E5080A0867090A085B090A08E5040A0875
:100D8C00ED040A084F090A0847090A083D090A0830
:100D9C0033090A08EF080A0895040A086D050A08C1
:100DAC000D060A0819060A083D060A0891090A08E0
:040DBC00050B0A0811
:040DC000000000002F
:100DC400000D0A08080000200000000000000000D8
:100DD400000000000000000000000000000000000F
:100DE40000000000000000000000000000000000FF
:100DF40000000000000000000000000000000000EF
:100E040000000000000000000000000000000000DE
:100E140000000000000000000000000000000000CE
:0C0E24000000000000000000F1050020AC
:100E3000FFFFFFFF00000102030405060708090A7F
:100E40000B0C0D0E0F101112131415161718191A7A
:080E50001B1C1D1E1F202800C1
:040E58007856341282
:04000005080A001CC9
:00000001FF
