:02000002B0004C
:1040000000400B00C0EF0B00000006000D00050291
:084010000401800C0000000017
:0440180080DD0B003C
:1040200009480A49884208B505D0094A824202D0A7
:10403000121A07F0B1FD0748074A0021121A07F0CB
:10404000D3FD014808BD00BF24E10320A4ED0B000F
:1040500014E3032018E30320F1E7032070B5074EB3
:10406000074C06F011FDA41BA4080025AC4200D1AA
:1040700070BD56F8043B98470135F7E75CED0B003F
:1040800094ED0B0000F05CB808B500F021FBBDE832
:10409000084006F0B1BC03F0B3BA03F0B1BA03F0C4
:1040A000B7BA000008B5034A00210C2003F0B2F9AA
:1040B000FEE700BF45700B000078B0FA80F04009C1
:1040C00070470123037070477047006A0368DB681C
:1040D00018470023022203F003BA00000A4B10B570
:1040E0000446036004F02CFC214604F064FE06F054
:1040F0003BFC06F02DFC2046044B40F8043B04F04A
:10410000F5FC204610BD00BF18DF0B0000DF0B00E0
:1041100010B50446FFF7E2FF20462421FFF7BFFF5A
:10412000204610BD0EB403B503AB012153F8042B98
:10413000019305F00AFC02B05DF804EB03B0704790
:1041400008B506F011FC4FF4165106F0FDFB06F021
:10415000F3FD4FF4165106F09FFB154800F077FF72
:1041600014491548FFF7B5FF14491548FFF7B1FF8B
:1041700014491548FFF7ADFF14491548FFF7A9FF8B
:1041800014491548FFF7A5FF1449154800230922D3
:1041900003F0A6F9002309221249134803F0A0F9FD
:1041A00002F058FF114B1860114B01221A7008BD24
:1041B0001CE303209CE4032094DD0B0044E4032073
:1041C0009BDD0B0090E40320A4DD0B008CE40320B6
:1041D000B4DD0B0088E40320C3DD0B0080E4032082
:1041E000D2DD0B0050E40320DCDD0B0094E403205F
:1041F00068E3032070B50A208EB003F001FA06468A
:104200000A2003F0FDF905463F4800F0E9FF3F4969
:1042100053EC102B304603F00BFA3B4801F004F846
:104220003A4953EC102B284603F002FA322003F0EF
:10423000E7F9374B0193A3F54F23A3F540730446E9
:1042400032463448029301A902F042FE2A46314820
:1042500002A902F03DFE2F48214602F0BFFE2E4A81
:104260009FED2E0A10685168127A05AB03C32948E6
:104270001A7005A9224602F01FFE294A10685168EB
:104280000BAB03C39068274A186051681068127A14
:1042900008AB03C31A70244A1068516803AB03C308
:1042A000224B1C4893ED000A0BA9B8EEC00A02F09D
:1042B000FAFD1F4B174893ED000A08A9B8EEC00A93
:1042C00002F0F1FD1B4B134893ED000A03A9B8EE71
:1042D000C00A02F0E8FD184B0E481A78174B19680F
:1042E00002F0F2FD20B106F03FFB154905F02DFA72
:1042F000304603F08DF9284603F08AF9204603F092
:1043000087F90EB070BD00BF6CE3032022DE0B0006
:104310006C617400A0E40320C9DE0B000000000003
:10432000FFDD0B000BDE0B0014DE0B009CE4032012
:1043300044E4032088E4032018E3032024E103205D
:10434000E5DD0B00000000002DE9F0432DED048BAE
:10435000F1B002F07FFEBA4BBA4E1860BA48BB4FBC
:1043600000F0A2FDFDEEC07AB94BCDED097A9DF9C2
:104370002400186007F02AF8AFA3D3E9002307F060
:104380008FF80022B34B06F0D5FE07F039FB306002
:10439000AD4800F0B9FDFCEEC07AAF48CDED097A2A
:1043A0009DF824303B6003F03BFEFCEEC07AAB4A44
:1043B000CDED097A9DF82430136014A90022032062
:1043C000149203F047F80CAC002840F00081149DD3
:1043D0000DB12B6923B9A24A00210A2003F01AF873
:1043E0000C23CDE93434042336932B6934AA0121FC
:1043F00028469847002840F0EA80238807EE903A44
:10440000FBEECC7AFCEEE77A964DCDED097A9DF87D
:10441000243095492B60204603F0DEF9204603F056
:1044200057FAFCEEC07ADFF87C82CDED097A9DF870
:104430002430C8F80030204603F07AFAFCEEC07A47
:10444000DFF86492894CCDED097A9DF82430C9F8E3
:1044500000302378002B00F0BD8002F0FBFD636B81
:10446000C01A42F20F73984200F2B480204600F066
:10447000B7FE7F4A80218DED000B14A803F0E0F811
:10448000204600F0D1FE7A4A80218DED000B14A861
:1044900003F0D6F8204600F0A3FE764B204683EDCD
:1044A000000B00F0C1FE744B204683ED000B00F0C2
:1044B00097FE2046B0EE408AF0EE608A00F0B4FE2F
:1044C0000027D4F8800084F87970B0EE409AF0EEBE
:1044D000609A06F07BFF694B002207F00BF98DED27
:1044E000008BCDE90401664A80218DED029B14A862
:1044F00003F0A6F8554A33680993204616682D68DC
:10450000D8F80080D9F8009000F06AFE2046B0EE9E
:10451000408AF0EE608A00F087FE099B594A8DEDD3
:10452000060BF0218DED048BCDE90289CDE9006504
:1045300034A803F085F806F017FA34A905F005F958
:10454000514B1A7862B11F7002F084FD4F4B1A680C
:10455000821A099206F008FA099A4D49FFF7E2FD1E
:1045600006F002FA14A905F0F0F802F0C9FF48B30A
:10457000484C02F06FFD2368C01A47F22F5398424F
:1045800020D902F067FD444B20601B788DF8003085
:1045900042493C2334AA0AA803F032FB0B9C7CB1AD
:1045A0006368013B63605BB9236820469B6898475A
:1045B000A368013BA3601BB923682046DB689847CA
:1045C000FFF718FE71B0BDEC048BBDE8F083FFEE81
:1045D000007A17E7324914A807F05DFB214A3368D7
:1045E0001568304A214816682F4A3C6809931768B5
:1045F00000F0F6FD1D48B0EE408AF0EE608A00F053
:1046000013FE099B1F4A8DED060B8DED048BCDE942
:104610000267CDE90045F02134A803F011F81A4BE8
:104620001A78002A9CD101221A7002F013FD174B50
:10463000186095E7AFF30080CDCCCCCCCCCCFC3F60
:104640004CE403209CE403201CE3032044E4032007
:1046500098E403200000404060E30320ACE4032022
:1046600045700B0088E4032058E603206CE3032028
:1046700022DE0B0050E4032080E4032000005940B8
:104680001CDE0B0025DE0B0068E3032094E403200E
:10469000D2DE0B0048E4032019E30320F2DE0B0016
:1046A000C6DE0B0090E403208CE4032008B502F082
:1046B000D1FC064B1B68C01A42F20F73984203D913
:1046C000BDE80840FFF740BE08BD00BF4CE4032032
:1046D00010B50B4C06F030FB03681B6998470028A7
:1046E0000DDD06F029FB03685B699847C1B22046DF
:1046F00000F044FF0028EDD0FFF7D8FFEAE710BD37
:104700006CE3032070B5D0E900531426044606FB81
:104710000356AE4204D0284605F000FA1435F8E7F7
:10472000206802F075FF204670BD8842F8B5044647
:104730000D46164616D9904215D2A2F11406751AE6
:10474000A1F114072C44B7421CD02CB131462046AD
:1047500005F04CFA337C2374304605F0DFF9143E43
:10476000143CF0E70ED0B5420CD02CB129462046BF
:1047700005F03CFA2B7C2374284605F0CFF914355C
:104780001434F0E7F8BD2DE9F0410023C0E900330F
:1047900083604F689F4204460E4623DD4FF01408A5
:1047A00008FB07F002F02CFF0546D8B1D4E900124F
:1047B00008FB0212FFF7B9FF206802F029FF25600D
:1047C000A760D6E9007308FB0378B84508D03946DE
:1047D000284605F025FA3B7C2B7414371435F4E792
:1047E000736863602046BDE8F0810000F0B5314B8E
:1047F000314D00241C70314B8DB0012018702146C2
:1048000002F042FECDE90044029406F0ADF869469C
:10481000064603A8FFF7B7FF2F4603A906A8FFF730
:10482000B2FF274B47F8043B06A909A8FFF7ABFFE7
:1048300009AA1E21384604F0A1FB09A8FFF762FF70
:1048400006A8FFF75FFF1F4B2B6003A82E62FFF740
:1048500059FF1D4B2B6006F087F84FF4165106F0F8
:1048600073F804F06DF8294604F05EFA6846FFF725
:1048700049FF164800F0FEFB154800F071F821468C
:10488000144803F081FB14491448032202F0FAFA99
:1048900006F02CF92346224643F6F06106F02EF985
:1048A00006F024F92346224607210DB0BDE8F0406A
:1048B00006F02CB918E3032058E4032019E3032081
:1048C00000DF0B0050E60B0018DF0B006CE3032049
:1048D0001CE3032060E3032028E10320A0E403207D
:1048E000704710B510210446FFF7D9FB204610BDD4
:1048F0000EB403B503AB002153F8042B019305F06C
:1049000024F802B05DF804EB03B0704773B50446B9
:1049100008462279A36832B1A3B90B4902B0BDE8B9
:10492000704004F0FFBE094A267B094D0949647BAB
:10493000012E18BF2946CDE900140749FFF7D8FF1B
:1049400002B070BD054AEFE741DF0B008BE10B00C1
:104950003DDF0B0039DF0B0057DF0B0030DF0B00B2
:104960004FF0FF330361704713B50B4C2178BFF351
:104970005B8F11F001010BD120460191FFF79CFBE9
:10498000019928B1054805F01DF82046FFF799FB6D
:10499000024802B010BD00BFB0E40320B4E403201D
:1049A00008B5FFF7E1FFBDE8084005F029B807B5F5
:1049B0000190FFF7D9FF019903B05DF804EB05F012
:1049C00039B82DE9F04190F91330013305460F460F
:1049D00006D1FFF7C9FF3946BDE8F04105F098B8A8
:1049E000002407264FF0010895F91300002180B23A
:1049F00006F0E3F895F9110008FA06F1394080B2A3
:104A000006F0DBF895F91300012180B206F0D5F825
:104A100095F91200640080B2E4B206F0E7F808B13C
:104A200044F00104013EDFD22046BDE8F0810000E1
:104A30007FB590F91030013304460E46154613D168
:104A40000179006803F078FB2068036831469B68B1
:104A500098472068036829469B689847206804B0F7
:104A6000BDE8704003F088BB90F9133001330CD1DE
:104A7000164B009300238DF80430154B02936846C3
:104A80000123ADF80C30FFF792FF94F910000021DC
:104A900080B206F092F806F07F012046FFF791FF02
:104AA00029462046FFF78DFF94F91000012180B2BE
:104AB00006F083F894F91330013304D104B0BDE853
:104AC0007040FFF76DBF04B070BD00BF7CDF0B000E
:104AD00020A10700F8B5DB0002F0070203F038035D
:104AE000134343EA81139DF8186080F83C3090F836
:104AF00040309DF81C509DF8207066F3471380F8F5
:104B00004030ED0090F8383007F0070705F0380521
:104B100023F03F033D4304461D4380F8385006F020
:104B20000702F221FFF784FF94F83820C2F3C20392
:104B300002F007019B0043EA411343EAD2122046E8
:104B4000F521FFF775FF94F83C20C2F3C20302F091
:104B500007019B0043EA411343EA92122046F421E5
:104B6000BDE8F840FFF764BF30B590F9103001336D
:104B700085B004460D4618D10179006803F0DCFACF
:104B80002068036829469B689847206803F0F4FA78
:104B900021792068012203F0CCFA206803685B6960
:104BA0009847C5B2284605B030BD90F9133001339F
:104BB0000CD1154B009300238DF80430134B029356
:104BC00068460123ADF80C30FFF7F1FE94F91000B0
:104BD000002180B205F0F1FF45F080012046FFF78B
:104BE000F0FE00212046FFF7ECFE054694F9100088
:104BF000012180B205F0E1FF94F913300133D1D1E6
:104C0000FFF7CEFECEE700BF7CDF0B0020A1070040
:104C100008B5F321FFF7A8FF00F0010008BD000070
:104C200030B590F91030013385B004460D461FD1E0
:104C30000179006803F080FA2068036829469B68C0
:104C40009847206803F098FA21792068022203F03F
:104C500070FA206803685B69984705462068036816
:104C60005B69984740EA052085B2284605B030BD0B
:104C700090F9133001330CD1184B009300238DF8B9
:104C80000430174B029368460123ADF80C30FFF750
:104C90008EFE94F91000002180B205F08EFF45F0E1
:104CA00080012046FFF78DFE00212046FFF789FE98
:104CB000002105462046FFF784FE40EA052085B224
:104CC00094F91000012180B205F077FF94F91330B8
:104CD0000133CAD1FFF764FEC7E700BF7CDF0B00DA
:104CE00020A1070008B5FFF79BFF40BA80B208BDBE
:104CF00038B588210446FFF7F5FF8A21A0822046B7
:104D0000FFF7F0FF8C21E0822046FFF7EBFF8E21BA
:104D100020832046FFF7E6FF902160832046FFF7BF
:104D2000E1FF9221A0832046FFF7DCFF9421E0837E
:104D30002046FFF7D7FF962120842046FFF7D2FFB9
:104D4000982160842046FFF7CDFF9A21A084204659
:104D5000FFF7C8FF9C21E0842046FFF7C3FF9E2198
:104D600020852046FFF7BEFFA12160852046FFF782
:104D7000FBFEE12184F82C002046FFF7B3FFE3217E
:104D8000E0852046FFF7F0FEE42184F8300020465D
:104D9000FFF7EAFEE52105462046FFF7E5FE00F0B5
:104DA0000F0343EA05106086E6212046FFF7DCFE8C
:104DB000E52105462046FFF7D7FEC0F3071343EA77
:104DC0000510A086E7212046FFF7CEFE84F83600C6
:104DD00038BD000030B590F91030013385B004467D
:104DE0000D4623D10179006803F0A6F92068036815
:104DF00029469B689847206803F0BEF9217920680E
:104E0000032203F096F9206803685B69984705025E
:104E1000206803685B699847284305022068036897
:104E20005B6998470543284605B030BD90F91330BB
:104E300001330CD11A4B009300238DF80430194B29
:104E4000029368460123ADF80C30FFF7B0FD94F9EA
:104E50001000002180B205F0B0FE45F08001204630
:104E6000FFF7AFFD00212046FFF7ABFD0021050253
:104E70002046FFF7A6FD2843050200212046FFF744
:104E8000A0FD054394F91000012180B205F095FEC4
:104E900094F913300133C6D1FFF782FDC3E700BF99
:104EA0007CDF0B0020A1070010B5FA210446FFF7B4
:104EB00091FFB0F5000F1FD0A18A9FED117A4B0032
:104EC000C1EB2022C3EBE011B4F91630594302FBC9
:104ED00002F3B4F918201B1353439B1303EBE12394
:104EE000E36003EB830380331B1207EE903AF8EE86
:104EF000E77A87EE870A10BD9FED020AFBE700BF45
:104F00000000C8420000C07F38B50446FFF7CCFF60
:104F1000FD212046FFF784FEB0F5004F38D0E16850
:104F2000B4F93420A1F59635B4F932100905C1EB76
:104F3000803305FB123303F58043DA1394F83030E5
:104F400094F936106B43DB126943891203F5004371
:104F50004B439B12B4F92E1003F500134B4303F59A
:104F600000539B135343DA1394F82C105243D2117D
:104F70004A43A3EB221323EAE373B3F1C85FA8BF4C
:104F80004FF0C8531B1300EE103ABAEECB0A38BDEF
:104F90009FED010AFBE700BF0000C07F30B504466B
:104FA00090F91000421C85B019D1206803F092F8E6
:104FB000D0212046FFF7D8FD6028A06045D12046CB
:104FC000B622E021FFF734FD4FF4967002F070FB3B
:104FD0002046FFF71DFE054628B36420F6E70121B1
:104FE00080B205F0EAFD94F91000012180B205F0CD
:104FF000D3FD94F91300431C04D1FFF7B5FC04F072
:10500000EBFCD5E7012180B205F0C6FD94F9110053
:10501000012180B205F0C0FD94F91200002180B298
:1050200005F0BAFDC4E72046FFF762FE05230093B2
:105030001A4603212046CDE90155FFF74BFD6420B8
:1050400002F036FB012005B030BD0020FBE77723DE
:1050500010B50371044605F00BFE20602046FFF7F3
:105060009DFF30B9762323712046BDE81040FFF73D
:1050700095BF10BD00220221C0E93022028082804B
:10508000826002730282426102768283026280F849
:1050900024200285C26280F830200287C263A0F813
:1050A0004820C264A0F858200266A0F86820026771
:1050B000A0F87820C0F88020A0F88820C0F89020C0
:1050C000A0F89820C0F8A02080F8B910A0F8BA2065
:1050D00080F8BC20C0E93222C0E93422A0F8A82020
:1050E00080F8AA207047A1F14103052B02D8A1F155
:1050F00037007047A1F16103052B94BFA1F1570060
:10510000A1F13000704738B5057804462D2D08BF51
:105110000134204606F033FD64235843224614F838
:10512000013BA3F130010929F8D92E2B0BD153787B
:10513000303B092B07D80A2101FB03009378303B51
:10514000092B98BFC0182D2D08BF404238BD000064
:1051500038B504460D4606F012FD6423B0FBF3F2A9
:1051600003FB120311482A80434320460278A2F130
:105170003004092C014600F10100F7D92E2A0BD189
:105180000A480A2411F8012F303A092A04D8B0FB42
:10519000F4F000FB0233F5E703EB83030133032252
:1051A000B3FBF2F36B6000232B7238BD809698003E
:1051B00010B5C3694360036A836090F824300373B9
:1051C000836A0361C36A436190F830300376044612
:1051D00001F040FF40F201136063238010BD000026
:1051E000D0B5002304464370806806F0DFF80CA3B6
:1051F000D3E9002306F07EFA0646A0880F4606F0A3
:10520000E5F80B4602463946304605F093FF237B0E
:1052100013B101F10043194641EC100BD0BD00BFA2
:105220000000000065CDCD41D0B500230446437099
:10523000406906F0BBF80CA3D3E9002306F05AFA44
:105240000646208A0F4606F0C1F80B46024639464C
:10525000304605F06FFF237E13B101F1004319467C
:1052600041EC100BD0BD00BF0000000065CDCD416A
:1052700010B583684360044601F0ECFE40F2011370
:10528000E060238010BD10B583684360044601F0E0
:10529000E1FE40F20113E060238010BD10B504462A
:1052A0000846FFF730FFA06010BD10B50446084661
:1052B00006F065FCA06010BD10B5C36883600446AD
:1052C00001F0C8FE40F201136060238010BD10B5EC
:1052D00004460846FFF717FFE06010BD10B5C3682D
:1052E0008360044601F0B6FE40F201136060238043
:1052F00010BD10B50446084606F041FCE06010BD44
:1053000010B501460446103006F0C5FC01F0A2FEBF
:1053100040F201132062A38410BD102206F0FDBCF0
:10532000F8B590F8A9500446002D64D090F8AA1062
:10533000FFF7D9FE94F8AB1002462046FFF7D3FEE4
:1053400094F8A83000EB0210C0B283424BD1D4F8DD
:10535000D4300133C4F8D43094F8BC3023B1D4F83D
:10536000CC300133C4F8CC3094F8B93033B3012BCE
:1053700015D104F13800FFF77BFF04F14800FFF777
:1053800082FF94F8BC3053B12046FFF711FF04F1BF
:105390005800FFF791FF04F16800FFF78DFFD4F884
:1053A000C46036B3D4F8C430B06A996A06F069FCB8
:1053B000F8B93046FFF7A4FF366BF2E704F1480076
:1053C000FFF761FF94F8BC3033B12046FFF7F0FEE1
:1053D00004F17800FFF770FF04F18800FFF77EFF0B
:1053E00004F19800D9E7D4F8D0300133C4F8D030B4
:1053F00000252846F8BD90F8BA206ABB00F1AA063D
:105400005A49304606F03DFC20B15949304606F075
:1054100038FC98B9012384F8B930D4F8C030C4F806
:10542000C430D4F8C470002FE3D0B86A314606F017
:1054300028FC002880F294803B6BF0E74D49304611
:1054400006F01FFC20B14C49304606F01AFC08B9A2
:105450000023E0E70223DEE790F8B910022923D009
:1054600090F8AA3003B342EA4112013A282A1BD825
:10547000DFE802F0153B42494C63686E721A1A1A53
:105480001A1A1A1A1A1A1A1A1A1A1A1A1A1A1A1A7C
:105490001A1A1A1A15343B42494C53595D0000F14F
:1054A000AA014830FFF7FAFED4F8C46004F1AA0755
:1054B000002E9ED0D4F8C430B06A996A06F0E1FBA1
:1054C000002896D1F26A94F8BA309A4291DC03D15E
:1054D00039463046FFF721FF366BE9E7A3F141007B
:1054E0004342434184F8BC30DEE700F11C0104F183
:1054F000AA00FFF72DFED7E7A3F153014B424B4122
:1055000080F82430D0E700F12801F0E7A3F157023A
:105510005342534180F83030C6E700F1AA015830B9
:10552000FFF7D5FEC0E700F1AA016830F8E700F107
:10553000AA013830FFF7B9FEB6E7302B94BF00233D
:105540000123CFE700F1AA018830FFF7D2FEABE7D5
:1055500000F1AA019830E3E700F1AA017830DFE713
:105560003FF447AF0023C4F8C43042E788DF0B00A4
:105570008EDF0B0094DF0B009ADF0B0038B5D0F8FC
:10558000C830242903F1010304460D46C0F8C83091
:105590003AD090F8BB3014D80A291CD00D291AD063
:1055A0000D2B9FBF5A1C1B1984F8BB2083F8AA50EF
:1055B00094F8A90098BB94F8A8104D4084F8A8501E
:1055C00021E02A2907D02C29EAD190F8A82082F0DE
:1055D0002C0280F8A8200E2B4FF0000005D82344A1
:1055E00083F8AA002046FFF79BFE94F8BA300133F7
:1055F00084F8BA30002384F8BB30A5F12A035D4259
:105600005D4184F8A95038BD00200223A4F8A80009
:1056100084F8B930A4F8BA0084F8BC00F3E700209D
:10562000F1E7000013B51C20FEF735FD044648B134
:10563000064B07491B6800930968064B42F2343257
:1056400001F070F8204602B010BD00BF44E5032011
:1056500040E50320A0DF0B0013B52020FEF71BFD63
:10566000044640B1054B06491B6800930968054B89
:10567000502200F041FA204602B010BD44E503205C
:1056800040E50320A0DF0B0013B51C20FEF703FD4F
:10569000044648B1064B07491B6800930968064B4E
:1056A00042F2343201F04EFB204602B010BD00BF82
:1056B00044E5032040E50320A0DF0B0013B51420D0
:1056C000FEF7E9FC044640B1054B06491B68009310
:1056D000002309681A4600F02BFD204602B010BDD9
:1056E00044E5032040E50320012A02D101600020A7
:1056F0007047022A04BF0B680360F8E70368184785
:1057000010B58368044613B103220146984720462A
:1057100010BD000010B586B000220346049221B1EE
:105720000F4A05920F4A0291049202AA92E80300DE
:105730006C4684E8030093E8030082E8030094E8E1
:10574000030083E803000499986804909960D8687E
:105750000599D96005901046FFF7D2FF06B010BD3D
:10576000FD560B00E9560B0038B584690A4B0360FF
:1057700005467CB16368013B63605BB923682046E2
:105780009B689847A368013BA3601BB92368204628
:10579000DB689847284638BD34E70B0010B504464F
:1057A000FFF7E2FF20461C21FEF779FC204610BDE2
:1057B0002DE9F04100F10801C2680B464AB1177C9F
:1057C0000678D2E90245B7422ABF13462A46224646
:1057D000F4E7994204D000781A7C904238BF0B4617
:1057E000DA690AB905F083FBBDE8F0411A6A03F1F2
:1057F00014001047F8B58B68164604460D1D0122AB
:1058000063B11D7C3278D3E90270954288BF0122D2
:105810001D4696BF00223B460346F1E792B1CA6897
:10582000AA4203D1C4E900352046F8BD284605F058
:1058300001FB3378027C9A424FF00003F2D3C4E9B3
:105840000003F1E72846F4E72DE9FF4700F10409DA
:10585000856806460F464C464DB1287C3978D5E917
:10586000023288422ABF2C4615461D46F4E7A14560
:1058700003D03A78237C9A422FD22420FEF70BFCE7
:1058800097F800A080F810A00023A1458046C361CE
:1058900000F1100226D173691BB137693B7C534577
:1058A00009D3314602A8FFF7A5FFDDE90247002F23
:1058B00052D0002C4ED1B9454CD098F810003B7C0A
:1058C00098422CBF002001204B463A46414605F045
:1058D000B3FA736901337361444604F1140004B0F0
:1058E000BDE8F087237C0192534518D9F3689C42A8
:1058F00009D0204605F09EFA037C019A534505D253
:10590000C36853B9044627461C46D0E7314602A86F
:10591000FFF770FFDDE90234F5E72346F3E71BD21A
:105920003769BC420BD0204605F082FA037C019A0D
:105930005345054605D9E36853B927461D462C460D
:10594000B5E7314602A8FFF755FFDDE90257F6E754
:105950000746F4E70120B7E708F11400FFF7D0FE8F
:1059600040462421FEF79BFBA046B5E72DE9F34115
:10597000051D0026174600F10802C0E90362C0E9D0
:10598000052604468846067203700DF107010123BF
:1059900028468DF80730FFF757FF1649FFF7BAFE84
:1059A0000DF1070128468DF80760FFF74DFF1249FA
:1059B000FFF7B0FE02230DF1070128468DF80730EE
:1059C000FFF742FF0D49FFF7A5FE03230DF1070185
:1059D00028468DF80730FFF737FF0949FFF79AFE91
:1059E000084BC3F80080084B20461F6002B0BDE89A
:1059F000F08100BF25560B0059560B0089560B004D
:105A0000BD560B0040E5032044E5032008B50548DA
:105A100004F0E2FB044804F0DFFBBDE80840034863
:105A200004F042BE24E50320BCE40320D8E40320B4
:105A3000017570470022011DC0E90221C0E904126E
:105A40000271704770B506462DED028B142001F0EF
:105A5000D7FD0546142001F0D3FD0446304606F07C
:105A600040F9324600230238984214DD12F8011B37
:105A70000D293AD111780A2937D151780D2934D11D
:105A800091780A2931D10433F1181422284606F0FE
:105A900044F900232B750A21284606F0DBF8064658
:105AA00028B30A21013006F0D5F800B3314620466C
:105AB00006F0F1F8204606F014F92044002300F81F
:105AC000013C204606F058F851EC100B05F0E0FFC1
:105AD00008EE100A204601F09BFD284601F098FDD3
:105AE000B0EE480ABDEC028B70BD0133BCE79FED00
:105AF000018AF5E75F42A2CD30B5074D056000256C
:105B0000C0E901130575039B41F2883585610525C0
:105B1000C0E90332057730BDBCE10B002DE9F74F3A
:105B2000DFF88C80DFF88CA0DFF88CB004460D46DF
:105B30001746002640465FFA86F904F0C5F988BB8F
:105B4000237F4B452ED9237DCBB104F00DFF514669
:105B500003F0E8FD04F008FF294603F0E3FD04F03C
:105B600003FF594603F0DEFD04F0FEFE0A2249461B
:105B7000019003F0F4FD019B184603F0DAFD0023C9
:105B8000BAB22946404604F021F9237D23B104F03E
:105B9000EBFE064903F0D9FD4FF47A7001F088FD61
:105BA0000136C7E703B0BDE8F08F00BFDEDF0B00B2
:105BB00048E50320B4DF0B00CADF0B00F8B505464B
:105BC0000C4640F2BD220021204606F00DF82B7D48
:105BD0004BB104F0C9FE144903F0B7FD04F0C4FE54
:105BE000124903F0B2FD124E04F2BB27304604F016
:105BF00049FA70B1304604F053F820702B7D2BB178
:105C000004F0B2FE036821789B6898470134A742EC
:105C1000ECD12B7D33B104F0A7FEBDE8F840054977
:105C200003F093BDF8BD00BF03E00B00EFDF0B00F6
:105C300048E5032002E00B00F8B50E4F04460026AD
:105C4000384604F01FFA054690B9A369B3420FDD48
:105C5000012001F02DFDA3690136B342F0DC207D67
:105C600028B104F081FE044903F06FFD2846F8BD19
:105C70000120FCE748E503200EE00B00F8B50F46D5
:105C80000269416804461D46FFF748FF784804F062
:105C90001BF90646002800F0E1807649744803F0BD
:105CA00041FD3946724803F03DFD7349704803F0E9
:105CB00039FD72496E4803F035FD61686C4803F0A8
:105CC00031FD6F496A4803F02DFD6E49684803F0C5
:105CD00029FDA168664803F025FD6949644803F081
:105CE00021FD6949624803F01DFDE168604803F049
:105CF00019FD63495E4803F015FD64495C4803F0F3
:105D000011FD63495A4803F00DFD284605F0E9FFEF
:105D100060490646564803F005FD0A2231465448BC
:105D200003F01DFD5C49524803F0FCFC2946504835
:105D300003F0F8FC52494E4803F0F4FC4C4803F0E1
:105D4000C9FF237D002B69D004F00EFE534903F0F8
:105D5000FCFC04F009FE474903F0E4FC04F004FEF7
:105D6000394603F0DFFC04F0FFFD434903F0DAFCA1
:105D700004F0FAFD414903F0D5FC04F0F5FD61683B
:105D800003F0D0FC04F0F0FD3D4903F0CBFC04F03F
:105D9000EBFD3C4903F0C6FC04F0E6FDA16803F00E
:105DA000C1FC04F0E1FD364903F0BCFC04F0DCFD6D
:105DB000354903F0B7FC04F0D7FDE16803F0B2FC0D
:105DC00004F0D2FD2E4903F0ADFC04F0CDFD2F49C7
:105DD00003F0A8FC04F0C8FD2D4903F0A3FC04F077
:105DE000C3FD2C4903F09EFC04F0BEFD0A2231469F
:105DF00003F0B5FC04F0B8FD274903F093FC04F070
:105E0000B3FD294603F08EFC04F0AEFD1C4903F0FF
:105E100089FC04F0A9FD224903F097FC2046FFF716
:105E20000BFF237D2BB90124114804F085F920468E
:105E3000F8BD04F099FD1B490D4D03F086FC284682
:105E400004F020F90028EED0284603F029FF04468C
:105E500004F08AFDE1B203F069FCF0E7247D002C38
:105E6000E2D004F081FD104903F06FFC3446DBE71B
:105E700048E5032041E00B0059E00B0065E00B0012
:105E800089E10B006CE00B0079E00B0088E00B006F
:105E90009CE00B00BDE00B0087E10B00CEE00B00A7
:105EA000EAE00B0008E10B0024E10B0070B52DEDDA
:105EB000028B044600230E46154641686648502270
:105EC00003F084FF204661685022FFF727FE6248F6
:105ED00003F0FAFF002800F0B68060495E4803F046
:105EE00021FC31465C4803F01DFC5D495A4803F033
:105EF00019FC2946584803F015FC5A49564803F046
:105F000011FC5949544803F00DFC5849524803F01C
:105F100009FC6168504803F005FC55494E4803F000
:105F200001FC54494C4803F0FDFBA1684A4803F0CA
:105F3000F9FB4F49484803F0F5FB4F49464803F049
:105F4000F1FBE168444803F0EDFB4949424803F0A6
:105F5000E9FB4A49404803F0E5FB237D002B4FD085
:105F600004F002FD3D4903F0DDFB04F0FDFC314689
:105F700003F0D8FB04F0F8FC394903F0D3FB04F03C
:105F8000F3FC294603F0CEFB04F0EEFC354903F0A8
:105F9000C9FB04F0E9FC344903F0C4FB04F0E4FC61
:105FA000324903F0BFFB04F0DFFC616803F0BAFB89
:105FB00004F0DAFC2E4903F0B5FB04F0D5FC2D49C2
:105FC00003F0B0FB04F0D0FCA16803F0ABFB04F0DD
:105FD000CBFC274903F0A6FB04F0C6FC264903F0DE
:105FE000A1FB04F0C1FCE16803F09CFB04F0BCFCE5
:105FF0001F4903F097FB04F0B7FC204903F092FB24
:106000002046FFF719FE48B913489FED1D8A04F09A
:1060100093F8B0EE480ABDEC028B70BD4FF42F70C0
:1060200001F0EEFA014605462046FFF7C7FD284677
:10603000FFF708FD0848B0EE408A04F07DF82846D6
:1060400001F0E6FAE5E7237D002BDDD004F08CFCBF
:106050000C4903F07AFBD7E748E503204EE10B003B
:1060600063E10B0065E10B0059E00B0065E00B00FC
:1060700089E10B006CE00B0079E00B0069E10B009B
:106080005F42A2CD8CE10B00014804F0A5B800BF2F
:1060900048E503209FED010A704700BF5F42A2CD93
:1060A000017470470022011DC0E90221C0E90412F9
:1060B0000271704730B585B01A46089B1B788DF881
:1060C000003002A83C2301F09BFD0020029C01F05F
:1060D000E3F920B1637813B901F00AFAFAE76378BB
:1060E000BFF35B8F651CABB90025039C7CB1636873
:1060F000013B63605BB9236820469B689847A368AF
:10610000013BA3601BB923682046DB6898472846FB
:1061100005B030BD002001F0BFF920B12B7813B9D4
:1061200001F0E6F9FAE72378012BDDD1257BDCE7E6
:1061300010B5044C0460C0E901130024029B0474F0
:10614000C36010BDD4E10B0038B5044684B1E068EB
:10615000FFF7FAFFE369A56823B104F114010322F4
:106160000846984720462421FDF799FF2C46EDE785
:1061700038BDF0B58DB0044601A80D4617461E4641
:1061800001F0C6F903980130FDF787FF01992060FF
:1061900005F081FD2A4639463346E67405A8FFF727
:1061A000E5FBC82001F02CFAE06005A8FFF700FB32
:1061B0000023C4E9010523740898FFF7C5FF01A86F
:1061C00003F0ACFC0DB0F0BD38B5002504460582E7
:1061D000FFF7CFFF204638BD38B504460120607474
:1061E00094F91000E56800EB800045F8201094F960
:1061F0001010E06801EB810100EB810181ED020AE2
:1062000094F91010E06801EB810100EB81014A6014
:1062100094F91020E16802EB820201EB8202D36064
:1062200094F91030E26803EB830302EB8303049AD2
:106230001A61237C01335BB20A2B237408DDA37C33
:1062400023B104F091FB034903F07FFA0A2323747E
:1062500038BD00BFE4E10B0010B510EE100A86B0A7
:106260000C4605F0C5F802460B4601A80A4901F0A4
:10627000DFF901A81422002310F8011B202906D001
:10628000E1540133DBB211B9E15406B010BD013A5B
:1062900012F0FF02F0D1F8E723E20B002DE9F04FF6
:1062A0000C4689B04D49DFF85881DFF85891DFF886
:1062B00058A10546204605F0EEFC002695F9103061
:1062C0009E4269DAEB6806EB860B03EB8B0393EDDA
:1062D000020A03A92846FFF7BFFFEB6803A9009154
:1062E00053F82B3022464146204601F0A1F9EB68D5
:1062F0004FEA8B073B44DB683BB3494622462046C6
:1063000001F096F9EB683B441969002937D00A205F
:10631000642291FBF0FC91FBF2F200FB1C119CFB50
:10632000F0F392FBF0FE00FB13C300FB1E22C9B288
:106330000091DBB22A49D2B202A801F079F92949C9
:1063400002AB2246204601F073F9EB683B445B68E0
:1063500023B125492246204601F06AF92246234905
:10636000204601F065F9013695F91030F6B29E42EB
:1063700022460ADA1E49204601F05AF99EE72246D3
:106380005146204601F054F9DFE71849204601F054
:106390004FF900232B7491E7AB7CDBB104F0E4FAF6
:1063A000144903F0D2F904F0DFFA134903F0CDF9F0
:1063B00004F0DAFA214603F0C8F904F0D5FA0D49E1
:1063C00003F0C3F904F0D0FA0C4909B0BDE8F04F6E
:1063D00003F0BBB909B0BDE8F08F00BF28E20B00A5
:1063E00050E20B0057E20B0062E20B0071E20B007F
:1063F00075E20B0003E00B0079E20B008BE10B0070
:106400002AE20B003DE20B005CE20B002DE9F04FAD
:106410000C46054689B05349DFF87881DFF878915A
:10642000204616461F4605F036FCAB684E4A4F49DB
:10643000204601F0FDF833464D490097224620469C
:1064400001F0F6F84B494A4F2246204601F0F0F899
:10645000002695F910309E4263DAEB6806EB860B56
:1064600003EB8B0393ED020A03A92846FFF7F4FE22
:10647000EB6803A9009153F82B3022463946204699
:1064800001F0D6F8EB684FEA8B0A53445B6823B1FE
:1064900022464146204601F0CBF8EB685344DB68C6
:1064A00033B349462246204601F0C2F8EB68534414
:1064B000196949B30A20642291FBF0FC91FBF2F2C6
:1064C00000FB1C119CFBF0F392FBF0FE00FB13C3DE
:1064D00000FB1E22C9B20091DBB22749D2B202A84A
:1064E00001F0A6F8254902AB2246204601F0A0F8AB
:1064F00095F910300136F6B29E4222460ADA20495A
:10650000204601F095F8A4E71E492246204601F0F6
:106510008FF8EDE71C49204601F08AF800232B7420
:1065200097E7AB7CDBB104F01FFA184903F00DF9D3
:1065300004F01AFA164903F008F904F015FA214696
:1065400003F003F904F010FA104903F0FEF804F028
:106550000BFA044909B0BDE8F04F03F0F6B809B0F2
:10656000BDE8F08F8BE10B00A0DF0B0082E20B0097
:106570008EE20B0096E20B0050E20B0057E20B009C
:1065800075E20B005CE20B00A8E20B0003E00B00DD
:1065900079E20B009BE20B00A1E20B002DE9F7432F
:1065A00004464FF42F701E460F46904601F028F81F
:1065B000E37C013B012B054626D8014643463A467B
:1065C0002046FFF723FFA37C23B104F0CDF9114946
:1065D00003F0BBF8606803680096D3F80090394672
:1065E0002B464246C8470746284601F011F81EB11F
:1065F00001213046FDF753FD002307B1637438468F
:10660000237403B0BDE8F08301462046FFF746FE41
:10661000D9E700BFAFE20B0070B5044601200D467C
:106620001646FDF738FD067003462A4629462046E1
:10663000BDE87040FFF7B2BF2DE9F04704461820CF
:1066400015460F46FDF727FD07F1040A6B68D5F8DC
:106650000090BA6843610646C0F810905546012381
:1066600052B11369D2E902014B451546CBBF012354
:10667000002302460A46F3E7ABB1FB68AB4224D0E5
:10668000284604F0D7FB8046D8F810304B451CDB79
:1066900018213046FDF703FDC4F800800023237164
:1066A0002046BDE8F087A846EEE728698145ACBFE3
:1066B0000020012053462A46314604F0BDFB7B6989
:1066C000266001337B610123E9E7AA45EDD1012072
:1066D000F0E7000008B5074B074800221A7003F0E6
:1066E0007BFD064803F078FDBDE80840044803F050
:1066F000DBBF00BFE8E50320CCE5032064E5032011
:1067000080E503200175704738B504464CB1E06858
:10671000FFF7FAFFA56820461821FDF7C0FC2C46BC
:10672000F4E738BD30B5064D0560C0E9011300251A
:10673000039B057541F28835C0E90332856130BDA0
:106740005CE30B002DE9F84F0D461746804604F038
:106750000BF91E491E4EDFF87CA0DFF87CB002F07A
:10676000F4FF0024304603F0FEFC60BB052C2AD069
:1067700098F81430C3B104F0F7F8514602F0D2FF94
:1067800004F0F2F8294602F0CDFF04F0EDF8594686
:1067900002F0C8FF04F0E8F80A228146214602F020
:1067A000DEFF484602F0C5FF304603F0C5FC00237B
:1067B000BAB22946304603F009FB4FF47A7000F074
:1067C00077FF0134CEE7BDE8F88F00BFBFE20B00D2
:1067D000ECE50320B4DF0B00CADF0B0070B5044604
:1067E0000E4681682E48154602F09CFF2D492C4824
:1067F00002F098FFE1682A4802F094FF2A492848ED
:1068000002F090FF3146264802F08CFF27492448C9
:1068100002F088FF2946224802F084FF24492048DC
:1068200002F080FF237D002B38D004F09DF8214931
:1068300002F08BFF04F098F81F4902F086FF04F085
:1068400093F8A16802F06EFF04F08EF8154902F08B
:1068500069FF04F089F8E16802F064FF04F084F84D
:10686000114902F05FFF04F07FF8314602F05AFF51
:1068700004F07AF80D4902F055FF04F075F8294646
:1068800002F050FF04F070F8094902F04BFF04F0E9
:106890006BF8BDE87040094902F057BF70BD00BFFA
:1068A000ECE50320D7E20B00DAE20B0080E20B00FC
:1068B000AAE20B00F2E20B00DCE20B00F1E20B00BB
:1068C000F8B50E4F04460026384603F0DBFB0546BC
:1068D00090B9A369B3420FDD012000F0E9FEA3697E
:1068E0000136B342F0DC207D28B104F03DF80449C4
:1068F00002F02BFF2846F8BD0120FCE7ECE5032061
:106900000EE00B002DE9F047037D0646884614464D
:106910004BB104F029F8274902F017FF04F024F8DE
:10692000254902F012FFDFF8A490002540F2BB2AAF
:10693000484603F0A7FB78B1484603F0B1F9337D30
:10694000C7B22BB104F010F8036839469B6898472A
:10695000675501355545EBD1337D23B104F004F87B
:10696000164902F0F2FE002363551549404605F032
:1069700088F968B91349204605F0F6F99FED120A27
:106980000028F7EE007A18BFB0EE670ABDE8F0877E
:106990007C21204605F05EF948B1013005F0ECF8A5
:1069A00051EC100B05F074F800EE100AEEE79FEDC5
:1069B000060AEBE703E00B00EFDF0B0002E00B0041
:1069C000F7E20B00FCE20B005F42A2CDECE50320F6
:1069D00070B52DED028B04464168224842F23432F4
:1069E0001D46002303F0F2F92046616842F234327A
:1069F000FFF7A8FE1B4803F067FA80B12946194843
:106A000002F090FE2046FFF75BFF054680B915486F
:106A100003F092FB0025BDEC028B284670BD237D60
:106A2000002BF4D003F0A0FF0F4902F08EFEEEE73A
:106A3000642000F0E5FD0D49024606462046FFF7BA
:106A400061FF3046B0EE408A00F0E2FDDFED087AEB
:106A5000B4EE678AF1EE10FAD9D0024803F06CFB6D
:106A6000D9E700BFECE50320FFE20B00F7E20B00E3
:106A70005F42A2CD70B52DED028B044600230D467A
:106A8000164641681E4842F2343203F09FF9204610
:106A9000616842F23432FFF755FE194803F014FAE8
:106AA00028B3204632462946FFF798FE2046FFF7D6
:106AB00007FF48B912489FED138A03F03DFBB0EE83
:106AC000480ABDEC028B70BD4FF42F7000F098FDAA
:106AD0000D49024605462046FFF714FF0848B0EE70
:106AE000408A03F029FB284600F092FDE7E7237D6A
:106AF000002BDFD003F038FF044902F026FED9E76F
:106B0000ECE503205F42A2CD1DE30B0020E30B0068
:106B10002DE9FF470D4604464FF42F7000F070FD3D
:106B20002B7D07464BB103F01FFF3A4902F00DFEE3
:106B300003F01AFF384902F008FEDFF8F090002653
:106B400040F2BB2A484603F09DFA88B1484603F05C
:106B5000A7F82B7D5FFA80F82BB103F005FF0368DF
:106B600041469B68984707F8068001365645E9D1AB
:106B70002B7D23B103F0F8FE284902F0E6FD002545
:106B8000231DC4E90253C4E904352549257138465B
:106B9000BD5505F02FFFDFF89890DFF898A0DFF8DB
:106BA000808006467EB34946304605F06AF800BB51
:106BB000414605F01FFF1B49064605F062F818B96B
:106BC000194B0095019308E0304604F0D5FF51ECD5
:106BD000100B009504F05CFF01906A46214602A864
:106BE000FFF72AFD4146002005F004FF0135064667
:106BF000D8E75146304605F044F80028F2D1414626
:106C000005F0F8FEDCE7384600F002FD204604B04F
:106C1000BDE8F08703E00B00EFDF0B0002E00B00A4
:106C2000DAE20B0046E30B005F42A2CDECE5032065
:106C3000FCE20B004BE30B002DE9F041071D9846E9
:106C40000023C0E90237C0E9047303710D4688B020
:106C50004968044616462D4842F2343203F0B6F82D
:106C60002846696842F23432FFF76CFD274803F08A
:106C70002BF910B3314642462846FFF7AFFD2846B0
:106C8000FFF71EFE0646C0B92048214F03F054FA14
:106C90002049404605F0AEFE35461E4E002830D055
:106CA000214602A86A4600950197FFF7C5FC3146C8
:106CB0000020013505F09EFEF0E7294602A8FFF707
:106CC00027FFA068FFF720FD049A0023C4E90237DC
:106CD000C4E904737AB19DF80C1021710599E16043
:106CE0000699A26021615760079A626103AACDE903
:106CF0000522049307930498FFF706FD034803F069
:106D00001BFA204608B0BDE8F08100BFECE5032087
:106D10005F42A2CD77E20B00014803F05DBA00BFED
:106D2000ECE503209FED010A704700BF5F42A2CD52
:106D3000017570470022011DC0E90221C0E904125B
:106D40000271704730B5064D0560C0E9011300259A
:106D5000039B057541F28835C0E90332856130BD7A
:106D600020E40B00014803F09FBC00BF08E60320AD
:106D700010B504464A68024902F036FC204610BDB0
:106D800058E60320F0B58FB00146064602A81F461C
:106D9000FFF7EEFF02A801F05FFAA0B9337D23B13F
:106DA00003F0E2FD274902F0D0FCF32300933722E1
:106DB0003D23A92108A809AD01F072FA0FCD03AC5B
:106DC0000FC42B682370002240F2BD211E4803F03F
:106DD0009DFC002242F234311B4803F085FA03ADDA
:106DE0001A4B08930FCD09AC0FC42B6816482370BB
:106DF00042F2343208A903F0A5FC58B9337D23B11F
:106E000003F0B2FD124902F0A0FC0F4803F0B8FAFB
:106E1000002014E0002FF1D0384604F062FF39461C
:106E20000246094803F0BAFA0028E7D0064803F002
:106E300001FA0028E2D0044803F0A2FA01200FB0C2
:106E4000F0BD00BF6CE30B0008E60320B0E50B00CB
:106E5000F8E30B0073B5037204465020CDE900211E
:106E60001E4600F0CDFB60601420FDF714F90546C6
:106E700020B1DDE900213346FFF7A6F9256002B015
:106E800070BD000038B50025044613464572857272
:106E9000024AFFF7DFFF204638BD00BF30E40B0099
:106EA0000068FFF799B907B5002300931A46FFF76A
:106EB000F7FF03B05DF804FB07B500230093FFF76D
:106EC000EFFF03B05DF804FB0068FFF7A5BB00000F
:106ED00010B5044690F90900636843F8301094F93E
:106EE0000910636803EBC1035A60637A01335BB234
:106EF000092B637206DD03F037FD034902F025FC20
:106F00000A23637210BD00BF4BE40B00531E012B1C
:106F10002DE9F74305460C4627D82B49DFF8AC800E
:106F2000DFF8AC90204604F0B6FE0026374695F90F
:106F300009309E4244DA6B6803EBC6024146526850
:106F4000009253F836302246204600F071FB01369D
:106F500095F90930F6B29E4205DA224649462046A6
:106F600000F066FBE3E76F72E1E7032A00D03ABB6B
:106F70001549DFF86080DFF86090204604F08BFE52
:106F80000026374695F909309E4219DA6B6803EB03
:106F9000C60241465268009253F8363022462046D7
:106FA00000F046FB013695F90930F6B29E4205DA4B
:106FB00022464946204600F03BFBE3E76F72E1E7DB
:106FC00003B0BDE8F08300BF8BE10B0090E40B0041
:106FD00098E40B009CE40B0075E20B00027AFFF7CB
:106FE00095BF000008B5024B1B685B6C019308BDA0
:106FF0007402030008B5024B1B685B6C019308BD6B
:107000004802030008B5024B1B689B6C019308BD46
:107010004802030008B5024B1B68DB6C019308BDF6
:107020004802030008B5024B1B685B6D019308BD65
:107030004802030008B5024B1B685B68019308BD5A
:107040001802030008B5024B1B68DB68019308BDFA
:107050001802030008B5024B1B685B69019308BD69
:107060001802030008B5024B1B689B68019308BD1A
:107070002C02030008B5024B1B68DB68019308BDB6
:107080002C02030008B5024B1B681B69019308BD65
:107090002C02030008B5024B1B685B69019308BD15
:1070A0002C02030008B5024B1B68DB68019308BD86
:1070B0002802030008B5024B1B689B69019308BDB9
:1070C0002802030008B5024B1B68DB69019308BD69
:1070D0002802030008B5024B1B681B6A019308BD18
:1070E0002802030008B5024B1B685B6A019308BDC8
:1070F0002802030008B5024B1B689B6A019308BD78
:107100002802030008B5024B1B68DB6A019308BD27
:107110002802030008B5024B1B681B6B019308BDD6
:107120002802030008B5024B1B685B6B019308BD86
:107130002802030008B5024B1B681B6C019308BDB5
:107140002802030008B5024B1B689B6C019308BD25
:107150002802030008B5024B1B68DB6C019308BDD5
:107160002802030008B5024B1B681B6D019308BD84
:107170002802030008B5024B1B685B69019308BD38
:107180006C02030008B5024B1B685B69019308BDE4
:107190006402030008B5024B1B681B6A019308BD1B
:1071A0006402030008B5024B1B685B6A019308BDCB
:1071B0006402030008B5024B1B689B6A019308BD7B
:1071C0006402030008B5024B1B689B68019308BD6D
:1071D0006802030008B5024B1B68DB68019308BD19
:1071E0006802030008B5024B1B685B68019308BD89
:1071F0003802030008B5024B1B689B69019308BD68
:107200003802030008B5024B1B68DB69019308BD17
:107210003802030008B5024B1B681B6A019308BDC6
:107220003802030008B5024B1B689B6A019308BD36
:107230003802030008B5024B1B68DB6A019308BDE6
:107240003802030008B5024B1B681B6B019308BD95
:107250003802030008B5024B1B685B6B019308BD45
:107260003802030008B5024B1B689B6B019308BDF5
:107270003802030008B5024B1B681B68019308BD68
:107280003002030008B5024B1B685B69019308BD1F
:107290003002030008B5024B1B68DB69019308BD8F
:1072A0003002030008B5024B1B681B6A019308BD3E
:1072B0003002030008B5024B1B685B6A019308BDEE
:1072C0003002030008B5024B1B68DB6B019308BD5D
:1072D0003002030008B5024B1B681B6C019308BD0C
:1072E0003002030008B5024B1B685B6C019308BDBC
:1072F0003002030008B5024B1B689B68019308BD70
:107300003C02030008B5024B1B68DB68019308BD13
:107310003C02030008B5024B1B681B69019308BDC2
:107320003C02030008B5024B1B685B69019308BD72
:107330003C02030008B5024B1B689B69019308BD22
:107340003C02030008B5024B1B68DB69019308BDD2
:107350003C02030008B5024B1B681B6A019308BD81
:107360003C02030008B5024B1B689B6A019308BDF1
:107370003C02030008B5024B1B68DB6A019308BDA1
:107380003C02030008B5024B1B681B6C019308BD4F
:107390003C02030008B5024B1B681B68019308BD43
:1073A0004C02030008B5024B1B685B68019308BDE3
:1073B0004C02030008B5024B1B689B68019308BD93
:1073C0004C02030008B5024B1B681B69019308BD02
:1073D0004C02030008B5024B1B685B69019308BDB2
:1073E0004C02030008B5024B1B689B69019308BD62
:1073F0004C02030008B5024B1B68DB69019308BD12
:107400004C02030008B5024B1B681B6A019308BDC0
:107410004C02030008B5024B1B685B6B019308BD6F
:107420006002030008B5024B1B681B6D019308BD89
:107430006002030008B5024B1B68DB6E019308BDB8
:107440006002030008B5024B1B681B6F019308BD67
:107450006002030008B5034B1B68D3F89830019312
:1074600008BD00006002030008B5024B1B685B68A2
:10747000019308BD2002030008B5024B1B685B693D
:10748000019308BD2002030008B5024B1B68DB6AAC
:10749000019308BD2002030008B5024B1B68DB6C9A
:1074A000019308BD2002030008B5024B1B685B6D09
:1074B000019308BD2002030008B5034B1B68D3F8F5
:1074C0008830019308BD00002002030008B5034B7B
:1074D0001B68D3F89430019308BD0000200203001C
:1074E00008B5024B1B681B68019308BD44020300EA
:1074F00008B5024B1B689B68019308BD440203005A
:1075000008B5024B1B685B69019308BD4402030088
:1075100008B5024B1B68DB69019308BD44020300F8
:1075200008B5024B1B681B6A019308BD44020300A7
:1075300008B5024B1B68DB6B019308BD44020300D6
:1075400008B5024B1B685B68019308BD400203004D
:1075500008B5024B1B689B68019308BD40020300FD
:1075600008B5024B1B68DB68019308BD40020300AD
:1075700008B5024B1B681B69019308BD400203005C
:1075800008B5024B1B685B69019308BD400203000C
:1075900008B5024B1B689B69019308BD40020300BC
:1075A00008B5024B1B68DB69019308BD400203006C
:1075B00008B5024B1B681B6A019308BD400203001B
:1075C00008B5024B1B681B6B019308BD400203000A
:1075D00008B5024B1B685B6B019308BD40020300BA
:1075E00008B5024B1B681B6C019308BD40020300E9
:1075F00008B5024B1B685B6C019308BD4002030099
:1076000008B5024B1B681B68019308BD1C020300F0
:1076100008B5024B1B685B68019308BD1C020300A0
:1076200008B5024B1B689B68019308BD1C02030050
:1076300008B5024B1B68DB68019308BD1C02030000
:1076400008B5024B1B68DB69019308BD1C020300EF
:1076500008B5024B1B685B6A019308BD1C0203005E
:1076600008B5024B1B68DB6A019308BD1C020300CE
:1076700008B5024B1B681B6B019308BD1C0203007D
:1076800008B5024B1B68DB6B019308BD1C020300AD
:1076900008B5024B1B681B6C019308BD1C0203005C
:1076A00008B5024B1B685B6C019308BD1C0203000C
:1076B0000021FFF7E1BE10B5836804460BB903F063
:1076C00016FCC3689847A3681BB1032221462046D5
:1076D000984720461021BDE81040FCF7E0BC10B5EB
:1076E0004368013B0446436063B903689B6898475D
:1076F000A368013BA3602BB923682046DB68BDE883
:107700001040184710BD70B5D0E90053044605EB92
:107710000316AE4204D0284602F000FA1035F8E70E
:107720002068FFF775FF204670BD10B5044600685D
:1077300008B1FFF7D4FF204610BD13B50B46024633
:10774000D0E900016C4684E8030093E8030082E876
:10775000030094E8030083E8030002B010BD0000BA
:10776000024800230360FFF745BC00BF54E6032036
:10777000002240681146FFF7FBBE00224068114618
:10778000FFF716BF002240681146FFF721BF40688F
:107790000022FFF715BF4068002281F00101FFF7CA
:1077A000FFBE002340681A461946FFF7F1BE0023CA
:1077B00040681A461946FFF7E3BE002240681146AA
:1077C000FFF7C6BE406800220221FFF7C9BE0023B2
:1077D00040681A46FFF7B4BE70B5134B0360182516
:1077E000303386B00E4643602A46002104460830F6
:1077F00004F0FAF9002270681146FFF7B9FE78B17B
:1078000000212A46684604F0EFF969460020ADF8E9
:107810000050FFF7E7FB18B96946204600F0B8F8BA
:10782000204606B070BD00BFF4E40B00084B10B555
:10783000282422461846002104F0D6F9054B04807E
:107840004FF0FF32426004225A60034A1A6010BDB2
:1078500060E6032058E60320B8E40B007047007B85
:107860007047037B4BB10369B3F1004F05D08069CA
:10787000B0F1004018BF0120704700207047036836
:107880001B6A184770B503680D461B690646984782
:107890000221284602F04AF82C210446284601F02D
:1078A00045FF336804449B693046984702212846C7
:1078B00002F03CF8204470BDA0F10400FFF7E2BFE5
:1078C00010B520210446FCF7EAFB204610BD00005D
:1078D000037B7BB14369002B0CDB07EE903A9FEDF5
:1078E000077AF8EEE77A87EE870ADFED057A20EE71
:1078F000270A7047BFEE000A704700BF00FF7F47AE
:107900000000C842037B63B10369B3F1004F08D0A4
:1079100007EE903A9FED047AF8EEE77A87EE870A51
:1079200070479FED020A70470000C8420000000047
:10793000037B7BB1C369002B0CDB07EE903A9FED14
:10794000077AF8EEE77A87EE870ADFED057A20EE10
:10795000270A7047BFEE000A704700BF00FF7F474D
:107960000000C842037B63B18369B3F1004F08D0C4
:1079700007EE903A9FED047AF8EEE77A87EE870AF1
:1079800070479FED020A70470000C84200000000E7
:1079900030B50D4600F108040FCD0FC495E8030083
:1079A00084E80300012030BD70470020704710B507
:1079B00010210446FCF773FB204610BD08B5FFF705
:1079C000F6FF08BD30B500224FF69C74026084803B
:1079D0008D888C800C68858004600A6030BD10B58D
:1079E00004460068FFF714FE204610BD38B5C46891
:1079F000F4B12378022B03D104F10C00FFF7EFFF61
:107A0000656835B12846FDF77BFE10212846FCF756
:107A100046FBA56835B12846FDF772FE10212846C1
:107A2000FCF73DFB20461421BDE83840FCF737BB8E
:107A300038BD0B6803604B68436013B15A6801326C
:107A40005A60704737B5044668460D46FFF7F1FFA8
:107A5000009B019A23606260002301A801930093B8
:107A6000FFF763FE35B1281DFFF75FFE08212846AA
:107A7000FCF715FB204603B030BD826810B50AB98B
:107A800003F035FABDE81040C368184708B5006830
:107A900000F11001FFF7F1FF08BD826810B50AB9C7
:107AA00003F025FABDE81040C368184708B5006820
:107AB00000F11001FFF7F1FF08BD000038B5002309
:107AC0000446036010200D46FCF7E5FA28B10123B7
:107AD000C0E90133024B0360C5602060204638BD19
:107AE00030E50B0038B5002383608B6804460D46F3
:107AF0002BB102229847EB68E360AB68A360204695
:107B000038BD0000F0B589B004686846FFF75AFF39
:107B10004FF00203D4E84F2F002A03D1C4E8413FBD
:107B20000029F7D125D104F10C0569462846FFF755
:107B300049FFBFF35B8F01236370002004F108034A
:107B4000BFF35B8F53E8006F43E80002002AF9D1CE
:107B5000BFF35B8F6EB1FFF79FFC78B129463046CB
:107B6000FFF78BFF3046FDF7CBFD10213046FCF7C9
:107B700096FA6846FFF733FF09B0F0BD314602A818
:107B8000FFF7B0FFE068B4F9105008B104F08CF8CA
:107B900006901020ADF81C50FCF77DFA0546E8B1C0
:107BA000002787601820FCF776FA044688B1014662
:107BB000876002A8FFF7C1FD049BA268A360059B34
:107BC000049206A9E268E36004F110000592FFF751
:107BD000F9FE084BEB60084B2C60AB6006A8FFF782
:107BE000FEFE02A8FDF78CFD002229460348FFF7A0
:107BF0005BFCB7E78D7A0B00117D0B00B7760B00AD
:107C00002DE9F04F8BB005469DF850A00F469046E9
:107C10009946FFF775FC07AE834638BB4FF62E73C7
:107C2000059005A93046ADF81830FFF7CBFE1420BB
:107C3000FCF731FA044648B1022303700123C0E97E
:107C400001BB437031460C30FFF7BCFE284621468D
:107C500040F8044BFFF732FF3046FFF7C0FE05A89F
:107C6000FFF7BDFE28460BB0BDE8F08F0C230024C3
:107C70001420CDE908440793FCF70DFA014618B12A
:107C8000C0E901440470447004A80391FFF716FF93
:107C90001E4B08930820FCF7FEF9044610B103A917
:107CA000FFF7C7FE00965FFA8AF34A464146384618
:107CB0000994FFF735FCB8B9039B5B7803F0FF022A
:107CC00093B94FF69C7305A903A80592ADF8183037
:107CD000FFF718FF05A8FFF782FE05A80999FFF72F
:107CE000B1FE06A8FFF721FD03A905A8FFF7A1FE35
:107CF000059B069A2B606A60002306A806930593ED
:107D0000FFF713FD04A8FFF710FDABE78D7D0B0017
:107D1000012AF8B5054603D10B6803600020F8BDC1
:107D2000022A10D0032AF9D10468002CF6D004F1FD
:107D30001000FFF754FE2046FDF7E2FC1821204614
:107D4000FCF7ADF9EAE718200E68FCF7A4F9044641
:107D500050B13146FFF7C6FE3069B6F9147008B16C
:107D600003F0A2FF2061A7822C60D7E738B500237B
:107D700083608B6804460D462BB102229847EB685E
:107D8000E360AB68A360204638BD0000F0B589B061
:107D900004460D4601A81146FFF754FEA4B124B2D3
:107DA0001DB1284603F080FF054601A803A90395ED
:107DB000ADF81040FFF7A6FE03A8FFF710FE02A8DB
:107DC000FFF7B3FC09B0F0BD019D0123D5E84F2FAB
:107DD000002A03D1C5E8413F0029F7D1EFD12B7329
:107DE000BFF35B8F6B702B1DBFF35B8F53E8006F8E
:107DF00043E80042002AF9D1BFF35B8F002EDED0AA
:107E00002046FFF749FB074660B105F10C013046FB
:107E1000FFF743FE3046FDF773FC10213046FCF7B8
:107E20003EF9CCE7314603A8FFF7A0FF2B7B8DF886
:107E30001C301020FCF72FF90546D0B187601420C4
:107E4000FCF729F9044678B18760014603A8FFF7DB
:107E500074FC059BA268A360069B0592E268E36040
:107E60009DF81C3006922374064BEB60064B2C6089
:107E7000AB6003A8FDF744FC002229460348FFF746
:107E800013FBC7E7AD7A0B00917E0B00B7760B00B2
:107E9000012A70B5044603D10B680360002070BD51
:107EA000022A0CD0032AF9D10468002CF6D020460F
:107EB000FDF726FC14212046FCF7F1F8EEE714202C
:107EC0000E68FCF7E8F8054620B13146FFF74EFF93
:107ED000337C2B742560E1E7002240681146FFF7F0
:107EE00067BB002240681146FFF772BB4068002262
:107EF000FFF766BB4068002281F00101FFF750BB2D
:107F0000002340681A461946FFF742BB0023406829
:107F10001A461946FFF734BB002240681146FFF7A6
:107F200027BB002240681146FFF712BB40680022C1
:107F30000221FFF715BB002340681A46FFF700BB7C
:107F4000024B03225A60024A1A60704788E60320F7
:107F50004CE50B00090941EA001107EE901A9FED6C
:107F6000030AF8EEE77A87EE800A7047000048447B
:107F7000006800F004B910B50446016002710AB14E
:107F8000FFF7F6FF204610BD13B50446019102F03D
:107F900093FE019A01462046FFF7EDFF204602B00E
:107FA00010BD006800F0F4B82DE9FF4104460D460D
:107FB00017461E46FFF7DCFF36220023CDE90023DB
:107FC00020680A234FF001086946CDE9028300F0DA
:107FD000B7F82068036829469B689847206841469F
:107FE00000F0C6F8054640B16FF09F052046FFF748
:107FF000D8FF284604B0BDE8F08102232068019331
:10800000694600F06DF80228EED1206803685B69CC
:1080100098473870206803685B6998473070E5E7D7
:1080200007B500238DF806308DF807300DF10602F4
:108030000DF107030221FFF7B7FF40B99DF80710C4
:108040009DF8060003B05DF804EBFFF783BFBFEEB9
:10805000000A03B05DF804FB7047F8B50646154604
:108060000C468F18BC4206D0336814F8011B9B687D
:1080700030469847F6E72846F8BD007C0022FFF717
:1080800029B8007C0021FFF72DB8007C0021FFF704
:1080900031B8007C0021FFF735B8007C0021FFF7E4
:1080A00039B810B514210446FBF7F9FF204610BD7E
:1080B00010B54FF47A73044608460021C4E9011351
:1080C000034B236020741146FFF734F8204610BD9F
:1080D00088E50B000023007C1A461946FEF7E2BF34
:1080E0007FB500221423CDE90122ADF804300B78CE
:1080F0008DF808304B680393CB680493007C0B7AAF
:10810000059301A9FFF72EF807B05DF804FB1FB532
:10811000003B8DF800104FF06401039118BF01235C
:10812000694601928DF80830FFF7DAFF05B05DF877
:1081300004FB0123FFF7EBBF007C0022FEF7BABF70
:108140007FB50023CDE901334A6803921423CA683E
:10815000ADF804300B7804920A7A0592007C8DF811
:10816000083001AA1946FEF7A5FF07B05DF804FB29
:10817000007C0022FEF7A6BF0121FFF7F9BF08B57A
:108180000021007CFEF7DEFFB0FA80F0400908BD58
:1081900008B50021007CFEF7DDFFB0FA80F0400951
:1081A00008BD704710B518210446FBF778FF20463C
:1081B00010BDF0B5037D062B8DB00E4600F104070F
:1081C0004FF0000412D000F1080515F8011D0A2235
:1081D000304601F0C4FAAF42044419D0002CF4D068
:1081E0002E21304601F0A2FA0444EEE72F236A461E
:1081F00039460A208DF80040FEF7C4FF684603F0B8
:1082000070FD33680246DB6869463046984704468D
:1082100020460DB0F0BD000010B5054B04461122FC
:1082200040F8043B002103F0DFFC204610BD00BFF6
:10823000B0E50B000346074A10B543F8042B01F1E3
:10824000100251F8044B43F8044B9142F9D10A78DB
:108250001A7010BDB0E50B00037D042B04D14068FB
:10826000003818BF01207047062B07D143683BB97F
:1082700083682BB9C3681BB90069F1E70020704718
:108280000120704710B59DF8084044EA032343EAF3
:10829000024242EA016104234160037510BD0000FF
:1082A00013B5044C04609DF810400094FFF7EAFFFA
:1082B00002B010BDB0E50B0007B5064B0360CB78EC
:1082C00000938B784A780978FFF7DCFF03B05DF8FC
:1082D00004FB00BFB0E50B0000F11003012213F80E
:1082E000101C0129184608D153F8041C02EB410266
:1082F000013A03F11003F2D17047022904BF53F889
:10830000041C5218F4E70EB4F0B588B000AF07F1C2
:108310003405102155F8042B7A6004462B46781852
:10832000FD60FFF795F90F287A681AD900F1080364
:1083300023F007036E46ADEB030D411C2B46684648
:10834000FD60FFF785F9021E04DD236869469B681E
:1083500020469847B5462037BD46BDE8F04003B0FB
:1083600070470028F7D0236802469B6807F1100188
:1083700020469847EFE738B50B6803604D684368BF
:108380009D42044608D015B16B6801336B6060688C
:1083900008B1FFF7A4F9656038BD07B503688DF82B
:1083A00007109B6801220DF10701984703B05DF8A3
:1083B00004FB0B461146002210B5C0E9002204461A
:1083C00083600BB9204610BDFFF7D5FFFAE783683D
:1083D000EBB11A78032A1AD8DFE802F00417021B5F
:1083E0000520704702685B685268D05C2D2812D067
:1083F000A0F13003092B0ED974280ED066280CD0BA
:10840000A0F16E0358425841704706207047002083
:10841000704704207047032070470220704710B552
:108420000446FFF7D4FF02280ED0C31EDBB2012B97
:1084300014D82268A36850685B68BDE810400A221F
:108440000021184404F0B4BB2268A36852685B683A
:10845000D05CA0F174035842584110BD0020FCE7E5
:1084600038B50023C0E9003304460E48C4E90203CE
:10847000A9B10B78032B06D08BB9136858684B68E9
:10848000C35C6E2B07D013684D6858688B6828440E
:108490005B1BA060E36011462046FFF76CFF20469F
:1084A00038BD00BF8BE10B0038B500250B46C0E995
:1084B0000055C0E90255C0E90455044611464BB1C8
:1084C0001A78012A06D103F11002DB688260436149
:1084D000FFF751FF204638BD10B54369044663B12C
:1084E0008068E060013B1030A0602061636113B1DF
:1084F000FFF7F2FEA060012000E0184610BD10B5A5
:108500007D210446FFF749FF01232371204610BD5A
:1085100008B50379012B02D0022B04D008BD2C2111
:10852000FFF73BFFFAE73A21FAE710B50446FFF7F9
:10853000EFFF20467B21FFF730FF00232371204609
:1085400010BD000013B504460191FFF7E1FF236859
:10855000019ADB680349204698470123204623718E
:1085600002B010BD0CE70B0013B504460191FFF7F4
:10857000CFFF2368019ADB6803492046984701230F
:108580002046237102B010BDBCE50B002DE9F04779
:108590000D46222190460446FFF7FFFEDFF8A49027
:1085A000A8442F464745BA463DD017F8016B222E06
:1085B00006D05C2E04D0304603F0E6FA0028F1D154
:1085C0002368AAEB05029B682946204698475C2150
:1085D0002046FFF7E2FE0D2E0AD8072E1CD9A6F181
:1085E0000803052B18D8DFE803F00D0F111713153A
:1085F000222E01D05C2E0FD131462046FFF7CDFE52
:108600003D46CFE76221F8E77421F6E76E21F4E7F3
:108610006621F2E77221F0E723683246DB684946BB
:1086200020469847ECE7BD4205D023687A1B9B683B
:1086300029462046984722212046FFF7AEFEBDE896
:10864000F08700BFBFE50B0013B50446CDE900215C
:10865000FFF75EFF2046DDE90021FFF797FF0223C9
:108660002046237102B010BD13B50446CDE90021A8
:10867000FFF74EFF2046DDE90021FFF787FF0123CA
:108680002046237102B010BD80680368DB6818477C
:108690007047084611B10B685B6818477047704710
:1086A00070477047704738B504460D4600682E2164
:1086B00003F0DDFA2368C31A2B6023B1037803B1FA
:1086C000013023682060184638BD10B50C210446DF
:1086D000FBF7E5FC204610BD10B504210446FBF76E
:1086E000DEFC204610BD10B504210446FBF7D7FC84
:1086F000204610BDFEF78EBC08B503F0C2FAB0FAF2
:1087000080F0400908BD704710B50C4602F02CF906
:10871000844210D002F010FB844205D102F00CFB21
:10872000BDE8104002F0BBB82CB1236820465B685E
:10873000BDE81040184710BD0B6803604B684360EC
:1087400013B15A6801325A60704713B5044608469F
:10875000019103F0C6FA01990246204602B0BDE835
:108760001040FFF781BF13B504460846019103F09E
:10877000B8FA23680199DB680246204602B0BDE8DA
:108780001040184707B503688DF80710DB68012211
:108790000DF10701984703B05DF804FB0EB403B573
:1087A00003AB002153F8042B006A019301F0CDF8CC
:1087B00002B05DF804EB03B070470A6802604A68D3
:1087C00042600022C0E9022210B502618C68846018
:1087D000CC68C4600C698A60CA6004610A6110BD1B
:1087E0002DE9F74FD0E900844FF0140A00930AFBFB
:1087F00004F4184BA41017465C434546002C21DDB9
:1088000066100AFB06F005EB00093A46B9F804B019
:10881000285801915F4528BF5A4603F06AFA00289C
:1088200001994FF001030BD15F4503D1009A1370FA
:108830003446E3E7FCD9A61B09F11405013EF7E72E
:10884000F9DBF5E7A5EB08050248AD10684303B076
:10885000BDE8F08FCDCCCCCC7FB50369057E01910E
:1088600003B3F9B1002600F10C04039603A901A893
:10887000FFF719FF0146A8B10DF10B03039A8DF81C
:108880000B602046FFF7ACFF9DF80B3053B1236817
:10889000142404FB0034083434F9023C002BA8BF34
:1088A000DDB2E3E7284604B070BD000010B5094C06
:1088B0002378BFF35B8FDB0709D42046FBF7FCFB73
:1088C00028B12046FBF7FDFB034803F04FF90348AE
:1088D00010BD00BF94E603209F860B0030E103200B
:1088E00010B5094C2378BFF35B8FDB0709D4204612
:1088F000FBF7E2FB28B12046FBF7E3FB034803F05C
:1089000035F9034810BD00BF98E6032007870B0028
:1089100034E1032038B500250446C0E90055C0E91C
:1089200004558560856140F8245FFEF763FBFFF71F
:10893000BDFFE061FFF7D4FF25732062204638BDFC
:1089400010B50A4C2378BFF35B8FDB070CD42046AD
:10895000FBF7B2FB40B10648FFF7DCFF2046FBF710
:10896000B0FB044803F002F9014810BD90E6032073
:10897000A0E60320958E0B00024A0349034800231A
:10898000FEF760BD798C0B00058C0B00858B0B000E
:1089900000231A4619461846FEF754BD37B58D68B0
:1089A00004466846FFF7C8FE6A4629462046FFF798
:1089B0007BFD01A8FEF7B9FE204603B030BD37B5F8
:1089C000CD6804466846FFF7B7FE6A46294620464A
:1089D000FFF746FD01A8FEF7A8FE204603B030BD14
:1089E00037B50D6904466846FFF7A6FE6A46294674
:1089F0002046FFF7DEFC01A8FEF797FE204603B0F5
:108A000030BD000070B58AB00D46014604A8FFF7DE
:108A1000C5FF144E04A8FFF75FFDE8B104A968463E
:108A2000FFF7CDFF02983146FFF766FE044610B10E
:108A30002C1E18BF012401A8FEF777FE002CE9D0F8
:108A400004A96846FFF7CCFF6846FFF7E8FC2860FA
:108A500001A8FEF76AFEDDE705A8FEF766FE0AB08C
:108A600070BD00BFC5E50B0037B50C462046134965
:108A7000154603F006F950B901F076FF4FF4165190
:108A800001F062FF03B0BDE8304001F06DBF0C495A
:108A9000204603F0F6F878B94FF4165301A928469A
:108AA0000193FFF7AFFF02F047F9019901F0F4FEDF
:108AB00002F042F903B030BD0020FBE7CAE50B002D
:108AC000D1E50B0070B5D0E900531426044606FB2F
:108AD0000356AE4205D005F10800FFF7F3FF143549
:108AE000F7E72068FEF794FD204670BD10B50446F8
:108AF0000C30FFF7E7FF2046FEF705FE204610BDCD
:108B000010B5044B044640F8043BFFF7EFFF204646
:108B100010BD00BF00DF0B0010B50446FFF7F0FFEB
:108B200020462421FBF7BBFA204610BD10B5034BAD
:108B300003600446FFF7E4FF204610BD68E60B0023
:108B400010B50446FFF7F2FF20462421FBF7A7FAF1
:108B5000204610BD0022C0E9002210B582600C68DA
:108B600004604C6844608C680A604A6084608A6073
:108B700010BD10B5036804461868FEF753FA204686
:108B800010BD00002DE9F04F87B0804603931C4BC9
:108B90005B68C3F30803894616466BB9FFF7D0FE3E
:108BA000044600F12403406A0593FFF7A3FD237BED
:108BB0002BB105A8FFF7DDFF07B0BDE8F08F01235B
:108BC0002373D4E900535FFA89F905EB830AAA45B8
:108BD00012D055F8047B3146381DFFF73DFE814524
:108BE000F5D33B68039A0092D3F808B04A4633465F
:108BF00041463846D847EAE700232373D9E700BF48
:108C000000ED00E02DE9F74F9B461A4B5B68C3F37C
:108C100008038046894616466BB9FFF791FE044665
:108C200000F12403406A0193FFF764FD237B2BB11D
:108C300001A8FFF79EFF03B0BDE8F08F0123237367
:108C4000D4E90053F6B205EB830A55450ED055F82A
:108C5000047B5946381DFFF7FFFD8642F5D33B687C
:108C60004A46DB68414638469847EEE700232373BF
:108C7000DEE700BF00ED00E02DE9F341164B5B6835
:108C8000C3F3080305460F461BBBFFF759FE00F16F
:108C900024030446406A0193FFF72CFDD4E90063E6
:108CA000462406EB8308B04509D101A8FFF761FF10
:108CB000A542B4BF0020012002B0BDE8F08156F803
:108CC000040B39460430FFF7C7FD8442A8BF0446B1
:108CD000E9E70020F0E700BF00ED00E0F8B5D0E9DB
:108CE00001539D4204460E460DDB6F1C002F0068A9
:108CF00004DDB900FEF794FC18B9F8BDFEF788FC56
:108D000000202060A7602768626807EB8501920059
:108D1000A2EB8502081D02F04DFF47F8256063684D
:108D2000013363600120E8E737B500F1240304460E
:108D3000406A01930D46FFF7DDFCD4E9003203EBF6
:108D40008202934219460BD00968A94203F1040339
:108D5000F7D101A8FFF70DFF0025284603B030BD6D
:108D600029462046FFF7BAFF05460028F1D0636880
:108D7000012B01D1FFF700FE01A8FFF7FAFEECE797
:108D800070B50446D0E900020B4600EB8202824235
:108D90000FD001461D6851F8046BAE4207D1521A3C
:108DA00002F008FF6368013B6360012070BD084664
:108DB000EDE70020FAE71FB500F124030446406AFE
:108DC00001910393FFF796FC01A92046FFF7D8FF16
:108DD00018B163680BB9FFF7DBFD03A8FFF7C9FE05
:108DE00004B010BD70B5D0E904561823044603FB47
:108DF0000656AE4215D005F110012046FFF7C0FF20
:108E000063680BB9FFF7C4FDE06929690368DB6893
:108E10009847696919B1206A0368DB689847183573
:108E2000E7E7D4E90453182606FB0356AE4204D004
:108E3000284600F073FE1835F8E70023636170BD23
:108E400073B50446FFF7A4FD04F12403606A01939F
:108E5000FFF750FC2046FFF7C5FF01A8FFF789FE8A
:108E6000606A08B1FEF7CEF8D4E90453182606FB71
:108E70000356AE4204D0284600F050FE1835F8E7FD
:108E80002069FEF7C5FB2068FEF7C2FB204602B052
:108E900070BD00000148FFF7D3BF00BFA0E603206C
:108EA0008842F8B504460D46164615D9904214D2AC
:108EB000A2F11406751AA1F114072C44B7421AD076
:108EC0001CB131462046FFF778FC06F10800FFF799
:108ED000F9FD143E143CF1E70DD0B5420BD01CB1A6
:108EE00029462046FFF769FC05F10800FFF7EAFD77
:108EF00014351434F1E7F8BD8842F8B504460D4640
:108F0000164614D9904213D2A2F11006751AA1F197
:108F100010072C44B74218D01CB13146204600F04F
:108F200065FE304600F0FAFD103E103CF2E70CD032
:108F3000B5420AD01CB12946204600F057FE28460B
:108F400000F0ECFD10351034F2E7F8BD70B50E1EE0
:108F5000054611DD3001FEF753FB044658B1D5E953
:108F6000001201EB0212FFF7C7FF2868FEF750FB63
:108F70002C60AE60012070BD0024F6E72DE9F04FB3
:108F8000904695B000230391D8F804100A93462226
:108F90009942C0E90033C0E90233C0E90433CDE9A6
:108FA00008330446027623DCD8E90057142303FB78
:108FB0000757AF423BD029460BA800F017FE0BA97C
:108FC0000FA8099E00F012FEDDE9091399421BDA91
:108FD000089B099A03EB061603EB0212314606F1D1
:108FE0001000FFF789FFEEB9099B0133099311E0E7
:108FF00008A8FFF7ABFF0028D6D108A8FEF783FB2F
:10900000204615B0BDE8F08F013108A8FFF79EFF9C
:109010000028DDD10FA800F081FD0BA800F07EFD37
:109020001435C6E70FA9304600F0E0FDDCE7002666
:10903000CDE90B660D964FF01409DDE908239E4239
:109040007CDA3301D35806930BB90136F5E70023D8
:10905000079309FB06F302930BAD07A906A8FFF7D8
:1090600022FB82460028F0D04FF000038DF8173025
:109070000146079A0DF117032846FFF7B1FB9DF84B
:1090800017700190002F4AD1BDF81C30ADF8403068
:10909000CDE911774FF6FF73CDF83CA0ADF8423023
:1090A0001397D5E90132934217DB03F1010ABAF1B4
:1090B000000F30DD09FB0AF0FEF7A2FA834660B329
:1090C000D5E9001209FB0212FFF7EAFE2868FEF755
:1090D0009FFAC5F800B0C5F808A02B68019A09FBF3
:1090E000023A6A68514609FB02320AF11400FFF79E
:1090F000D7FEBAF1000F03D00FA95046FFF75DFB72
:109100006B6801336B6011A8FFF7DCFC3FB10BA863
:10911000FFF7D8FC71E7BB46D8E70127F3E7019BCF
:109120002D6809FB0355069B1B782BB9D8F8003036
:10913000029A13441B7CEB8008358EE7216822607D
:1091400062686360A36809920A9A0A93E368A2605E
:109150000B9A0B932369E2600C9A0C93636922616A
:109160000D9A0D93039B089162612376CFE700006F
:10917000F0B5044687B00D462646194668461746A0
:10918000FBF701FB0B4B46F8043B694603A8FBF7D2
:10919000FAFA03AA39463046FFF7F0FE03A8FBF7B8
:1091A000B1FA6846FBF7AEFA034B2360204625620E
:1091B00007B0F0BD00DF0B0050E60B00F0B50F4626
:1091C00085B01D490A9C384616461D4602F059FDD9
:1091D000C0B9A4B1294601A8FFF7BCFC1749242057
:1091E00001F0CEFD054630B101AB32462146FFF716
:1091F000BFFF134B2B6001A8FBF784FA2C462046D7
:1092000005B0F0BD0F49384602F03BFD90B9002C87
:10921000F5D0294601A8FFF79DFC0849242001F05C
:10922000AFFD05460028E6D001AB32462146FFF7E8
:109230009FFFE0E70024E2E7D9E50B0064E80B00BC
:1092400068E60B00DDE50B00014B024A1A6070472F
:109250009CE60320EEE50B002DE9F047089DD0F8D1
:10926000209004460E461746984601F07DFB814546
:109270004CD02B79190704D56A6954492046FFF769
:109280008DFAB8F1000F0DD05B212046FFF77AFA76
:1092900041462046FFF767FA23684D49DB68022202
:1092A000204698472B79DA0723D5D5F808802F2157
:1092B000404602F045FD08B100F101084146204654
:1092C000FFF751FA2B799B0708D53A212046FFF783
:1092D00059FAEA683F492046FFF760FA2A7923687D
:1092E00012F0040FDB6814BF3B493C4902222046C0
:1092F00098472B7958071DD529690B461A4613F84C
:10930000010B60B1202808D11946F7E7344800F076
:1093100066F90028ADD0BDE8F0872828EED1236893
:10932000521ADB682046984723682E49DB680422DE
:109330002046984700213846FEF77CF80146204633
:10934000FFF711FA23682549DB6802222046984777
:109350001EB131462046FFF706FA2B7913F0300F85
:109360002CD023682049DB680222204698472B79BD
:10937000D9060AD523681D49DB680722204698478D
:10938000AA691B492046FFF709FA2B799A0611D5DD
:10939000DB0605D523681049DB6802222046984782
:1093A00023681449DB6820460A229847E969204669
:1093B000FFF7D9F95D212046FFF7E4F923680E494C
:1093C000DB6820460222BDE8F0471847F2E50B00B3
:1093D000F9E50B000CE70B00FCE50B0001E60B00C8
:1093E000C8E60320FFE50B0004E60B0007E60B00D0
:1093F0000FE60B0012E60B0089E10B002DE9F043AC
:1094000085B0D0F820900C9C05460F4690461E462D
:1094100001F0AAFA814505D1494800F0E0F800289A
:1094200040F08A802B6A474A01924FF0000901A858
:1094300003938DF80890FFF778F849464046FDF70A
:10944000F9FF41498046012201A8FFF7FDF8414696
:10945000FFF77BF93FB13D49012201A8FFF7F4F87E
:109460003946FFF772F93EB13949012201A8FFF7E9
:10947000EBF83146FFF769F92379DF070ED5A668C7
:109480002F21304602F05CFC00B1461C314901221C
:1094900001A8FFF7D9F83146FFF757F923799E075E
:1094A00007D52D49022201A8FFF7CEF8E168FFF7A2
:1094B00049F82379580714D5266933461F4613F80F
:1094C000012B2AB1202A01D11E46F7E7282AF5D11F
:1094D0002249022201A8FFF7B7F8BA1B3146FFF76D
:1094E000C3F82379190707D51D49012201A8FFF701
:1094F000ABF86169FFF738F82379DA0608D504225A
:1095000018490DEB0200FFF79FF8A169FFF71AF861
:1095100023799B0607D51449062201A8FFF794F882
:10952000E169FFF712F901A8FEF7E9FF286A0F4980
:1095300003680222DB68984705B0BDE8F08300BFEE
:10954000C8E6032038E60B00CFE50B0049E40B002A
:109550005AEC0B0023DE0B001DE60B0020E60B008F
:10956000D5E20B0023E60B0028E60B0089E10B0097
:10957000002340681A46FDF7E3BF4068002202213D
:10958000FDF7EEBF002240681146FDF7E1BF002263
:1095900040681146FDF7ECBF002340681A461946A3
:1095A000FDF7EEBF002340681A461946FDF7F0BFED
:1095B00040680021FEF714B840680021FEF718B893
:1095C0004068002281F00101FDF7EABF40680022F7
:1095D000FDF7F6BF002240681146FDF7F9BF0022F3
:1095E00040681146FDF7E4BF2DE9F04395B01446FD
:1095F0000D460746FEF710FE00211C220DA8009123
:1096000002F0F2FA40230C9320466B460CAA00218C
:10961000FDF7E0FD044600284BD1024601216868B1
:10962000FDF7A6FF0221804622466868FDF7A0FFED
:10963000009E81462146002E3BD0002939D1736817
:10964000022B03D00A2B11D0F669F4E7B8F1000F12
:10965000FAD0716906A8043107ADFEF72DFE0FCDD3
:109660003C1D0FC42B6823704146EDE7B9F1000F94
:10967000EAD07469102201A802F0B6FA06238DF828
:10968000143001AD04F108031834186859682A46EB
:1096900003C20833A3421546F7D101A906A807ADB6
:1096A000FEF7C8FD0FCD3C1D0FC42B682370494643
:1096B000CAE70098FDF786FD384615B0BDE8F0838F
:1096C000024B034A1A6000225A607047C8E6032022
:1096D000B0E60B00F8B506460D468F180024BD42D3
:1096E0000CD0336815F8011B9B6830469847031E61
:1096F00001DB1C44F3E7002C08BF1C462046F8BDE4
:1097000013B50446084659B1019102F0EAFA2368FC
:109710000199DB680246204602B0BDE810401847B8
:1097200002B010BD08B5FFF7EBFF08BD03689B68EA
:10973000184738B50D210546FFF7F8FF0A21044602
:109740002846FFF7F3FF204438BD38B50546FFF73C
:10975000D7FF04462846FFF7ECFF204438BD30B55C
:109760008BB00023012A8DF8243098BF0A2209AC5F
:109770000D46B1FBF2F101FB125303F0FF03092B7D
:1097800094BF30333733DBB2AA4204F8013DEFD93E
:109790002146FFF7B5FF0BB030BD00002DE9F74FB4
:1097A00055EC104B06460F4610EE102A10EE100A2C
:1097B0002B46294602F00EF940B153493046FFF7D7
:1097C0009FFF8246504603B0BDE8F08F25F0004968
:1097D0004E4B4FF0FF322046494602F0FBF848B9A5
:1097E0004A4B4FF0FF322046494602F0D5F808B9FF
:1097F0004749E3E7474B4FF060422046294602F0D5
:10980000DFF808B14449D9E7444B4FF060422046A5
:10981000294602F0B7F80028F4D1002200232046A0
:10982000294602F0AFF8D0B12D213046FFF77EFF78
:1098300005F1004382461D463949DFF8EC904FF0B0
:10984000000B00204FF000085FFA8BF39F4208D90D
:1098500042464B4601F04EFF0BF1010BF4E7824606
:10986000EAE722462B4601F065FC0D46044602F06D
:10987000EFF8804601F09AFD02460B462046294645
:1098800001F056FC0A2204460D4630464146FFF7D9
:1098900066FF8244002F95D02249DFF88C90304635
:1098A000FFF72EFF4FF000088244002F8AD0424677
:1098B0004B462046294601F0F3FD04460D4602F0D2
:1098C0009FF8B0F1000B1CDA2D213046FFF72EFF78
:1098D000CBF1000103460A2230460193FFF73FFF18
:1098E000019B18448244584601F070FD02460B4625
:1098F0002046294601F01CFC013F04460D46FFB2FC
:10990000D3E759460023E6E7E4E60B00FFFFEF7FCD
:10991000E8E60B00FFFFEF41ECE60B00FFFFEFC1B5
:109920000000E03F06E10B000000244038B504468B
:1099300010EE100ACDB201F05BFD41EC100B294690
:109940002046BDE83840FFF729BF2DE9F04186B039
:1099500000AF05460E46381D142114463B60FDF746
:1099600077FE13280ED8391D2846FFF7C9FE044696
:109970001EB12846FFF7DDFE044420461837BD46D9
:10998000BDE8F08100F1080323F00703E846ADEBE2
:10999000030D2246411C3B686846FDF759FE6946A7
:1099A0002846FFF7ADFE0446C546E1E7014B00221D
:1099B0009A607047D0E603200021FDF793BC002198
:1099C000FDF788BC10B5044608462170FDF762FC1F
:1099D00000236360204610BD13B504460078FFF7EE
:1099E000EEFF58B9207801904FF6FF71FDF742FC69
:1099F000019802B0BDE81040FFF7DEBF02B010BD15
:109A00000078FFF7D9BF0000400830B51860002487
:109A100018688842E5B206D90134082C02D0400803
:109A20001860F5E70725024B5B5D137030BD00BF82
:109A3000F0E60B002DE9F04306468FB000780C46A7
:109A4000FFF7BDFF00281BDB35781422002109A891
:109A500002F0CAF80B23002209A92846ADF82430E9
:109A6000FDF728FC9DF82D3013B19DF82C5055B111
:109A70000027B946B846012523795DB1C3B100205E
:109A80000FB0BDE8F083DDF830809DF834909DF88C
:109A90003570F1E7002B35D1A368434508D18DF827
:109AA00020908DF82170BDF82020A3899A42E6D03D
:109AB0000023A1688DF80F300A9804AB0DF10F0256
:109AC000FFF7A2FF217985B989B9A36843450ED371
:109AD0008DF820908DF82170BDF82020A3899A423E
