:02000002B0004C
:1040000000400B00FCE60B00000006000D0005025E
:084010000401800C0000000017
:0440180038D60B008B
:1040200009480A49884208B505D0094A824202D0A7
:10403000121A07F00DFA0748074A0021121A07F072
:104040002FFA014808BD00BF28E10320E4E40B007B
:1040500014E3032018E30320F1E7032070B5074EB3
:10406000074C06F06BF9A41BA4080025AC4200D154
:1040700070BD56F8043B98470135F7E7A4E40B0000
:10408000DCE40B0000F0EAB908B500F053FABDE833
:10409000084006F00BB902F015BF02F013BF02F0A2
:1040A00019BF000008B5034A00210C2002F014FEDD
:1040B000FEE700BF09690B000078B0FA80F0400904
:1040C00070470123037070477047006A0368DB681C
:1040D00018470023022202F065BE00000A4B10B50B
:1040E0000446036004F086F8214604F0BEFA06F0A8
:1040F00095F806F087F82046044B40F8043B04F09E
:104100004FF9204610BD00BF98D70B0080D70B0099
:1041100010B50446FFF7E2FF20462421FFF7BFFF5A
:10412000204610BD0EB403B503AB012153F8042B98
:10413000019305F064F802B05DF804EB03B070473A
:104140002DE9F0432DED048BF1B002F0E5FBA84B17
:10415000A84E1860A84800F0D9FDFDEEC07AA74B24
:10416000CDED097A9DF92400186006F08BFD9EA321
:10417000D3E9002306F0F0FDA14B002206F036FC47
:1041800007F09AF830609C4800F0F0FDFCEEC07A31
:104190009C4ACDED097A9DF824309B48136003F0CA
:1041A00099FBFCEEC07A994ACDED097A9DF824304E
:1041B000136014A900220320149202F0ADFD0CAC90
:1041C000002840F0FD80149D0DB12B6923B9904A61
:1041D00000210A2002F080FD0C23CDE934340423B1
:1041E00036932B6934AA012128469847002840F0CD
:1041F000E780238807EE903AFBEECC7AFCEEE77A74
:10420000844DCDED097A9DF8243083492B602046FA
:1042100002F03CFF204602F0B5FFFCEEC07A7F4F73
:10422000CDED097A9DF824303B60204602F0DAFF9C
:10423000FCEEC07ADFF82082794CCDED097A9DF84A
:104240002430C8F800302378002B00F0BC8002F046
:1042500063FB636BC01A42F20F73984200F2B380A3
:10426000204600F0F1FE6F4A80218DED000B14A86E
:1042700002F040FE204600F00BFF6A4A80218DEDDF
:10428000000B14A802F036FE204600F0DDFE664B5F
:10429000204683ED000B00F0FBFE644B204683EDCF
:1042A000000B00F0D1FE2046B0EE408AF0EE608AAE
:1042B00000F0EEFE4FF00009D4F8800084F8799009
:1042C000B0EE409AF0EE609A06F0DCFC584B00220B
:1042D00006F06CFE8DED008BCDE90401554A80217E
:1042E0008DED029B14A802F005FE464A336809933F
:1042F000204616682D683F68D8F8008000F0A4FEBC
:104300002046B0EE408AF0EE608A00F0C1FE099BC4
:10431000494A8DED060BF0218DED048BCDE9027835
:10432000CDE9006534A802F0E5FD05F077FF34A97A
:1043300004F065FE414B1A786AB183F8009002F0F0
:10434000EBFA3F4B1A68821A099205F067FF099A47
:104350003C49FFF7E7FE05F061FF14A904F04FFEAA
:1043600002F030FD38B3384C02F0D6FA2368C01A98
:1043700043F6972398421ED902F0CEFA334B2060C1
:104380001B788DF8003032493C2334AA0AA803F088
:1043900091F80B9C7CB16368013B63605BB9236857
:1043A00020469B689847A368013BA3601BB923681C
:1043B0002046DB68984771B0BDEC048BBDE8F08304
:1043C000FFEE007A1AE7234914A807F0C0F81B4B48
:1043D0001A78002ABFD101221A7002F09DFA184BF8
:1043E0001860B8E7AFF30080CDCCCCCCCCCCFC3F90
:1043F0004CE403209CE403201CE3032098E4032006
:104400000000404044E4032060E30320ACE40320C8
:1044100009690B0088E4032058E6032090E4032098
:104420006CE3032052D60B0050E4032080E4032009
:10443000000059404CD60B0055D60B0068E3032012
:1044400094E4032002D70B0048E4032019E303207F
:1044500022D70B00F6D60B008CE4032008B505F03C
:10446000DDFE4FF4165105F0C9FE06F0BFF84FF41B
:10447000165105F06BFE154800F01BFD1449154858
:10448000FFF727FE14491548FFF723FE1449154886
:10449000FFF71FFE14491548FFF71BFE1449154886
:1044A000FFF717FE144915480023092202F07AFC91
:1044B000002309221249134802F074FC02F02CFA7E
:1044C000114B1860114B01221A7008BD1CE3032028
:1044D0009CE4032026D70B0044E403202DD70B00D7
:1044E00090E4032036D70B008CE4032046D70B0062
:1044F00088E4032055D70B0080E4032064D70B0029
:1045000050E403206ED70B0094E4032068E30320FB
:1045100008B502F001FA064B1B68C01A42F20F738D
:10452000984203D9BDE80840FFF70ABE08BD00BFA6
:104530004CE4032010B50B4C06F058F803681B69D7
:10454000984700280DDD06F051F803685B6998472D
:10455000C1B2204600F046FF0028EDD0FFF7D8FF9B
:10456000EAE710BD6CE3032070B5D0E900531426D0
:10457000044606FB0356AE4204D0284604F028FF4A
:104580001435F8E7206802F0A5FC204670BD88428B
:10459000F8B504460D46164616D9904215D2A2F13A
:1045A0001406751AA1F114072C44B7421CD02CB183
:1045B0003146204604F074FF337C2374304604F007
:1045C00007FF143E143CF0E70ED0B5420CD02CB1DE
:1045D0002946204604F064FF2B7C2374284604F00F
:1045E000F7FE14351434F0E7F8BD2DE9F04100234F
:1045F000C0E9003383604F689F4204460E4623DDC6
:104600004FF0140808FB07F002F05CFC0546D8B137
:10461000D4E9001208FB0212FFF7B9FF206802F08C
:1046200059FC2560A760D6E9007308FB0378B845FC
:1046300008D03946284604F04DFF3B7C2B741437D4
:104640001435F4E7736863602046BDE8F08100002C
:10465000F0B5314B314D00241C70314B8DB0012031
:104660001870214602F072FBCDE90044029405F077
:10467000D5FD6946064603A8FFF7B7FF2F4603A9F5
:1046800006A8FFF7B2FF274B47F8043B06A909A885
:10469000FFF7ABFF09AA1E21384604F0C9F809A8A4
:1046A000FFF762FF06A8FFF75FFF1F4B2B6003A811
:1046B0002E62FFF759FF1D4B2B6005F0AFFD4FF445
:1046C000165105F09BFD03F095FD294603F086FF8A
:1046D0006846FFF749FF164800F0FEFB154800F05A
:1046E00071F82146144803F0A9F81449144803222C
:1046F00002F0CCF805F054FE2346224643F6F06162
:1047000005F056FE05F04CFE2346224604210DB06E
:10471000BDE8F04005F054BE18E3032058E4032040
:1047200019E3032080D70B0098DD0B0098D70B000E
:104730006CE303201CE3032060E3032028E1032053
:10474000A0E40320704710B510210446FFF7A7FC32
:10475000204610BD0EB403B503AB002153F8042B63
:10476000019304F04CFD02B05DF804EB03B0704718
:1047700073B5044608462279A36832B1A3B90B4940
:1047800002B0BDE8704004F027BC094A267B094D01
:104790000949647B012E18BF2946CDE90014074959
:1047A000FFF7D8FF02B070BD054AEFE7B9D70B009D
:1047B00003DA0B00B5D70B00B1D70B00CFD70B0036
:1047C000A8D70B004FF0FF330361704713B50B4CB4
:1047D0002178BFF35B8F11F001010BD120460191CD
:1047E000FFF76AFC019928B1054804F045FD204611
:1047F000FFF767FC024802B010BD00BFB0E4032021
:10480000B4E4032008B5FFF7E1FFBDE8084004F079
:1048100051BD07B50190FFF7D9FF019903B05DF8CD
:1048200004EB04F061BD2DE9F04190F91330013340
:1048300005460F4606D1FFF7C9FF3946BDE8F041EE
:1048400004F0C0BD002407264FF0010895F91300BD
:10485000002180B205F00BFE95F9110008FA06F16F
:10486000394080B205F003FE95F91300012180B2B2
:1048700005F0FDFD95F91200640080B2E4B205F088
:104880000FFE08B144F00104013EDFD22046BDE82E
:10489000F08100007FB590F91030013304460E46D8
:1048A000154613D10179006803F0A0F82068036869
:1048B00031469B6898472068036829469B6898475B
:1048C000206804B0BDE8704003F0B0B890F9133030
:1048D00001330CD1164B009300238DF80430154B97
:1048E000029368460123ADF80C30FFF792FF94F96C
:1048F0001000002180B205F0BAFD06F07F012046CD
:10490000FFF791FF29462046FFF78DFF94F910002D
:10491000012180B205F0ABFD94F91330013304D1CD
:1049200004B0BDE87040FFF76DBF04B070BD00BFBC
:10493000F4D70B0020A10700F8B5DB0002F0070256
:1049400003F03803134343EA81139DF8186080F89D
:104950003C3090F840309DF81C509DF8207066F374
:10496000471380F84030ED0090F8383007F0070723
:1049700005F0380523F03F033D4304461D4380F80E
:10498000385006F00702F221FFF784FF94F8382030
:10499000C2F3C20302F007019B0043EA411343EA5A
:1049A000D2122046F521FFF775FF94F83C20C2F3A0
:1049B000C20302F007019B0043EA411343EA92124B
:1049C0002046F421BDE8F840FFF764BF30B590F908
:1049D0001030013385B004460D4618D101790068C6
:1049E00003F004F82068036829469B68984720680C
:1049F00003F01CF821792068012202F0F4FF2068FE
:104A000003685B699847C5B2284605B030BD90F988
:104A1000133001330CD1154B009300238DF8043073
:104A2000134B029368460123ADF80C30FFF7F1FEFB
:104A300094F91000002180B205F019FD45F08001C5
:104A40002046FFF7F0FE00212046FFF7ECFE05466A
:104A500094F91000012180B205F009FD94F913309A
:104A60000133D1D1FFF7CEFECEE700BFF4D70B0064
:104A700020A1070008B5F321FFF7A8FF00F001000F
:104A800008BD000030B590F91030013385B0044600
:104A90000D461FD10179006802F0A8FF2068036865
:104AA00029469B689847206802F0C0FF217920685A
:104AB000022202F098FF206803685B699847054668
:104AC000206803685B69984740EA052085B228465C
:104AD00005B030BD90F9133001330CD1184B009361
:104AE00000238DF80430174B029368460123ADF87C
:104AF0000C30FFF78EFE94F91000002180B205F013
:104B0000B6FC45F080012046FFF78DFE00212046CF
:104B1000FFF789FE002105462046FFF784FE40EAA4
:104B2000052085B294F91000012180B205F09FFCA8
:104B300094F913300133CAD1FFF764FEC7E700BF11
:104B4000F4D70B0020A1070008B5FFF79BFF40BA80
:104B500080B208BD38B588210446FFF7F5FF8A21E9
:104B6000A0822046FFF7F0FF8C21E0822046FFF76D
:104B7000EBFF8E2120832046FFF7E6FF9021608324
:104B80002046FFF7E1FF9221A0832046FFF7DCFFDC
:104B90009421E0832046FFF7D7FF9621208420460A
:104BA000FFF7D2FF982160842046FFF7CDFF9A21BE
:104BB000A0842046FFF7C8FF9C21E0842046FFF731
:104BC000C3FF9E2120852046FFF7BEFFA1216085FF
:104BD0002046FFF7FBFEE12184F82C002046FFF77A
:104BE000B3FFE321E0852046FFF7F0FEE42184F8DF
:104BF00030002046FFF7EAFEE52105462046FFF794
:104C0000E5FE00F00F0343EA05106086E62120462A
:104C1000FFF7DCFEE52105462046FFF7D7FEC0F38F
:104C2000071343EA0510A086E7212046FFF7CEFED2
:104C300084F8360038BD000030B590F910300133EB
:104C400085B004460D4623D10179006802F0CEFEFE
:104C50002068036829469B689847206802F0E6FEB2
:104C600021792068032202F0BEFE206803685B6998
:104C700098470502206803685B6998472843050246
:104C8000206803685B6998470543284605B030BD36
:104C900090F9133001330CD11A4B009300238DF897
:104CA0000430194B029368460123ADF80C30FFF72E
:104CB000B0FD94F91000002180B205F0D8FB45F05A
:104CC00080012046FFF7AFFD00212046FFF7ABFD36
:104CD000002105022046FFF7A6FD2843050200211A
:104CE0002046FFF7A0FD054394F91000012180B292
:104CF00005F0BDFB94F913300133C6D1FFF782FDF7
:104D0000C3E700BFF4D70B0020A1070010B5FA21BC
:104D10000446FFF791FFB0F5000F1FD0A18A9FED69
:104D2000117A4B00C1EB2022C3EBE011B4F916302D
:104D3000594302FB02F3B4F918201B1353439B138E
:104D400003EBE123E36003EB830380331B1207EEE5
:104D5000903AF8EEE77A87EE870A10BD9FED020AD7
:104D6000FBE700BF0000C8420000C07F38B5044622
:104D7000FFF7CCFFFD212046FFF784FEB0F5004F82
:104D800038D0E168B4F93420A1F59635B4F9321081
:104D90000905C1EB803305FB123303F58043DA13B9
:104DA00094F8303094F936106B43DB126943891262
:104DB00003F500434B439B12B4F92E1003F5001387
:104DC0004B4303F500539B135343DA1394F82C1011
:104DD0005243D2114A43A3EB221323EAE373B3F104
:104DE000C85FA8BF4FF0C8531B1300EE103ABAEECD
:104DF000CB0A38BD9FED010AFBE700BF0000C07F72
:104E000030B5044690F91000421C85B019D12068D5
:104E100002F0BAFDD0212046FFF7D8FD6028A0603F
:104E200045D12046B622E021FFF734FD4FF49670BD
:104E300002F098F82046FFF71DFE054628B36420CF
:104E4000F6E7012180B205F012FB94F91000012170
:104E500080B205F0FBFA94F91300431C04D1FFF76C
:104E6000B5FC04F013FAD5E7012180B205F0EEFAA3
:104E700094F91100012180B205F0E8FA94F91200CA
:104E8000002180B205F0E2FAC4E72046FFF762FE97
:104E9000052300931A4603212046CDE90155FFF76B
:104EA0004BFD642002F05EF8012005B030BD00200B
:104EB000FBE7772310B50371044605F033FB206050
:104EC0002046FFF79DFF30B9762323712046BDE8C9
:104ED0001040FFF795BF10BD00220221C0E930222B
:104EE0000280828082600273028242610276828343
:104EF000026280F824200285C26280F83020028796
:104F0000C263A0F84820C264A0F858200266A0F846
:104F100068200267A0F87820C0F88020A0F88820D8
:104F2000C0F89020A0F89820C0F8A02080F8B91010
:104F3000A0F8BA2080F8BC20C0E93222C0E93422AF
:104F4000A0F8A82080F8AA207047A1F14103052B02
:104F500002D8A1F137007047A1F16103052B94BF7E
:104F6000A1F15700A1F13000704738B5057804462B
:104F70002D2D08BF0134204606F05DFA6423584306
:104F8000224614F8013BA3F130010929F8D92E2B50
:104F90000BD15378303B092B07D80A2101FB0300C2
:104FA0009378303B092B98BFC0182D2D08BF404285
:104FB00038BD000038B504460D4606F03CFA6423BF
:104FC000B0FBF3F203FB120311482A80434320464F
:104FD0000278A2F13004092C014600F10100F7D952
:104FE0002E2A0BD10A480A2411F8012F303A092A37
:104FF00004D8B0FBF4F000FB0233F5E703EB8303C6
:1050000001330322B3FBF2F36B6000232B7238BD34
:105010008096980010B5C3694360036A836090F876
:1050200024300373836A0361C36A436190F83030AC
:105030000376044601F070FC40F2011360632380A4
:1050400010BD000000000000D0B5002304464370EE
:10505000806805F007FE0CA3D3E9002305F0A6FF46
:105060000646A0880F4605F00DFE0B46024639465F
:10507000304605F0BBFC237B13B101F10043194618
:1050800041EC100BD0BD00BF0000000065CDCD414C
:10509000D0B5002304464370406905F0E3FD0CA33E
:1050A000D3E9002305F082FF0646208A0F4605F06B
:1050B000E9FD0B4602463946304605F097FC237E53
:1050C00013B101F10043194641EC100BD0BD00BFF4
:1050D0000000000065CDCD4110B5836843600446F3
:1050E00001F01AFC40F20113E060238010BD10B5FE
:1050F00083684360044601F00FFC40F20113E06056
:10510000238010BD10B504460846FFF72EFFA060AF
:1051100010BD10B50446084606F08DF9A06010BD1C
:1051200010B5C3688360044601F0F6FB40F201133A
:105130006060238010BD10B504460846FFF715FFD8
:10514000E06010BD10B5C3688360044601F0E4FB65
:1051500040F201136060238010BD10B5044608467C
:1051600006F069F9E06010BD10B501460446103044
:1051700006F0EDF901F0D0FB40F201132062A384A8
:1051800010BD102206F025BAF8B590F8A9500446D3
:10519000002D64D090F8AA10FFF7D7FE94F8AB105A
:1051A00002462046FFF7D1FE94F8A83000EB02102B
:1051B000C0B283424BD1D4F8D4300133C4F8D430D8
:1051C00094F8BC3023B1D4F8CC300133C4F8CC30DF
:1051D00094F8B93033B3012B15D104F13800FFF73F
:1051E0007BFF04F14800FFF782FF94F8BC3053B115
:1051F0002046FFF70FFF04F15800FFF791FF04F17D
:105200006800FFF78DFFD4F8C46036B3D4F8C4301B
:10521000B06A996A06F091F9F8B93046FFF7A4FF31
:10522000366BF2E704F14800FFF761FF94F8BC30F9
:1052300033B12046FFF7EEFE04F17800FFF770FF70
:1052400004F18800FFF77EFF04F19800D9E7D4F855
:10525000D0300133C4F8D03000252846F8BD90F88E
:10526000BA206ABB00F1AA065A49304606F065F931
:1052700020B15949304606F060F998B9012384F805
:10528000B930D4F8C030C4F8C430D4F8C470002F9A
:10529000E3D0B86A314606F050F9002880F29480D5
:1052A0003B6BF0E74D49304606F047F920B14C49D9
:1052B000304606F042F908B90023E0E70223DEE7B2
:1052C00090F8B910022923D090F8AA3003B342EA2B
:1052D0004112013A282A1BD8DFE802F0153B424967
:1052E0004C63686E721A1A1A1A1A1A1A1A1A1A1AA9
:1052F0001A1A1A1A1A1A1A1A1A1A1A1A15343B42B0
:10530000494C53595D0000F1AA014830FFF7FAFEFD
:10531000D4F8C46004F1AA07002E9ED0D4F8C4309B
:10532000B06A996A06F009F9002896D1F26A94F8F1
:10533000BA309A4291DC03D139463046FFF721FF5B
:10534000366BE9E7A3F141004342434184F8BC30A6
:10535000DEE700F11C0104F1AA00FFF72BFED7E7FE
:10536000A3F153014B424B4180F82430D0E700F1C8
:105370002801F0E7A3F157025342534180F830303F
:10538000C6E700F1AA015830FFF7D5FEC0E700F1EB
:10539000AA016830F8E700F1AA013830FFF7B9FE3A
:1053A000B6E7302B94BF00230123CFE700F1AA0119
:1053B0008830FFF7D2FEABE700F1AA019830E3E7AF
:1053C00000F1AA017830DFE73FF447AF0023C4F8CB
:1053D000C43042E700D80B0006D80B000CD80B00F5
:1053E00012D80B0038B5D0F8C830242903F10103D6
:1053F00004460D46C0F8C8303AD090F8BB3014D8F7
:105400000A291CD00D291AD00D2B9FBF5A1C1B191D
:1054100084F8BB2083F8AA5094F8A90098BB94F8AC
:10542000A8104D4084F8A85021E02A2907D02C2943
:10543000EAD190F8A82082F02C0280F8A8200E2B48
:105440004FF0000005D8234483F8AA002046FFF758
:105450009BFE94F8BA30013384F8BA30002384F804
:10546000BB30A5F12A035D425D4184F8A95038BDE7
:1054700000200223A4F8A80084F8B930A4F8BA00E8
:1054800084F8BC00F3E70020F1E7000013B51C200E
:10549000FEF701FE044648B1064B07491B6800931E
:1054A0000968064B42F2343200F040FE204602B05A
:1054B00010BD00BF44E5032040E5032018D80B00D1
:1054C00013B52020FEF7E7FD044640B1054B064921
:1054D0001B6800930968054B502200F041FA2046F2
:1054E00002B010BD44E5032040E5032018D80B00AE
:1054F00013B51C20FEF7CFFD044648B1064B074903
:105500001B6800930968064B42F2343201F01EF921
:10551000204602B010BD00BF44E5032040E5032053
:1055200018D80B0013B51420FEF7B5FD044640B1A2
:10553000054B06491B680093002309681A4600F0D2
:105540002BFD204602B010BD44E5032040E50320BA
:10555000012A02D1016000207047022A04BF0B68B3
:105560000360F8E70368184710B58368044613B171
:10557000032201469847204610BD000010B586B0B2
:1055800000220346049221B10F4A05920F4A02916C
:10559000049202AA92E803006C4684E8030093E8B0
:1055A000030082E8030094E8030083E80300049901
:1055B000986804909960D8680599D960059010465C
:1055C000FFF7D2FF06B010BD65550B0051550B001B
:1055D00038B584690A4B036005467CB16368013BBA
:1055E00063605BB9236820469B689847A368013BCA
:1055F000A3601BB923682046DB689847284638BD5E
:105600007CDE0B0010B50446FFF7E2FF20461C21AC
:10561000FEF745FD204610BD2DE9F04100F10801DF
:10562000C2680B464AB1177C0678D2E90245B742F8
:105630002ABF13462A462246F4E7994204D000784E
:105640001A7C904238BF0B46DA690AB905F0A9F80E
:10565000BDE8F0411A6A03F114001047F8B58B68F1
:10566000164604460D1D012263B11D7C3278D3E934
:105670000270954288BF01221D4696BF00223B461C
:105680000346F1E792B1CA68AA4203D1C4E90035E2
:105690002046F8BD284605F027F83378027C9A4268
:1056A0004FF00003F2D3C4E90003F1E72846F4E722
:1056B0002DE9FF4700F10409856806460F464C4670
:1056C0004DB1287C3978D5E9023288422ABF2C4670
:1056D00015461D46F4E7A14503D03A78237C9A424B
:1056E0002FD22420FEF7D7FC97F800A080F810A056
:1056F0000023A1458046C36100F1100226D17369E1
:105700001BB137693B7C534509D3314602A8FFF7EB
:10571000A5FFDDE90247002F52D0002C4ED1B9453C
:105720004CD098F810003B7C98422CBF0020012000
:105730004B463A46414604F0D9FF73690133736121
:10574000444604F1140004B0BDE8F087237C0192C4
:10575000534518D9F3689C4209D0204604F0C4FF91
:10576000037C019A534505D2C36853B904462746C2
:105770001C46D0E7314602A8FFF770FFDDE902348E
:10578000F5E72346F3E71BD23769BC420BD020462E
:1057900004F0A8FF037C019A5345054605D9E36848
:1057A00053B927461D462C46B5E7314602A8FFF7F8
:1057B00055FFDDE90257F6E70746F4E70120B7E7B2
:1057C00008F11400FFF7D0FE40462421FEF767FCE5
:1057D000A046B5E72DE9F341051D0026174600F167
:1057E0000802C0E90362C0E905260446884606723D
:1057F00003700DF10701012328468DF80730FFF7EC
:1058000057FF1649FFF7BAFE0DF1070128468DF83C
:105810000760FFF74DFF1249FFF7B0FE02230DF1BD
:10582000070128468DF80730FFF742FF0D49FFF7C3
:10583000A5FE03230DF1070128468DF80730FFF779
:1058400037FF0949FFF79AFE084BC3F80080084B61
:1058500020461F6002B0BDE8F08100BF8D540B00F0
:10586000C1540B00F1540B0025550B0040E50320FB
:1058700044E5032008B5054804F008F9044804F09D
:1058800005F9BDE80840034804F068BB24E503209F
:10589000BCE40320D8E40320017570470022011DF9
:1058A000C0E90221C0E904120271704770B50646D2
:1058B0002DED028B142001F005FB0546142001F0AC
:1058C00001FB0446304605F068FE324600230238EC
:1058D000984214DD12F8011B0D293AD111780A29DA
:1058E00037D151780D2934D191780A2931D1043337
:1058F000F1181422284605F06CFE00232B750A21AE
:10590000284605F003FE064628B30A21013005F0BB
:10591000FDFD00B33146204605F019FE204605F096
:105920003CFE2044002300F8013C204605F080FDA9
:1059300051EC100B05F008FD08EE100A204601F0AE
:10594000C9FA284601F0C6FAB0EE480ABDEC028B4F
:1059500070BD0133BCE79FED018AF5E75F42A2CD40
:1059600030B5074D05600025C0E901130575039B9F
:1059700041F2883585610525C0E90332057730BDE0
:1059800034DA0B002DE9F74FDFF88C80DFF88CA0BC
:10599000DFF88CB004460D461746002640465FFAF5
:1059A00086F903F0EBFE88BB237F4B452ED9237D80
:1059B000CBB104F033FC514603F00EFB04F02EFC97
:1059C000294603F009FB04F029FC594603F004FBC7
:1059D00004F024FC0A224946019003F01AFB019BC3
:1059E000184603F000FB0023BAB22946404603F0F4
:1059F00047FE237D23B104F011FC064903F0FFFAB2
:105A00004FF47A7001F0AEFA0136C7E703B0BDE893
:105A1000F08F00BF56D80B0048E503202CD80B00B0
:105A200042D80B00F8B505460C4640F2BD220021D5
:105A3000204605F035FD2B7D4BB104F0EFFB1449FA
:105A400003F0DDFA04F0EAFB124903F0D8FA124E33
:105A500004F2BB27304603F06FFF70B1304603F00D
:105A600079FD20702B7D2BB104F0D8FB03682178E1
:105A70009B6898470134A742ECD12B7D33B104F0E9
:105A8000CDFBBDE8F840054903F0B9BAF8BD00BF49
:105A90007BD80B0067D80B0048E503207AD80B00B1
:105AA000F8B50E4F04460026384603F045FF05467C
:105AB00090B9A369B3420FDD012001F053FAA36945
:105AC0000136B342F0DC207D28B104F0A7FB044985
:105AD00003F095FA2846F8BD0120FCE748E50320CD
:105AE00086D80B00F8B50F460269416804461D468A
:105AF000FFF748FF784803F041FE0646002800F013
:105B0000E1807649744803F067FA3946724803F039
:105B100063FA7349704803F05FFA72496E4803F004
:105B20005BFA61686C4803F057FA6F496A4803F002
:105B300053FA6E49684803F04FFAA168664803F0CB
:105B40004BFA6949644803F047FA6949624803F02F
:105B500043FAE168604803F03FFA63495E4803F0A6
:105B60003BFA64495C4803F037FA63495A4803F04A
:105B700033FA284605F011FD60490646564803F001
:105B80002BFA0A223146544803F043FA5C49524842
:105B900003F022FA2946504803F01EFA52494E48B3
:105BA00003F01AFA4C4803F0EFFC237D002B69D078
:105BB00004F034FB534903F022FA04F02FFB474969
:105BC00003F00AFA04F02AFB394603F005FA04F060
:105BD00025FB434903F000FA04F020FB414903F0A0
:105BE000FBF904F01BFB616803F0F6F904F016FB07
:105BF0003D4903F0F1F904F011FB3C4903F0ECF9E5
:105C000004F00CFBA16803F0E7F904F007FB364948
:105C100003F0E2F904F002FB354903F0DDF904F08A
:105C2000FDFAE16803F0D8F904F0F8FA2E4903F020
:105C3000D3F904F0F3FA2F4903F0CEF904F0EEFAA9
:105C40002D4903F0C9F904F0E9FA2C4903F0C4F92D
:105C500004F0E4FA0A22314603F0DBF904F0DEFA3C
:105C6000274903F0B9F904F0D9FA294603F0B4F949
:105C700004F0D4FA1C4903F0AFF904F0CFFA22493A
:105C800003F0BDF92046FFF70BFF237D2BB901245C
:105C9000114803F0ABFE2046F8BD04F0BFFA1B49E3
:105CA0000D4D03F0ACF9284603F046FE0028EED077
:105CB000284603F04FFC044604F0B0FAE1B203F0CA
:105CC0008FF9F0E7247D002CE2D004F0A7FA104908
:105CD00003F095F93446DBE748E50320B9D80B001B
:105CE000D1D80B00DDD80B0001DA0B00E4D80B0093
:105CF000F1D80B0000D90B0014D90B0035D90B00DB
:105D0000FFD90B0046D90B0062D90B0080D90B00DC
:105D10009CD90B0070B52DED028B044600230E4676
:105D2000154641686648502203F0AAFC2046616887
:105D30005022FFF727FE624803F020FD002800F004
:105D4000B68060495E4803F047F931465C4803F08D
:105D500043F95D495A4803F03FF92946584803F092
:105D60003BF95A49564803F037F95949544803F06A
:105D700033F95849524803F02FF96168504803F04D
:105D80002BF955494E4803F027F954494C4803F084
:105D900023F9A1684A4803F01FF94F49484803F026
:105DA0001BF94F49464803F017F9E168444803F0EE
:105DB00013F94949424803F00FF94A49404803F0B2
:105DC0000BF9237D002B4FD004F028FA3D4903F056
:105DD00003F904F023FA314603F0FEF804F01EFA4A
:105DE000394903F0F9F804F019FA294603F0F4F8F8
:105DF00004F014FA354903F0EFF804F00FFA3449CF
:105E000003F0EAF804F00AFA324903F0E5F804F086
:105E100005FA616803F0E0F804F000FA2E4903F097
:105E2000DBF804F0FBF92D4903F0D6F804F0F6F99D
:105E3000A16803F0D1F804F0F1F9274903F0CCF898
:105E400004F0ECF9264903F0C7F804F0E7F9E1683B
:105E500003F0C2F804F0E2F91F4903F0BDF804F0C2
:105E6000DDF9204903F0B8F82046FFF719FE48B9DC
:105E700013489FED1D8A03F0B9FDB0EE480ABDEC52
:105E8000028B70BD4FF42F7001F01CF801460546DF
:105E90002046FFF7C7FD2846FFF708FD0848B0EE8B
:105EA000408A03F0A3FD284601F014F8E5E7237DBE
:105EB000002BDDD004F0B2F90C4903F0A0F8D7E7CD
:105EC00048E50320C6D90B00DBD90B00DDD90B0058
:105ED000D1D80B00DDD80B0001DA0B00E4D80B00A1
:105EE000F1D80B00E1D90B005F42A2CD04DA0B0020
:105EF000014803F0CBBD00BF48E503209FED010A38
:105F0000704700BF5F42A2CD017470470022011D9F
:105F1000C0E90221C0E904120271704730B585B0B2
:105F20001A46089B1B788DF8003002A83C2301F02C
:105F3000C1FA0020029C00F011FF20B1637813B970
:105F400000F038FFFAE76378BFF35B8F651CABB9ED
:105F50000025039C7CB16368013B63605BB92368E7
:105F600020469B689847A368013BA3601BB9236840
:105F70002046DB689847284605B030BD002000F079
:105F8000EDFE20B12B7813B900F014FFFAE7237867
:105F9000012BDDD1257BDCE710B5044C0460C0E9A2
:105FA00001130024029B0474C36010BD4CDA0B0083
:105FB00038B5044684B1E068FFF7FAFFE369A568E5
:105FC00023B104F1140103220846984720462421F6
:105FD000FEF765F82C46EDE738BDF0B58DB0044608
:105FE00001A80D4617461E4600F0F4FE0398013046
:105FF000FEF753F80199206005F0A9FA2A463946C0
:106000003346E67405A8FFF7E5FBC82000F05AFF09
:10601000E06005A8FFF700FB0023C4E90105237435
:106020000898FFF7C5FF01A803F0D2F90DB0F0BD45
:1060300038B5002504460582FFF7CFFF204638BD5E
:106040002DE9F0470446182015460F46FEF723F8C1
:1060500007F1040A6B68D5F80090BA6843610646F8
:10606000C0F810905546012352B11369D2E90201DC
:106070004B451546CBBF0123002302460A46F3E7F2
:10608000ABB1FB68AB4224D0284604F02DFB804620
:10609000D8F810304B451CDB18213046FDF7FFFFC8
:1060A000C4F80080002323712046BDE8F087A8468D
:1060B000EEE728698145ACBF0020012053462A46FF
:1060C000314604F013FB7B69266001337B610123B9
:1060D000E9E7AA45EDD10120F0E7000008B5074B3C
:1060E000074800221A7003F0D1FC064803F0CEFCEA
:1060F000BDE80840044803F031BF00BFE8E50320D5
:10610000CCE5032064E5032080E50320017570479A
:1061100038B504464CB1E068FFF7FAFFA5682046A1
:106120001821FDF7BCFF2C46F4E738BD30B5064D0D
:106130000560C0E901130025039B057541F2883510
:10614000C0E90332856130BD00DB0B002DE9F84F5B
:106150000D461746804604F061F81E491E4EDFF8D2
:106160007CA0DFF87CB002F04AFF0024304603F048
:1061700054FC60BB052C2AD098F81430C3B104F04D
:106180004DF8514602F028FF04F048F8294602F085
:1061900023FF04F043F8594602F01EFF04F03EF8D6
:1061A0000A228146214602F034FF484602F01BFFD6
:1061B000304603F01BFC0023BAB22946304603F0F8
:1061C0005FFA4FF47A7000F0CDFE0134CEE7BDE8FF
:1061D000F88F00BF5CDA0B00ECE503202CD80B0035
:1061E00042D80B0070B504460E4681682E4815460D
:1061F00002F0F2FE2D492C4802F0EEFEE1682A483A
:1062000002F0EAFE2A49284802F0E6FE3146264816
:1062100002F0E2FE2749244802F0DEFE2946224829
:1062200002F0DAFE2449204802F0D6FE237D002B3E
:1062300038D003F0F3FF214902F0E1FE03F0EEFF56
:106240001F4902F0DCFE03F0E9FFA16802F0C4FE82
:1062500003F0E4FF154902F0BFFE03F0DFFFE16841
:1062600002F0BAFE03F0DAFF114902F0B5FE03F0C6
:10627000D5FF314602F0B0FE03F0D0FF0D4902F029
:10628000ABFE03F0CBFF294602F0A6FE03F0C6FFEB
:10629000094902F0A1FE03F0C1FFBDE870400949C1
:1062A00002F0ADBE70BD00BFECE5032074DA0B0058
:1062B00077DA0B0078D80B0079DA0B0094DA0B0050
:1062C0007EDA0B0093DA0B00F8B50E4F0446002679
:1062D000384603F031FB054690B9A369B3420FDDA0
:1062E000012000F03FFEA3690136B342F0DC207DBF
:1062F00028B103F093FF044902F081FE2846F8BD5F
:106300000120FCE7ECE5032086D80B002DE9F047DF
:10631000037D0646884614464BB103F07FFF2749AC
:1063200002F06DFE03F07AFF254902F068FEDFF807
:10633000A490002540F2BB2A484603F0FDFA78B14C
:10634000484603F007F9337DC7B22BB103F066FF6F
:10635000036839469B689847675501355545EBD129
:10636000337D23B103F05AFF164902F048FE0023A3
:1063700063551549404605F0E0F868B913492046D1
:1063800005F04EF99FED120A0028F7EE007A18BFCB
:10639000B0EE670ABDE8F0877C21204605F0B6F82C
:1063A00048B1013005F044F851EC100B04F0CCFF7B
:1063B00000EE100AEEE79FED060AEBE77BD80B0034
:1063C00067D80B007AD80B0099DA0B009EDA0B0025
:1063D0005F42A2CDECE5032070B52DED028B0446A3
:1063E0004168224842F234321D46002303F048F946
:1063F0002046616842F23432FFF7A8FE1B4803F0E2
:10640000BDF980B12946194802F0E6FD2046FFF7A4
:106410005BFF054680B9154803F0E8FA0025BDEC9E
:10642000028B284670BD237D002BF4D003F0F6FECE
:106430000F4902F0E4FDEEE7642000F043FD0D4952
:10644000024606462046FFF761FF3046B0EE408A1E
:1064500000F040FDDFED087AB4EE678AF1EE10FA45
:10646000D9D0024803F0C2FAD9E700BFECE5032017
:10647000A1DA0B0099DA0B005F42A2CD70B52DEDC9
:10648000028B044600230D46164641681E4842F220
:10649000343203F0F5F82046616842F23432FFF7F7
:1064A00055FE194803F06AF928B3204632462946BA
:1064B000FFF798FE2046FFF707FF48B912489FED07
:1064C000138A03F093FAB0EE480ABDEC028B70BD5C
:1064D0004FF42F7000F0F6FC0D49024605462046A9
:1064E000FFF714FF0848B0EE408A03F07FFA284611
:1064F00000F0F0FCE7E7237D002BDFD003F08EFEF9
:10650000044902F07CFDD9E7ECE503205F42A2CD0F
:10651000BFDA0B00C2DA0B002DE9FF470D46044637
:106520004FF42F7000F0CEFC2B7D07464BB103F0EB
:1065300075FE3A4902F063FD03F070FE384902F03F
:106540005EFDDFF8F090002640F2BB2A484603F0DB
:10655000F3F988B1484602F0FDFF2B7D5FFA80F821
:106560002BB103F05BFE036841469B68984707F830
:10657000068001365645E9D12B7D23B103F04EFE4E
:10658000284902F03CFD0025231DC4E90253C4E95B
:106590000435254925713846BD5505F087FEDFF8DD
:1065A0009890DFF898A0DFF8808006467EB34946D1
:1065B000304604F0C2FF00BB414605F077FE1B49A0
:1065C000064604F0BAFF18B9194B0095019308E08C
:1065D000304604F02DFF51EC100B009504F0B4FE92
:1065E00001906A46214602A8FFF72AFD4146002095
:1065F00005F05CFE01350646D8E75146304604F00A
:106600009CFF0028F2D1414605F050FEDCE73846F9
:1066100000F060FC204604B0BDE8F0877BD80B009A
:1066200067D80B007AD80B0077DA0B00E8DA0B009A
:106630005F42A2CDECE503209EDA0B00EDDA0B0001
:106640002DE9F041071D98460023C0E90237C0E953
:10665000047303710D4688B04968044616462D48F8
:1066600042F2343203F00CF82846696842F23432C0
:10667000FFF76CFD274803F081F810B3314642461E
:106680002846FFF7AFFD2846FFF71EFE0646C0B9B5
:106690002048214F03F0AAF92049404605F006FEA4
:1066A00035461E4E002830D0214602A86A46009585
:1066B0000197FFF7C5FC31460020013505F0F6FDD6
:1066C000F0E7294602A8FFF727FFA068FFF720FDA3
:1066D000049A0023C4E90237C4E904737AB19DF82F
:1066E0000C1021710599E1600699A2602161576043
:1066F000079A626103AACDE90522049307930498DF
:10670000FFF706FD034803F071F9204608B0BDE825
:10671000F08100BFECE503205F42A2CDF3DA0B006D
:10672000014803F0B3B900BFECE503209FED010A77
:10673000704700BF5F42A2CD017570470022011D66
:10674000C0E90221C0E904120271704730B5064D5C
:106750000560C0E901130025039B057541F28835EA
:10676000C0E90332856130BDC4DB0B00014803F092
:10677000F5BB00BF08E6032010B504464A6802498D
:1067800002F08CFB204610BD58E60320F0B58FB018
:106790000146064602A81F46FFF7EEFF02A801F0D9
:1067A000B5F9A0B9337D23B103F038FD274902F0D4
:1067B00026FCF323009337223D23A92108A809AD25
:1067C00001F0C8F90FCD03AC0FC42B682370002271
:1067D00040F2BD211E4803F0F3FB002242F23431A7
:1067E0001B4803F0DBF903AD1A4B08930FCD09AC3E
:1067F0000FC42B681648237042F2343208A903F004
:10680000FBFB58B9337D23B103F008FD124902F0B8
:10681000F6FB0F4803F00EFA002014E0002FF1D031
:10682000384604F0BAFE39460246094803F010FA29
:106830000028E7D0064803F057F90028E2D00448C2
:1068400003F0F8F901200FB0F0BD00BF10DB0B0022
:1068500008E60320F8DC0B009CDB0B0073B5037229
:1068600004465020CDE900211E4600F02BFB60605D
:106870001420FDF710FC054620B1DDE90021334668
:10688000FFF7D6FB256002B070BD000038B50025CB
:106890000446134645728572024AFFF7DFFF204621
:1068A00038BD00BFD4DB0B0008B5024B1B685B6C26
:1068B000019308BD7402030008B5024B1B685B6CB2
:1068C000019308BD4802030008B5024B1B689B6C8E
:1068D000019308BD4802030008B5024B1B68DB6C3E
:1068E000019308BD4802030008B5024B1B685B6DAD
:1068F000019308BD4802030008B5024B1B685B68A2
:10690000019308BD1802030008B5024B1B68DB6841
:10691000019308BD1802030008B5024B1B685B69B0
:10692000019308BD1802030008B5024B1B689B6861
:10693000019308BD2C02030008B5024B1B68DB68FD
:10694000019308BD2C02030008B5024B1B681B69AC
:10695000019308BD2C02030008B5024B1B685B695C
:10696000019308BD2C02030008B5024B1B68DB68CD
:10697000019308BD2802030008B5024B1B689B6900
:10698000019308BD2802030008B5024B1B68DB69B0
:10699000019308BD2802030008B5024B1B681B6A5F
:1069A000019308BD2802030008B5024B1B685B6A0F
:1069B000019308BD2802030008B5024B1B689B6ABF
:1069C000019308BD2802030008B5024B1B68DB6A6F
:1069D000019308BD2802030008B5024B1B681B6B1E
:1069E000019308BD2802030008B5024B1B685B6BCE
:1069F000019308BD2802030008B5024B1B681B6CFD
:106A0000019308BD2802030008B5024B1B689B6C6C
:106A1000019308BD2802030008B5024B1B68DB6C1C
:106A2000019308BD2802030008B5024B1B681B6DCB
:106A3000019308BD2802030008B5024B1B685B697F
:106A4000019308BD6C02030008B5024B1B685B692B
:106A5000019308BD6402030008B5024B1B681B6A62
:106A6000019308BD6402030008B5024B1B685B6A12
:106A7000019308BD6402030008B5024B1B689B6AC2
:106A8000019308BD6402030008B5024B1B689B68B4
:106A9000019308BD6802030008B5024B1B68DB6860
:106AA000019308BD6802030008B5024B1B685B68D0
:106AB000019308BD3802030008B5024B1B689B69AF
:106AC000019308BD3802030008B5024B1B68DB695F
:106AD000019308BD3802030008B5024B1B681B6A0E
:106AE000019308BD3802030008B5024B1B689B6A7E
:106AF000019308BD3802030008B5024B1B68DB6A2E
:106B0000019308BD3802030008B5024B1B681B6BDC
:106B1000019308BD3802030008B5024B1B685B6B8C
:106B2000019308BD3802030008B5024B1B689B6B3C
:106B3000019308BD3802030008B5024B1B681B68AF
:106B4000019308BD3002030008B5024B1B685B6966
:106B5000019308BD3002030008B5024B1B68DB69D6
:106B6000019308BD3002030008B5024B1B681B6A85
:106B7000019308BD3002030008B5024B1B685B6A35
:106B8000019308BD3002030008B5024B1B68DB6BA4
:106B9000019308BD3002030008B5024B1B681B6C53
:106BA000019308BD3002030008B5024B1B685B6C03
:106BB000019308BD3002030008B5024B1B689B68B7
:106BC000019308BD3C02030008B5024B1B68DB685B
:106BD000019308BD3C02030008B5024B1B681B690A
:106BE000019308BD3C02030008B5024B1B685B69BA
:106BF000019308BD3C02030008B5024B1B689B696A
:106C0000019308BD3C02030008B5024B1B68DB6919
:106C1000019308BD3C02030008B5024B1B681B6AC8
:106C2000019308BD3C02030008B5024B1B689B6A38
:106C3000019308BD3C02030008B5024B1B68DB6AE8
:106C4000019308BD3C02030008B5024B1B681B6C96
:106C5000019308BD3C02030008B5024B1B681B688A
:106C6000019308BD4C02030008B5024B1B685B682A
:106C7000019308BD4C02030008B5024B1B689B68DA
:106C8000019308BD4C02030008B5024B1B681B6949
:106C9000019308BD4C02030008B5024B1B685B69F9
:106CA000019308BD4C02030008B5024B1B689B69A9
:106CB000019308BD4C02030008B5024B1B68DB6959
:106CC000019308BD4C02030008B5024B1B681B6A08
:106CD000019308BD4C02030008B5024B1B685B6BB7
:106CE000019308BD6002030008B5024B1B681B6DD1
:106CF000019308BD6002030008B5024B1B68DB6E00
:106D0000019308BD6002030008B5024B1B681B6FAE
:106D1000019308BD6002030008B5034B1B68D3F85C
:106D20009830019308BD00006002030008B5024BD3
:106D30001B685B68019308BD2002030008B5024B85
:106D40001B685B69019308BD2002030008B5024B74
:106D50001B68DB6A019308BD2002030008B5024BE3
:106D60001B68DB6C019308BD2002030008B5024BD1
:106D70001B685B6D019308BD2002030008B5034B3F
:106D80001B68D3F88830019308BD0000200203007F
:106D900008B5034B1B68D3F89430019308BD00007D
:106DA0002002030008B5024B1B681B68019308BD55
:106DB0004402030008B5024B1B689B68019308BDA1
:106DC0004402030008B5024B1B685B69019308BDD0
:106DD0004402030008B5024B1B68DB69019308BD40
:106DE0004402030008B5024B1B681B6A019308BDEF
:106DF0004402030008B5024B1B68DB6B019308BD1E
:106E00004402030008B5024B1B685B68019308BD90
:106E10004002030008B5024B1B689B68019308BD44
:106E20004002030008B5024B1B68DB68019308BDF4
:106E30004002030008B5024B1B681B69019308BDA3
:106E40004002030008B5024B1B685B69019308BD53
:106E50004002030008B5024B1B689B69019308BD03
:106E60004002030008B5024B1B68DB69019308BDB3
:106E70004002030008B5024B1B681B6A019308BD62
:106E80004002030008B5024B1B681B6B019308BD51
:106E90004002030008B5024B1B685B6B019308BD01
:106EA0004002030008B5024B1B681B6C019308BD30
:106EB0004002030008B5024B1B685B6C019308BDE0
:106EC0004002030008B5024B1B681B68019308BD14
:106ED0001C02030008B5024B1B685B68019308BDE8
:106EE0001C02030008B5024B1B689B68019308BD98
:106EF0001C02030008B5024B1B68DB69019308BD47
:106F00001C02030008B5024B1B685B6A019308BDB5
:106F10001C02030008B5024B1B68DB6A019308BD25
:106F20001C02030008B5024B1B681B6B019308BDD4
:106F30001C02030008B5024B1B68DB6B019308BD04
:106F40001C02030008B5024B1B681B6C019308BDB3
:106F50001C02030008B5024B1B685B6C019308BD63
:106F60001C0203000021FFF7E9BE10B58368044648
:106F70000BB903F016FCC3689847A3681BB1032242
:106F800021462046984720461021BDE81040FDF7D5
:106F900086B810B54368013B0446436063B9036893
:106FA0009B689847A368013BA3602BB923682046E0
:106FB000DB68BDE81040184710BD70B5D0E900533C
:106FC000044605EB0316AE4204D0284602F000FA50
:106FD0001035F8E72068FFF77DFF204670BD10B53B
:106FE0000446006808B1FFF7D4FF204610BD13B572
:106FF0000B460246D0E900016C4684E8030093E8A2
:10700000030082E8030094E8030083E8030002B071
:1070100010BD0000024800230360FFF74DBC00BF15
:1070200054E60320002240681146FFF703BF002208
:1070300040681146FFF71EBF002240681146FFF767
:1070400029BF40680022FFF71DBF4068002281F081
:107050000101FFF707BF002340681A461946FFF7F2
:10706000F9BE002340681A461946FFF7EBBE00221E
:1070700040681146FFF7CEBE406800220221FFF7AC
:10708000D1BE002340681A46FFF7BCBE70B5134B53
:1070900003601825303386B00E4643602A4600212F
:1070A0000446083004F0FCF9002270681146FFF72E
:1070B000C1FE78B100212A46684604F0F1F969461C
:1070C0000020ADF80050FFF7EFFB18B969462046E5
:1070D00000F0B8F8204606B070BD00BF3CDC0B00E5
:1070E000084B10B5282422461846002104F0D8F990
:1070F000054B04804FF0FF32426004225A60034A7D
:107100001A6010BD60E6032058E6032000DC0B0087
:107110007047007B7047037B4BB10369B3F1004FAD
:1071200005D08069B0F1004018BF012070470020F1
:10713000704703681B6A184770B503680D461B69E2
:10714000064698470221284602F04AF82C210446B8
:10715000284601F045FF336804449B693046984750
:107160000221284602F03CF8204470BDA0F1040042
:10717000FFF7E2BF10B520210446FCF790FF204640
:1071800010BD0000037B7BB14369002B0CDB07EED5
:10719000903A9FED077AF8EEE77A87EE870ADFEDFF
:1071A000057A20EE270A7047BFEE000A704700BF3D
:1071B00000FF7F470000C842037B63B10369B3F15E
:1071C000004F08D007EE903A9FED047AF8EEE77A88
:1071D00087EE870A70479FED020A70470000C84299
:1071E00000000000037B7BB1C369002B0CDB07EEC2
:1071F000903A9FED077AF8EEE77A87EE870ADFED9F
:10720000057A20EE270A7047BFEE000A704700BFDC
:1072100000FF7F470000C842037B63B18369B3F17D
:10722000004F08D007EE903A9FED047AF8EEE77A27
:1072300087EE870A70479FED020A70470000C84238
:107240000000000030B50D4600F108040FCD0FC45A
:1072500095E8030084E80300012030BD704700205A
:10726000704710B510210446FCF719FF204610BDE9
:1072700008B5FFF7F6FF08BD30B500224FF69C7445
:10728000026084808D888C800C68858004600A6030
:1072900030BD10B504460068FFF71CFE204610BD47
:1072A00038B5C468F4B12378022B03D104F10C0083
:1072B000FFF7EFFF656835B12846FEF755F9102155
:1072C0002846FCF7ECFEA56835B12846FEF74CF9D8
:1072D00010212846FCF7E3FE20461421BDE8384083
:1072E000FCF7DDBE38BD0B6803604B68436013B12B
:1072F0005A6801325A60704737B5044668460D46F1
:10730000FFF7F1FF009B019A23606260002301A850
:1073100001930093FFF763FE35B1281DFFF75FFE71
:1073200008212846FCF7BBFE204603B030BD82682A
:1073300010B50AB903F035FABDE81040C368184724
:1073400008B5006800F11001FFF7F1FF08BD826881
:1073500010B50AB903F025FABDE81040C368184714
:1073600008B5006800F11001FFF7F1FF08BD00004B
:1073700038B500230446036010200D46FCF78BFE51
:1073800028B10123C0E90133024B0360C5602060CE
:10739000204638BD78DC0B0038B5002383608B684D
:1073A00004460D462BB102229847EB68E360AB68B8
:1073B000A360204638BD0000F0B589B00468684677
:1073C000FFF75AFF4FF00203D4E84F2F002A03D1F2
:1073D000C4E8413F0029F7D125D104F10C056946E5
:1073E0002846FFF749FFBFF35B8F0123637000203E
:1073F00004F10803BFF35B8F53E8006F43E800021A
:10740000002AF9D1BFF35B8F6EB1FFF7A7FC78B10B
:1074100029463046FFF78BFF3046FEF7A5F81021CE
:107420003046FCF73CFE6846FFF733FF09B0F0BD7D
:10743000314602A8FFF7B0FFE068B4F9105008B178
:1074400004F08EF806901020ADF81C50FCF723FED7
:107450000546E8B1002787601820FCF71CFE0446AB
:1074600088B10146876002A8FFF7C1FD049BA268AE
:10747000A360059B049206A9E268E36004F1100092
:107480000592FFF7F9FE084BEB60084B2C60AB60F0
:1074900006A8FFF7FEFE02A8FEF766F800222946BE
:1074A0000348FFF763FCB7E741730B00C5750B009A
:1074B0006B6F0B002DE9F04F8BB005469DF850A087
:1074C0000F4690469946FFF77DFC07AE834638BBD2
:1074D0004FF62E73059005A93046ADF81830FFF72A
:1074E000CBFE1420FCF7D7FD044648B102230370FD
:1074F0000123C0E901BB437031460C30FFF7BCFEED
:107500002846214640F8044BFFF732FF3046FFF78C
:10751000C0FE05A8FFF7BDFE28460BB0BDE8F08F02
:107520000C2300241420CDE908440793FCF7B3FD95
:10753000014618B1C0E901440470447004A80391E5
:10754000FFF716FF1E4B08930820FCF7A4FD044626
:1075500010B103A9FFF7C7FE00965FFA8AF34A4607
:10756000414638460994FFF73DFCB8B9039B5B7868
:1075700003F0FF0293B94FF69C7305A903A8059287
:10758000ADF81830FFF718FF05A8FFF782FE05A831
:107590000999FFF7B1FE06A8FFF721FD03A905A889
:1075A000FFF7A1FE059B069A2B606A60002306A8E0
:1075B00006930593FFF713FD04A8FFF710FDABE753
:1075C00041760B00012AF8B5054603D10B6803602C
:1075D0000020F8BD022A10D0032AF9D10468002C3B
:1075E000F6D004F11000FFF754FE2046FDF7BCFF73
:1075F00018212046FCF753FDEAE718200E68FCF737
:107600004AFD044650B13146FFF7C6FE3069B6F96F
:10761000147008B103F0A4FF2061A7822C60D7E7A3
:1076200038B5002383608B6804460D462BB10222D7
:107630009847EB68E360AB68A360204638BD000064
:10764000F0B589B004460D4601A81146FFF754FE77
:10765000A4B124B21DB1284603F082FF054601A85B
:1076600003A90395ADF81040FFF7A6FE03A8FFF7A6
:1076700010FE02A8FFF7B3FC09B0F0BD019D012385
:10768000D5E84F2F002A03D1C5E8413F0029F7D1A3
:10769000EFD12B73BFF35B8F6B702B1DBFF35B8F31
:1076A00053E8006F43E80042002AF9D1BFF35B8F33
:1076B000002EDED02046FFF751FB074660B105F1F2
:1076C0000C013046FFF743FE3046FDF74DFF102119
:1076D0003046FCF7E4FCCCE7314603A8FFF7A0FFF7
:1076E0002B7B8DF81C301020FCF7D5FC0546D0B163
:1076F00087601420FCF7CFFC044678B18760014610
:1077000003A8FFF774FC059BA268A360069B059283
:10771000E268E3609DF81C3006922374064BEB6030
:10772000064B2C60AB6003A8FDF71EFF0022294624
:107730000348FFF71BFBC7E761730B0045770B009E
:107740006B6F0B00012A70B5044603D10B68036010
:10775000002070BD022A0CD0032AF9D10468002C45
:10776000F6D02046FDF700FF14212046FCF797FCD9
:10777000EEE714200E68FCF78EFC054620B131467A
:10778000FFF74EFF337C2B742560E1E70022406851
:107790001146FFF76FBB002240681146FFF77ABB26
:1077A00040680022FFF76EBB4068002281F00101B3
:1077B000FFF758BB002340681A461946FFF74ABB3B
:1077C000002340681A461946FFF73CBB0022406878
:1077D0001146FFF72FBB002240681146FFF71ABB86
:1077E000406800220221FFF71DBB002340681A46B3
:1077F000FFF708BB024B03225A60024A1A60704727
:1078000088E6032094DC0B00090941EA001107EE29
:10781000901A9FED030AF8EEE77A87EE800A704728
:1078200000004844006800F004B910B50446016047
:1078300002710AB1FFF7F6FF204610BD13B50446EA
:10784000019102F093FE019A01462046FFF7EDFFF9
:10785000204602B010BD006800F0F4B82DE9FF41E9
:1078600004460D4617461E46FFF7DCFF362200236E
:10787000CDE9002320680A234FF001086946CDE9CD
:10788000028300F0B7F82068036829469B68984790
:107890002068414600F0C6F8054640B16FF09F05EC
:1078A0002046FFF7D8FF284604B0BDE8F081022348
:1078B00020680193694600F06DF80228EED1206837
:1078C00003685B6998473870206803685B6998476C
:1078D0003070E5E707B500238DF806308DF80730E6
:1078E0000DF106020DF107030221FFF7B7FF40B9C2
:1078F0009DF807109DF8060003B05DF804EBFFF754
:1079000083BFBFEE000A03B05DF804FB7047F8B513
:10791000064615460C468F18BC4206D0336814F84C
:10792000011B9B6830469847F6E72846F8BD007C67
:107930000022FFF731B8007C0021FFF735B8007C4A
:107940000021FFF739B8007C0021FFF73DB8007C2B
:107950000021FFF741B810B514210446FCF79FFB46
:10796000204610BD10B54FF47A7304460846002136
:10797000C4E90113034B236020741146FFF73CF860
:10798000204610BDD0DC0B000023007C1A461946AF
:10799000FEF7EABF7FB500221423CDE90122ADF83E
:1079A00004300B788DF808304B680393CB68049350
:1079B000007C0B7A059301A9FFF736F807B05DF854
:1079C00004FB1FB5003B8DF800104FF064010391DC
:1079D00018BF0123694601928DF80830FFF7DAFFDE
:1079E00005B05DF804FB0123FFF7EBBF007C00222C
:1079F000FEF7C2BF7FB50023CDE901334A68039289
:107A00001423CA68ADF804300B7804920A7A059200
:107A1000007C8DF8083001AA1946FEF7ADFF07B0CB
:107A20005DF804FB007C0022FEF7AEBF0121FFF7EA
:107A3000F9BF08B50021007CFEF7E6FFB0FA80F040
:107A4000400908BD08B50021007CFEF7E5FFB0FA4B
:107A500080F0400908BD704710B518210446FCF7B6
:107A60001EFB204610BDF0B5037D062B8DB00E46E3
:107A700000F104074FF0000412D000F1080515F8DA
:107A8000011D0A22304601F0C4FAAF42044419D065
:107A9000002CF4D02E21304601F0A2FA0444EEE787
:107AA0002F236A4639460A208DF80040FEF7CCFFA6
:107AB000684603F072FD33680246DB68694630466B
:107AC0009847044620460DB0F0BD000010B5054BA8
:107AD0000446112240F8043B002103F0E1FC20465B
:107AE00010BD00BFF8DC0B000346074A10B543F891
:107AF000042B01F1100251F8044B43F8044B91425E
:107B0000F9D10A781A7010BDF8DC0B00037D042B44
:107B100004D14068003818BF01207047062B07D1F8
:107B200043683BB983682BB9C3681BB90069F1E7A7
:107B3000002070470120704710B59DF8084044EAC6
:107B4000032343EA024242EA0161042341600375D0
:107B500010BD000013B5044C04609DF81040009463
:107B6000FFF7EAFF02B010BDF8DC0B0007B5064BCB
:107B70000360CB7800938B784A780978FFF7DCFFB5
:107B800003B05DF804FB00BFF8DC0B0000F110034C
:107B9000012213F8101C0129184608D153F8041CBF
:107BA00002EB4102013A03F11003F2D170470229BE
:107BB00004BF53F8041C5218F4E70EB4F0B588B0B3
:107BC00000AF07F13405102155F8042B7A60044604
:107BD0002B467818FD60FFF795F90F287A681AD9B7
:107BE00000F1080323F007036E46ADEB030D411CC3
:107BF0002B466846FD60FFF785F9021E04DD236809
:107C000069469B6820469847B5462037BD46BDE883
:107C1000F04003B070470028F7D0236802469B6805
:107C200007F1100120469847EFE738B50B6803606D
:107C30004D6843689D42044608D015B16B68013316
:107C40006B60606808B1FFF7A4F9656038BD07B5DF
:107C500003688DF807109B6801220DF10701984712
:107C600003B05DF804FB0B461146002210B5C0E9D5
:107C70000022044683600BB9204610BDFFF7D5FFF4
:107C8000FAE78368EBB11A78032A1AD8DFE802F022
:107C90000417021B0520704702685B685268D05CBD
:107CA0002D2812D0A0F13003092B0ED974280ED044
:107CB00066280CD0A0F16E03584258417047062048
:107CC000704700207047042070470320704702204F
:107CD000704710B50446FFF7D4FF02280ED0C31E2C
:107CE000DBB2012B14D82268A36850685B68BDE83A
:107CF00010400A220021184404F0B6BB2268A36891
:107D000052685B68D05CA0F174035842584110BDC2
:107D10000020FCE738B50023C0E9003304460E48D4
:107D2000C4E90203A9B10B78032B06D08BB9136801
:107D300058684B68C35C6E2B07D013684D68586851
:107D40008B6828445B1BA060E36011462046FFF768
:107D50006CFF204638BD00BF03DA0B0038B50025A4
:107D60000B46C0E90055C0E90255C0E90455044678
:107D700011464BB11A78012A06D103F11002DB68D3
:107D800082604361FFF751FF204638BD10B543695B
:107D9000044663B18068E060013B1030A060206160
:107DA000636113B1FFF7F2FEA060012000E0184606
:107DB00010BD10B57D210446FFF749FF0123237153
:107DC000204610BD08B50379012B02D0022B04D048
:107DD00008BD2C21FFF73BFFFAE73A21FAE710B57F
:107DE0000446FFF7EFFF20467B21FFF730FF00231B
:107DF0002371204610BD000013B504460191FFF722
:107E0000E1FF2368019ADB68034920469847012374
:107E10002046237102B010BD54DE0B0013B504469A
:107E20000191FFF7CFFF2368019ADB6803492046E1
:107E3000984701232046237102B010BD04DD0B00DA
:107E40002DE9F0470D46222190460446FFF7FFFE3C
:107E5000DFF8A490A8442F464745BA463DD017F80E
:107E6000016B222E06D05C2E04D0304603F0E8FAD7
:107E70000028F1D12368AAEB05029B682946204619
:107E800098475C212046FFF7E2FE0D2E0AD8072E08
:107E90001CD9A6F10803052B18D8DFE803F00D0F55
:107EA00011171315222E01D05C2E0FD1314620461A
:107EB000FFF7CDFE3D46CFE76221F8E77421F6E7F4
:107EC0006E21F4E76621F2E77221F0E7236832467B
:107ED000DB68494620469847ECE7BD4205D0236859
:107EE0007A1B9B6829462046984722212046FFF7A7
:107EF000AEFEBDE8F08700BF07DD0B0013B50446FA
:107F0000CDE90021FFF75EFF2046DDE90021FFF704
:107F100097FF02232046237102B010BD13B504461B
:107F2000CDE90021FFF74EFF2046DDE90021FFF7F4
:107F300087FF01232046237102B010BD80680368CB
:107F4000DB6818477047084611B10B685B68184733
:107F50007047704770477047704738B504460D4604
:107F600000682E2103F0DFFA2368C31A2B6023B1C7
:107F7000037803B1013023682060184638BD10B57E
:107F80000C210446FCF78BF8204610BD10B50421E7
:107F90000446FCF784F8204610BD10B504210446C1
:107FA000FCF77DF8204610BDFEF796BC08B503F03F
:107FB000C4FAB0FA80F0400908BD704710B50C460D
:107FC00002F02CF9844210D002F010FB844205D15B
:107FD00002F00CFBBDE8104002F0BBB82CB12368E6
:107FE00020465B68BDE81040184710BD0B68036071
:107FF0004B68436013B15A6801325A60704713B539
:1080000004460846019103F0C8FA01990246204649
:1080100002B0BDE81040FFF781BF13B50446084623
:10802000019103F0BAFA23680199DB680246204601
:1080300002B0BDE81040184707B503688DF8071077
:10804000DB6801220DF10701984703B05DF804FBDE
:108050000EB403B503AB002153F8042B006A01935F
:1080600001F0CDF802B05DF804EB03B070470A6888
:1080700002604A6842600022C0E9022210B5026133
:108080008C688460CC68C4600C698A60CA600461D2
:108090000A6110BD2DE9F74FD0E900844FF0140AB2
:1080A00000930AFB04F4184BA41017465C434546A2
:1080B000002C21DD66100AFB06F005EB00093A46AC
:1080C000B9F804B0285801915F4528BF5A4603F01B
:1080D0006CFA002801994FF001030BD15F4503D1E1
:1080E000009A13703446E3E7FCD9A61B09F1140586
:1080F000013EF7E7F9DBF5E7A5EB08050248AD100F
:10810000684303B0BDE8F08FCDCCCCCC7FB503691C
:10811000057E019103B3F9B1002600F10C0403962A
:1081200003A901A8FFF719FF0146A8B10DF10B0340
:10813000039A8DF80B602046FFF7ACFF9DF80B30DB
:1081400053B12368142404FB0034083434F9023C8E
:10815000002BA8BFDDB2E3E7284604B070BD0000E5
:1081600010B5094C2378BFF35B8FDB0709D4204699
:10817000FBF7A2FF28B12046FBF7A3FF034803F05B
:1081800051F9034810BD00BF94E60320537F0B0054
:1081900030E1032010B5094C2378BFF35B8FDB0778
:1081A00009D42046FBF788FF28B12046FBF789FF5A
:1081B000034803F037F9034810BD00BF98E60320D9
:1081C000BB7F0B0034E1032038B500250446C0E92D
:1081D0000055C0E904558560856140F8245FFEF7CD
:1081E0006BFBFFF7BDFFE061FFF7D4FF2573206253
:1081F000204638BD10B50A4C2378BFF35B8FDB07F0
:108200000CD42046FBF758FF40B10648FFF7DCFFCF
:108210002046FBF756FF044803F004F9014810BD5F
:1082200090E60320A0E6032049870B00024A034999
:1082300003480023FEF768BD2D850B00B9840B00B1
:1082400039840B0000231A4619461846FEF75CBD18
:1082500037B58D6804466846FFF7C8FE6A4629466A
:108260002046FFF77BFD01A8FEF7B9FE204603B0CC
:1082700030BD37B5CD6804466846FFF7B7FE6A469D
:1082800029462046FFF746FD01A8FEF7A8FE204636
:1082900003B030BD37B50D6904466846FFF7A6FE4A
:1082A0006A4629462046FFF7DEFC01A8FEF797FE46
:1082B000204603B030BD000070B58AB00D460146BF
:1082C00004A8FFF7C5FF144E04A8FFF75FFDE8B14F
:1082D00004A96846FFF7CDFF02983146FFF766FE16
:1082E000044610B12C1E18BF012401A8FEF777FE2A
:1082F000002CE9D004A96846FFF7CCFF6846FFF7D9
:10830000E8FC286001A8FEF76AFEDDE705A8FEF795
:1083100066FE0AB070BD00BF0DDD0B0037B50C4620
:1083200020461349154603F008F950B901F076FFCD
:108330004FF4165101F062FF03B0BDE8304001F088
:108340006DBF0C49204603F0F8F878B94FF4165386
:1083500001A928460193FFF7AFFF02F047F9019901
:1083600001F0F4FE02F042F903B030BD0020FBE75B
:1083700012DD0B0019DD0B0070B5D0E90053142697
:10838000044606FB0356AE4205D005F10800FFF790
:10839000F3FF1435F7E72068FEF79CFD204670BD1B
:1083A00010B504460C30FFF7E7FF2046FEF705FE48
:1083B000204610BD10B5044B044640F8043BFFF7BF
:1083C000EFFF204610BD00BF80D70B0010B504465C
:1083D000FFF7F0FF20462421FBF761FE204610BD89
:1083E00010B5034B03600446FFF7E4FF204610BDC1
:1083F000B0DD0B0010B50446FFF7F2FF2046242144
:10840000FBF74DFE204610BD0022C0E9002210B54A
:1084100082600C6804604C6844608C680A604A6042
:1084200084608A6010BD10B5036804461868FEF7C2
:108430005BFA204610BD00002DE9F04F87B0804662
:1084400003931C4B5B68C3F30803894616466BB95C
:10845000FFF7D0FE044600F12403406A0593FFF7BE
:10846000A3FD237B2BB105A8FFF7DDFF07B0BDE817
:10847000F08F01232373D4E900535FFA89F905EBE8
:10848000830AAA4512D055F8047B3146381DFFF700
:108490003DFE8145F5D33B68039A0092D3F808B0BE
:1084A0004A46334641463846D847EAE70023237315
:1084B000D9E700BF00ED00E02DE9F74F9B461A4BCE
:1084C0005B68C3F308038046894616466BB9FFF71D
:1084D00091FE044600F12403406A0193FFF764FD16
:1084E000237B2BB101A8FFF79EFF03B0BDE8F08FFF
:1084F00001232373D4E90053F6B205EB830A5545F3
:108500000ED055F8047B5946381DFFF7FFFD864213
:10851000F5D33B684A46DB68414638469847EEE764
:1085200000232373DEE700BF00ED00E02DE9F341F7
:10853000164B5B68C3F3080305460F461BBBFFF7EA
:1085400059FE00F124030446406A0193FFF72CFD15
:10855000D4E90063462406EB8308B04509D101A89D
:10856000FFF761FFA542B4BF0020012002B0BDE8C3
:10857000F08156F8040B39460430FFF7C7FD8442FA
:10858000A8BF0446E9E70020F0E700BF00ED00E0E7
:10859000F8B5D0E901539D4204460E460DDB6F1C31
:1085A000002F006804DDB900FEF79CFC18B9F8BD87
:1085B000FEF790FC00202060A7602768626807EB48
:1085C00085019200A2EB8502081D02F04FFF47F8DB
:1085D00025606368013363600120E8E737B500F187
:1085E00024030446406A01930D46FFF7DDFCD4E9FD
:1085F000003203EB8202934219460BD00968A9426C
:1086000003F10403F7D101A8FFF70DFF0025284669
:1086100003B030BD29462046FFF7BAFF05460028C3
:10862000F1D06368012B01D1FFF700FE01A8FFF72D
:10863000FAFEECE770B50446D0E900020B4600EB09
:10864000820282420FD001461D6851F8046BAE428F
:1086500007D1521A02F00AFF6368013B63600120F0
:1086600070BD0846EDE70020FAE71FB500F12403CE
:108670000446406A01910393FFF796FC01A9204646
:10868000FFF7D8FF18B163680BB9FFF7DBFD03A84C
:10869000FFF7C9FE04B010BD70B5D0E90456182329
:1086A000044603FB0656AE4215D005F110012046E4
:1086B000FFF7C0FF63680BB9FFF7C4FDE0692969E4
:1086C0000368DB689847696919B1206A0368DB6849
:1086D00098471835E7E7D4E90453182606FB0356F4
:1086E000AE4204D0284600F073FE1835F8E70023A8
:1086F000636170BD73B50446FFF7A4FD04F1240364
:10870000606A0193FFF750FC2046FFF7C5FF01A800
:10871000FFF789FE606A08B1FEF7D6F8D4E9045382
:10872000182606FB0356AE4204D0284600F050FE41
:108730001835F8E72069FEF7CDFB2068FEF7CAFB85
:10874000204602B070BD00000148FFF7D3BF00BF54
:10875000A0E603208842F8B504460D46164615D912
:10876000904214D2A2F11406751AA1F114072C44F8
:10877000B7421AD01CB131462046FFF778FC06F10B
:108780000800FFF7F9FD143E143CF1E70DD0B542A7
:108790000BD01CB129462046FFF769FC05F1080003
:1087A000FFF7EAFD14351434F1E7F8BD8842F8B557
:1087B00004460D46164614D9904213D2A2F1100673
:1087C000751AA1F110072C44B74218D01CB13146DC
:1087D000204600F065FE304600F0FAFD103E103CE9
:1087E000F2E70CD0B5420AD01CB12946204600F071
:1087F00057FE284600F0ECFD10351034F2E7F8BDC6
:1088000070B50E1E054611DD3001FEF75BFB044618
:1088100058B1D5E9001201EB0212FFF7C7FF286833
:10882000FEF758FB2C60AE60012070BD0024F6E717
:108830002DE9F04F904695B000230391D8F804102D
:108840000A9346229942C0E90033C0E90233C0E9E5
:108850000433CDE908330446027623DCD8E9005717
:10886000142303FB0757AF423BD029460BA800F067
:1088700017FE0BA90FA8099E00F012FEDDE90913EF
:1088800099421BDA089B099A03EB061603EB0212C6
:10889000314606F11000FFF789FFEEB9099B01335D
:1088A000099311E008A8FFF7ABFF0028D6D108A86C
:1088B000FEF783FB204615B0BDE8F08F013108A814
:1088C000FFF79EFF0028DDD10FA800F081FD0BA867
:1088D00000F07EFD1435C6E70FA9304600F0E0FD3C
:1088E000DCE70026CDE90B660D964FF01409DDE9B3
:1088F00008239E427CDA3301D35806930BB9013624
:10890000F5E70023079309FB06F302930BAD07A9D4
:1089100006A8FFF722FB82460028F0D04FF00003A4
:108920008DF817300146079A0DF117032846FFF717
:10893000B1FB9DF817700190002F4AD1BDF81C3093
:10894000ADF84030CDE911774FF6FF73CDF83CA07C
:10895000ADF842301397D5E90132934217DB03F1AA
:10896000010ABAF1000F30DD09FB0AF0FEF7AAFA9E
:10897000834660B3D5E9001209FB0212FFF7EAFE55
:108980002868FEF7A7FAC5F800B0C5F808A02B685C
:10899000019A09FB023A6A68514609FB02320AF160
:1089A0001400FFF7D7FEBAF1000F03D00FA950460D
:1089B000FFF75DFB6B6801336B6011A8FFF7DCFC10
:1089C0003FB10BA8FFF7D8FC71E7BB46D8E70127FA
:1089D000F3E7019B2D6809FB0355069B1B782BB918
:1089E000D8F80030029A13441B7CEB8008358EE7E0
:1089F0002168226062686360A36809920A9A0A93F8
:108A0000E368A2600B9A0B932369E2600C9A0C93C3
:108A1000636922610D9A0D93039B0891626123762D
:108A2000CFE70000F0B5044687B00D46264619464C
:108A300068461746FBF7D9FD0B4B46F8043B6946E1
:108A400003A8FBF7D2FD03AA39463046FFF7F0FE34
:108A500003A8FBF789FD6846FBF786FD034B2360FF
:108A60002046256207B0F0BD80D70B0098DD0B00D3
:108A7000F0B50F4685B01D490A9C384616461D467E
:108A800002F05BFDC0B9A4B1294601A8FFF7BCFC08
:108A90001749242001F0CEFD054630B101AB324626
:108AA0002146FFF7BFFF134B2B6001A8FBF75CFDCE
:108AB0002C46204605B0F0BD0F49384602F03DFD7A
:108AC00090B9002CF5D0294601A8FFF79DFC084974
:108AD000242001F0AFFD05460028E6D001AB324668
:108AE0002146FFF79FFFE0E70024E2E721DD0B00CE
:108AF000ACDF0B00B0DD0B0025DD0B00014B024AA3
:108B00001A6070479CE6032036DD0B002DE9F04724
:108B1000089DD0F8209004460E461746984601F06E
:108B20007DFB81454CD02B79190704D56A695449DE
:108B30002046FFF78DFAB8F1000F0DD05B212046DB
:108B4000FFF77AFA41462046FFF767FA23684D4956
:108B5000DB680222204698472B79DA0723D5D5F81F
:108B600008802F21404602F047FD08B100F10108BE
:108B700041462046FFF751FA2B799B0708D53A2149
:108B80002046FFF759FAEA683F492046FFF760FAA6
:108B90002A79236812F0040FDB6814BF3B493C4973
:108BA0000222204698472B7958071DD529690B4684
:108BB0001A4613F8010B60B1202808D11946F7E7CF
:108BC000344800F066F90028ADD0BDE8F0872828C9
:108BD000EED12368521ADB682046984723682E4955
:108BE000DB6804222046984700213846FEF784F8C7
:108BF00001462046FFF711FA23682549DB68022267
:108C0000204698471EB131462046FFF706FA2B79D9
:108C100013F0300F2CD023682049DB680222204655
:108C200098472B79D9060AD523681D49DB680722A6
:108C300020469847AA691B492046FFF709FA2B7975
:108C40009A0611D5DB0605D523681049DB68022298
:108C50002046984723681449DB6820460A22984733
:108C6000E9692046FFF7D9F95D212046FFF7E4F9CD
:108C700023680E49DB6820460222BDE8F04718470A
:108C80003ADD0B0041DD0B0054DE0B0044DD0B0030
:108C900049DD0B00C8E6032047DD0B004CDD0B006F
:108CA0004FDD0B0057DD0B005ADD0B0001DA0B0026
:108CB0002DE9F04385B0D0F820900C9C05460F4676
:108CC00090461E4601F0AAFA814505D1494800F0B8
:108CD000E0F8002840F08A802B6A474A01924FF062
:108CE000000901A803938DF80890FFF778F849462A
:108CF0004046FEF701F841498046012201A8FFF7EE
:108D0000FDF84146FFF77BF93FB13D49012201A83B
:108D1000FFF7F4F83946FFF772F93EB139490122FD
:108D200001A8FFF7EBF83146FFF769F92379DF0770
:108D30000ED5A6682F21304602F05EFC00B1461C1D
:108D40003149012201A8FFF7D9F83146FFF757F959
:108D500023799E0707D52D49022201A8FFF7CEF8F7
:108D6000E168FFF749F82379580714D52669334697
:108D70001F4613F8012B2AB1202A01D11E46F7E71E
:108D8000282AF5D12249022201A8FFF7B7F8BA1B19
:108D90003146FFF7C3F82379190707D51D4901228A
:108DA00001A8FFF7ABF86169FFF738F82379DA0615
:108DB00008D5042218490DEB0200FFF79FF8A169BE
:108DC000FFF71AF823799B0607D51449062201A854
:108DD000FFF794F8E169FFF712F901A8FEF7E9FF40
:108DE000286A0F4903680222DB68984705B0BDE88E
:108DF000F08300BFC8E6032080DD0B0017DD0B0009
:108E0000EDDB0B00A2E30B0053D60B0065DD0B007E
:108E100068DD0B0072DA0B006BDD0B0070DD0B0000
:108E200001DA0B00002340681A46FDF7EBBF4068EB
:108E300000220221FDF7F6BF002240681146FDF72F
:108E4000E9BF002240681146FDF7F4BF00234068E7
:108E50001A461946FDF7F6BF002340681A46194620
:108E6000FDF7F8BF40680021FEF71CB840680021FC
:108E7000FEF720B84068002281F00101FDF7F2BF43
:108E800040680022FDF7FEBF002240681146FEF751
:108E900001B8002240681146FDF7ECBF2DE9F04310
:108EA00095B014460D460746FEF710FE00211C2221
:108EB0000DA8009102F0F4FA40230C9320466B4673
:108EC0000CAA0021FDF7E8FD044600284BD102461C
:108ED00001216868FDF7AEFF0221804622466868DE
:108EE000FDF7A8FF009E81462146002E3BD00029B9
:108EF00039D17368022B03D00A2B11D0F669F4E73D
:108F0000B8F1000FFAD0716906A8043107ADFEF779
:108F10002DFE0FCD3C1D0FC42B6823704146EDE79D
:108F2000B9F1000FEAD07469102201A802F0B8FA72
:108F300006238DF8143001AD04F1080318341868C5
:108F400059682A4603C20833A3421546F7D101A93E
:108F500006A807ADFEF7C8FD0FCD3C1D0FC42B685A
:108F600023704946CAE70098FDF78EFD384615B0D4
:108F7000BDE8F083024B034A1A6000225A60704732
:108F8000C8E60320F8DD0B00F8B506460D468F183D
:108F90000024BD420CD0336815F8011B9B68304695
:108FA0009847031E01DB1C44F3E7002C08BF1C4656
:108FB0002046F8BD13B50446084659B1019102F0A8
:108FC000ECFA23680199DB680246204602B0BDE84E
:108FD0001040184702B010BD08B5FFF7EBFF08BD01
:108FE00003689B68184738B50D210546FFF7F8FF61
:108FF0000A2104462846FFF7F3FF204438BD38B560
:109000000546FFF7D7FF04462846FFF7ECFF20444C
:1090100038BD30B58BB00023012A8DF8243098BFBD
:109020000A2209AC0D46B1FBF2F101FB125303F029
:10903000FF03092B94BF30333733DBB2AA4204F865
:10904000013DEFD92146FFF7B5FF0BB030BD000061
:109050002DE9F74F55EC104B06460F4610EE102A3F
:1090600010EE100A2B46294602F010F940B1534980
:109070003046FFF79FFF8246504603B0BDE8F08FB1
:1090800025F000494E4B4FF0FF322046494602F092
:10909000FDF848B94A4B4FF0FF322046494602F0EE
:1090A000D7F808B94749E3E7474B4FF060422046FD
:1090B000294602F0E1F808B14449D9E7444B4FF0A2
:1090C00060422046294602F0B9F80028F4D1002277
:1090D00000232046294602F0B1F8D0B12D213046B8
:1090E000FFF77EFF05F1004382461D463949DFF850
:1090F000EC904FF0000B00204FF000085FFA8BF36C
:109100009F4208D942464B4601F050FF0BF1010B3C
:10911000F4E78246EAE722462B4601F067FC0D465B
:10912000044602F0F1F8804601F09CFD02460B4631
:109130002046294601F058FC0A2204460D463046D6
:109140004146FFF766FF8244002F95D02249DFF8A1
:109150008C903046FFF72EFF4FF000088244002F1E
:109160008AD042464B462046294601F0F5FD04468A
:109170000D4602F0A1F8B0F1000B1CDA2D213046AB
:10918000FFF72EFFCBF1000103460A223046019380
:10919000FFF73FFF019B18448244584601F072FDDF
:1091A00002460B462046294601F01EFC013F0446BC
:1091B0000D46FFB2D3E759460023E6E72CDE0B004D
:1091C000FFFFEF7F30DE0B00FFFFEF4134DE0B00CF
:1091D000FFFFEFC10000E03F7ED90B0000002440FC
:1091E00038B5044610EE100ACDB201F05DFD41EC39
:1091F000100B29462046BDE83840FFF729BF2DE96E
:10920000F04186B000AF05460E46381D14211446C5
:109210003B60FDF777FE13280ED8391D2846FFF76F
:10922000C9FE04461EB12846FFF7DDFE0444204671
:109230001837BD46BDE8F08100F1080323F00703AD
:10924000E846ADEB030D2246411C3B686846FDF73E
:1092500059FE69462846FFF7ADFE0446C546E1E7DC
:10926000014B00229A607047D0E603200021FDF7F1
:109270009BBC0021FDF790BC10B504460846217048
:10928000FDF76AFC00236360204610BD13B5044659
:109290000078FFF7EEFF58B9207801904FF6FF7184
:1092A000FDF74AFC019802B0BDE81040FFF7DEBFB1
:1092B00002B010BD0078FFF7D9BF0000400830B5FC
:1092C0001860002418688842E5B206D90134082CD9
:1092D00002D040081860F5E70725024B5B5D13706C
:1092E00030BD00BF38DE0B002DE9F04306468FB0DD
:1092F00000780C46FFF7BDFF00281BDB35781422F1
:10930000002109A802F0CCF80B23002209A9284665
:10931000ADF82430FDF730FC9DF82D3013B19DF8E9
:109320002C5055B10027B946B846012523795DB1C7
:10933000C3B100200FB0BDE8F083DDF830809DF8A8
:1093400034909DF83570F1E7002B35D1A368434583
:1093500008D18DF820908DF82170BDF82020A389C8
:109360009A42E6D00023A1688DF80F300A9804AB2A
:109370000DF10F02FFF7A2FF217985B989B9A36822
:1093800043450ED38DF820908DF82170BDF8202034
:10939000A3899A4205D1049B434502D1C9E700291C
:1093A000F9D100230193637B00939DF80F20237B69
:1093B0003078FDF7E9FBBCE7CDE900552B462A469E
:1093C0000121F5E708B50078FDF7BEFBC0B208BD86
:1093D00010B504460068FDF77DFD204610BD10B5B0
:1093E0000446006808B1FDF775FD0023C4E90133A8
:1093F000236010BD38B504460D4600680131FDF705
:1094000071FD10B1C4E90005012038BD10B5036835
:10941000044623B143688B4201D3012010BD20468E
:10942000FFF7E8FF0028F9D0A368002BF5D12268E8
:109430001370F2E737B50D46114601920446FFF767
:10944000E5FF019A28B92046FFF7C9FF204603B07F
:1094500030BDA2602946206801F0FAFF2268A368A7
:109460000021D154F2E738B5054600680C4668B1D2
:109470006A688B689A4207D3096802F068F8A368A3
:10948000AB600023A36038BDFDF724FD23682B608B
:1094900063686B60A368AB600023C4E90033F1E745
:1094A00010B50023C0E90033044683600373FFF75F
:1094B000DAFF204610BD884210B5044605D00B687F
:1094C0002BB18A681946FFF7B5FF204610BDFFF79C
:1094D00086FFFAE710B500230446C0E90033836035
:1094E0000373FFF7E8FF204610BD0000054B022282
:1094F0001A60054B054A9A600020C3E90000FDF799
:1095000015BC00BFECE60320E0E603200000FFFFEF
:1095100013B503688DF80710DC6B01224FF0FF33A1
:109520000DF10701A04702B010BD10B40368DC6B59
:109530004FF0FF33A4465DF8044B604713B5134664
:1095400002688DF80710D46B0DF107010122A047C6
:1095500002B010BD10B54369B3F88620B3F884306B
:109560009A42044608D06369B3F88420511CA3F8DA
:1095700084101344187910BD03681B6998470028AC
:10958000F1D14FF0FF30F6E7704743691868C043E8
:10959000C00F704770470000064B994210B500F1AC
:1095A0000C0405D0084601F0FFF8002808BF00248D
:1095B000204610BDF0DB0B0010B5AC210446FAF7D5
:1095C0006EFD204610BDAC21FAF769BD2DE9F041D2
:1095D0004FF0000886B01C46C0F8048005460E46D1
:1095E00017464146102202A801F05AFF631C09D019
:1095F0004FF47A73B4FBF3F203FB1244CDE9022873
:109600005C430494686910230093006802AB41F244
:10961000050240F6FF71FDF74FFA002807DAFDF763
:1096200089FC03686B60002006B0BDE8F0816869C2
:10963000002300683A463146FDF766FA031EEEDB6A
:109640001846F1E730B587B0044601AD6846FEF72D
:109650008DFA0FCD04340FC42B68237007B030BDD2
:1096600070B54D69054B04468C3544F8043B0646FD
:109670000FCD0FC42B682370304670BDF8DC0B0093
:109680002DE9F0439846036893B00D460024DB6A49
:1096900006461746984728466B46224621460094C0
:1096A000FDF7FAF90546002863D1009B002B4BD04B
:1096B0005B69002B48D006A8FEF708FA009B5C699E
:1096C0006378022B04D1211D06A8FFF7BBFF26E01B
:1096D0000A2B24D11122294601A801F0E1FEA3683A
:1096E000002B38D004F108030DF1040C183418686D
:1096F0005968624603C20833A3429446F7D1062351
:1097000001A90CA88DF81430FEF7EEF90DF1340C18
:10971000BCE80F0007AC0FC4DCF80030237006A8CB
:10972000FEF7F4F980B1336807ADD3F82090124BFF
:109730000C930FCD0DAC0FC42B6823703A464346F3
:109740000CA93046C84705460098FDF79DF9284604
:1097500013B0BDE8F083E368002BC3D14FF6FF7070
:10976000D4F81090FDF778F98145BBD104F11401CC
:10977000AAE72546E8E700BFF8DC0B0038B54369E7
:109780001A68002A054610DAB3F88620B3F8843048
:109790009A420AD103681B699847044628B92B6886
:1097A0002846DB6A9847204638BD0120FCE710B503
:1097B0004369B3F88620B3F884309A42044605D052
:1097C0006369B3F884201344187910BD03681B69DA
:1097D00098470028F4D14FF0FF30F6E7F8B5436919
:1097E0001746B3F88620B3F884309A4205460E46F1
:1097F00016D06969B1F88430B1F88640E41ABC42E9
:1098000028BF3C46043322461944304601F020FE6E
:109810006A69B2F884302344A2F884302046F8BD47
:1098200003681B6998470028E3D14FF0FF34F5E740
:1098300042690023A2F884304269A2F8863070475A
:109840002DE9F0411F4603680C46DB6A8AB00546E5
:1098500016469847237DD5F81480042B0CBF0220B0
:109860000A2006220121FDF75FF9C8F800006B69A4
:109870001B68002B08DA2B682846DB6A002498470F
:1098800020460AB0BDE8F0812846FFF7D1FFB7B106
:10989000002303A9F8B20393ADF81030FDF7CCF81C
:1098A0000028E8D1686906230093006803AB41F201
:1098B0000B0240F6FF71FDF7FFF80028DBD11C22F8
:1098C000002103A801F0ECFD237D042B1DD14FF4F2
:1098D00007733046ADF80C30FDF7CEF8ADF80E004A
:1098E0006068FDF7B9F804906B691C22186803A939
:1098F000FDF7F2F80028BED104340FCC6D698C3529
:109900000FC523682B700124BAE740F61C233046AC
:10991000ADF80C30FDF7B0F805AEADF80E00231D24
:1099200004F1140718685968324603C20833BB4271
:109930001646F7D1D8E7000030B54269B2F8863054
:109940008BB004462BB1B2F884209A4201D1FFF7C4
:109950006FFF61690868002818DBB1F886507F2D19
:1099600014D804310823C5F180022944FDF7BCF85E
:10997000002813DD6369B3F886200AB9A3F88420B0
:109980006369B3F886201044A3F886006369B3F8CE
:109990008600B3F88430C01A0BB030BDFDF7CAFAA8
:1099A00003680B2BF2D0FDF7C5FA03680B2BEDD043
:1099B00020230025CDE90235FDF7BCFA03680193A9
:1099C000084B0949009302AA2B463220FDF78CF977
:1099D00063691868FDF778F863694FF0FF321A6021
:1099E000D4E700BF47DE0B0040DE0B0010B5436933
:1099F00004461868002801DBFDF766F863694FF03C
:109A0000FF321A606069112200218C3001F048FD9C
:109A10002046BDE81040FFF70BBF43691868C043FC
:109A2000C00F704710B5002304460160C0F88430B1
:109A30008830FEF74BF8204610BD000073B50023B8
:109A40004FF47A72C0E901320E4A03610260436149
:109A50000446AC200191FAF71EFB051E05F10C0629
:109A600008D00123C5E90133074B01992B6030462B
:109A7000FFF7D8FF2046C4E90565FFF7D9FE02B01D
:109A800070BD00BF7CDE0B0060DE0B0010B54FF038
:109A9000FF310446FFF7D2FF204610BD10B5044643
:109AA0000068002801DBFDF70FF8204610BD0C30E0
:109AB000FFF7F4BF024B1A68024B1A60704700BFF1
:109AC00038E10320F0E6032010B40468246BA446B8
:109AD0005DF8044B604703689B6C1847808E7047A5
