:02000002D0002C
:1040000000400D00607D0D00000006000D00050160
:0840100004019A080000000001
:04401800C8780D0057
:1040200009480A49884208B505D0094A824202D0A7
:10403000121A03F0A1FA0748074A0021121A03F0E6
:10404000C3FA014808BD00BF00E40320C47C0D0092
:1040500074E4032074E40320EDE7032070B5074EF9
:10406000074C02F095FDA41BA4080025A54200D131
:1040700070BD56F8043B98470135F7E7907C0D007A
:10408000B47C0D0000F048B808B500F055F8BDE864
:10409000084002F035BD00F0E9BD00F0EFBD0000C2
:1040A00008B5034A00210C2000F03CFDFEE700BFEC
:1040B000C5490D000078B0FA80F04009704701232F
:1040C000037070477047006A0368DB681847000098
:1040D0000A4B10B50446036001F040FA214601F096
:1040E0003EFC02F0C5FC02F0B7FC2046044B40F851
:1040F000043B01F021FB204610BD00BF18790D00E4
:1041000000790D0010B50446FFF7E2FF2046242198
:1041100002F070FD204610BD08B502F0A9FC4FF476
:10412000165102F095FC02F01BFCBDE808404FF46C
:10413000165102F00FBC0000F0B53B4C3B4F85B070
:10414000002602F00DFC03681B699847002869D01F
:1041500002F006FC03685B699847C1B2204600F094
:10416000B5FB0028EDD002F0FBFB0D2201466846AE
:1041700002F09EFA02F07CFC009902F050F9D4F8AB
:10418000CC30002B4AD002F073FC294902F034F9FC
:1041900002F06EFC0A22D4F8CC10054602F049F970
:1041A000284602F030F902F063FC224902F024F9BB
:1041B00002F05EFC0546204600F0BAF902212846CE
:1041C00002F01EFA02F054FC1B4902F015F902F04D
:1041D0004FFC0546204600F0CFF90621284602F0A4
:1041E0000FFA02F045FC154902F006F902F040FC16
:1041F0000023054684F87930D4F8800002F050FEA0
:1042000032463B4602F0E0FF41EC100B0621284607
:1042100002F0F6F94FF47A6000F050FD684602F0C3
:104220005FFA8EE705B0F0BD74E40320000059404A
:10423000DC780D00E5780D00EA780D00F0780D00CF
:1042400070B5D0E900531426044606FB0356AE426F
:1042500004D0284602F044FA1435F8E7206800F04C
:104260000DFD204670BD8842F8B504460D46164641
:1042700016D9904215D2A2F11406751AA1F11407AD
:104280002C44B7421CD02CB13146204602F0A4FA8F
:10429000337C2374304602F023FA143E143CF0E7DA
:1042A0000ED0B5420CD02CB12946204602F094FA2B
:1042B0002B7C2374284602F013FA14351434F0E7EB
:1042C000F8BD2DE9F0410023C0E9003383604F6859
:1042D0009F4204460E4623DD4FF0140808FB07F00A
:1042E00000F0C4FC0546D8B1D4E9001208FB021264
:1042F000FFF7B9FF206800F0C1FC2560A760D6E990
:10430000007308FB0378B84508D03946284602F008
:104310007DFA3B7C2B7414371435F4E773686360C3
:104320002046BDE8F081000070B58CB00023CDE9D7
:104330000033029302F09CFB1B4C0546694603A820
:10434000FFF7BFFF264603A906A8FFF7BAFF174BE2
:1043500046F8043B06A909A8FFF7B3FF09AA1E21E6
:10436000304601F056FC09A8FFF76AFF06A8FFF7E0
:1043700067FF0F4B236003A82562FFF761FF0D4B1A
:10438000236002F075FB4FF4165102F061FB01F05F
:10439000E5F8214601F0CFFB6846FFF751FF0648DC
:1043A00000F00CF80CB070BD4CE5032000790D0056
:1043B0006C7A0D0018790D0074E4032000220221AC
:1043C000C0E93022028082808260027302824261F0
:1043D00002768283026280F824200285C26280F81D
:1043E00030200287C263A0F84820C264A0F8582099
:1043F0000266A0F868200267A0F87820C0F8802044
:10440000A0F88820C0F89020A0F89820C0F8A0203C
:1044100080F8B910A0F8BA2080F8BC20C0E9322298
:10442000C0E93422A0F8A82080F8AA207047A1F1A2
:104430004103052B02D8A1F137007047A1F16103B8
:10444000052B94BFA1F15700A1F13000704738B59A
:10445000057804462D2D08BF0134204603F088F866
:1044600064235843224614F8013BA3F13001092983
:10447000F8D92E2B0BD15378303B092B07D80A21C2
:1044800001FB03009378303B092B98BFC0182D2DFA
:1044900008BF404238BD000038B50D46044603F061
:1044A00067F86422134BB0FBF2F102FB11004343A7
:1044B000298020460278A2F13004092C014600F13F
:1044C0000100F7D92E2A0BD10A480A2411F8012F2E
:1044D000303A092A04D8B0FBF4F000FB0233F5E7C8
:1044E00003EB830301330322B3FBF2F36B6000237E
:1044F0002B7238BD8096980010B50346044653F8D9
:104500001C2F42605A6882601B7A0373034653F87B
:10451000282F02615A6842611B7A037600F05AFA2A
:1045200040F201136063238010BD00000000000012
:10453000D0B5002304464370806802F0A1FC0CA3B0
:10454000D3E9002302F040FE0646A0880F4602F0A1
:10455000A7FC0B4602463946304602F055FB237B4A
:1045600013B101F10043194641EC100BD0BD00BF5F
:104570000000000065CDCD41D0B500230446437056
:10458000406902F07DFC0CA3D3E9002302F01CFE7D
:104590000646208A0F4602F083FC0B460246394647
:1045A000304602F031FB237E13B101F1004319467E
:1045B00041EC100BD0BD00BF0000000065CDCD4127
:1045C00010B583684360044600F004FA40F201131A
:1045D000E060238010BD10B583684360044600F09E
:1045E000F9F940F20113E060238010BD10B50446D4
:1045F0000846FFF72CFFA06010BD10B50446084622
:1046000002F0B6FFA06010BD10B5C3688360044619
:1046100000F0E0F940F201136060238010BD10B596
:1046200004460846FFF713FFE06010BD10B5C368ED
:104630008360044600F0CEF940F2011360602380ED
:1046400010BD10B50446084602F092FFE06010BDB0
:1046500010B501460446103003F003F800F0BAF933
:1046600040F201132062A38410BD102203F01BB896
:10467000F8B590F8A9500446002D64D090F8AA101F
:10468000FFF7D5FE94F8AB1002462046FFF7CFFEA9
:1046900094F8A83000EB0210C0B283424BD1D4F89A
:1046A000D4300133C4F8D43094F8BC3023B1D4F8FA
:1046B000CC300133C4F8CC3094F8B93033B3012B8B
:1046C00015D104F13800FFF77BFF04F14800FFF734
:1046D00082FF94F8BC3053B12046FFF70DFF04F180
:1046E0005800FFF791FF04F16800FFF78DFFD4F841
:1046F000C46036B3D4F8C430B06A996A02F0A7FF38
:10470000F8B93046FFF7A4FF366BF2E704F1480032
:10471000FFF761FF94F8BC3033B12046FFF7ECFEA1
:1047200004F17800FFF770FF04F18800FFF77EFFC7
:1047300004F19800D9E7D4F8D0300133C4F8D03070
:1047400000252846F8BD90F8BA206ABB00F1AA06F9
:104750005A49304602F07BFF20B15949304602F0F9
:1047600076FF98B9012384F8B930D4F8C030C4F882
:10477000C430D4F8C470002FE3D0B86A314602F0D8
:1047800066FF002880F294803B6BF0E74D4930468D
:1047900002F05DFF20B14C49304602F058FF08B9E5
:1047A0000023E0E70223DEE790F8B910022923D0C6
:1047B00090F8AA3003B342EA4112013A282A1BD8E2
:1047C000DFE802F0153B42494C63686E721A1A1A10
:1047D0001A1A1A1A1A1A1A1A1A1A1A1A1A1A1A1A39
:1047E0001A1A1A1A15343B42494C53595D0000F10C
:1047F000AA014830FFF7FAFED4F8C46004F1AA0712
:10480000002E9ED0D4F8C430B06A996A02F01FFF1F
:10481000002896D1F26A94F8BA309A4291DC03D11A
:1048200039463046FFF721FF366BE9E7A3F1410037
:104830004342434184F8BC30DEE700F11C0104F13F
:10484000AA00FFF729FED7E7A3F153014B424B41E2
:1048500080F82430D0E700F12801F0E7A3F15702F7
:104860005342534180F83030C6E700F1AA01583076
:10487000FFF7D5FEC0E700F1AA016830F8E700F1C4
:10488000AA013830FFF7B9FEB6E7302B94BF0023FA
:104890000123CFE700F1AA018830FFF7D2FEABE792
:1048A00000F1AA019830E3E700F1AA017830DFE7D0
:1048B0003FF447AF0023C4F8C43042E728790D0025
:1048C0002E790D0034790D003A790D0038B5D0F805
:1048D000C830242903F1010304460D46C0F8C8304E
:1048E0003AD090F8BB3014D80A291CD00D291AD020
:1048F0000D2B9FBF5A1C1B1984F8BB2083F8AA50AC
:1049000094F8A90098BB94F8A8104D4084F8A850DA
:1049100021E02A2907D02C29EAD190F8A82082F09A
:104920002C0280F8A8200E2B4FF0000005D823445D
:1049300083F8AA002046FFF79BFE94F8BA300133B3
:1049400084F8BA30002384F8BB30A5F12A035D4215
:104950005D4184F8A95038BD00200223A4F8A800C6
:1049600084F8B930A4F8BA0084F8BC00F3E700205A
:10497000F1E7000008B5024B1B685B6C019308BDB2
:104980004802030008B5024B1B689B6C019308BDED
:104990004802030008B5024B1B68DB6C019308BD9D
:1049A0004802030008B5024B1B685B6D019308BD0C
:1049B0004802030008B5024B1B685B68019308BD01
:1049C0001802030008B5024B1B68DB68019308BDA1
:1049D0001802030008B5024B1B685B69019308BD10
:1049E0001802030008B5024B1B685B69019308BD00
:1049F0006402030008B5024B1B689B68019308BD65
:104A00006802030008B5024B1B68DB68019308BD10
:104A10006802030008B5024B1B681B68019308BDC0
:104A20003C02030008B5024B1B689B68019308BD5C
:104A30003C02030008B5024B1B68DB68019308BD0C
:104A40003C02030008B5024B1B681B69019308BDBB
:104A50003C02030008B5024B1B685B69019308BD6B
:104A60003C02030008B5024B1B689B69019308BD1B
:104A70003C02030008B5024B1B68DB69019308BDCB
:104A80003C02030008B5024B1B689B6A019308BDFA
:104A90003C02030008B5024B1B68DB6A019308BDAA
:104AA0003C02030008B5024B1B681B68019308BD5C
:104AB0004C02030008B5024B1B685B68019308BDFC
:104AC0004C02030008B5024B1B689B68019308BDAC
:104AD0004C02030008B5024B1B681B69019308BD1B
:104AE0004C02030008B5024B1B685B69019308BDCB
:104AF0004C02030008B5024B1B689B69019308BD7B
:104B00004C02030008B5024B1B68DB69019308BD2A
:104B10004C02030008B5024B1B681B6A019308BDD9
:104B20004C02030008B5024B1B685B6B019308BD88
:104B30006002030008B5024B1B68DB6E019308BDE1
:104B40006002030008B5024B1B681B6F019308BD90
:104B50006002030008B5024B1B685B68019308BD47
:104B60002002030008B5024B1B685B69019308BD76
:104B70002002030008B5034B1B68D3F8883001936B
:104B800008BD00002002030008B5034B1B68D3F8E2
:104B90009430019308BD00002002030008B5024BC9
:104BA0001B68DB6B019308BD4402030008B5024B90
:104BB0001B685B68019308BD4002030008B5024B07
:104BC0001B689B68019308BD4002030008B5024BB7
:104BD0001B68DB68019308BD4002030008B5024B67
:104BE0001B681B69019308BD4002030008B5024B16
:104BF0001B685B69019308BD4002030008B5024BC6
:104C00001B689B69019308BD4002030008B5024B75
:104C10001B68DB69019308BD4002030008B5024B25
:104C20001B681B6A019308BD4002030008B5024BD4
:104C30001B681B6B019308BD4002030008B5024BC3
:104C40001B685B6B019308BD4002030008B5024B73
:104C50001B681B6C019308BD4002030008B5024BA2
:104C60001B685B6C019308BD4002030008B5024B52
:104C70001B681B68019308BD1C02030008B5024BAA
:104C80001B685B68019308BD1C02030008B5024B5A
:104C90001B689B68019308BD1C02030008B5024B0A
:104CA0001B685B6A019308BD1C02030008B5024B38
:104CB0001B685B6C019308BD1C0203000021FFF719
:104CC00051BF10B5036804469B689847A368013B31
:104CD000A3602BB923682046DB68BDE81040184765
:104CE00010BD0B68036013B15A6801325A607047F7
:104CF00010B50446006828B14368013B43600BB916
:104D0000FFF7DFFF204610BD024800230360FFF7D6
:104D100031BE00BF70E50320002240681146FFF756
:104D20005DBF002240681146FFF778BF002240684F
:104D30001146FFF783BF40680022FFF777BF406846
:104D4000002281F00101FFF761BF002340681A468D
:104D50001946FFF753BF002340681A461946FFF76C
:104D600045BF002240681146FFF728BF4068002277
:104D70000221FFF72BBF002340681A46FFF716BF3A
:104D8000084B10B5282422461846002102F01CFCCE
:104D9000054B04804FF0FF32426004225A60034A00
:104DA0001A6010BD7CE5032074E5032048790D00EE
:104DB000002240681146FFF731BF002240681146CB
:104DC000FFF73CBF40680022FFF730BF4068002279
:104DD00081F00101FFF71ABF002340681A46194607
:104DE000FFF70CBF002340681A461946FFF7FEBEC6
:104DF000002240681146FFF7F1BE002240681146CC
:104E0000FFF7DCBE406800220221FFF7DFBE00236F
:104E100040681A46FFF7CABE024B03225A60024A94
:104E20001A607047A4E5032084790D00704710B51F
:104E30001821044601F0DEFE204610BDF0B5037DCA
:104E4000062B8DB00E4600F104074FF0000412D07F
:104E500000F1080515F8011D0A22304601F0E9FAB3
:104E6000AF42044419D0002CF4D02E21304601F07A
:104E7000C7FA0444EEE72F236A4639460A208DF824
:104E80000040FFF7AFFD684602F0F3FB33680246CF
:104E9000DB68694630469847044620460DB0F0BDB1
:104EA00010B5054B0446112240F8043B002102F0E6
:104EB0008BFB204610BD00BFC0790D000346074A9A
:104EC00010B543F8042B01F1100251F8044B43F8DC
:104ED000044B9142F9D10A781A7010BDC0790D00C7
:104EE00010B59DF8084044EA032343EA024242EA2F
:104EF000016104234160037510BD13B5CB780093A5
:104F00008B784A780978FFF7EBFF02B010BD00F10B
:104F10001003012213F8101C0129184608D153F878
:104F2000041C02EB4102013A03F11003F2D1704775
:104F3000022904BF53F8041C5218F4E70EB4F0B56C
:104F400088B000AF07F13405102155F8042B7A60C2
:104F500004462B467818FD60FFF7A0FE0F287A68FC
:104F60001AD900F1080323F007036E46ADEB030DD9
:104F7000411C2B466846FD60FFF790FE021E04DDD3
:104F8000236869469B6820469847B5462037BD464A
:104F9000BDE8F04003B070470028F7D02368024610
:104FA0009B6807F1100120469847EFE710B50368AA
:104FB00004469B689847A368013BA3602BB923680C
:104FC0002046DB68BDE81040184710BD07B50368F0
:104FD0008DF807109B6801220DF10701984703B077
:104FE0005DF804FB38B50B6803604D6843689D426B
:104FF00004460CD015B16B6801336B60606828B152
:105000004368013B43600BB9FFF7D0FF6560204662
:1050100038BD0B461146002210B5C0E900220446F7
:1050200083600BB9204610BDFFF7DCFFFAE7836809
:10503000EBB11A78032A1AD8DFE802F00417021B32
:105040000520704702685B685268D05C2D2812D03A
:10505000A0F13003092B0ED974280ED066280CD08D
:10506000A0F16E0358425841704706207047002057
:10507000704704207047032070470220704710B526
:105080000446FFF7D4FF02280ED0C31EDBB2012B6B
:1050900014D82268A36850685B68BDE810400A22F3
:1050A0000021184402F0A0BB2268A36852685B6824
:1050B000D05CA0F174035842584110BD0020FCE7B9
:1050C00038B50023C0E9003304460E48C4E90203A2
:1050D000A9B10B78032B06D08BB9136858684B68BD
:1050E000C35C6E2B07D013684D6858688B682844E2
:1050F0005B1BA060E36011462046FFF773FF20466C
:1051000038BD00BF327A0D0038B500250B46C0E926
:105110000055C0E90255C0E90455044611464BB19B
:105120001A78012A06D103F11002DB68826043611C
:10513000FFF758FF204638BD10B54369044663B1F8
:105140008068E060013B1030A0602061636113B1B2
:10515000FFF7DDFEA060012000E0184610BD10B58D
:105160007D210446FFF732FF01232371204610BD45
:1051700008B50379012B02D0022B04D008BD2C21E5
:10518000FFF724FFFAE73A21FAE710B50446FFF7E4
:10519000EFFF20467B21FFF719FF002323712046F4
:1051A00010BD000013B504460191FFF7E1FF23682D
:1051B000019ADB6803492046984701232046237162
:1051C00002B010BDCC790D0013B504460191FFF774
:1051D000CFFF2368019ADB680349204698470123E3
:1051E0002046237102B010BDCF790D002DE9F041AA
:1051F0000D4617462221DFF8A08004462F44FFF712
:10520000E5FE2946BD422A4638D015F8016B222E0C
:1052100003D05C2E01D01F2EF4D82368521A9B684D
:10522000204698475C212046FFF7D0FE0D2E0AD875
:10523000072E1CD9A6F10803052B18D8DFE803F0C8
:105240000D0F11171315222E01D05C2E0FD13146F0
:105250002046FFF7BBFE2946D4E76221F8E7742118
:10526000F6E76E21F4E76621F2E77221F0E72368A2
:105270003246DB68414620469847ECE78D4204D031
:1052800023686A1A9B682046984722212046FFF728
:105290009DFEBDE8F08100BFD2790D0013B5044634
:1052A000CDE90021FFF764FF2046DDE90021FFF78B
:1052B0009DFF02232046237102B010BD13B50446A2
:1052C000CDE90021FFF754FF2046DDE90021FFF77B
:1052D0008DFF01232046237102B010BD8068036852
:1052E000DB6818477047084611B10B685B681847C0
:1052F0007047704770477047704738B504460D4691
:1053000000682E2102F099F92368C31A2B6023B19B
:10531000037803B1013023682060184638BD10B50A
:105320000C21044601F066FC204610BD10B5042196
:10533000044601F05FFC204610BD10B50421044670
:1053400001F058FC204610BD08B502F080F9B0FA13
:1053500080F0400908BD704710B50C4601F088FB8D
:10536000844210D001F0FCFA844205D101F0F8FA31
:10537000BDE8104001F0F1BA2CB1236820465B680B
:10538000BDE81040184710BD13B50446084601910A
:1053900002F06FF901990246204602B0BDE81040C4
:1053A000FFF78CBF13B504460846019102F061F97E
:1053B00023680199DB680246204602B0BDE8104030
:1053C000184707B503688DF80710DB6801220DF157
:1053D0000701984703B05DF804FB0EB403B503ABB7
:1053E000002153F8042B006A019301F014F902B074
:1053F0005DF804EB03B070472DE9F74FD0E9009555
:105400004FF0140808FB05F50093AB10184D174634
:105410005D434C46002D23DD6E1008FB06F004EBC7
:10542000000A3A46BAF804B0205801915F4528BFF7
:105430005A4602F026F90199012378B95F4503D154
:10544000009A13703546E5E78CBF01200020002844
:10545000F8D0AE1B0AF11404013EF3E7C00FF6E7E3
:10546000A4EB09040248A410604303B0BDE8F08F28
:10547000CDCCCCCC7FB50369067E01910BB301B3D3
:10548000002500F10C04039503A901A8FFF735FFDF
:105490000146B0B10DF10B03039A8DF80B50204675
:1054A000FFF7AAFF9DF80B305BB12468142303FBC0
:1054B000004000F10804B0F90630002BA8BFDEB2AE
:1054C000E2E7304604B070BD10B5094C2378BFF355
:1054D0005B8FDB0709D42046FEF7ECFD28B12046A0
:1054E000FEF7EDFD034802F03DF8034810BD00BF94
:1054F000B0E50320F3520D0000E4032010B5094C81
:105500002378BFF35B8FDB0709D42046FEF7D2FD7B
:1055100028B12046FEF7D3FD034802F023F80348E4
:1055200010BD00BFB4E5032057530D0004E4032071
:1055300038B500250446C0E90055C0E9045585602A
:10554000856140F8245FFFF715FAFFF7BDFFE061C2
:10555000FFF7D4FF25732062204638BD10B50A4CF2
:105560002378BFF35B8FDB070CD42046FEF7A2FD48
:1055700040B10648FFF7DCFF2046FEF7A0FD0448D7
:1055800001F0F0FF014810BDACE50320BCE50320AD
:105590003D5A0D00024A034903480023FFF7D2BADF
:1055A000C5580D0051580D00D1570D0000231A4663
:1055B00019461846FFF7C6BA37B50D6951F8043BCE
:1055C0000093044601A8FFF78CFB6A462946204653
:1055D000FFF71FFD01A8FFF78BFB204603B030BD8E
:1055E00037B58D6851F8043B0093044601A8FFF7D6
:1055F00078FB6A4629462046FFF786FD01A8FFF79B
:1056000077FB204603B030BD37B5CD6851F8043B79
:105610000093044601A8FFF764FB6A46294620462A
:10562000FFF74EFD01A8FFF763FB204603B030BD36
:1056300070B58AB00D46014604A8FFF7D1FF144E9D
:1056400004A8FFF779FDE8B104A96846FFF7DCFF7D
:1056500002983146FFF778FE044610B12C1E18BFA1
:10566000012401A8FFF744FB002CE9D004A96846F7
:10567000FFF7A2FF6846FFF702FD286001A8FFF7C9
:1056800037FBDDE705A8FFF733FB0AB070BD00BFAD
:10569000D8790D0037B50C4620461249154601F061
:1056A000D6FF48B901F0E4F94FF4165101F0D0F9F2
:1056B00001F0DEF903B030BD0B49204601F0C7FF11
:1056C00070B94FF4165301A928460193FFF7B0FFB4
:1056D00001F046F9019901F03DF901F041F9E9E7DE
:1056E0000020E7E7DD790D00E4790D0070B5D0E921
:1056F00000531426044606FB0356AE4205D005F1BE
:105700000800FFF7F3FF1435F7E72068FFF7B6FA54
:10571000204670BD70B5D0E90053044605EB031672
:10572000AE4204D0284600F0DBFF1035F8E72068D1
:10573000FFF7A4FA204670BD10B504460C30FFF701
:10574000D5FF2046FFF7E6FF204610BD10B5044BFD
:10575000044640F8043BFFF7EFFF204610BD00BFB2
:1057600000790D0010B50446FFF7F0FF2046242114
:1057700001F040FA204610BD10B5034B036004460B
:10578000FFF7E4FF204610BD847A0D0010B50446F3
:10579000FFF7F2FF2046242101F02CFA204610BD2D
:1057A0000022C0E9002210B582600C6804604C68D9
:1057B00044608C680A604A6084608A6010BD10B5DD
:1057C000036804461868FFF7EDF8204610BD000096
:1057D0002DE9F04F87B0804603931C4B5B68C3F301
:1057E0000803894616466BB9FFF7B8FE044600F178
:1057F0002403406A0593FFF7CDF8237B2BB105A85E
:10580000FFF7DDFF07B0BDE8F08F01232373D4E974
:1058100000535FFA89F905EB830AAA4512D055F8BF
:10582000047B3146381DFFF725FE8145F5D33B68E3
:10583000039A0092D3F808B04A46334641463846A8
:10584000D847EAE700232373D9E700BF00ED00E063
:105850002DE9F74F9B461A4B5B68C3F3080380465C
:10586000894616466BB9FFF779FE044600F124031A
:10587000406A0193FFF78EF8237B2BB101A8FFF755
:105880009EFF03B0BDE8F08F01232373D4E90053DA
:10589000F6B205EB830A55450ED055F8047B594600
:1058A000381DFFF7E7FD8642F5D33B684A46DB68C3
:1058B000414638469847EEE700232373DEE700BFF2
:1058C00000ED00E02DE9F341164B5B68C3F30803DC
:1058D00005460F461BBBFFF741FE00F124030446BB
:1058E000406A0193FFF756F8D4E90063462406EBBB
:1058F0008308B04509D101A8FFF761FFA542B4BFF5
:105900000020012002B0BDE8F08156F8040B3946B2
:105910000430FFF7AFFD8442A8BF0446E9E700204A
:10592000F0E700BF00ED00E070B50446D0E90002EA
:105930000B4600EB8202824207D001461D6851F8F7
:10594000046BAE4203D00846F5E7002070BD521A42
:1059500001F020FE6368013B63600120F6E71FB59C
:1059600000F124030446406A01910393FFF712F803
:1059700001A92046FFF7D8FF18B163680BB9FFF7FC
:1059800015FE03A8FFF71BFF04B010BD70B5D0E9EA
:1059900004561823044603FB0656AE4215D005F103
:1059A00010012046FFF7C0FF63680BB9FFF7FEFD4B
:1059B000E06929690368DB689847696919B1206A59
:1059C0000368DB6898471835E7E7D4E904531826DD
:1059D00006FB0356AE4204D0284600F081FE18357F
:1059E000F8E70023636170BD73B50446FFF7DEFD81
:1059F00004F12403606A0193FEF7CCFF2046FFF711
:105A0000C5FF01A8FFF7DBFE606A08B1FEF7BAFF29
:105A1000D4E90453182606FB0356AE4204D02846A8
:105A200000F05EFE1835F8E72069FFF727F92068D7
:105A3000FFF724F9204602B070BD00000148FFF7CF
:105A4000D3BF00BFBCE503208842F8B506460C462C
:105A5000154627D9904226D2A2F114056C1AA1F15D
:105A6000140704440026AF423DD0A4B12B68236044
:105A7000AB88A380B5F90630E380C4E902662661ED
:105A8000AB68A360AE60E368EA68E260EB6023693C
:105A90002A6922612B6105F10800FFF727FE143DFA
:105AA000143CE0E71FD00027AC421CD0A6B123680D
:105AB0003360A388B380B4F90630F380C6E9027777
:105AC0003761A368B360A760F368E268F260E360DF
:105AD000336922693261236104F10800FFF706FE91
:105AE00014341436E0E7F8BDF8B5D0E901539D420F
:105AF00004460E4617460DDB0135002D006804DD17
:105B0000A900FFF7C3F818B9F8BDFFF7B7F80020F0
:105B10002060A5602568626805EB86019200A2EB13
:105B20008602081D01F036FD45F8267063680133D2
:105B300063600120E8E737B500F124030446406ABA
:105B400001930D46FEF726FFD4E9003103EB8100F7
:105B500083421A460BD01268AA4203F10403F7D11C
:105B600001A8FFF72CFE0025284603B030BD2A46C9
:105B70002046FFF7B9FF05460028F1D06368012BE6
:105B800001D1FFF707FD01A8FFF719FEECE78842F6
:105B9000F8B504460D46164614D9904213D2A2F128
:105BA0001006751AA1F110072C44B74218D01CB189
:105BB0003146204600F010FE304600F091FD103EC8
:105BC000103CF2E70CD0B5420AD01CB12946204661
:105BD00000F002FE284600F083FD10351034F2E795
:105BE000F8BD70B50E1E054611DD3001FFF73EF819
:105BF000044658B1D5E9001201EB0212FFF7C7FFC6
:105C00002868FFF73BF82C60AE60012070BD0024CF
:105C1000F6E72DE9F04F914697B000230391D9F8AC
:105C200004100C9346229942C0E90033C0E90233C4
:105C3000C0E90433CDE90A330446027623DCD9E90E
:105C40000057142303FB0757AF423BD029460DA84A
:105C500000F0C2FD0DA911A80B9E00F0BDFDDDE90D
:105C60000B1399421BDA0A9B0B9A03EB061603EB04
:105C70000212314606F11000FFF789FFEEB90B9BC7
:105C800001330B9311E00AA8FFF7ABFF0028D6D130
:105C90000AA8FFF73FFD204617B0BDE8F08F01319D
:105CA0000AA8FFF79EFF0028DDD111A800F018FD1B
:105CB0000DA800F015FD1435C6E711A9304600F017
:105CC0008BFDDCE70026CDE90D660F9637464FF0D9
:105CD000140ADDE90A239E4280F297803301D358EB
:105CE00008930BB90136F4E70AFB06F30997029310
:105CF0000DAD09A908A8FFF700FB83460028F1D0E5
:105D00000146099A8DF81F700DF11F032846FFF711
:105D100073FB9DF81F800190B8F1000F66D1BDF8AC
:105D20002430ADF84830CDE913884FF6FF73CDF835
:105D300044B0ADF84A30CDF85480D5E901329342F1
:105D40001ADB03F1010BBBF1000F4ADD0AFB0BF07C
:105D5000FEF78CFF0490002845D0D5E900120AFB1D
:105D60000212FFF771FE049B28680493FEF786FF7A
:105D7000049B2B60C5F808B0019BD5F800B06A6899
:105D80000AFB03F30BEB030101F114000AFB02B25F
:105D900004910593FFF758FE0499A9B1059B119A48
:105DA0004BF80320BDF848308B80BDF94A30CB80DA
:105DB000C1E902770F61139B8B60149B1397CB6033
:105DC000159B14970B6115976B6801336B6013A8D3
:105DD000FFF78CFCB8F1000F08D00DA8FFF786FC88
:105DE00056E74346C0E74FF00108F0E7019B2D68F6
:105DF0000AFB0355089B1B782BB9D9F80030029A8F
:105E000013441B7CEB80083573E7216822606268CD
:105E10006360A3680B920C9A0C93E368A2600D9ADE
:105E20000D932369E2600E9A0E93636922610F9AC3
:105E30000F93039B0A9162612376CEE77FB50546F7
:105E4000094B45F8043B04460E4601A81146FEF7EF
:105E500038FA01AA31462846FFF7DBFE01A8FEF713
:105E6000EFF9204604B070BD00790D00F0B50F4683
:105E700087B026490C9C384616461D4601F0E7FBC4
:105E800000BBE4B129466846FFF78AFC204924207C
:105E900000F0B2FE054670B1694603A8FEF711FA9C
:105EA00003AA31462846FFF7C9FF03A8FEF7C8F941
:105EB000184B2C622B606846FEF7C2F92C46204630
:105EC00007B0F0BD1449384601F0C1FBE0B9002C21
:105ED000F5D029466846FFF763FC0D49242000F001
:105EE0008BFE05460028E6D0694603A8FEF7E9F9CF
:105EF00003AA31462846FFF7A1FF03A8FEF7A0F941
:105F0000064B2B602C62D6E70024D8E7EC790D0015
:105F10008C7B0D00847A0D00F0790D006C7A0D00F9
:105F2000014B024A1A607047B8E50320017A0D0060
:105F30002DE9F047089DD0F8209004460E461746FC
:105F4000984600F095FD81454CD02B79190704D572
:105F50006A6954492046FFF740FAB8F1000F0DD0A6
:105F60005B212046FFF72DFA41462046FFF71AFA3B
:105F700023684D49DB680222204698472B79DA07CF
:105F800023D5D5F808802F21404601F09FFB08B1AA
:105F900000F1010841462046FFF704FA2B799B07E0
:105FA00008D53A212046FFF70CFAEA683F49204617
:105FB000FFF713FA2A79236812F0040FDB6814BF85
:105FC0003B493C490222204698472B7958071DD56A
:105FD00029690B461A4613F8010B60B1202808D135
:105FE0001946F7E7344800F066F90028ADD0BDE85F
:105FF000F0872828EED12368521ADB68204698479C
:1060000023682E49DB680422204698470021384641
:10601000FEF790FD01462046FFF7C4F923682549A5
:10602000DB680222204698471EB131462046FFF722
:10603000B9F92B7913F0300F2CD023682049DB6895
:106040000222204698472B79D9060AD523681D4994
:10605000DB68072220469847AA691B492046FFF7BC
:10606000BCF92B799A0611D5DB0605D523681049B2
:10607000DB6802222046984723681449DB682046E3
:106080000A229847E9692046FFF78CF95D212046EE
:10609000FFF797F923680E49DB6820460222BDE826
:1060A000F0471847057A0D000C7A0D00CC790D00E9
:1060B0000F7A0D00147A0D00E4E50320127A0D002A
:1060C000177A0D001A7A0D00227A0D00257A0D003C
:1060D000307A0D002DE9F04385B0D0F820900C9C6B
:1060E00005460F4690461E4600F0C2FC814505D18C
:1060F000494800F0E0F8002840F08A802B6A474ABF
:1061000001924FF0000901A803938DF80890FFF762
:106110003CF849464046FEF70DFD414980460122C4
:1061200001A8FFF7BBF84146FFF72EF93FB13D4903
:10613000012201A8FFF7B2F83946FFF725F93EB171
:106140003949012201A8FFF7A9F83146FFF71CF9E8
:106150002379DF070ED5A6682F21304601F0B6FA65
:1061600000B1461C3149012201A8FFF797F83146DA
:10617000FFF70AF923799E0707D52D49022201A8C6
:10618000FFF78CF8E168FFF70DF82379580714D56D
:10619000266933461F4613F8012B2AB1202A01D164
:1061A0001E46F7E7282AF5D12249022201A8FFF767
:1061B00075F8BA1B3146FFF781F82379190707D51F
:1061C0001D49012201A8FFF769F86169FEF7FCFF8C
:1061D0002379DA0608D5042218490DEB0200FFF7EF
:1061E0005DF8A169FEF7DEFF23799B0607D5144908
:1061F000062201A8FFF752F8E169FFF7C5F801A8E8
:10620000FEF7ADFF286A0F4903680222DB68984752
:1062100005B0BDE8F08300BFE4E50320547A0D002B
:10622000E2790D00337A0D00357A0D00067B0D0002
:10623000377A0D003A7A0D003D7A0D003F7A0D0055
:10624000447A0D00307A0D00002340681A46FEF7AC
:10625000ADBC406800220221FEF7B8BC00224068B5
:106260001146FEF7ABBC002240681146FEF7B6BCF3
:10627000002340681A461946FEF7B8BC0023406860
:106280001A461946FEF7BABC40680021FEF7DEBC8C
:1062900040680021FEF7E2BC4068002281F0010165
:1062A000FEF7B4BC40680022FEF7C0BC0022406884
:1062B0001146FEF7C3BC002240681146FEF7AEBC93
:1062C0002DE9F043002495B016460D460746FEF72B
:1062D000E7FD214618220EA8009401F075F940232D
:1062E000CDE90C3421466B460CAA3046FEF78AFBFA
:1062F0000446002846D1024601216868FEF76EFC7C
:106300000221804622466868FEF768FC009E8146AE
:106310002146002E36D0002934D17368022B03D0D9
:106320000A2B0BD0F669F4E7B8F1000F04D07169BD
:1063300038460431FEF7E1FD4146F3E7B9F1000FBD
:1063400001D14946EEE77469102201A801F03CF939
:1063500006238DF8143001AD04F1080318341868D1
:1063600059682A4603C20833A3421546F7D101A94A
:1063700006A807ADFEF7A2FD0FCD3C1D0FC42B688C
:106380002370DEE70098FEF735FB384615B0BDE810
:10639000F0830000024B034A1A6000225A607047E3
:1063A000E4E50320CC7A0D00F8B506460D468F18BB
:1063B0000024BD420CD0336815F8011B9B683046A1
:1063C0009847031E01DB1C44F3E7002C08BF1C4662
:1063D0002046F8BD13B50446084659B1019101F0B5
:1063E00048F923680199DB680246204602B0BDE8FF
:1063F0001040184702B010BD08B5FFF7EBFF08BD0D
:1064000003689B68184738B50D210546FFF7F8FF6C
:106410000A2104462846FFF7F3FF204438BD38B56B
:106420000546FFF7D7FF04462846FFF7ECFF204458
:1064300038BD30B58BB000238DF82430012A98BFC9
:106440000A2209AC0D46B1FBF2F101FB125303F035
:10645000FF03092B94BF30333733DBB2AA4204F871
:10646000013DEFD92146FFF7B5FF0BB030BD00006D
:106470002DE9F74F55EC104B06460F4610EE102A4B
:1064800010EE100A2B46294601F00EF840B1534990
:106490003046FFF79FFF8246504603B0BDE8F08FBD
:1064A00025F000494E4B4FF0FF322046494600F0A0
:1064B000FBFF48B94A4B4FF0FF322046494600F0F7
:1064C000D5FF08B94749E3E7474B4FF06042204604
:1064D000294600F0DFFF08B14449D9E7444B4FF0AB
:1064E00060422046294600F0B7FF0028F4D1002280
:1064F00000232046294600F0AFFFD0B12D213046C1
:10650000FFF77EFF05F1004382461D463949DFF85B
:10651000EC904FF0000B00204FF000085FFA8BF377
:106520009F4208D942464B4600F04EFE0BF1010B4C
:10653000F4E78246EAE722462B4600F065FB0D466B
:10654000044600F0EFFF804600F09AFC02460B463E
:106550002046294600F056FB0A2204460D463046E6
:106560004146FFF766FF824427B123493046FFF7D3
:1065700031FF8244DFF884904FF00008013FFFB202
:10658000FF2F89D042464B462046294600F0F2FCB8
:1065900004460D4600F09EFFB0F1000B1ADA2D21E3
:1065A0003046FFF72DFFCBF1000103460A223046AB
:1065B0000193FFF73EFF019B18448244584600F0C8
:1065C0006FFC02460B462046294600F01BFB0446A2
:1065D0000D46D3E759460023E8E700BF007B0D00D6
:1065E000FFFFEF7F047B0D00FFFFEF41087B0D00F5
:1065F000FFFFEFC10000E03F0C7B0D0000002440D6
:1066000038B5C9B20546FFF733FF04462846FFF701
:10661000FAFE204438BD2DE9F04186B000AF0546B2
:106620000E46381D142114463B60FEF737FB132835
:106630000ED8391D2846FFF7CDFE04461EB1284668
:10664000FFF7E1FE044420461837BD46BDE8F0815F
:1066500000F1080323F00703E846ADEB030D2246E3
:10666000411C3B686846FEF719FB69462846FFF760
:10667000B1FE0446C546E1E7014B00229A6070472F
:10668000ECE5032010B50446FEF7A4F9E0602368AA
:1066900020465B699847002808DAFEF79BF9E36813
:1066A000C01AA3689842F2D34FF0FF3010BD00002B
:1066B00070B50D4609490446164600F05CF82846B8
:1066C000FFF7E0FF002806DB864204D0C1B2204677
:1066D00000F0BEF8F3E7204670BD00BF327A0D002F
:1066E00010B504460068FEF7C9FA204610BD10B583
:1066F0000446006808B1FEF7C1FA0023C4E901337B
:10670000236010BD38B504460D4600680131FEF720
:10671000BDFA10B1C4E90005012038BD10B5036809
:10672000044623B143688B4201D3012010BD2046AB
:10673000FFF7E8FF0028F9D0A368002BF5D1226805
:106740001370F2E737B50D46114601920446FFF784
:10675000E5FF019A28B92046FFF7C9FF204603B09C
:1067600030BDA2602946206800F006FF2268A368B9
:106770000021D154F2E7002313B5C0E900330446E9
:106780008360037341B10846019100F072FF0199E3
:1067900002462046FFF7D6FF204602B010BD38B5AE
:1067A000054600680C4668B16A688B689A4207D350
:1067B000096800F056FFA368AB600023A36038BDF2
:1067C000FEF75CFA23682B6063686B60A368AB60BC
:1067D0000023C4E90033F1E710B50023C0E900331A
:1067E000044683600373FFF7DAFF204610BD88423A
:1067F00010B5044605D00B682BB18A681946FFF71F
:10680000A1FF204610BDFFF772FFFAE710B5002385
:106810000446C0E9003383600373FFF7E8FF2046B6
:1068200010BD70B505460E4609B9002070BD6AB1AD
:10683000846814442146FFF771FF0028F5D02868CA
:10684000AB683146184400F00CFFAC600120EDE766
:1068500007B500238DF80410012201A98DF8053039
:10686000FFF7DFFF03B05DF804FB0000054B0222D9
:106870001A60054B054A9A6000201860988098714C
:10688000FEF768B908E60320FCE503200000FFFFDF
:10689000024B1A68024B1A60704700BF08E40320DD
:1068A0000CE60320704741747047704708B5007CC0
:1068B000FEF7E8F820EAE07008BD08B5007CFEF7B6
:1068C000C1F820EAE07008BD08B5007CFEF7CAF800
:1068D00040EAE07008BD08B5007CFEF7BBF840EA6E
:1068E000E07008BD007CFEF7C5B837B5457C0446AE
:1068F0002DB1207C03B0BDE83040FEF79BB8007C92
:106900000191FEF7BFF800280199F2DC284603B098
:1069100030BD10B51421044600F06CF9204610BDBE
:1069200010B54FF0000C0446084611464FF47A7239
:10693000C4E901C2044A22600122207462741A462A
:10694000FEF768F8204610BD347B0D00007C002364
:10695000FEF7A0B80022FFF7F9BF007CFEF762B88F
:1069600013B50D4C2178BFF35B8F11F0010110D1ED
:1069700020460191FDF79EFB019950B1074B084A53
:106980000848FFF7CDFF2046FDF799FB064800F0C9
:10699000E9FD044802B010BD10E6032098E603208C
:1069A00014E603201CE70320AB680D004174704718
:1069B0007047704708B50021007CFEF79BF840EA5D
:1069C000E07008BD08B50121007CFEF793F840EAAD
:1069D000E07008BD08B5007CFEF784F820EAE0709E
:1069E00008BD08B5007CFEF775F820EAE07008BD28
:1069F00013B50446007C0191FEF774F80028019954
:106A000001DC607C20B1207CFEF77CF820EAE0709D
:106A100002B010BD007CFEF77DB810B5142104460D
:106A200000F0E8F8204610BD10B54FF47A73044624
:106A300008460021C4E90113044B2360012320749C
:106A400063741146FEF72EF8204610BD647B0D00DE
:106A5000007C0022FEF72EB8007CFEF733B810B59C
:106A600014220446002100F0AFFD204610BD0000B6
:106A700010B50F4C88B003A8FFF7F1FF2178BFF3E2
:106A80005B8F11F001010FD120460191FDF712FB40
:106A9000019948B103AA0748FFF7C6FF2046FDF752
:106AA0000EFB054800F05EFD024808B010BD00BFB7
:106AB00030E7032034E70320B1690D00014B186073
:106AC000704700BF0CE4032008B50B4B43B1FFF740
:106AD000CFFF03681B699847002801DDAFF30080F2
:106AE000064B43B1FFF73CFF03681B69984700283A
:106AF00001DDAFF3008008BD0000000000000000D1
:106B000008B5FFF7E1FFFDF765FF014B186008BD11
:106B100050E703200548064A064908B5121A00F056
:106B20002BFD054B054A1A6008BD00BF00F4032089
:106B300004F40320C07C0D0000F403201E1C279ADF
:106B400007B5002300931A466FF07701FEF71CF893
:106B500003B05DF804FB000007B543880A2B08D09A
:106B6000502B0BD1094B1B684BB103B05DF804EB04
:106B70001847FFF7E5FF03B05DF804FB002300931F
:106B80001A466FF07701FDF7FFFFF4E74CE70320AB
:106B900010B512480021FEF789F8114B1A68114B05
:106BA0009A42114B0CBF012200221A7001D0FFF74C
:106BB000B1FFFDF7FFFE044600F00EFD0B4B13B1D5
:106BC0002046AFF3008000210848FDF7E7FFBDE84D
:106BD000104007480021FDF7CDBF00BFBD6A0D0082
:106BE00000F403201E1C279A48E703200000000041
:106BF000596B0D00FDF751BAFDF74DBA81F0004118
:106C000002E000BF83F0004330B54FEA41044FEA91
:106C1000430594EA050F08BF90EA020F1FBF54EA2C
:106C2000000C55EA020C7FEA645C7FEA655C00F0C8
:106C3000E2804FEA5454D4EB5555B8BF6D420CDD99
:106C40002C4480EA020281EA030382EA000083EA1C
:106C5000010180EA020281EA0303362D88BF30BDBC
:106C600011F0004F4FEA01314FF4801C4CEA113112
:106C700002D0404261EB410113F0004F4FEA033371
:106C80004CEA133302D0524263EB430394EA050FFC
:106C900000F0A780A4F10104D5F1200E0DDB02FA6B
:106CA0000EFC22FA05F2801841F1000103FA0EF2FF
:106CB000801843FA05F359410EE0A5F120050EF1C5
:106CC000200E012A03FA0EFC28BF4CF0020C43FAF6
:106CD00005F3C01851EBE37101F0004507D54FF003
:106CE000000EDCF1000C7EEB00006EEB0101B1F553
:106CF000801F1BD3B1F5001F0CD349085FEA300099
:106D00004FEA3C0C04F101044FEA445212F5800FA3
:106D100080F09A80BCF1004F08BF5FEA500C50F140
:106D2000000041EB045141EA050130BD5FEA4C0C23
:106D3000404141EB0101013C28BFB1F5801FE9D280
:106D400091F0000F04BF01460020B1FA81F308BFA3
:106D50002033A3F10B03B3F120020CDA0C3208DD6F
:106D600002F1140CC2F10C0201FA0CF021FA02F14A
:106D70000CE002F11402D8BFC2F1200C01FA02F1BA
:106D800020FA0CFCDCBF41EA0C019040E41AA2BFDF
:106D900001EB0451294330BD6FEA04041F3C1CDAA7
:106DA0000C340EDC04F11404C4F1200220FA04F0C7
:106DB00001FA02F340EA030021FA04F345EA030171
:106DC00030BDC4F10C04C4F1200220FA02F001FA33
:106DD00004F340EA0300294630BD21FA04F02946B5
:106DE00030BD94F0000F83F4801306BF81F480114E
:106DF0000134013D4EE77FEA645C18BF7FEA655CC1
:106E000029D094EA050F08BF90EA020F05D054EA92
:106E1000000C04BF1946104630BD91EA030F1EBF97
:106E20000021002030BD5FEA545C05D1400049419B
:106E300028BF41F0004130BD14F580043CBF01F58E
:106E4000801130BD01F0004545F0FE4141F4700174
:106E50004FF0000030BD7FEA645C1ABF194610464F
:106E60007FEA655C1CBF0B46024650EA013406BF50
:106E700052EA033591EA030F41F4002130BD00BF0F
:106E800090F0000F04BF0021704730B54FF48064CC
:106E900004F132044FF000054FF0000150E700BF4D
:106EA00090F0000F04BF0021704730B54FF48064AC
:106EB00004F1320410F0004548BF40424FF0000199
:106EC0003EE700BF42004FEAE2014FEA31014FEADC
:106ED00002701FBF12F07F4393F07F4F81F060512B
:106EE000704732F07F4208BF704793F07F4F04BF76
:106EF00041F40021704730B54FF4607401F0004553
:106F000021F000411CE700BF50EA010208BF7047B2
:106F100030B54FF000050AE050EA010208BF7047A3
:106F200030B511F0004502D5404261EB41014FF40C
:106F3000806404F132045FEA915C3FF4D8AE4FF014
:106F400003025FEADC0C18BF03325FEADC0C18BFF7
:106F5000033202EBDC02C2F1200300FA03FC20FA48
:106F600002F001FA03FE40EA0E0021FA02F1144495
:106F7000BDE600BF70B54FF0FF0C4CF4E06C1CEAAE
:106F800011541DBF1CEA135594EA0C0F95EA0C0F1F
:106F900000F0DEF82C4481EA030621EA4C5123EA92
:106FA0004C5350EA013518BF52EA033541F48011C1
:106FB00043F4801338D0A0FB02CE4FF00005E1FB74
:106FC00002E506F00042E0FB03E54FF00006E1FBBE
:106FD00003569CF0000F18BF4EF0010EA4F1FF0401
:106FE000B6F5007F64F5407404D25FEA4E0E6D4141
:106FF00046EB060642EAC62141EA55514FEAC52052
:1070000040EA5E504FEACE2EB4F1FD0C88BFBCF5CD
:10701000E06F1ED8BEF1004F08BF5FEA500E50F17E
:10702000000041EB045170BD06F0004646EA010144
:1070300040EA020081EA0301B4EB5C04C2BFD4EB76
:107040000C0541EA045170BD41F480114FF0000E6F
:10705000013C00F3AB8014F1360FDEBF002001F0DD
:10706000004170BDC4F10004203C35DA0C341BDC57
:1070700004F11404C4F1200500FA05F320FA04F029
:1070800001FA05F240EA020001F0004221F000415D
:1070900010EBD37021FA04F642EB06015EEA430ED0
:1070A00008BF20EAD37070BDC4F10C04C4F1200500
:1070B00000FA04F320FA05F001FA04F240EA0200B3
:1070C00001F0004110EBD37041F100015EEA430E84
:1070D00008BF20EAD37070BDC4F1200500FA05F2A4
:1070E0004EEA020E20FA04F301FA05F243EA020323
:1070F00021FA04F001F0004121FA04F220EA020032
:1071000000EBD3705EEA430E08BF20EAD37070BD77
:1071100094F0000F0FD101F00046400041EB010157
:1071200011F4801F08BF013CF7D041EA060195F039
:10713000000F18BF704703F00046520043EB0303F3
:1071400013F4801F08BF013DF7D043EA06037047E0
:1071500094EA0C0F0CEA135518BF95EA0C0F0CD0EB
:1071600050EA410618BF52EA4306D1D181EA030131
:1071700001F000414FF0000070BD50EA410606BF2B
:107180001046194652EA430619D094EA0C0F02D170
:1071900050EA013613D195EA0C0F05D152EA0336B5
:1071A0001CBF104619460AD181EA030101F00041D3
:1071B00041F0FE4141F470014FF0000070BD41F01C
:1071C000FE4141F4780170BD70B54FF0FF0C4CF4F6
:1071D000E06C1CEA11541DBF1CEA135594EA0C0F15
:1071E00095EA0C0F00F0A7F8A4EB050481EA030E62
:1071F00052EA03354FEA013100F088804FEA033349
:107200004FF0805545EA131343EA12634FEA022216
:1072100045EA111545EA10654FEA00260EF00041D7
:107220009D4208BF964244F1FD0404F5407402D229
:107230005B084FEA3202B61A65EB03055B084FEABA
:1072400032024FF480104FF4002CB6EB020E75EBB7
:10725000030E22BFB61A754640EA0C005B084FEADF
:107260003202B6EB020E75EB030E22BFB61A75465C
:1072700040EA5C005B084FEA3202B6EB020E75EBA7
:10728000030E22BFB61A754640EA9C005B084FEA1F
:107290003202B6EB020E75EB030E22BFB61A75462C
:1072A00040EADC0055EA060E18D04FEA051545EA1B
:1072B00016754FEA06164FEAC30343EA52734FEAC4
:1072C000C2025FEA1C1CC0D111F4801F0BD141EA3D
:1072D00000014FF000004FF0004CB6E711F4801FA2
:1072E00004BF01430020B4F1FD0C88BFBCF5E06F82
:1072F0003FF6AFAEB5EB030C04BFB6EB020C5FEA92
:10730000500C50F1000041EB045170BD0EF0004EE6
:107310004EEA113114EB5C04C2BFD4EB0C0541EA18
:10732000045170BD41F480114FF0000E013C90E615
:1073300045EA060E8DE60CEA135594EA0C0F08BFD9
:1073400095EA0C0F3FF43BAF94EA0C0F0AD150EAD8
:1073500001347FF434AF95EA0C0F7FF425AF10466B
:1073600019462CE795EA0C0F06D152EA03353FF493
:10737000FDAE1046194622E750EA410618BF52EA10
:1073800043067FF4C5AE50EA41047FF40DAF52EAE4
:1073900043057FF4EBAE12E74FF0FF3C06E000BF81
:1073A0004FF0010C02E000BF4FF0010C4DF804CD8E
:1073B0004FEA410C7FEA6C5C4FEA430C18BF7FEA4E
:1073C0006C5C1BD001B050EA410C0CBF52EA430C7C
:1073D00091EA030F02BF90EA020F0020704710F1FC
:1073E000000F91EA030F58BF994208BF90422CBF8B
:1073F000D8176FEAE37040F0010070474FEA410C84
:107400007FEA6C5C02D150EA013C07D14FEA430CA1
:107410007FEA6C5CD6D152EA033CD3D05DF8040B12
:10742000704700BF8446104662468C461946634644
:1074300000E000BF01B5FFF7B7FF002848BF10F11B
:10744000000F01BD4DF808EDFFF7F4FF0CBF012060
:1074500000205DF808FB00BF4DF808EDFFF7EAFFDC
:1074600034BF012000205DF808FB00BF4DF808ED97
:10747000FFF7E0FF94BF012000205DF808FB00BF8C
:107480004DF808EDFFF7CEFF94BF012000205DF816
:1074900008FB00BF4DF808EDFFF7C4FF34BF012023
:1074A00000205DF808FB00BF4FEA410C7FEA6C5CEE
:1074B00002D150EA013C0AD14FEA430C7FEA6C5CEE
:1074C00002D152EA033C02D14FF0000070474FF066
:1074D000010070474FEA410212F5001215D211D592
:1074E0006FF47873B3EB625212D94FEAC12343F0C1
:1074F000004343EA505311F0004F23FA02F018BF43
:10750000404270474FF00000704750EA013005D10B
:1075100011F0004008BF6FF0004070474FF00000CE
:10752000704700BF4A0011D212F5001211D20DD5DA
:107530006FF47873B3EB62520ED44FEAC12343F079
:10754000004343EA505323FA02F070474FF0000023
:10755000704750EA013002D14FF0FF3070474FF0D2
:1075600000007047002301461A46184600F046B94D
:107570000A22002100F038B90A44914200F1FF3399
:1075800000D1704710B511F8014B03F8014F91423B
:10759000F9D110BD884210B501EB020402D9844232
:1075A000234607D8431EA14208D011F8012B03F847
:1075B000012FF8E7024401468A4200D110BD13F8BA
:1075C000014D02F8014DF7E702440346934200D112
:1075D000704703F8011BF9E738B50D4B1D68AB6B1D
:1075E00004467BB91820FDF741FB0A4A0A4BA86301
:1075F000C0E90023094B83600B2383810122002310
:10760000C0E90423AB6B00221C615A6138BD00BF86
:107610000CE403200E33CDAB34126DE6ECDE050036
:10762000C9B2034610F8012B1AB18A42F9D11846A3
:107630007047002918BF0023F9E710B50446FFF78B
:10764000EFFF18B9204600F014F8204410BD10F8E0
:10765000012B11F8013B012A28BF9A42F7D0D01A1A
:107660007047034611F8012B03F8012B002AF9D1CA
:107670007047034613F8012B002AFBD1181A013872
:10768000704710B56AB10139841810F8013B11F840
:10769000012F934203D1A04201D0002BF5D1981ABB
:1076A00010BD1046FCE710B50139034632B111F8A0
:1076B000014F03F8014B013A002CF7D11A44002185
:1076C000934200D110BD03F8011BF9E738B503461A
:1076D0000C4669B9BDE83840FFF7A2BF431C054618
:1076E00021461846FFF79CFF0028F7D1284638BDF1
:1076F0000025F5E72DE9F0473A4E86468C46604670
:107700001CF8014BA55D15F00805F8D12D2C33D1DF
:107710009CF800404FF0010800F1020C002B5CD0F7
:10772000102B0CD1302C0AD19CF8000000F0DF00A7
:1077300058284DD19CF8014010230CF1020C08F19F
:107740000047013F0026B7FBF3F9304603FB197AE7
:10775000A4F13005092D18D82C46A34224DD751C50
:1077600007D081451DD301D1A2451ADB00FB0340A0
:1077700001261CF8014BEBE72B2C08BF9CF80040BE
:10778000A84608BF00F1020CC8E7A4F14105192D75
:1077900001D8373CE1E7A4F16105192D04D8573C25
:1077A000DBE74FF0FF36E4E7731C06D12223CEF867
:1077B0000030384642B9BDE8F087B8F1000F00D07C
:1077C0004042002AF7D00EB10CF1FF311160F2E710
:1077D0003024002BB3D10823B1E7302CA4D00A23E6
:1077E000ADE700BF8E7B0D0013460A4601460248F6
:1077F0000068FFF77FBF00BF0CE403202DE9F843CA
:10780000DFF8B8800646D8F800001F460D469146BE
:1078100000F056F8254B1C6834B9254C1C60254BEC
:1078200013B11B68C4F8883063681F2B07DDD8F8D4
:10783000000000F047F84FF0FF30BDE8F8834EB38A
:10784000D4F8880088B91C4B23B9D8F8000000F0A0
:1078500038F8F0E74FF48470FDF708FA0028F4D008
:107860000023C0E94033C4F88800636840F82390DF
:1078700001229A4000EB8301D0F800311343022E1D
:10788000C0F80031C1F8807002BFD0F804311A434B
:10789000C0F804216368D8F800005A1C0233626003
:1078A00044F8235000F00EF80020C6E7E0E703207C
:1078B00054E70320000000006D4C0D0070E403202D
:1078C000704770477047000021400D005D400D007B
:1078D00085400D0089400D00000000004841532004
:1078E0004649583D004C41543D004C4F4E473D00E9
:1078F000414C543D0000000000000000000000006A
:107900000000000000000000A1400D00C5400D0077
:107910000000000000000000D1400D0005410D00F6
:10792000315F0D00C7400D004750524D4300474E98
:10793000524D4300475047474100474E474741009B
:107940000000000000000000774D0D006D4D0D009F
:10795000634D0D00194D0D00574D0D004B4D0D00A1
:1079600089620D0091620D003F4D0D00374D0D00F5
:107970002D4D0D00234D0D00C1620D0000000000D3
:10798000000000000F4E0D00054E0D00FB4D0D00D8
:10799000F14D0D00E54D0D00D94D0D0089620D0032
:1079A00091620D00CD4D0D00C54D0D00BB4D0D007C
:1079B000B14D0D00C1620D0000000000000000008C
:1079C0003D4E0D002D4E0D002F4E0D00256400255F
:1079D00075007525303478006261756400536572F6
:1079E00069616C0053657269616C31004A534F4E96
:1079F00053747265616D4C6F6748616E646C65723B
:107A00000061707000253031307520005D20002C41
:107A1000200028293A2000205B00636F6465203D28
:107A2000200025690064657461696C73203D200045
:107A30000D0A006D0063006C6E00666E00740063DA
:107A40006F64650064657461696C0000000000008B
:107A500000000000F9520D001F530D00DD520D0013
:107A60003D4F0D0000000000000000004D570D00CC
:107A700065570D00315F0D00C7400D00000000008C
:107A80000000000079570D008D570D00D5600D00E6
:107A9000E5520D000000000000000000F7520D004C
:107AA0002D530D006D5E0D00E7520D00000000002B
:107AB00000000000F5520D003B530D0095560D00DF
:107AC00059530D00000000000000000049620D0045
:107AD00053620D005D620D0067620D0071620D0062
:107AE0007D620D0089620D0091620D0099620D00AA
:107AF000A5620D00AD620D00B7620D00C1620D0000
:107B00006E616E00696E66006F7666002E00255904
:107B10002D256D2D25645425483A254D3A255325AC
:107B20007A0061736374696D6500000000000000F5
:107B300000000000A5680D0013690D00EB680D0042
:107B4000A9630D00BB680D00D7680D00C9680D0062
:107B5000E5680D00A7680D00AD680D00000000008D
:107B600000000000B3690D001B6A0D00F1690D00F3
:107B7000A9630D00E3690D00B5690D00C5690D002D
:107B8000156A0D00D5690D00AD690D0000002020BB
:107B900020202020202020282828282820202020BD
:107BA000202020202020202020202020202088107D
:107BB00010101010101010101010101010100404DD
:107BC00004040404040404041010101010101041E4
:107BD0004141414141010101010101010101010155
:107BE00001010101010101010110101010101042EA
:107BF0004242424242020202020202020202020225
:107C00000202020202020202021010101020000002
:107C10000000000000000000000000000000000064
:107C20000000000000000000000000000000000054
:107C30000000000000000000000000000000000044
:107C40000000000000000000000000000000000034
:107C50000000000000000000000000000000000024
:107C60000000000000000000000000000000000014
:107C70000000000000000000000000000000000004
:107C800000000000000000000000000000000000F4
:107C900029430D00094D0D00814D0D00194E0D00B9
:107CA000215F0D0095630D0079660D006D680D0074
:107CB00091680D00000000000000000000000000BE
:047CC00000000000C0
:107CC4009C7A0D00B47A0D00227B0D0010E4032091
:107CD40000000000000000000000000000000000A0
:107CE4000000000000000000000000000000000090
:107CF4000000000000000000000000000000000080
:107D0400000000000000000000000000000000006F
:107D1400000000000000000000000000000000005F
:107D2400000000000000000000000000000000004F
:047D3400E5E703205C
:107D3800FFFFFFFF00000102030405060708090A08
:107D48000B0C0D0E0F101112131415161718191A03
:087D58001B1C1D1E1F2028004A
:047D6000785634120B
:04000003D0004020C9
:00000001FF
