:02000002D0002C
:1040000000400D0058EF0D00000006000D000501F6
:0840100004019A080000000001
:04401800F4DE0D00C5
:1040200009480A49884208B505D0094A824202D0A7
:10403000121A07F016FF0748074A0021121A07F064
:1040400038FF014808BD00BFF8DF032024ED0D0054
:1040500000E2032000E20320EDE7032070B5074EE5
:10406000074C06F0CDFEA41BA4080025A54200D1F4
:1040700070BD56F8043B98470135F7E7E4EC0D00B6
:104080001CED0D0000F060B808B500F0ADFABDE819
:10409000084006F06DBE03F081BC03F07FBC03F066
:1040A00085BC000008B5034A00210C2003F088FB02
:1040B000FEE700BFF1730D000078B0FA80F0400910
:1040C00070470123037070477047006A0368DB681C
:1040D0001847000010B5034B0360044601F03EFB97
:1040E000204610BD10E00D0010B50446FFF7F2FFAA
:1040F00020464FF4987106F0C3FF204610BD000023
:104100000A4B10B50446036004F0C0FD214604F0DC
:10411000BEFF06F0E5FD06F0D7FD2046044B40F853
:10412000043B04F0A1FE204610BD00BFF8DF0D00E7
:10413000E0DF0D0010B50446FFF7E2FF2046242122
:1041400006F09EFF204610BD10B506F0C9FD4FF4E5
:10415000165106F0B5FD06F03BFD4FF4165106F082
:1041600031FD1A4801F0CFFA19491A4800230222FA
:1041700003F084FB184919480023022203F07EFB58
:10418000174918480023022203F078FB1649174804
:104190000023022203F072FB154916480023022275
:1041A00003F06CFB144915480023092203F066FB59
:1041B000134914480023092203F060FBBDE81040B6
:1041C000114912480023092203F058BB10E20320D2
:1041D00088E3032008DF0D0034E303200FDF0D0028
:1041E00080E3032018DF0D007CE3032028DF0D00AF
:1041F00078E3032037DF0D0070E3032046DF0D0076
:1042000040E3032050DF0D0008E2032059DF0D00DA
:104210002DE9DF432AA7D7E90067254CDFF8A890EE
:104220004FF0000806F0D4FC03681B69984700288B
:104230003BD006F0CDFC03685B699847C1B21C48CF
:1042400000F060FE0028EDD006F0C2FC0D22014611
:10425000684605F09FFD06F043FD009905F077FCE8
:10426000D4F8CC30EBB1204600F07EFC114B204658
:1042700083ED000B00F09CFC0F4BD4F8800083ED25
:10428000000B002384F8793007F024FA32463B46CD
:1042900007F08AFA4B46424607F0B0FB074BC3E9EA
:1042A0000001684605F08EFDBCE704B0BDE8D08390
:1042B0005CE2032040E3032070E3032008E20320D4
:1042C000984B4FFD283F0A4000005940F0B50A20A6
:1042D00093B003F063FB06460A2003F05FFB424BFA
:1042E0004249D3E900230546304603F06FFB404BBB
:1042F0003E49D3E90023284603F068FB322003F04F
:104300004DFB3C4B0193A3F54F23A3F540730446AB
:1043100032463948029301A902F0B0FF2A463648D6
:1043200002A902F0ABFF3448214603F02DF8334ACE
:104330009FED330A10685168127A05AB03C32E480B
:104340001A7005A9224602F08DFF2E4B0BAA03F12D
:10435000180E944618685968174603C70833734502
:104360003A46F7D1284A1B88106851683B8008AB51
:1043700003C3127A1A70254A1068516803AB03C34D
:10438000234B1D4893ED000A6146B8EEC00A02F0C7
:1043900060FF204B184893ED000A08A9B8EEC00A48
:1043A00002F057FF1C4B144893ED000A03A9B8EE26
:1043B000C00A02F04EFF194B0F481A78184B1968C3
:1043C00002F058FF20B106F08BFC164905F0BFFB48
:1043D000304603F0EBFA284603F0E8FA204603F0F3
:1043E000E5FA13B0F0BD00BF40E3032062DF0D002B
:1043F00070E303206C6174008CE303207FDF0D0009
:104400000000000088DF0D00A2DF0D00ABDF0D0013
:1044100088E3032034E3032078E3032000E2032051
:10442000F8DF032065DF0D0070B5D0E900531426D6
:10443000044606FB0356AE4204D0284605F0C2FCF3
:104440001435F8E7206803F0B1FA204670BD00008B
:1044500037B504461546019101F08CFA0199012205
:10446000204601F0F5F920463A2101F0A5F904496A
:104470002A46204603B0BDE8304001F0DCB900BF59
:1044800024E80D001FB504468DED000B039101F0EB
:1044900071FA03990122204601F0DAF920463A2107
:1044A00001F08AF99DED000B204604B0BDE81040F4
:1044B00001F084BAF0B52DED048BB0EE419AF0EE28
:1044C000619AB0EE428AF0EE628AD3B007460E4699
:1044D000154612A94FF4807206A88DED020B1C46FA
:1044E00001F058F9334B06937D227B2106A801F099
:1044F0004CFA31493A4606A8FFF7AAFF2F4932463F
:1045000006A8FFF7A5FF2E492A4606A8FFF7A0FF39
:1045100022462C4906A8FFF79BFF5C9A2A4906A869
:10452000FFF796FF5D9A294906A8FFF791FF5E9A6B
:10453000274906A8FFF78CFF9DED020B254906A829
:10454000FFF7A0FFB0EE490AF0EE690A224906A87B
:10455000FFF798FFB0EE480AF0EE680A1F4906A878
:10456000FFF790FF06A801F035F91D4B079A1B785D
:104570008DF800301B493C2304A803F0EDFC059C9A
:104580007CB16368013B63605BB9236820469B682C
:104590009847A368013BA3601BB923682046DB68EA
:1045A0009847FFF793FE06A8FFF794FD53B0BDECC4
:1045B000048BF0BD10E00D00B3DF0D0008DF0D002F
:1045C0000FDF0D00BADF0D0037DF0D0018DF0D0023
:1045D00028DF0D0046DF0D0050DF0D0059DF0D0014
:1045E00001E20320C2DF0D002DE9F0472DED048B21
:1045F00092B002F005FF7E4B7E491A6809687E4E34
:10460000821A8A4203D83278002A00F0E2801860C9
:104610007A487B4C00F0DCFDFDEEC07ACDED057AEA
:104620009DF91400206007F055F86FA3D3E900232B
:1046300007F0BAF80022734B06F000FF07F04EFBBC
:10464000714B18606D4800F059FEFCEEC07A6F4A5D
:10465000CDED057A9DF814306D48136003F098FE97
:10466000FCEEC07A6B4ACDED057A9DF814301360EC
:1046700007A900220320079203F0C2F8002840F0A7
:10468000AD80079D0DB12B6923B9634A00210A2033
:1046900003F096F80023ADF822300C23ADF820305B
:1046A00006AB099304230A932B6908AA0121284623
:1046B0009847002840F09280BDF8183007EE903AF5
:1046C000FBEECC7AFCEEE77A544FCDED057A5449F7
:1046D0009DF814303B6008A803F002FA08A803F024
:1046E0006DFAFCEEC07ADFF85C81CDED057A9DF8BD
:1046F0001430C8F8003008A803F090FAFCEEC07A35
:10470000484ACDED057A9DF814301360FFF780FD1F
:10471000002341F28830337003F088F9424B3B4E5E
:10472000D4F80090D6F800A093ED009B3F4B93ED9A
:10473000008B3F4B1D683F4B18683F4B504508BFEF
:104740004D45186814BF0125002506F0C3FF53EC42
:10475000192B07F091FA002814BF2846012048B908
:10476000364B186806F0B6FF53EC182B07F084FAA6
:1047700000282ED1B0EE491AF0EE691AB0EE480AC0
:10478000F0EE680A274B20491B680293D8F80030E6
:1047900001933B6800932A4B096893ED002B1D4B56
:1047A00052461B684846FFF785FE214B22681A6077
:1047B000204B32681A601C4BD3E9000107F08EFAD7
:1047C0001D4B1860194BD3E9000107F087FA1B4B0A
:1047D000186012B0BDEC048BBDE8F087FFEE007AE4
:1047E00070E700BFAFF30080CDCCCCCCCCCCFC3F8D
:1047F00038E30320FCDF032000E0032010E2032065
:1048000084E303200000404088E3032034E30320D6
:1048100054E2032098E30320F1730D0078E30320B2
:1048200044E503207CE3032040E3032070E30320FE
:1048300010E0032004E0032008E003200CE0032044
:1048400008E2032080E303208842F8B504460D46C1
:10485000164616D9904215D2A2F11406751AA1F186
:1048600014072C44B7421CD02CB13146204605F029
:1048700025FB337C2374304605F0A4FA143E143C27
:10488000F0E70ED0B5420CD02CB12946204605F0F9
:1048900015FB2B7C2374284605F094FA1435143448
:1048A000F0E7F8BD2DE9F0410023C0E90033836053
:1048B0004F689F4204460E4623DD4FF0140808FB64
:1048C00007F003F06BF80546D8B1D4E9001208FBF5
:1048D0000212FFF7B9FF206803F068F82560A760AF
:1048E000D6E9007308FB0378B84508D03946284656
:1048F00005F0FEFA3B7C2B7414371435F4E773682B
:1049000063602046BDE8F081F0B52F4B2F4D0024A9
:104910001C702F4B8DB001221A70CDE90044029417
:1049200006F0DEF96946064603A8FFF7BBFF2F46EF
:1049300003A906A8FFF7B6FF264B47F8043B06A9D4
:1049400009A8FFF7AFFF09AA1E21384604F0F9FCB9
:1049500009A8FFF769FD06A8FFF766FD1E4B2B604F
:1049600003A82E62FFF760FD1C4B2B6006F0B8F920
:104970004FF4165106F0A4F904F088F9294604F022
:1049800072FC6846FFF750FD154800F033F81548F3
:1049900000F04CFB2146144803F0ACFC13491448CA
:1049A000032202F045FC06F05DFA2346224643F658
:1049B000F06106F05FFA06F055FA2346224604211C
:1049C00006F060FA0DB0F0BD00E2032048E30320DA
:1049D00001E20320E0DF0D0074E70D00F8DF0D00B9
:1049E0005CE2032010E2032054E2032014E00320E1
:1049F0008CE3032000220221C0E930220280828061
:104A0000826002730282426102768283026280F8CF
:104A100024200285C26280F830200287C263A0F899
:104A20004820C264A0F858200266A0F868200267F7
:104A3000A0F87820C0F88020A0F88820C0F8902046
:104A4000A0F89820C0F8A02080F8B910A0F8BA20EB
:104A500080F8BC20C0E93222C0E93422A0F8A820A6
:104A600080F8AA207047A1F14103052B02D8A1F1DB
:104A700037007047A1F16103052B94BFA1F15700E6
:104A8000A1F13000704738B5057804462D2D08BFD8
:104A90000134204607F0E1F964235843224614F814
:104AA000013BA3F130010929F8D92E2B0BD1537802
:104AB000303B092B07D80A2101FB03009378303BD8
:104AC000092B98BFC0182D2D08BF404238BD0000EB
:104AD00038B50D46044607F0C0F96422134BB0FB0D
:104AE000F2F102FB11004343298020460278A2F133
:104AF0003004092C014600F10100F7D92E2A0BD110
:104B00000A480A2411F8012F303A092A04D8B0FBC8
:104B1000F4F000FB0233F5E703EB830301330322D8
:104B2000B3FBF2F36B6000232B7238BD80969800C4
:104B300010B50346044653F81C2F42605A68826041
:104B40001B7A0373034653F8282F02615A684261A7
:104B50001B7A037602F054FC40F201136063238059
:104B600010BD000000000000D0B5002304464370D3
:104B7000806806F09FFD0CA3D3E9002306F03EFFFA
:104B80000646A0880F4606F0A5FD0B4602463946AC
:104B9000304606F053FC237B13B101F10043194664
:104BA00041EC100BD0BD00BF0000000065CDCD4131
:104BB000D0B5002304464370406906F07BFD0CA38A
:104BC000D3E9002306F01AFF0646208A0F4606F0B6
:104BD00081FD0B4602463946304606F02FFC237E07
:104BE00013B101F10043194641EC100BD0BD00BFD9
:104BF0000000000065CDCD4110B5836843600446D8
:104C000002F0FEFB40F20113E060238010BD10B5FE
:104C100083684360044602F0F3FB40F20113E06056
:104C2000238010BD10B504460846FFF72CFFA06096
:104C300010BD10B50446084607F00FF9A06010BD7E
:104C400010B5C3688360044602F0DAFB40F201133A
:104C50006060238010BD10B504460846FFF713FFBF
:104C6000E06010BD10B5C3688360044602F0C8FB65
:104C700040F201136060238010BD10B50446084661
:104C800007F0EBF8E06010BD10B5014604461030A7
:104C900007F05DF902F0B4FB40F201132062A38437
:104CA00010BD102207F093B9F8B590F8A95004464A
:104CB000002D64D090F8AA10FFF7D5FE94F8AB1041
:104CC00002462046FFF7CFFE94F8A83000EB021012
:104CD000C0B283424BD1D4F8D4300133C4F8D430BD
:104CE00094F8BC3023B1D4F8CC300133C4F8CC30C4
:104CF00094F8B93033B3012B15D104F13800FFF724
:104D00007BFF04F14800FFF782FF94F8BC3053B1F9
:104D10002046FFF70DFF04F15800FFF791FF04F163
:104D20006800FFF78DFFD4F8C46036B3D4F8C43000
:104D3000B06A996A07F001F9F8B93046FFF7A4FFA5
:104D4000366BF2E704F14800FFF761FF94F8BC30DE
:104D500033B12046FFF7ECFE04F17800FFF770FF57
:104D600004F18800FFF77EFF04F19800D9E7D4F83A
:104D7000D0300133C4F8D03000252846F8BD90F873
:104D8000BA206ABB00F1AA065A49304607F0D5F8A6
:104D900020B15949304607F0D0F898B9012384F87A
:104DA000B930D4F8C030C4F8C430D4F8C470002F7F
:104DB000E3D0B86A314607F0C0F8002880F294804A
:104DC0003B6BF0E74D49304607F0B7F820B14C494E
:104DD000304607F0B2F808B90023E0E70223DEE727
:104DE00090F8B910022923D090F8AA3003B342EA10
:104DF0004112013A282A1BD8DFE802F0153B42494C
:104E00004C63686E721A1A1A1A1A1A1A1A1A1A1A8D
:104E10001A1A1A1A1A1A1A1A1A1A1A1A15343B4294
:104E2000494C53595D0000F1AA014830FFF7FAFEE2
:104E3000D4F8C46004F1AA07002E9ED0D4F8C43080
:104E4000B06A996A07F079F8002896D1F26A94F866
:104E5000BA309A4291DC03D139463046FFF721FF40
:104E6000366BE9E7A3F141004342434184F8BC308B
:104E7000DEE700F11C0104F1AA00FFF729FED7E7E5
:104E8000A3F153014B424B4180F82430D0E700F1AD
:104E90002801F0E7A3F157025342534180F8303024
:104EA000C6E700F1AA015830FFF7D5FEC0E700F1D0
:104EB000AA016830F8E700F1AA013830FFF7B9FE1F
:104EC000B6E7302B94BF00230123CFE700F1AA01FE
:104ED0008830FFF7D2FEABE700F1AA019830E3E794
:104EE00000F1AA017830DFE73FF447AF0023C4F8B0
:104EF000C43042E720E00D0026E00D002CE00D005C
:104F000032E00D0038B5D0F8C830242903F1010390
:104F100004460D46C0F8C8303AD090F8BB3014D8DB
:104F20000A291CD00D291AD00D2B9FBF5A1C1B1902
:104F300084F8BB2083F8AA5094F8A90098BB94F891
:104F4000A8104D4084F8A85021E02A2907D02C2928
:104F5000EAD190F8A82082F02C0280F8A8200E2B2D
:104F60004FF0000005D8234483F8AA002046FFF73D
:104F70009BFE94F8BA30013384F8BA30002384F8E9
:104F8000BB30A5F12A035D425D4184F8A95038BDCC
:104F900000200223A4F8A80084F8B930A4F8BA00CD
:104FA00084F8BC00F3E70020F1E7704710B510214A
:104FB000044606F065F8204610BD0EB403B503ABF9
:104FC000002153F8042B019304F0E9FD02B05DF8D1
:104FD00004EB03B07047000073B50446084622791D
:104FE000A36832B1A3B90B4902B0BDE8704004F028
:104FF0009BBD094A267B094D0949647B012E18BFD8
:105000002946CDE900140749FFF7D7FF02B070BD6C
:10501000054AEFE749E00D00AFE20D0045E00D0065
:1050200041E00D005FE00D0038E00D004FF0FF3370
:105030000361704713B50B4C2178BFF35B8F11F000
:1050400001010BD120460191FFF736F8019928B1F3
:10505000054804F0E1FD2046FFF733F8024802B0AE
:1050600010BD00BF9CE30320A0E303202DE9F04125
:1050700090F91330013305460F4606D1FFF7DAFFEA
:105080003946BDE8F04104F069BE002407264FF020
:10509000010895F91300002180B205F04AFF95F947
:1050A000110008FA06F1394080B205F042FF95F987
:1050B0001300012180B205F03CFF95F91200640055
:1050C00080B2E4B205F04EFF08B144F00104013EA5
:1050D000DFD22046BDE8F08108B5FFF7ABFFBDE8A1
:1050E000084004F0B4BD07B50190FFF7A3FF019994
:1050F00003B05DF804EB04F0C3BD000030B590F9D7
:105100001030013385B004460D4623D10179006883
:1051100003F0CAF92068036829469B68984720680D
:1051200003F0E2F921792068032203F0BAF920683C
:1051300003685B6998470502206803685B699847C4
:1051400028430502206803685B69984705432846A1
:1051500005B030BD90F9133001330CD11A4B0093D8
:1051600000238DF80430194B029368460123ADF8F3
:105170000C30FFF7B8FF94F91000002180B205F061
:10518000D8FE45F080012046FFF770FF0021204641
:10519000FFF76CFF002105022046FFF767FF284359
:1051A000050200212046FFF761FF054394F9100036
:1051B000012180B205F0BDFE94F913300133C6D150
:1051C000FFF78AFFC3E700BF84E00D0020A10700BE
:1051D00010B5FA210446FFF791FFB0F5000F1ED07D
:1051E000A18A9FED107A4B00C1EB2022C3EBE011A6
:1051F000B4F9163052435943B4F9183012135343DB
:105200009B1303EBE123E36003EB830380331B1267
:1052100007EE903AF8EEE77A87EE870A10BD9FED29
:10522000020AFBE70000C8420000C07F30B590F9D9
:105230001030013385B004460D461FD10179006856
:1052400003F032F92068036829469B689847206874
:1052500003F04AF921792068022203F022F920683C
:1052600003685B6998470546206803685B6998474F
:1052700040EA052085B2284605B030BD90F91330CC
:1052800001330CD1184B009300238DF80430174BD9
:10529000029368460123ADF80C30FFF724FF94F920
:1052A0001000002180B205F044FE45F08001204648
:1052B000FFF7DCFE00212046FFF7D8FE002105465F
:1052C0002046FFF7D3FE40EA052085B294F910008E
:1052D000012180B205F02DFE94F913300133CAD1BB
:1052E000FFF7FAFEC7E700BF84E00D0020A107002A
:1052F00008B5FFF79BFF40BA80B208BD38B5044639
:10530000FFF766FFFD212046FFF790FFB0F5004F45
:1053100038D0B4F93250E268B4F934302D05A2F532
:105320009632C5EB803002FB130303F58043D9139B
:1053300094F830305343DB1203F5004094F93630D3
:1053400053439B1243439B1203F50012B4F92E30D2
:10535000534303F500539B134B43DA1394F82C107B
:105360005243D2114A43A3EB221323EAE373B3F16E
:10537000C85FA8BF4FF0C8531B1300EE103ABAEE37
:10538000CB0A38BD9FED010AFBE700BF0000C07FDC
:1053900030B590F91030013385B004460D4618D170
:1053A0000179006803F080F82068036829469B684B
:1053B0009847206803F098F821792068012203F0CB
:1053C00070F8206803685B699847C5B2284605B045
:1053D00030BD90F9133001330CD1154B00930023ED
:1053E0008DF80430134B029368460123ADF80C305E
:1053F000FFF779FE94F91000002180B205F099FDC5
:1054000045F080012046FFF731FE00212046FFF7DE
:105410002DFE054694F91000012180B205F089FDAA
:1054200094F913300133D1D1FFF756FECEE700BF18
:1054300084E00D0020A1070008B5F321FFF7A8FFC5
:1054400000F0010008BD38B588210446FFF750FF81
:105450008A21A0822046FFF74BFF8C21E082204664
:10546000FFF746FF8E2120832046FFF741FF902162
:1054700060832046FFF73CFF9221A0832046FFF780
:1054800037FF9421E0832046FFF732FF96212084E6
:105490002046FFF72DFF982160842046FFF728FF64
:1054A0009A21A0842046FFF723FF9C21E084204618
:1054B000FFF71EFF9E2120852046FFF719FFA1213F
:1054C00060852046FFF764FFE12184F82C00204628
:1054D000FFF70EFFE321E0852046FFF759FFE421A7
:1054E00084F830002046FFF753FFE52105462046AB
:1054F000FFF74EFF00F00F0343EA05106086E62138
:105500002046FFF745FFE52105462046FFF740FF0F
:10551000031143EA0510A086E7212046FFF738FF74
:1055200084F8360038BD00007FB590F910300133A3
:1055300004460E46154612D10179006802F0B4FF08
:105540002068036831469B689847206803682946AD
:105550009B689847206802F0C7FF04B070BD90F9BF
:10556000133001330CD1144B009300238DF8043019
:10557000124B029368460123ADF80C30FFF7B3FDE0
:1055800094F91000002180B205F0D3FC06F07F01F1
:105590002046FFF76BFD29462046FFF767FD94F98B
:1055A0001000012180B205F0C4FC94F913300133DE
:1055B000D3D1FFF791FDD0E784E00D0020A10700D3
:1055C000F8B5DB0002F0070203F03803134343EAA7
:1055D00081139DF8186080F83C3090F840309DF8B9
:1055E0001C509DF8207066F3471380F84030ED00A2
:1055F00090F8383007F0070705F0380523F03F032F
:105600003D4304461D4380F8385006F00702F2215E
:10561000FFF78AFF94F83820C2F3C20302F00701B3
:105620009B0043EA411343EAD2122046F521FFF7DB
:105630007BFF94F83C20C2F3C20302F007019B00F9
:1056400043EA411343EA92122046F421BDE8F840B0
:10565000FFF76ABF30B5044690F91000421C85B0D0
:1056600019D1206802F0EEFED0212046FFF790FE0F
:105670006028A06045D12046B622E021FFF754FF04
:105680004FF4967002F0D2F92046FFF7D5FE05469A
:1056900028B36420F6E7012180B205F04AFC94F9B2
:1056A0001000012180B205F033FC94F91300431C73
:1056B00004D1FFF7BFFC04F0B9FAD5E7012180B2AD
:1056C00005F026FC94F91100012180B205F020FCC0
:1056D00094F91200002180B205F01AFCC4E72046BC
:1056E000FFF7B1FE052300931A4603212046CDE9BA
:1056F0000155FFF765FF642002F098F9012005B01D
:1057000030BD0020FBE7772310B50371044605F098
:105710006FFC20602046FFF79DFF30B97623237190
:105720002046BDE81040FFF795BF10BD10B5054BF2
:105730000360037C04461BB9406808B102F036F9E7
:10574000204610BDACE00D0010B50446FFF7EEFF9B
:105750002046142105F094FC204610BD10B5034BE3
:1057600003600446FFF7E2FF204610BDBCE00D00D9
:1057700010B50446FFF7F2FF2046302105F080FC0B
:10578000204610BD00230122C3604361028380F8DC
:105790002A307047002310B5C36001230374054B02
:1057A00003604FF0FF33C0E90112C362FFF7EAFF65
:1057B00010BD00BFBCE00D00D0E9022310B593423C
:1057C0003FBF42685C1CC460D15424BF012380F8F1
:1057D0002A3010BD10B54369044643B100EB4303C2
:1057E000597E09B1FFF7E8FF6369013B6361D4E9C2
:1057F0000210636888424FF000022ABF5B181A54F7
:1058000003F8012C10BD70B50446D0E9025066685B
:105810002D1A134630440A46294602F0DFF8854225
:105820002DBFE368A368E360C01836BF0123E060C2
:1058300084F82A3070BD0EB403B503AA52F8041BD5
:105840000192FFF7E0FF02B05DF804EB03B0704790
:105850002DE9F84304460E46174612B12221FFF700
:10586000ABFFDFF80C810025715D06EB050900290F
:1058700074D0D4E902329A4270D20B0634D501F0CA
:10588000F003E02B05F101091DD116F8092002F003
:10589000C003802B39D105F1020916F8093003F055
:1058A000C000802831D103F03F03920143EA013365
:1058B00002F47C621A4392B241462046FFF7BBFFD6
:1058C0004D460135D0E701F0E003C02B1DD116F89D
:1058D000093003F0C002802A17D1890101F4F8626F
:1058E00003F03F031A43E7E70D290AD807290CD92B
:1058F000A1F10803052B08D8DFE803F00B231707F5
:10590000111D222923D05C2921D02046FFF754FF06
:10591000D7E75C212046FFF74FFF6221F5E75C21C6
:105920002046FFF749FF6621EFE75C212046FFF79D
:1059300043FF6E21E9E75C212046FFF73DFF72211E
:10594000E3E75C212046FFF737FF7421DDE75C21A8
:105950002046FFF731FF99F80010D6E72FB1204617
:105960002221BDE8F843FFF727BFBDE8F88300BF59
:1059700090E00D00426900EB42031A7E12B1002252
:105980001A7670472C21FFF717BF73B54369019151
:105990000133082B16460FD8FFF7ECFF4369019936
:1059A0005A1C00EB4303012542619D76DE76FFF72A
:1059B00003FF284602B070BD0020FBE707B5C16AAF
:1059C000002953EC102B08DB0A468DED000B06492D
:1059D000FFF731FF03B05DF804FB044903B05DF845
:1059E00004EBFFF728BF00BF97E00D009DE00D001E
:1059F00003681847012A03D0022A03D00020704709
:105A00000160FBE70B680360F8E7000013B51C209A
:105A1000FEF741FB044648B1064B07491B6800935B
:105A20000968064B42F2343201F004F8204602B015
:105A300010BD00BF30E403202CE40320C4E00D00BF
:105A400013B52020FEF727FB044640B1054B06495D
:105A50001B6800930968054B502200F01FFA20468E
:105A600002B010BD30E403202CE40320C4E00D009C
:105A700013B51C20FEF70FFB044648B1064B07493F
:105A80001B6800930968064B42F2343201F030FB88
:105A9000204602B010BD00BF30E403202CE40320F8
:105AA000C4E00D0013B51420FEF7F5FA044640B12A
:105AB000054B06491B680093002309681A4600F04D
:105AC0000DFD204602B010BD30E403202CE403207D
:105AD00010B58368044613B1032201469847204657
:105AE00010BD000010B586B002AB0291044693E8E9
:105AF00003006A4682E8030094E8030083E8030099
:105B000092E80300A2680492064AA260E268059245
:105B1000054AE26084E803001846FFF7D9FF2046F3
:105B200006B010BDF5590D00F1590D0070B500F12A
:105B30000801C2680B463AB1157C0478A5422ABF19
:105B40001346D2689268F6E7994204D000781A7C2E
:105B5000904238BF0B46DA690AB905F049FBBDE847
:105B600070401A6A03F11400104738B504680546FE
:105B70007CB16368013B63605BB9236820469B6826
:105B80009847A368013BA3601BB923682046DB68E4
:105B90009847284638BD8B6870B5164604460D1DDB
:105BA00001225BB130781A7C904234BF9868D86883
:105BB0001D4634BF012200220346F2E792B1CA68B3
:105BC000AA4203D1C4E90035204670BD284605F03D
:105BD000B1FA3378027C9A424FF00003F2D3C4E961
:105BE0000003F1E72846F4E72DE9F04300F104084B
:105BF000856885B006468946444655B199F8003017
:105C00002A7C9A4236BFEB68AB6825462C461D4677
:105C1000F3E7A04504D099F80020237C9A422ED2C5
:105C20002420FEF738FA99F8009080F810900023AD
:105C3000A045074600F11002C36125D173691BB16D
:105C400031690B7C4B4509D3314602A8FFF7A3FF0E
:105C5000DDE90241002951D0002C4DD188454BD0BF
:105C6000387C0B7C98422CBF0020012043460A461A
:105C7000394605F061FA7369013373613C4604F1FA
:105C8000140005B0BDE8F083237C01924B4518D980
:105C9000F3689C4209D0204605F04CFA037C019A37
:105CA0004B4505D2C36853B9044621461C46D1E78B
:105CB000314602A8FFF76FFFDDE90234F5E723461E
:105CC000F3E71BD231698C420BD0204605F01FFA56
:105CD000037C019A4B45054605D9E36853B9214633
:105CE0001D462C46B6E7314602A8FFF754FFDDE912
:105CF0000251F6E70146F4E70120B7E707F1140087
:105D0000FFF7E6FE3846FEF7CAF92746B6E7000079
:105D10002DE9F341051D0026174600F10802C0E9F0
:105D20000362C0E9052604468846067203700DF139
:105D30000701012328468DF80730FFF755FF164964
:105D4000FFF7D0FE0DF1070128468DF80760FFF739
:105D50004BFF1249FFF7C6FE02230DF1070128464B
:105D60008DF80730FFF740FF0D49FFF7BBFE032317
:105D70000DF1070128468DF80730FFF735FF094977
:105D8000FFF7B0FE084BC3F80080084B20461F60A9
:105D900002B0BDE8F08100BF0D5A0D00415A0D0060
:105DA000715A0D00A55A0D002CE4032030E40320A5
:105DB00008B5054804F0B2FB044804F0AFFBBDE8A9
:105DC0000840034804F004BE10E40320A8E30320C5
:105DD000C4E30320017570470022011DC0E90221C0
:105DE000C0E904120271704770B506462DED028BB2
:105DF000142001F0D3FD0546142001F0CFFD044628
:105E0000304606F0CAF8324600230238984214DDC4
:105E100012F8011B0D293AD111780A2937D151788E
:105E20000D2934D191780A2931D10433F118142283
:105E3000284606F0CCF800232B750A21284606F0E8
:105E400065F8064628B30A21013006F05FF800B372
:105E50003146204606F07BF8204606F09EF82044A6
:105E6000002300F8013C204605F0F4FF51EC100B34
:105E700005F07CFF08EE100A204601F097FD284649
:105E800001F094FDB0EE480ABDEC028B70BD013309
:105E9000BCE79FED018AF5E75F42A2CD30B5074D23
:105EA00005600025C0E901130575039B41F28835A3
:105EB00085610525C0E90332057730BDE0E20D00BC
:105EC0002DE9F74FDFF88C80DFF88CA0DFF88CB07D
:105ED00004460D461746002640465FFA86F904F050
:105EE0006CF888BB237F4B452ED9237DCBB104F0C2
:105EF000F7FE514603F018FE04F0F2FE294603F0C7
:105F000013FE04F0EDFE594603F00EFE04F0E8FE29
:105F10000A224946019003F024FE019B184603F033
:105F20000AFE0023BAB22946404604F04BF9237D0D
:105F300023B104F0D5FE064903F009FE4FF47A7050
:105F400001F074FD0136C7E703B0BDE8F08F00BF74
:105F500002E10D0034E40320D8E00D00EEE00D0076
:105F60002DE9F0414B1E0C4601F52F72054600212C
:105F700003F8011F9342FBD12B7D4BB104F0B0FE1F
:105F8000144903F0E4FD04F0ABFE134903F0DFFD18
:105F9000124F002640F2BB28384604F015FA70B1C3
:105FA000384604F0CAF8A0552B7D2BB104F098FEBA
:105FB0000368A15D9B68984701364645ECD12B7D6F
:105FC00033B104F08DFEBDE8F041054903F0BFBDDB
:105FD000BDE8F08127E10D0013E10D0034E403205A
:105FE00026E10D00F8B50E4F04460026384604F0B1
:105FF000EBF9054690B9A369B3420FDD012001F02A
:1060000015FDA3690136B342F0DC207D28B104F010
:1060100067FE044903F09BFD2846F8BD0120FCE71C
:1060200034E4032032E10D00F8B50F4602694168FF
:1060300004461D46FFF744FF784803F0BEFF0646BE
:10604000002800F0E1807649744803F06DFD394680
:10605000724803F069FD7349704803F065FD7249A9
:106060006E4803F061FD61686C4803F05DFD6F49A7
:106070006A4803F059FD6E49684803F055FDA16870
:10608000664803F051FD6949644803F04DFD6949D4
:10609000624803F049FDE168604803F045FD63494B
:1060A0005E4803F041FD64495C4803F03DFD6349EF
:1060B0005A4803F039FD284605F06FFF604906464F
:1060C000564803F031FD0A223146544803F049FD99
:1060D0005C49524803F028FD2946504803F024FD4E
:1060E00052494E4803F020FD4C4803F065FF237DE4
:1060F000002B69D004F0F4FD534903F028FD04F0AF
:10610000EFFD474903F010FD04F0EAFD394603F0C6
:106110000BFD04F0E5FD434903F006FD04F0E0FD4E
:10612000414903F001FD04F0DBFD616803F0FCFC74
:1061300004F0D6FD3D4903F0F7FC04F0D1FD3C49E5
:1061400003F0F2FC04F0CCFDA16803F0EDFC04F0D8
:10615000C7FD364903F0E8FC04F0C2FD354903F001
:10616000E3FC04F0BDFDE16803F0DEFC04F0B8FDE3
:106170002E4903F0D9FC04F0B3FD2F4903F0D4FC01
:1061800004F0AEFD2D4903F0CFFC04F0A9FD2C492D
:1061900003F0CAFC04F0A4FD0A22314603F0E1FC3E
:1061A00004F09EFD274903F0BFFC04F099FD294649
:1061B00003F0BAFC04F094FD1C4903F0B5FC04F0B4
:1061C0008FFD224903F0C3FC2046FFF70BFF237D20
:1061D0002BB90124114804F051F92046F8BD04F010
:1061E0007FFD1B490D4D03F0B2FC284604F0ECF88E
:1061F0000028EED0284603F0A0FF044604F070FD0E
:10620000E1B203F095FCF0E7247D002CE2D004F02D
:1062100067FD104903F09BFC3446DBE734E40320C0
:1062200065E10D007DE10D0089E10D00ADE20D009D
:1062300090E10D009DE10D00ACE10D00C0E10D000D
:10624000E1E10D00ABE20D00F2E10D000EE20D0008
:106250002CE20D0048E20D0070B52DED028B0446D6
:1062600000230E46154641686648502203F0AAFFF7
:10627000204661685022FFF723FE624803F09DFE2E
:10628000002800F0B68060495E4803F04DFC3146BE
:106290005C4803F049FC5D495A4803F045FC294637
:1062A000584803F041FC5A49564803F03DFC59490F
:1062B000544803F039FC5849524803F035FC6168F2
:1062C000504803F031FC55494E4803F02DFC544929
:1062D0004C4803F029FCA1684A4803F025FC4F49CB
:1062E000484803F021FC4F49464803F01DFCE16893
:1062F000444803F019FC4949424803F015FC4A4957
:10630000404803F011FC237D002B4FD004F0E8FC43
:106310003D4903F009FC04F0E3FC314603F004FCC2
:1063200004F0DEFC394903F0FFFB04F0D9FC2946F8
:1063300003F0FAFB04F0D4FC354903F0F5FB04F05C
:10634000CFFC344903F0F0FB04F0CAFC324903F0FF
:10635000EBFB04F0C5FC616803F0E6FB04F0C0FC55
:106360002E4903F0E1FB04F0BBFC2D4903F0DCFBFC
:1063700004F0B6FCA16803F0D7FB04F0B1FC274998
:1063800003F0D2FB04F0ACFC264903F0CDFB04F093
:10639000A7FCE16803F0C8FB04F0A2FC1F4903F06E
:1063A000C3FB04F09DFC204903F0BEFB2046FFF731
:1063B00019FE48B913489FED1D8A04F05FF8B0EE4E
:1063C000480ABDEC028B70BD4FF42F7001F0E6FA65
:1063D000014605462046FFF7C3FD2846FFF704FDAA
:1063E0000848B0EE408A04F049F8284601F0DEFA89
:1063F000E5E7237D002BDDD004F072FC0C4903F0AF
:10640000A6FBD7E734E4032072E20D0087E20D001B
:1064100089E20D007DE10D0089E10D00ADE20D0086
:1064200090E10D009DE10D008DE20D005F42A2CDD7
:10643000B0E20D00014804F071B800BF34E403205D
:106440009FED010A704700BF5F42A2CD0174704703
:106450000022011DC0E90221C0E904120271704747
:1064600030B585B01A46089B1B788DF8003002A81D
:106470003C2301F071FD0020029C01F0DBF920B10A
:10648000637813B901F002FAFAE76378BFF35B8F20
:10649000651CABB90025039C7CB16368013B63605C
:1064A0005BB9236820469B689847A368013BA360BB
:1064B0001BB923682046DB689847284605B030BDE5
:1064C000002001F0B7F920B12B7813B901F0DEF903
:1064D000FAE72378012BDDD1257BDCE710B5044CEE
:1064E0000460C0E901130024029B0474C36010BD62
:1064F000F8E20D0038B504460120607494F91000EC
:10650000E56800EB800045F8201094F91010E06871
:1065100001EB810100EB810181ED020A94F9101079
:10652000E06801EB810100EB81014A6094F91020E1
:10653000E16802EB820201EB8202D36094F9103031
:10654000E26803EB830302EB8303049A1A61237C62
:1065500001335BB20A2B237408DDA37C23B104F062
:10656000BFFB034903F0F3FA0A23237438BD00BFCD
:1065700008E30D0010B510EE100A86B00C4605F0C9
:10658000BBF802460B4601A80A4901F01FFA01A810
:106590001422002310F8011B202906D0E1540133F6
:1065A000DBB211B9E15406B010BD013A12F0FF029E
:1065B000F0D1F8E747E30D002DE9F04F0C4689B024
:1065C0004C49DFF85481DFF85491DFF854A10546B7
:1065D000204605F0BCFC002695F910309E426ADA90
:1065E000EB6806EB860B03EB8B0393ED020A03A922
:1065F0002846FFF7BFFFEB6803A9009153F82B3043
:1066000022464146204601F0E1F9EB684FEA8B074C
:106610003B44DB6843B322464946204601F0D6F9A5
:10662000EB683B441B69002B38D00A2093FBF0F148
:1066300091FBF0FC00FB1C1C00FB1131C9B2642271
:1066400093FBF2F292FBF0FE00FB1E2200915FFA38
:106650008CF32949D2B202A801F0B8F9274902AB5C
:106660002246204601F0B2F9EB681F447B6823B153
:1066700023492246204601F0A9F922462149204615
:1066800001F0A4F9013695F91030F6B29E42224687
:106690000ADA1D49204601F099F99DE72246514644
:1066A000204601F093F9DFE71649204601F08EF904
:1066B00000232B7490E7AB7CC3B104F011FB1349AA
:1066C00003F045FA04F00CFB114903F040FA04F022
:1066D00007FB214603F03BFA04F002FB0B4903F0F1
:1066E00036FA04F0FDFA0B4903F031FA09B0BDE8BF
:1066F000F08F00BF4CE30D0074E30D007BE30D0051
:1067000086E30D0095E30D0099E30D0027E10D00F0
:106710009DE30D00AFE20D004EE30D0061E30D00BF
:1067200080E30D002DE9F04F0C46054689B0524933
:10673000DFF87481DFF87491204616461F4605F095
:1067400006FCAB684D4A4E49204601F03FF93346FE
:106750004C4900972246204601F038F94A49494FF2
:106760002246204601F032F9002695F910309E426B
:1067700064DAEB6806EB860B03EB8B0393ED020AFE
:1067800003A92846FFF7F6FEEB6803A9009153F82A
:106790002B3022463946204601F018F9EB684FEAC3
:1067A0008B0A53445B6823B122464146204601F0E0
:1067B0000DF9EB685344DB683BB32246494620465B
:1067C00001F004F9EB6853441B6953B30A2093FBAF
:1067D000F0F191FBF0FC00FB1C1C00FB1131C9B275
:1067E000642293FBF2F292FBF0FE00FB1E2200916A
:1067F0005FFA8CF32549D2B202A801F0E7F82449E8
:1068000002AB2246204601F0E1F895F9103001363E
:10681000F6B29E4222460ADA1E49204601F0D6F818
:10682000A3E71D492246204601F0D0F8EDE71B49B9
:10683000204601F0CBF800232B7496E7AB7CC3B164
:1068400004F04EFA164903F082F904F049FA1549AA
:1068500003F07DF904F044FA214603F078F904F0DE
:106860003FFA0F4903F073F904F03AFA024903F0D2
:106870006EF909B0BDE8F08FAFE20D00C4E00D0085
:10688000A6E30D00B2E30D00BAE30D0074E30D00C2
:106890007BE30D0099E30D0080E30D00CCE30D00D8
:1068A00027E10D009DE30D00BFE30D00C5E30D00E2
:1068B0002DE9F74304464FF42F701E460F469046CD
:1068C00001F06CF8E37C013B012B054626D801461C
:1068D00043463A462046FFF725FFA37C23B104F048
:1068E000FFF9114903F033F9606803680096D3F8A3
:1068F000009039462B464246C8470746284601F0D5
:1069000055F81EB10121304604F0BAFB002307B14F
:1069100063743846237403B0BDE8F0830146204613
:10692000FFF74AFED9E700BFD3E30D0070B5044678
:1069300001200D461646FDF7AEFB067003462A46BB
:1069400029462046BDE87040FFF7B2BF70B5054646
:106950000C4684B1E1682846FFF7F8FFE369A668B2
:1069600023B104F114010322084698472046FDF79D
:1069700096FB3446EDE770BDF0B58DB0044601A836
:106980000D4617461E4600F091FF03980130FDF7B3
:1069900084FB0199206005F0DAFA2A46334639462D
:1069A000E67405A8FFF7B4F9C82000F0F7FFE0602F
:1069B00005A8FFF7BBF80023C4E901050899237473
:1069C00006A8FFF7C3FF01A803F0FCF90DB0F0BD66
:1069D00038B5002504460582FFF7CEFF204638BDB6
:1069E00070B505460C464CB1E1682846FFF7F8FF44
:1069F000A6682046FDF753FB3446F4E770BD00005F
:106A000008B5074B074800221A7003F087FD0648B7
:106A100003F084FDBDE80840044803F0D9BF00BF7F
:106A2000D4E40320B8E4032050E403206CE4032002
:106A30000175704730B5064D0560C0E901130025AA
:106A4000039B057541F28835C0E90332856130BD8D
:106A500080E40D002DE9F84F0D461746804604F0FE
:106A60003FF91E491E4EDFF87CA0DFF87CB003F032
:106A70006EF80024304603F018FD60BB052C2AD0C8
:106A800098F81430C3B104F02BF9514603F04CF8D8
:106A900004F026F9294603F047F804F021F9594695
:106AA00003F042F804F01CF90A228146214603F063
:106AB00058F8484603F03FF8304603F0DFFC002367
:106AC000BAB22946304603F07DFB4FF47A7000F0ED
:106AD000ADFF0134CEE7BDE8F88F00BFE3E30D0062
:106AE000D8E40320D8E00D00EEE00D0070B50446B8
:106AF0000E4681682E48154603F016F82D492C489D
:106B000003F012F8E1682A4803F00EF82A492848F1
:106B100003F00AF83146264803F006F827492448CE
:106B200003F002F82946224802F0FEFF24492048DB
:106B300002F0FAFF237D002B38D004F0D1F8214970
:106B400003F005F804F0CCF81F4903F000F804F056
:106B5000C7F8A16802F0E8FF04F0C2F8154902F096
:106B6000E3FF04F0BDF8E16802F0DEFF04F0B8F8DE
:106B7000114902F0D9FF04F0B3F8314602F0D4FF16
:106B800004F0AEF80D4902F0CFFF04F0A9F8294651
:106B900002F0CAFF04F0A4F8094902F0C5FF04F0AE
:106BA0009FF8BDE87040094902F0D1BF70BD00BF39
:106BB000D8E40320FBE30D00FEE30D00A4E30D0089
:106BC000CEE30D0016E40D0000E40D0015E40D0009
:106BD000F8B50E4F04460026384603F0F5FB05468F
:106BE00090B9A369B3420FDD012000F01FFFA36934
:106BF0000136B342F0DC207D28B104F071F804497D
:106C000002F0A5FF2846F8BD0120FCE7D8E40320E8
:106C100032E10D002DE9F047037D06468846144613
:106C20004BB104F05DF8274902F091FF04F058F8E9
:106C3000254902F08CFFDFF8A490002540F2BB2A22
:106C4000484603F0C1FB78B1484603F076FA337D3D
:106C5000C7B22BB104F044F8036839469B689847E3
:106C6000675501355545EBD1337D23B104F038F834
:106C7000164902F06CFF002363551549404605F0A4
:106C80005CF968B91349204605F0C8F99FED120A6E
:106C90000028F7EE007A18BFB0EE670ABDE8F0876B
:106CA0007C21204605F032F948B1013005F0D2F8D8
:106CB00051EC100B05F05AF800EE100AEEE79FEDCC
:106CC000060AEBE727E10D0013E10D0026E10D00B8
:106CD0001BE40D0020E40D005F42A2CDD8E40320A8
:106CE00070B52DED028B04464168224842F23432E1
:106CF0001D46002303F066FA2046616842F23432F2
:106D0000FFF7A8FE1B4803F058F948B32946194875
:106D100002F00AFF2046FFF75BFF054638B9154829
:106D200003F0ACFB0025BDEC028B284670BD64204F
:106D300000F034FE1049024606462046FFF76AFF7F
:106D40003046B0EE408A00F031FEDFED0C7AB4EE52
:106D5000678AF1EE10FAE2D0064803F08FFBE2E713
:106D6000237D002BDBD003F0BBFF054902F0EFFED3
:106D7000D5E700BFD8E403201BE40D005F42A2CD9D
:106D800023E40D0070B52DED028B044600230D4663
:106D9000164641681E4842F2343203F013FA204688
:106DA000616842F23432FFF755FE194803F005F9E5
:106DB00028B3204632462946FFF798FE2046FFF7C3
:106DC00007FF48B912489FED138A03F057FBB0EE56
:106DD000480ABDEC028B70BD4FF42F7000F0DEFD51
:106DE0000D49024605462046FFF714FF0848B0EE5D
:106DF000408A03F043FB284600F0D8FDE7E7237DF7
:106E0000002BDFD003F06CFF044902F0A0FED9E7AD
:106E1000D8E403205F42A2CD41E40D0044E40D001C
:106E20002DE9F0470446182015460F46FDF733F9C3
:106E300007F1040A6B68D5F80090BA68436106460A
:106E4000C0F810905546012352B113694B45CCBF91
:106E50009168D1681546CCBF012300230A46F3E7A9
:106E6000A3B1FB68AB4223D0284604F063F9804607
:106E7000D8F810304B451BDB3046FDF710F9C4F84D
:106E80000080002323712046BDE8F087A846EFE785
:106E900028698145ACBF0020012053462A4631466F
:106EA00004F04AF97B69266001337B610123E9E73D
:106EB000AA45EDD10120F0E72DE9FF470D46044634
:106EC0004FF42F7000F06AFD2B7D07464BB103F0A5
:106ED00007FF3A4902F03BFE03F002FF384902F097
:106EE00036FEDFF8F090002640F2BB2A484603F059
:106EF0006BFA88B1484603F020F92B7D5FFA80F8E1
:106F00002BB103F0EDFE036841469B68984707F8F4
:106F1000068001365645E9D12B7D23B103F0E0FE12
:106F2000284902F014FE0025231DC4E90253C4E9D8
:106F30000435254925713846BD5505F0BBFEDFF8FF
:106F40009890DFF898A0DFF8808006467EB3494627
:106F5000304604F0F2FF00BB414605F0ABFE1B4992
:106F6000064604F0EAFF18B9194B0095019308E0B2
:106F7000304604F06FFF51EC100B009504F0F6FE64
:106F800001906A46214602A8FFF74AFF41460020C9
:106F900005F090FE01350646D8E75146304604F02C
:106FA000CCFF0028F2D1414605F084FEDCE73846EC
:106FB00000F0FCFC204604B0BDE8F08727E10D009E
:106FC00013E10D0026E10D00FEE30D006AE40D0063
:106FD0005F42A2CDD8E4032020E40D006FE40D0051
:106FE0002DE9F041071D98460023C0E90237C0E9AA
:106FF000047303710D4688B04968044616462E484E
:1070000042F2343203F0DEF82846696842F2343244
:10701000FFF720FD284802F0D0FF10B3314642466A
:107020002846FFF763FD2846FFF7D2FD0646C0B9A4
:107030002148224F03F022FA2149404605F03AFE4A
:1070400035461F4E002832D0214602A86A460095D8
:107050000197FFF7E5FE31460020013505F02AFED5
:10706000F0E7294602A8FFF727FFA1682046FFF7AF
:10707000B7FC049A0023C4E90237C4E904737AB167
:107080009DF80C1021710599E1600699A2602161BB
:107090005760079A626103AACDE90522049307931A
:1070A00002A80499FFF79CFC034803F0E7F9204687
:1070B00008B0BDE8F08100BFD8E403205F42A2CD54
:1070C0009BE30D00014803F029BA00BFD8E4032078
:1070D0009FED010A704700BF5F42A2CD0175704766
:1070E0000022011DC0E90221C0E9041202717047AB
:1070F00030B5064D0560C0E901130025039B0575F9
:1071000041F28835C0E90332856130BD44E50D00A8
:10711000014803F05DBC00BFF4E4032010B5044651
:107120004A68024902F064FC204610BD44E5032091
:10713000F0B58FB00146064602A81F46FFF7EEFFE6
:1071400002A801F041FAA0B9337D23B103F0C8FDD4
:10715000274902F0FCFCF323009337223D23A921A9
:1071600008A809AD01F054FA0FCD03AC0FC42B6889
:107170002370002240F2BD211E4803F05BFC002278
:1071800042F234311B4803F031FA03AD1A4B089335
:107190000FCD09AC0FC42B681648237042F234326D
:1071A00008A903F063FC58B9337D23B103F098FDBF
:1071B000124902F0CCFC0F4803F064FA002014E0FE
:1071C000002FF1D0384604F0E8FE3946024609485F
:1071D00003F066FA0028E7D0064803F0C1FA002859
:1071E000E2D0044803F04EFA01200FB0F0BD00BF1A
:1071F00090E40D00F4E40320D4E60D001CE50D003E
:1072000073B5037204465020CDE900211E4600F0FC
:10721000C5FB60601420FCF73EFF054620B1DDE9A8
:1072200000213346FFF7D4FB256002B070BD00009B
:1072300038B500250446134645728572024AFFF7A9
:10724000DFFF204638BD00BF54E50D000068FFF7A2
:1072500051B907B5002300931A46FFF7F7FF03B0B3
:107260005DF804FB07B500230093FFF7EFFF03B0C1
:107270005DF804FB0068FFF759BB000010B5044639
:1072800090F90900636843F8301094F909106368B5
:1072900003EBC1035A60637A01335BB2092B63725B
:1072A00006DD03F01DFD034902F051FC0A23637261
:1072B00010BD00BF6FE50D00531E012B2DE9F743F4
:1072C00005460C4627D82B49DFF8AC80DFF8AC9098
:1072D000204604F03CFE0026374695F909309E42D0
:1072E00044DA6B6803EBC60241465268009253F8D9
:1072F00036302246204600F069FB013695F9093008
:10730000F6B29E4205DA22464946204600F05EFB70
:10731000E3E76F72E1E7032A00D03ABB1549DFF8D3
:107320006080DFF86090204604F011FE00263746AA
:1073300095F909309E4219DA6B6803EBC6024146A3
:107340005268009253F836302246204600F03EFB49
:10735000013695F90930F6B29E4205DA22464946D1
:10736000204600F033FBE3E76F72E1E703B0BDE8CE
:10737000F08300BFAFE20D00B4E50D00BCE50D00E9
:10738000C0E50D0099E30D00027AFFF795BF0000FC
:1073900008B5024B1B685B6C019308BD74020300C7
:1073A00008B5024B1B685B6C019308BD48020300E3
:1073B00008B5024B1B689B6C019308BD4802030093
:1073C00008B5024B1B68DB6C019308BD4802030043
:1073D00008B5024B1B685B6D019308BD48020300B2
:1073E00008B5024B1B685B68019308BD18020300D7
:1073F00008B5024B1B68DB68019308BD1802030047
:1074000008B5024B1B685B69019308BD18020300B5
:1074100008B5024B1B689B68019308BD2C02030052
:1074200008B5024B1B68DB68019308BD2C02030002
:1074300008B5024B1B681B69019308BD2C020300B1
:1074400008B5024B1B685B69019308BD2C02030061
:1074500008B5024B1B68DB68019308BD28020300D6
:1074600008B5024B1B689B69019308BD2802030005
:1074700008B5024B1B68DB69019308BD28020300B5
:1074800008B5024B1B681B6A019308BD2802030064
:1074900008B5024B1B685B6A019308BD2802030014
:1074A00008B5024B1B689B6A019308BD28020300C4
:1074B00008B5024B1B68DB6A019308BD2802030074
:1074C00008B5024B1B681B6B019308BD2802030023
:1074D00008B5024B1B685B6B019308BD28020300D3
:1074E00008B5024B1B681B6C019308BD2802030002
:1074F00008B5024B1B689B6C019308BD2802030072
:1075000008B5024B1B68DB6C019308BD2802030021
:1075100008B5024B1B681B6D019308BD28020300D0
:1075200008B5024B1B685B69019308BD6C02030040
:1075300008B5024B1B685B69019308BD6402030038
:1075400008B5024B1B681B6A019308BD6402030067
:1075500008B5024B1B685B6A019308BD6402030017
:1075600008B5024B1B689B6A019308BD64020300C7
:1075700008B5024B1B689B68019308BD68020300B5
:1075800008B5024B1B68DB68019308BD6802030065
:1075900008B5024B1B685B68019308BD3802030005
:1075A00008B5024B1B689B69019308BD38020300B4
:1075B00008B5024B1B68DB69019308BD3802030064
:1075C00008B5024B1B681B6A019308BD3802030013
:1075D00008B5024B1B689B6A019308BD3802030083
:1075E00008B5024B1B68DB6A019308BD3802030033
:1075F00008B5024B1B681B6B019308BD38020300E2
:1076000008B5024B1B685B6B019308BD3802030091
:1076100008B5024B1B689B6B019308BD3802030041
:1076200008B5024B1B681B68019308BD30020300BC
:1076300008B5024B1B685B69019308BD300203006B
:1076400008B5024B1B68DB69019308BD30020300DB
:1076500008B5024B1B681B6A019308BD300203008A
:1076600008B5024B1B685B6A019308BD300203003A
:1076700008B5024B1B68DB6B019308BD30020300A9
:1076800008B5024B1B681B6C019308BD3002030058
:1076900008B5024B1B685B6C019308BD3002030008
:1076A00008B5024B1B681B68019308BD3C02030030
:1076B00008B5024B1B689B68019308BD3C020300A0
:1076C00008B5024B1B68DB68019308BD3C02030050
:1076D00008B5024B1B681B69019308BD3C020300FF
:1076E00008B5024B1B685B69019308BD3C020300AF
:1076F00008B5024B1B689B69019308BD3C0203005F
:1077000008B5024B1B68DB69019308BD3C0203000E
:1077100008B5024B1B681B6A019308BD3C020300BD
:1077200008B5024B1B689B6A019308BD3C0203002D
:1077300008B5024B1B68DB6A019308BD3C020300DD
:1077400008B5024B1B681B68019308BD4C0203007F
:1077500008B5024B1B685B68019308BD4C0203002F
:1077600008B5024B1B689B68019308BD4C020300DF
:1077700008B5024B1B681B69019308BD4C0203004E
:1077800008B5024B1B685B69019308BD4C020300FE
:1077900008B5024B1B689B69019308BD4C020300AE
:1077A00008B5024B1B68DB69019308BD4C0203005E
:1077B00008B5024B1B681B6A019308BD4C0203000D
:1077C00008B5024B1B685B6B019308BD60020300A8
:1077D00008B5024B1B681B6D019308BD60020300D6
:1077E00008B5024B1B68DB6E019308BD6002030005
:1077F00008B5024B1B681B6F019308BD60020300B4
:1078000008B5034B1B68D3F89830019308BD0000FE
:107810006002030008B5024B1B685B68019308BD5A
:107820002002030008B5024B1B685B69019308BD89
:107830002002030008B5024B1B68DB6C019308BDF6
:107840002002030008B5024B1B685B6D019308BD65
:107850002002030008B5034B1B68D3F8883001935E
:1078600008BD00002002030008B5034B1B68D3F8D5
:107870009430019308BD00002002030008B5024BBC
:107880001B681B68019308BD4402030008B5024B46
:107890001B689B68019308BD4402030008B5024BB6
:1078A0001B685B69019308BD4402030008B5024BE5
:1078B0001B68DB69019308BD4402030008B5024B55
:1078C0001B681B6A019308BD4402030008B5024B04
:1078D0001B68DB6B019308BD4402030008B5024B33
:1078E0001B685B68019308BD4002030008B5024BAA
:1078F0001B689B68019308BD4002030008B5024B5A
:107900001B68DB68019308BD4002030008B5024B09
:107910001B681B69019308BD4002030008B5024BB8
:107920001B685B69019308BD4002030008B5024B68
:107930001B689B69019308BD4002030008B5024B18
:107940001B68DB69019308BD4002030008B5024BC8
:107950001B681B6A019308BD4002030008B5024B77
:107960001B681B6B019308BD4002030008B5024B66
:107970001B685B6B019308BD4002030008B5024B16
:107980001B681B6C019308BD4002030008B5024B45
:107990001B685B6C019308BD4002030008B5024BF5
:1079A0001B681B68019308BD1C02030008B5024B4D
:1079B0001B685B68019308BD1C02030008B5024BFD
:1079C0001B689B68019308BD1C02030008B5024BAD
:1079D0001B68DB68019308BD1C02030008B5024B5D
:1079E0001B685B6A019308BD1C02030008B5024BCB
:1079F0001B68DB6A019308BD1C02030008B5024B3B
:107A00001B681B6B019308BD1C02030008B5024BE9
:107A10001B68DB6B019308BD1C02030008B5024B19
:107A20001B685B6C019308BD1C0203000021FFF77B
:107A3000F9BE10B5836804460BB903F0D9FBC368DF
:107A40009847A3681BB10322214620469847204649
:107A50001021BDE8104003F013BB0B68036013B1A5
:107A60005A6801325A607047024800230360FFF7EA
:107A700097BC00BF40E50320002240681146FFF795
:107A800045BF002240681146FFF760BF00224068F2
:107A90001146FFF76BBF40680022FFF75FBF4068E9
:107AA000002281F00101FFF749BF002340681A4618
:107AB0001946FFF73BBF002340681A461946FFF7F7
:107AC0002DBF002240681146FFF710BF406800221A
:107AD0000221FFF713BF002340681A46FFF7FEBEDE
:107AE000F0B51B4B036000250F4630331826C0E964
:107AF000025589B04360324629460446103004F0EE
:107B0000D8F978682A462946FFF700FF18B9A0601F
:107B1000204609B0F0BD2946324602A8CDE90055FD
:107B200004F0C7F902A96846ADF80860FFF730FC19
:107B300010B10123A360EBE7009B019AA360E26010
:107B40000BB90223A36002A9204600F0C0F8DFE7CA
:107B500018E60D00084B10B52824224618460021CF
:107B600004F0A7F9054B04804FF0FF324260042275
:107B70005A60034A1A6010BD4CE5032044E5032017
:107B8000DCE50D007047007D7047037D4BB18369D4
:107B9000B3F1004F05D0006AB0F1004018BF0120DA
:107BA00070470020704703681B6A184710B52821EA
:107BB000044603F065FA204610BD0000037D7BB14A
:107BC000C369002B0CDB07EE903A9FED077AF8EEC5
:107BD000E77A87EE870ADFED057A20EE270A7047FD
:107BE000BFEE000A704700BF00FF7F470000C84299
:107BF000037D63B18369B3F1004F08D007EE903A7B
:107C00009FED047AF8EEE77A87EE870A70479FEDDA
:107C1000020A70470000C84200000000037D7BB1EB
:107C2000436A002B0CDB07EE903A9FED077AF8EEE3
:107C3000E77A87EE870ADFED057A20EE270A70479C
:107C4000BFEE000A704700BF00FF7F470000C84238
:107C5000037D63B1036AB3F1004F08D007EE903A99
:107C60009FED047AF8EEE77A87EE870A70479FED7A
:107C7000020A70470000C8420000000070B50C1EE8
:107C800006460ADA2D2101F053FF614205460A2219
:107C9000304601F066FF284470BD21460025F6E716
:107CA00070B50C46054681682046FFF7E7FF2C219A
:107CB0000646204601F03CFFE96806442046FFF7EF
:107CC000DDFF304470BDA0F10400FFF7E9BF30B51F
:107CD0000D4600F110040FCD0FC495E8030084E8B1
:107CE0000300012030BD70470020704710B51021FF
:107CF000044603F0C5F9204610BD08B5FFF7F6FFAE
:107D000008BD30B500224FF69C74026084808D88D7
:107D10008C800C68858004600A6030BD10B5044614
:107D20000068FFF743FE204610BD38B5C468F4B1C3
:107D30002378022B03D104F10C00FFF7EFFF6568F5
:107D400035B12846FDF7C4FE1021284603F098F906
:107D5000A56835B12846FDF7BBFE1021284603F083
:107D60008FF920461421BDE8384003F089B938BDA9
:107D700073B50E46044656F8043B00930D4601A821
:107D80003146FFF76AFE019A009B6260236001A8FA
:107D9000002301930093FDF7E8FE3046FDF7E5FE72
:107DA0002846082103F06CF9204602B070BD13B5D7
:107DB0000B460246D0E900016C4684E8030093E8D4
:107DC000030082E8030094E8030083E8030002B0A4
:107DD00010BD826810B50AB903F00AFABDE8104078
:107DE000C368184708B5006800F11001FFF7F1FFFC
:107DF00008BD826810B50AB903F0FAF9BDE8104071
:107E0000C368184708B5006800F11001FFF7F1FFDB
:107E100008BD000038B500230446036010200D465D
:107E2000FCF739F928B10123C0E90133024B0360A3
:107E3000C5602060204638BD54E60D0038B50023EB
:107E400083608B6804460D462BB102229847EB688D
:107E5000E360AB68A360204638BD0000F0B589B090
:107E600004686846FFF74DFF4FF00203D4E84F2F38
:107E7000002A03D1C4E8413F0029F7D125D104F1FC
:107E80000C0569462846FFF73CFFBFF35B8F0123D3
:107E90006370002004F10803BFF35B8F53E8006FA9
:107EA00043E80002002AF9D1BFF35B8F6EB1FFF700
:107EB000C1FC78B129463046FFF78BFF3046FDF70D
:107EC00007FE1021304603F0DBF86846FFF726FF77
:107ED00009B0F0BD314602A8FFF7B0FFE068B4F981
:107EE000105008B104F03CF806901020ADF81C507A
:107EF000FCF7D1F80546E8B1002787601820FCF7A9
:107F0000CAF8044688B10146876002A8FFF74FFF10
:107F1000049BA268A360059B049206A9E268E36043
:107F200004F110000592FFF7ECFE084BEB60084BE4
:107F30002C60AB6006A8FFF7F1FE02A8FDF7C8FDB4
:107F4000002229460348FFF77DFCB7E7E57D0D00D9
:107F50007D800D00337A0D002DE9F0478AB005468B
:107F60009DF848900C4617469846FFF797FC07AED9
:107F7000824638BB4FF62E73059005A93046ADF802
:107F80001830FFF7BEFE1420FCF785F8044648B110
:107F9000022303700123C0E901AA437031460C306B
:107FA000FFF7AFFE2846214640F8044BFFF732FFAB
:107FB0003046FFF7B3FE05A8FFF7B0FE28460AB02B
:107FC000BDE8F0870C234FF0000A1420CDE908AA81
:107FD0000793FCF760F8014628B1C0E901AA80F8D0
:107FE00000A080F801A004A80391FFF713FF224B23
:107FF00008930820FCF74FF8824628B1039B40F80D
:10800000043B04A9FFF729FD00965FFA89F3424675
:1080100039462046CDF824A0FFF750FCB8B9039BA1
:108020005B7803F0FF0293B94FF69C7305A903A890
:108030000592ADF81830FFF711FF05A8FFF76EFEA7
:1080400005A80999FFF794FE06A8FDF78EFD039B8E
:10805000059304A906A8FFF700FD059B069A2B606F
:108060006A60002306A806930593FDF77EFD04A829
:10807000FDF77BFDA2E700BF41810D00022AF8B5A4
:10808000054607D0032A18D0012A01D10B680360E6
:108090000020F8BD18200E68FBF7FDFF044650B124
:1080A0003146FFF7CBFE3069B6F9147008B103F022
:1080B00057FF2061A7822C60EAE70468002CE7D014
:1080C00004F11000FFF72AFE2046FDF701FD1821FC
:1080D000204602F0D5FFDBE738B5002383608B68CC
:1080E00004460D462BB102229847EB68E360AB686B
:1080F000A360204638BD022A70B5044607D0032A83
:1081000012D0012A01D10B680360002070BD142039
:108110000E68FBF7C0FF054620B13146FFF7DCFFD4
:10812000337C2B742560F0E70468002CEDD02046EA
:10813000FDF7CEFC1421204602F0A2FFE5E7000087
:10814000F0B589B004460D4601A81146FFF710FEB0
:10815000A4B124B21DB1284603F002FF054601A8D0
:1081600003A90395ADF81040FFF778FE03A8FFF7C9
:10817000D5FD02A8FDF7F9FC09B0F0BD019D012372
:10818000D5E84F2F002A03D1C5E8413F0029F7D198
:10819000EFD12B73BFF35B8F6B702B1DBFF35B8F26
:1081A00053E8006F43E80042002AF9D1BFF35B8F28
:1081B000002EDED02046FFF73DFB074660B105F1FB
:1081C0000C013046FFF715FE3046FDF781FC10210B
:1081D000304602F055FFCCE7314603A8FFF77CFF9D
:1081E0002B7B8DF81C301020FBF755FF0546D0B1D6
:1081F00087601420FBF74FFF044678B18760014683
:1082000003A8FFF7D4FD059BA268A360069B059217
:10821000E268E3609DF81C3006922374064BEB6025
:10822000064B2C60AB6003A8FDF752FC00222946E8
:108230000348FFF707FBC7E7057E0D00F7800D0039
:10824000337A0D00002240681146FFF77FBB002201
:1082500040681146FFF78ABB40680022FFF77EBBEB
:108260004068002281F00101FFF768BB00234068ED
:108270001A461946FFF75ABB002340681A461946AA
:10828000FFF74CBB002240681146FFF73FBB0022BE
:1082900040681146FFF72ABB406800220221FFF721
:1082A0002DBB002340681A46FFF718BB024B032280
:1082B0005A60024A1A60704774E5032070E60D00A8
:1082C000090941EA001107EE901AB8EEE70ADFED5E
:1082D000027A80EE270A704700004844006800F0E8
:1082E00006B910B50446016002710AB1FFF7F6FF46
:1082F000204610BD13B50446019102F09DFE019A7F
:1083000001462046FFF7EDFF204602B010BD006891
:1083100000F0F6B82DE9FF4104460D4617461E460B
:10832000FFF7DCFF36238DF800300023206801932F
:108330004FF001080A23694603938DF8088000F086
:10834000B7F82068036829469B689847206841462B
:1083500000F0C6F8054640B16FF09F052046FFF7D4
:10836000D6FF284604B0BDE8F081022320680193BF
:10837000694600F06DF80228EED1206803685B6959
:1083800098473870206803685B6998473070E5E764
:1083900007B500238DF806308DF807300DF1060281
:1083A0000DF107030221FFF7B5FF40B99DF8071053
:1083B0009DF8060003B05DF804EBFFF781BFBFEE48
:1083C000000A03B05DF804FB7047F8B50646154691
:1083D0000C468F18BC4206D0336814F8011B9B680A
:1083E00030469847F6E72846F8BD007C0022FFF7A4
:1083F00047B8007C0021FFF74BB8007C0021FFF755
:108400004FB8007C0021FFF753B8007C0021FFF734
:1084100057B810B51421044602F032FE204610BDB4
:1084200010B54FF47A73044608460021C4E90113DD
:10843000034B236020741146FFF752F8204610BD0D
:10844000ACE60D000023007C1A461946FFF700B881
:108450007FB500221423CDE90122ADF804300B785A
:108460008DF808304B680393CB680493007C0B7A3B
:10847000059301A9FFF74CF807B05DF804FB1FB5A1
:10848000003B8DF800104FF06401039118BF0123E9
:10849000694601928DF80830FFF7DAFF05B05DF804
:1084A00004FB0123FFF7EBBF007C0022FEF7D8BFDF
:1084B0007FB50023CDE901334A6803921423CA68CB
:1084C000ADF804300B7804920A7A0592007C8DF89E
:1084D000083001AA1946FEF7C3FF07B05DF804FB98
:1084E000007C0022FEF7C4BF0121FFF7F9BF08B5E9
:1084F0000021007CFEF7FCFFB0FA80F0400908BDC7
:1085000008B50021007CFEF7FBFFB0FA80F04009BF
:1085100008BD704710B51821044602F0B1FD204691
:1085200010BDF0B5037D062B8DB00E4600F104079B
:108530004FF0000412D000F1080515F8011D0A22C1
:10854000304601F00EFBAF42044419D0002CF4D0A9
:108550002E21304601F0ECFA0444EEE72F236A4660
:1085600039460A208DF80040FEF7E2FF684603F026
:1085700014FD33680246DB68694630469847044676
:1085800020460DB0F0BD000010B5054B0446112289
:1085900040F8043B002103F08CFC204610BD00BFD6
:1085A000D4E60D000346074A10B543F8042B01F149
:1085B000100251F8044B43F8044B9142F9D10A7868
:1085C0001A7010BDD4E60D00037D042B04D1406861
:1085D000003818BF01207047062B07D143683BB90C
:1085E00083682BB9C3681BB90069F1E700207047A5
:1085F0000120704710B59DF8084044EA032343EA80
:10860000024242EA016104234160037510BD00008B
:1086100037B5044D05609DF818500095FFF7EAFF47
:1086200003B030BDD4E60D0013B5CB7800938B7842
:108630004A780978FFF7DEFF02B010BD00F11003A1
:10864000012213F8101C0129184608D153F8041C04
:1086500002EB4102013A03F11003F2D17047022903
:1086600004BF53F8041C5218F4E70EB4F0B588B0F8
:1086700000AF07F13405102155F8042B7A60044649
:108680002B467818FD60FFF7A9F90F287A681AD9E8
:1086900000F1080323F007036E46ADEB030D411C08
:1086A0002B466846FD60FFF799F9021E04DD23683A
:1086B00069469B6820469847B5462037BD46BDE8C9
:1086C000F04003B070470028F7D0236802469B684B
:1086D00007F1100120469847EFE710B503680446FC
:1086E0009B689847A368013BA3602BB92368204689
:1086F000DB68BDE81040184710BD07B503688DF86A
:1087000007109B6801220DF10701984703B05DF83F
:1087100004FB38B50B6803604D6843689D4204460E
:108720000CD015B16B6801336B60606828B1436889
:10873000013B43600BB9FFF7D0FF6560204638BDB1
:108740000B461146002210B5C0E9002204468360A2
:108750000BB9204610BDFFF7DCFFFAE78368EBB1E9
:108760001A78032A1AD8DFE802F00417021B052042
:10877000704702685B685268D05C2D2812D0A0F167
:108780003003092B0ED974280ED066280CD0A0F126
:108790006E035842584170470620704700207047CA
:1087A00004207047032070470220704710B504462C
:1087B000FFF7D4FF02280ED0C31EDBB2012B14D862
:1087C0002268A36850685B68BDE810400A22002157
:1087D000184404F03BBB2268A36852685B68D05C15
:1087E000A0F174035842584110BD0020FCE700007E
:1087F00038B50023C0E9003304460E48C4E902033B
:10880000A9B10B78032B06D08BB9136858684B6855
:10881000C35C6E2B07D013684D6858688B6828447A
:108820005B1BA060E36011462046FFF772FF204605
:1088300038BD00BFAFE20D0038B500250B46C0E9DA
:108840000055C0E90255C0E90455044611464BB134
:108850001A78012A06D103F11002DB6882604361B5
:10886000FFF757FF204638BD10B54369044663B192
:108870008068E060013B1030A0602061636113B14B
:10888000FFF7DCFEA060012000E0184610BD10B527
:108890007D210446FFF731FF01232371204610BDDF
:1088A00008B50379012B02D0022B04D008BD2C217E
:1088B000FFF723FFFAE73A21FAE710B50446FFF77E
:1088C000EFFF20467B21FFF718FF0023237120468E
:1088D00010BD000013B504460191FFF7E1FF2368C6
:1088E000019ADB68034920469847012320462371FB
:1088F00002B010BD24E80D0013B504460191FFF746
:10890000CFFF2368019ADB6803492046984701237B
:108910002046237102B010BDE0E60D002DE9F041C4
:108920000D4617462221DFF8A08004462F44FFF7AA
:10893000E4FE2946BD422A4638D015F8016B222EA6
:1089400003D05C2E01D01F2EF4D82368521A9B68E6
:10895000204698475C212046FFF7CFFE0D2E0AD80F
:10896000072E1CD9A6F10803052B18D8DFE803F061
:108970000D0F11171315222E01D05C2E0FD1314689
:108980002046FFF7BAFE2946D4E76221F8E77421B2
:10899000F6E76E21F4E76621F2E77221F0E723683B
:1089A0003246DB68414620469847ECE78D4204D0CA
:1089B00023686A1A9B682046984722212046FFF7C1
:1089C0009CFEBDE8F08100BFE3E60D0013B5044650
:1089D000CDE90021FFF764FF2046DDE90021FFF724
:1089E0009DFF02232046237102B010BD13B504463B
:1089F000CDE90021FFF754FF2046DDE90021FFF714
:108A00008DFF01232046237102B010BD80680368EA
:108A1000DB6818477047084611B10B685B68184758
:108A20007047704770477047704738B504460D4629
:108A300000682E2103F077FA2368C31A2B6023B154
:108A4000037803B1013023682060184638BD10B5A3
:108A50000C21044602F014FB204610BD10B5042181
:108A6000044602F00DFB204610BD10B5042104465B
:108A700002F006FB204610BD08B503F05EFAB0FA1E
:108A800080F0400908BD704710B50C4602F028F987
:108A9000844210D002F09CF8844205D102F098F88C
:108AA000BDE8104002F091B82CB1236820465B6805
:108AB000BDE81040184710BD13B5044608460191A3
:108AC00003F06BFA01990246204602B0BDE810405F
:108AD000FFF78CBF13B504460846019103F05DFA19
:108AE00023680199DB680246204602B0BDE81040C9
:108AF000184707B503688DF80710DB6801220DF1F0
:108B00000701984703B05DF804FB0EB403B503AB4F
:108B1000002153F8042B006A019301F040F802B0E1
:108B20005DF804EB03B070472DE9F74FD0E90095ED
:108B30004FF0140808FB05F50093AB10184D1746CD
:108B40005D434C46002D23DD6E1008FB06F004EB60
:108B5000000A3A46BAF804B0205801915F4528BF90
:108B60005A4603F022FA0199012378B95F4503D1EF
:108B7000009A13703546E5E78CBF012000200028DD
:108B8000F8D0AE1B0AF11404013EF3E7C00FF6E77C
:108B9000A4EB09040248A410604303B0BDE8F08FC1
:108BA000CDCCCCCC7FB50369067E01910BB301B36C
:108BB000002500F10C04039503A901A8FFF735FF78
:108BC0000146B0B10DF10B03039A8DF80B5020460E
:108BD000FFF7AAFF9DF80B305BB12468142303FB59
:108BE000004000F10804B0F90630002BA8BFDEB247
:108BF000E2E7304604B070BD10B5094C2378BFF3EE
:108C00005B8FDB0709D42046FBF756FA28B12046D4
:108C1000FBF757FA034803F017F9034810BD00BFEC
:108C200080E50320238A0D001CE0032010B5094CC9
:108C30002378BFF35B8FDB0709D42046FBF73CFAB0
:108C400028B12046FBF73DFA034803F0FDF803483E
:108C500010BD00BF84E50320878A0D0020E00320BB
:108C600038B500250446C0E90055C0E904558560C3
:108C7000856140F8245FFEF793FBFFF7BDFFE061DD
:108C8000FFF7D4FF25732062204638BD10B50A4C8B
:108C90002378BFF35B8FDB070CD42046FBF70CFA7D
:108CA00040B10648FFF7DCFF2046FBF70AFA04480C
:108CB00003F0CAF8014810BD7CE503208CE50320D1
:108CC0006D910D00024A034903480023FEF790BD51
:108CD000F58F0D00818F0D00018F0D0000231A46C6
:108CE00019461846FEF784BD37B50D6951F8043BA7
:108CF0000093044601A8FEF7B0FE6A4629462046C6
:108D0000FFF71EFD01A8FCF730FF204603B030BD81
:108D100037B58D6851F8043B0093044601A8FEF76F
:108D20009CFE6A4629462046FFF786FD01A8FCF70F
:108D30001CFF204603B030BD37B5CD6851F8043B69
:108D40000093044601A8FEF788FE6A46294620469D
:108D5000FFF74EFD01A8FCF708FF204603B030BD29
:108D600070B58AB00D46014604A8FFF7D1FF144E36
:108D700004A8FFF779FDE8B104A96846FFF7DCFF16
:108D800002983146FFF778FE044610B12C1E18BF3A
:108D9000012401A8FCF7E9FE002CE9D004A96846EB
:108DA000FFF7A2FF6846FFF701FD286001A8FCF766
:108DB000DCFEDDE705A8FCF7D8FE0AB070BD00BFF9
:108DC000E9E60D0037B50C4620461249154603F07A
:108DD000B4F848B901F084FF4FF4165101F070FF68
:108DE00001F07EFF03B030BD0B49204603F0A5F82B
:108DF00070B94FF4165301A928460193FFF7B0FF4D
:108E000001F0E6FE019901F0DDFE01F0E1FEE9E787
:108E10000020E7E7EEE60D00F5E60D0070B5D0E9BD
:108E200000531426044606FB0356AE4205D005F156
:108E30000800FFF7F3FF1435F7E72068FEF7B6FDEB
:108E4000204670BD70B5D0E90053044605EB03160B
:108E5000AE4204D0284600F0B5FF1035F8E7206890
:108E6000FEF7A4FD204670BD10B504460C30FFF798
:108E7000D5FF2046FFF7E6FF204610BD10B5044B96
:108E8000044640F8043BFFF7EFFF204610BD00BF4B
:108E9000E0DF0D0010B50446FFF7F0FF2046242167
:108EA00002F0EEF8204610BD10B5034B03600446F7
:108EB000FFF7E4FF204610BD8CE70D0010B5044617
:108EC000FFF7F2FF2046242102F0DAF8204610BD19
:108ED0000022C0E9002210B582600C6804604C6872
:108EE00044608C680A604A6084608A6010BD10B576
:108EF000036804461868FEF76BFA204610BD0000B0
:108F00002DE9F04F87B0804603931C4B5B68C3F399
:108F10000803894616466BB9FFF7B8FE044600F110
:108F20002403406A0593FEF74BFA237B2BB105A877
:108F3000FFF7DDFF07B0BDE8F08F01232373D4E90D
:108F400000535FFA89F905EB830AAA4512D055F858
:108F5000047B3146381DFFF725FE8145F5D33B687C
:108F6000039A0092D3F808B04A4633464146384641
:108F7000D847EAE700232373D9E700BF00ED00E0FC
:108F80002DE9F74F9B461A4B5B68C3F308038046F5
:108F9000894616466BB9FFF779FE044600F12403B3
:108FA000406A0193FEF70CFA237B2BB101A8FFF76F
:108FB0009EFF03B0BDE8F08F01232373D4E9005373
:108FC000F6B205EB830A55450ED055F8047B594699
:108FD000381DFFF7E7FD8642F5D33B684A46DB685C
:108FE000414638469847EEE700232373DEE700BF8B
:108FF00000ED00E02DE9F341164B5B68C3F3080375
:1090000005460F461BBBFFF741FE00F12403044653
:10901000406A0193FEF7D4F9D4E90063462406EBD5
:109020008308B04509D101A8FFF761FFA542B4BF8D
:109030000020012002B0BDE8F08156F8040B39464B
:109040000430FFF7AFFD8442A8BF0446E9E70020E3
:10905000F0E700BF00ED00E070B50446D0E9000283
:109060000B4600EB8202824207D001461D6851F890
:10907000046BAE4203D00846F5E7002070BD521ADB
:1090800002F0FDFE6368013B63600120F6E71FB557
:1090900000F124030446406A01910393FEF790F91E
:1090A00001A92046FFF7D8FF18B163680BB9FFF795
:1090B00015FE03A8FFF71BFF04B010BD70B5D0E983
:1090C00004561823044603FB0656AE4215D005F19C
:1090D00010012046FFF7C0FF63680BB9FFF7FEFDE4
:1090E000E06929690368DB689847696919B1206AF2
:1090F0000368DB6898471835E7E7D4E90453182676
:1091000006FB0356AE4204D0284600F05BFE18353D
:10911000F8E70023636170BD73B50446FFF7DEFD19
:1091200004F12403606A0193FEF74AF92046FFF731
:10913000C5FF01A8FFF7DBFE606A08B1FEF738F94A
:10914000D4E90453182606FB0356AE4204D0284641
:1091500000F038FE1835F8E72069FEF727FC206894
:10916000FEF724FC204602B070BD00000148FFF766
:10917000D3BF00BF8CE503208842F8B506460C46F5
:10918000154627D9904226D2A2F114056C1AA1F1F6
:10919000140704440026AF423DD0A4B12B682360DD
:1091A000AB88A380B5F90630E380C4E90266266186
:1091B000AB68A360AE60E368EA68E260EB602369D5
:1091C0002A6922612B6105F10800FFF727FE143D93
:1091D000143CE0E71FD00027AC421CD0A6B12368A6
:1091E0003360A388B380B4F90630F380C6E9027710
:1091F0003761A368B360A760F368E268F260E36078
:10920000336922693261236104F10800FFF706FE29
:1092100014341436E0E7F8BDF8B5D0E901539D42A7
:1092200004460E4617460DDB0135002D006804DDAF
:10923000A900FEF7C3FB18B9F8BDFEF7B7FB002085
:109240002060A5602568626805EB86019200A2EBAC
:109250008602081D02F013FE45F82670636801338C
:1092600063600120E8E737B500F124030446406A53
:1092700001930D46FEF7A4F8D4E9003103EB810019
:1092800083421A460BD01268AA4203F10403F7D1B5
:1092900001A8FFF72CFE0025284603B030BD2A4662
:1092A0002046FFF7B9FF05460028F1D06368012B7F
:1092B00001D1FFF707FD01A8FFF719FEECE788428F
:1092C000F8B504460D46164614D9904213D2A2F1C1
:1092D0001006751AA1F110072C44B74218D01CB122
:1092E0003146204600F0EAFD304600F06BFD103EAE
:1092F000103CF2E70CD0B5420AD01CB129462046FA
:1093000000F0DCFD284600F05DFD10351034F2E77A
:10931000F8BD70B50E1E054611DD3001FEF73EFBAF
:10932000044658B1D5E9001201EB0212FFF7C7FF5E
:109330002868FEF73BFB2C60AE60012070BD002466
:10934000F6E72DE9F04F914697B000230391D9F845
:1093500004100C9346229942C0E90033C0E902335D
:10936000C0E90433CDE90A330446027623DCD9E9A7
:109370000057142303FB0757AF423BD029460DA8E3
:1093800000F09CFD0DA911A80B9E00F097FDDDE9F2
:109390000B1399421BDA0A9B0B9A03EB061603EB9D
:1093A0000212314606F11000FFF789FFEEB90B9B60
:1093B00001330B9311E00AA8FFF7ABFF0028D6D1C9
:1093C0000AA8FFF73FFD204617B0BDE8F08F013136
:1093D0000AA8FFF79EFF0028DDD111A800F0F2FCDB
:1093E0000DA800F0EFFC1435C6E711A9304600F0D7
:1093F00065FDDCE70026CDE90D660F9637464FF098
:10940000140ADDE90A239E4280F297803301D35883
:1094100008930BB90136F4E70AFB06F309970293A8
:109420000DAD09A908A8FFF700FB83460028F1D07D
:109430000146099A8DF81F700DF11F032846FFF7AA
:1094400073FB9DF81F800190B8F1000F66D1BDF845
:109450002430ADF84830CDE913884FF6FF73CDF8CE
:1094600044B0ADF84A30CDF85480D5E9013293428A
:109470001ADB03F1010BBBF1000F4ADD0AFB0BF015
:10948000FEF78CFA0490002845D0D5E900120AFBBB
:109490000212FFF771FE049B28680493FEF786FA18
:1094A000049B2B60C5F808B0019BD5F800B06A6832
:1094B0000AFB03F30BEB030101F114000AFB02B2F8
:1094C00004910593FFF758FE0499A9B1059B119AE1
:1094D0004BF80320BDF848308B80BDF94A30CB8073
:1094E000C1E902770F61139B8B60149B1397CB60CC
:1094F000159B14970B6115976B6801336B6013A86C
:10950000FFF78CFCB8F1000F08D00DA8FFF786FC20
:1095100056E74346C0E74FF00108F0E7019B2D688E
:109520000AFB0355089B1B782BB9D9F80030029A27
:1095300013441B7CEB80083573E721682260626866
:109540006360A3680B920C9A0C93E368A2600D9A77
:109550000D932369E2600E9A0E93636922610F9A5C
:109560000F93039B0A9162612376CEE77FB5054690
:10957000094B45F8043B04460E4601A81146FBF78B
:1095800091F901AA31462846FFF7DBFE01A8FAF758
:109590004BFF204604B070BDE0DF0D00F0B50F4674
:1095A00087B026490C9C384616461D4602F0C5FC7D
:1095B00000BBE4B129466846FFF78AFC2049242015
:1095C00001F060FD054670B1694603A8FBF76AF932
:1095D00003AA31462846FFF7C9FF03A8FAF724FF7C
:1095E000184B2C622B606846FAF71EFF2C4620466B
:1095F00007B0F0BD1449384602F09FFCE0B9002CDA
:10960000F5D029466846FFF763FC0D49242001F098
:1096100039FD05460028E6D0694603A8FBF742F964
:1096200003AA31462846FFF7A1FF03A8FAF7FCFE7C
:10963000064B2B602C62D6E70024D8E7FDE60D0030
:109640007CE90D008CE70D0001E70D0074E70D00CB
:10965000014B024A1A60704788E5032012E70D00AB
:109660002DE9F047089DD0F8209004460E46174695
:10967000984601F035FB81454CD02B79190704D56C
:109680006A6954492046FFF740FAB8F1000F0DD03F
:109690005B212046FFF72DFA41462046FFF71AFAD4
:1096A00023684D49DB680222204698472B79DA0768
:1096B00023D5D5F808802F21404602F09BFC08B145
:1096C00000F1010841462046FFF704FA2B799B0779
:1096D00008D53A212046FFF70CFAEA683F492046B0
:1096E000FFF713FA2A79236812F0040FDB6814BF1E
:1096F0003B493C490222204698472B7958071DD503
:1097000029690B461A4613F8010B60B1202808D1CD
:109710001946F7E7344800F066F90028ADD0BDE8F7
:10972000F0872828EED12368521ADB682046984734
:1097300023682E49DB6804222046984700213846DA
:10974000FEF74EF801462046FFF7C4F92368254985
:10975000DB680222204698471EB131462046FFF7BB
:10976000B9F92B7913F0300F2CD023682049DB682E
:109770000222204698472B79D9060AD523681D492D
:10978000DB68072220469847AA691B492046FFF755
:10979000BCF92B799A0611D5DB0605D5236810494B
:1097A000DB6802222046984723681449DB6820467C
:1097B0000A229847E9692046FFF78CF95D21204687
:1097C000FFF797F923680E49DB6820460222BDE8BF
:1097D000F047184716E70D001DE70D0024E80D00BF
:1097E00020E70D0025E70D00B4E5032023E70D0079
:1097F00028E70D002BE70D0033E70D0036E70D00DD
:10980000ADE20D002DE9F04385B0D0F820900C9C1E
:1098100005460F4690461E4601F062FA814505D185
:10982000494800F0E0F8002840F08A802B6A474A57
:1098300001924FF0000901A803938DF80890FFF7FB
:109840003CF849464046FDF7CBFF4149804601229E
:1098500001A8FFF7BBF84146FFF72EF93FB13D499C
:10986000012201A8FFF7B2F83946FFF725F93EB10A
:109870003949012201A8FFF7A9F83146FFF71CF981
:109880002379DF070ED5A6682F21304602F0B2FB00
:1098900000B1461C3149012201A8FFF797F8314673
:1098A000FFF70AF923799E0707D52D49022201A85F
:1098B000FFF78CF8E168FFF70DF82379580714D506
:1098C000266933461F4613F8012B2AB1202A01D1FD
:1098D0001E46F7E7282AF5D12249022201A8FFF700
:1098E00075F8BA1B3146FFF781F82379190707D5B8
:1098F0001D49012201A8FFF769F86169FEF7FCFF25
:109900002379DA0608D5042218490DEB0200FFF787
:109910005DF8A169FEF7DEFF23799B0607D51449A0
:10992000062201A8FFF752F8E169FFF7C5F801A880
:10993000FEF7ADFF286A0F4903680222DB689847EB
:1099400005B0BDE8F08300BFB4E503205CE70D007F
:10995000F3E60D006DE50D00B8DF0D0063DF0D00CF
:1099600041E70D0044E70D00F9E30D0047E70D0066
:109970004CE70D00ADE20D00002340681A46FDF7EC
:10998000ADBF406800220221FDF7B8BF0022406849
:109990001146FDF7ABBF002240681146FDF7B6BF88
:1099A000002340681A461946FDF7B8BF00234068F7
:1099B0001A461946FDF7BABF40680021FDF7DEBF21
:1099C00040680021FDF7E2BF4068002281F00101FC
:1099D000FDF7B4BF40680022FDF7C0BF0022406819
:1099E0001146FDF7C3BF002240681146FDF7AEBF28
:1099F0002DE9F043002495B016460D460746FEF7C4
:109A0000C3FD214618220EA8009402F052FA40230A
:109A1000CDE90C3421466B460CAA3046FDF7B0FD6B
:109A20000446002846D1024601216868FDF76EFF12
:109A30000221804622466868FDF768FF009E814645
:109A40002146002E36D0002934D17368022B03D072
:109A50000A2B0BD0F669F4E7B8F1000F04D0716956
:109A600038460431FEF7E0FD4146F3E7B9F1000F57
:109A700001D14946EEE77469102201A802F019FAF3
:109A800006238DF8143001AD04F10803183418686A
:109A900059682A4603C20833A3421546F7D101A9E3
:109AA00006A807ADFEF77EFD0FCD3C1D0FC42B6849
:109AB0002370DEE70098FDF75BFD384615B0BDE882
:109AC000F0830000024B034A1A6000225A6070477C
:109AD000B4E50320D4E70D00F8B506460D468F180F
