:02000002D0002C
:1040000000400D008C9B0D00000006000D00050116
:0840100004019A080000000001
:044018006C950D0096
:1040200009480A49884208B505D0094A824202D0A7
:10403000121A05F0D5F80748074A0021121A05F0B0
:10404000F7F8014808BD00BF18E30320D49A0D001B
:10405000A4E30320A8E30320F1E7032070B5074E93
:10406000074C04F0EBFAA41BA4080025A54200D1DC
:1040700070BD56F8043B98470135F7E7A89A0D0044
:10408000CC9A0D0000F060B808B500F0FDF9BDE86D
:10409000084004F08BBA01F075BE01F073BE01F068
:1040A00079BE000008B5034A00210C2001F094FD00
:1040B000FEE700BFD9580D000078B0FA80F0400943
:1040C00070470123037070477047006A0368DB681C
:1040D0001847000010B5034B0360044601F082FA54
:1040E000204610BD38960D0010B50446FFF7F2FFCC
:1040F00020464FF4987104F0E1FB204610BD00000B
:104100000A4B10B50446036002F0A4FF214603F0F9
:10411000A2F904F003FA04F0F5F92046044B40F844
:10412000043B03F085F8204610BD00BF20960D002B
:1041300008960D0010B50446FFF7E2FF2046242143
:1041400004F0BCFB204610BD10B504F0E7F94FF4B5
:10415000165104F0D3F904F059F94FF4165104F054
:104160004FF91A4801F013FA19491A48002302229C
:1041700001F088FD184919480023022201F082FD50
:10418000174918480023022201F07CFD1649174800
:104190000023022201F076FD154916480023022271
:1041A00001F070FD144915480023092201F06AFD51
:1041B000134914480023092201F064FDBDE81040B2
:1041C000114912480023092201F05CBDB8E3032025
:1041D00030E5032080950D00DCE4032087950D0079
:1041E00028E5032090950D0024E50320A0950D00FF
:1041F00020E50320AF950D0018E50320BE950D00C6
:10420000E8E40320C8950D00B0E30320D1950D002C
:104210002DE9DF432AA7D7E90067254CDFF8A890EE
:104220004FF0000804F0F2F803681B699847002873
:104230003BD004F0EBF803685B699847C1B21C48B7
:1042400000F0A4FD0028EDD004F0E0F80D220146B6
:10425000684603F083FF04F061F9009903F05BFE08
:10426000D4F8CC30EBB1204600F0C2FB114B204615
:1042700083ED000B00F0E0FB0F4BD4F8800083EDE2
:10428000000B002384F8793004F074FC32463B467E
:1042900004F0DAFC4B46424604F000FE074BC3E94B
:1042A0000001684603F072FFBCE704B0BDE8D083AC
:1042B00004E40320E8E4032018E50320B0E303202E
:1042C000984B4FFD283F0A400000594070B5D0E997
:1042D00000531426044606FB0356AE4204D028467B
:1042E00003F054FF1435F8E7206801F053FD204631
:1042F00070BD000037B504461546019101F07EFA05
:1043000001990122204601F0E7F920463A2101F007
:1043100097F904492A46204603B0BDE8304001F031
:10432000CEB900BFDA950D001FB504468DED000B28
:10433000039101F063FA03990122204601F0CCF9C0
:1043400020463A2101F07CF99DED000B204604B097
:10435000BDE8104001F076BAF0B52DED048BB0EE5B
:10436000419AF0EE619AB0EE428AF0EE628AD3B0E2
:1043700007460E46154612A94FF4807206A88DED29
:10438000020B1C4601F04AF9324B06937D227B2139
:1043900006A801F03EFA30493A4606A8FFF7AAFF00
:1043A0002E49324606A8FFF7A5FF2D492A4606A842
:1043B000FFF7A0FF22462B4906A8FFF79BFF5C9A58
:1043C000294906A8FFF796FF5D9A284906A8FFF736
:1043D00091FF5E9A264906A8FFF78CFF9DED020B20
:1043E000244906A8FFF7A0FFB0EE490AF0EE690ADB
:1043F000214906A8FFF798FFB0EE480AF0EE680AD8
:104400001E4906A8FFF790FF06A801F027F91C4BEC
:10441000079A1B788DF800301A493C2304A801F054
:10442000A3FF059C7CB16368013B63605BB92368B3
:1044300020469B689847A368013BA3601BB923688B
:104440002046DB68984706A8FFF744FE53B0BDEC52
:10445000048BF0BD38960D00DD950D0080950D00A4
:1044600087950D00E4950D00AF950D0090950D001A
:10447000A0950D00BE950D00C8950D00D1950D00BD
:10448000A8E30320EC950D002DE9F0472DED048BFA
:1044900092B001F029FA7C4B7C491A6809687C4D7E
:1044A0007C4E7D4F821A8A4203D82A78002A00F077
:1044B00083801860794800F0CFFDFDEEC07ACDED25
:1044C000057A9DF91400306004F054FB6CA3D3E925
:1044D000002304F0B9FB0022714B04F0FFF904F053
:1044E0004DFE704B18606D4800F04CFEFCEEC07A3B
:1044F0006D48CDED057A9DF814303B6002F050F91F
:10450000FCEEC07A694ACDED057A9DF8143013604F
:1045100007A900220320079201F076FB002840F053
:10452000AA80079C0CB1236923B9614A00210A20A3
:1045300001F052FB0023ADF822300C23ADF82030FF
:1045400006AB099304230A93236908AA0121204694
:104550009847002840F08F80BDF8183007EE903A59
:10456000FBEECC7AFCEEE77A524ACDED057A9DF867
:1045700014305149136008A801F0B2FC08A801F0FA
:104580001DFDFCEEC07A4D4ACDED057A9DF8143044
:10459000136008A801F042FDFCEEC07A484ACDED58
:1045A000057A9DF814301360FFF732FE002341F2C4
:1045B00088302B7001F01EFC424BDFF820811C6814
:1045C000414BD6F800901868D7F800A03F4B404DFB
:1045D00098ED009B504508BF4C45186814BF012456
:1045E000002404F0C7FA53EC192B04F095FD0028C1
:1045F00014BF2046012095ED008B48B9354B186853
:1046000004F0B8FA53EC182B04F086FD00282DD1E5
:10461000B0EE491AF0EE691AB0EE480AF0EE680AF8
:10462000274B20491B680293244B1B680193214BA5
:104630001B680093284B096893ED002B1B4B5246D7
:104640001B684846FFF788FE1E4B32681A601E4BF7
:104650003A681A60D8E9000104F090FD1B4B18601D
:10466000D5E9000104F08AFD1A4B186012B0BDECC8
:10467000048BBDE8F087FFEE007A73E7AFF30080AC
:10468000CDCCCCCCCCCCFC3FE0E4032018E3032021
:104690001CE303202CE50320DCE40320B8E3032023
:1046A0000000404030E50320FCE3032034E5032014
:1046B000D9580D0020E5032048E5032028E5032014
:1046C00024E503202CE3032020E3032024E303203C
:1046D00018E5032028E30320B0E30320E8E40320E7
:1046E0008842F8B504460D46164616D9904215D2B2
:1046F000A2F11406751AA1F114072C44B7421CD07C
:104700002CB13146204603F0BDFD337C2374304686
:1047100003F03CFD143E143CF0E70ED0B5420CD043
:104720002CB12946204603F0ADFD2B7C237428468E
:1047300003F02CFD14351434F0E7F8BD2DE9F041F9
:104740000023C0E9003383604F689F4204460E4651
:1047500023DD4FF0140808FB07F001F013FB0546BA
:10476000D8B1D4E9001208FB0212FFF7B9FF2068A4
:1047700001F010FB2560A760D6E9007308FB037801
:10478000B84508D03946284603F096FD3B7C2B748B
:1047900014371435F4E7736863602046BDE8F08190
:1047A0002DE9F0412D4B2E4D8CB04FF00108002427
:1047B00083F80080CDE90044029403F0AFFE69461F
:1047C000064603A8FFF7BAFF2F4603A906A8FFF77E
:1047D000B5FF244B47F8043B06A909A8FFF7AEFF35
:1047E00009AA1E21384602F090FF09A8FFF76EFDC6
:1047F00006A8FFF76BFD1C4B2B6003A82E62FFF78A
:1048000065FD1A4B2B6003F089FE4FF4165103F03F
:1048100075FE02F01FFC294602F009FF6846FFF70B
:1048200055FD134800F02AF8124800F043FB2146DA
:10483000114801F067FF03F033FF2346224643F699
:10484000F06103F035FF03F02BFF2346224641467B
:1048500003F036FF0CB0BDE8F08100BFA8E30320F1
:10486000F0E4032008960D008C980D0020960D00B2
:1048700004E40320B8E30320FCE303200022022128
:10488000C0E930220280828082600273028242612B
:1048900002768283026280F824200285C26280F858
:1048A00030200287C263A0F84820C264A0F85820D4
:1048B0000266A0F868200267A0F87820C0F880207F
:1048C000A0F88820C0F89020A0F89820C0F8A02078
:1048D00080F8B910A0F8BA2080F8BC20C0E93222D4
:1048E000C0E93422A0F8A82080F8AA207047A1F1DE
:1048F0004103052B02D8A1F137007047A1F16103F4
:10490000052B94BFA1F15700A1F13000704738B5D5
:10491000057804462D2D08BF0134204604F05CFCC8
:1049200064235843224614F8013BA3F130010929BE
:10493000F8D92E2B0BD15378303B092B07D80A21FD
:1049400001FB03009378303B092B98BFC0182D2D35
:1049500008BF404238BD000038B50D46044604F09B
:104960003BFC6422134BB0FBF2F102FB110043430A
:10497000298020460278A2F13004092C014600F17A
:104980000100F7D92E2A0BD10A480A2411F8012F69
:10499000303A092A04D8B0FBF4F000FB0233F5E703
:1049A00003EB830301330322B3FBF2F36B600023B9
:1049B0002B7238BD8096980010B50346044653F814
:1049C0001C2F42605A6882601B7A0373034653F8B7
:1049D000282F02615A6842611B7A037600F084FF37
:1049E00040F201136063238010BD0000000000004E
:1049F000D0B5002304464370806804F0ABF80CA3E4
:104A0000D3E9002304F04AFA0646A0880F4604F0D2
:104A1000B1F80B4602463946304603F05FFF237B70
:104A200013B101F10043194641EC100BD0BD00BF9A
:104A30000000000065CDCD41D0B500230446437091
:104A4000406904F087F80CA3D3E9002304F026FAA8
:104A50000646208A0F4604F08DF80B46024639467A
:104A6000304603F03BFF237E13B101F100431946AA
:104A700041EC100BD0BD00BF0000000065CDCD4162
:104A800010B583684360044600F02EFF40F2011326
:104A9000E060238010BD10B583684360044600F0D9
:104AA00023FF40F20113E060238010BD10B50446DF
:104AB0000846FFF72CFFA06010BD10B5044608465D
:104AC00004F08AFBA06010BD10B5C3688360044683
:104AD00000F00AFF40F201136060238010BD10B5A2
:104AE00004460846FFF713FFE06010BD10B5C36829
:104AF0008360044600F0F8FE40F2011360602380FA
:104B000010BD10B50446084604F066FBE06010BD19
:104B100010B501460446103004F0D7FB00F0E4FE67
:104B200040F201132062A38410BD102204F00DBCDA
:104B3000F8B590F8A9500446002D64D090F8AA105A
:104B4000FFF7D5FE94F8AB1002462046FFF7CFFEE4
:104B500094F8A83000EB0210C0B283424BD1D4F8D5
:104B6000D4300133C4F8D43094F8BC3023B1D4F835
:104B7000CC300133C4F8CC3094F8B93033B3012BC6
:104B800015D104F13800FFF77BFF04F14800FFF76F
:104B900082FF94F8BC3053B12046FFF70DFF04F1BB
:104BA0005800FFF791FF04F16800FFF78DFFD4F87C
:104BB000C46036B3D4F8C430B06A996A04F07BFBA1
:104BC000F8B93046FFF7A4FF366BF2E704F148006E
:104BD000FFF761FF94F8BC3033B12046FFF7ECFEDD
:104BE00004F17800FFF770FF04F18800FFF77EFF03
:104BF00004F19800D9E7D4F8D0300133C4F8D030AC
:104C000000252846F8BD90F8BA206ABB00F1AA0634
:104C10005A49304604F04FFB20B15949304604F060
:104C20004AFB98B9012384F8B930D4F8C030C4F8ED
:104C3000C430D4F8C470002FE3D0B86A314604F011
:104C40003AFB002880F294803B6BF0E74D493046F8
:104C500004F031FB20B14C49304604F02CFB08B97C
:104C60000023E0E70223DEE790F8B910022923D001
:104C700090F8AA3003B342EA4112013A282A1BD81D
:104C8000DFE802F0153B42494C63686E721A1A1A4B
:104C90001A1A1A1A1A1A1A1A1A1A1A1A1A1A1A1A74
:104CA0001A1A1A1A15343B42494C53595D0000F147
:104CB000AA014830FFF7FAFED4F8C46004F1AA074D
:104CC000002E9ED0D4F8C430B06A996A04F0F3FA8A
:104CD000002896D1F26A94F8BA309A4291DC03D156
:104CE00039463046FFF721FF366BE9E7A3F1410073
:104CF0004342434184F8BC30DEE700F11C0104F17B
:104D0000AA00FFF729FED7E7A3F153014B424B411D
:104D100080F82430D0E700F12801F0E7A3F1570232
:104D20005342534180F83030C6E700F1AA015830B1
:104D3000FFF7D5FEC0E700F1AA016830F8E700F1FF
:104D4000AA013830FFF7B9FEB6E7302B94BF002335
:104D50000123CFE700F1AA018830FFF7D2FEABE7CD
:104D600000F1AA019830E3E700F1AA017830DFE70B
:104D70003FF447AF0023C4F8C43042E740960D002B
:104D800046960D004C960D0052960D0038B5D0F8A1
:104D9000C830242903F1010304460D46C0F8C83089
:104DA0003AD090F8BB3014D80A291CD00D291AD05B
:104DB0000D2B9FBF5A1C1B1984F8BB2083F8AA50E7
:104DC00094F8A90098BB94F8A8104D4084F8A85016
:104DD00021E02A2907D02C29EAD190F8A82082F0D6
:104DE0002C0280F8A8200E2B4FF0000005D8234499
:104DF00083F8AA002046FFF79BFE94F8BA300133EF
:104E000084F8BA30002384F8BB30A5F12A035D4250
:104E10005D4184F8A95038BD00200223A4F8A80001
:104E200084F8B930A4F8BA0084F8BC00F3E7002095
:104E3000F1E7704710B51021044603F03FFD20460E
:104E400010BD0EB403B503AB002153F8042B01933E
:104E500003F089F802B05DF804EB03B0704700007E
:104E600073B5044608462279A36832B1A3B90B4949
:104E700002B0BDE8704003F03BB8094A267B094DFB
:104E80000949647B012E18BF2946CDE90014074962
:104E9000FFF7D7FF02B070BD054AEFE769960D0036
:104EA00053980D0065960D0061960D007F960D00DC
:104EB00058960D004FF0FF330361704713B50B4C4C
:104EC0002178BFF35B8F11F001010BD120460191D6
:104ED000FFF7F2F8019928B1054803F081F8204660
:104EE000FFF7EFF8024802B010BD00BF38E503201D
:104EF0003CE503202DE9F04190F9133001330546DC
:104F00000F4606D1FFF7DAFF3946BDE8F04103F05E
:104F100009B9002407264FF0010895F91300002174
:104F200080B203F024FC95F9110008FA06F139402B
:104F300080B203F01CFC95F91300012180B203F04C
:104F400016FC95F91200640080B2E4B203F028FC6C
:104F500008B144F00104013EDFD22046BDE8F081F3
:104F600008B5FFF7ABFFBDE8084003F054B807B53C
:104F70000190FFF7A3FF019903B05DF804EB03F084
:104F800063B8000030B590F91030013385B00446A5
:104F90000D4623D10179006801F08EFC206803687A
:104FA00029469B689847206801F0A6FC2179206873
:104FB000032201F07EFC206803685B6998470502C4
:104FC000206803685B6998472843050220680368E6
:104FD0005B6998470543284605B030BD90F913300A
:104FE00001330CD11A4B009300238DF80430194B78
:104FF000029368460123ADF80C30FFF7B8FF94F92F
:105000001000002180B203F0B2FB45F08001204681
:10501000FFF770FF00212046FFF76CFF002105021B
:105020002046FFF767FF2843050200212046FFF7CF
:1050300061FF054394F91000012180B203F097FB52
:1050400094F913300133C6D1FFF78AFFC3E700BFDD
:10505000A4960D0020A1070010B5FA210446FFF721
:1050600091FFB0F5000F1ED0A18A9FED107A4B0082
:10507000C1EB2022C3EBE011B4F91630524359437F
:10508000B4F91830121353439B1303EBE123E3608D
:1050900003EB830380331B1207EE903AF8EEE77AB6
:1050A00087EE870A10BD9FED020AFBE70000C842A9
:1050B0000000C07F30B590F91030013385B0044650
:1050C0000D461FD10179006801F0F6FB20680368E6
:1050D00029469B689847206801F00EFC21792068DA
:1050E000022201F0E6FB206803685B6998470546E9
:1050F000206803685B69984740EA052085B2284626
:1051000005B030BD90F9133001330CD1184B00932A
:1051100000238DF80430174B029368460123ADF845
:105120000C30FFF724FF94F91000002180B203F047
:105130001EFB45F080012046FFF7DCFE00212046E3
:10514000FFF7D8FE002105462046FFF7D3FE40EAD0
:10515000052085B294F91000012180B203F007FB0D
:1051600094F913300133CAD1FFF7FAFEC7E700BF45
:10517000A4960D0020A1070008B5FFF79BFF40BAD9
:1051800080B208BD38B50446FFF766FFFD21204612
:10519000FFF790FFB0F5004F38D0B4F93250E26815
:1051A000B4F934302D05A2F59632C5EB803002FB00
:1051B000130303F58043D91394F830305343DB12C3
:1051C00003F5004094F9363053439B1243439B123E
:1051D00003F50012B4F92E30534303F500539B132B
:1051E0004B43DA1394F82C105243D2114A43A3EBE9
:1051F000221323EAE373B3F1C85FA8BF4FF0C8538B
:105200001B1300EE103ABAEECB0A38BD9FED010A2F
:10521000FBE700BF0000C07F30B590F910300133CC
:1052200085B004460D4618D10179006801F044FBB1
:105230002068036829469B689847206801F05CFB5A
:1052400021792068012201F034FB206803685B6942
:105250009847C5B2284605B030BD90F913300133E8
:105260000CD1154B009300238DF80430134B02939F
:1052700068460123ADF80C30FFF779FE94F9100071
:10528000002180B203F073FA45F080012046FFF759
:1052900031FE00212046FFF72DFE054694F910004F
:1052A000012180B203F063FA94F913300133D1D1B4
:1052B000FFF756FECEE700BFA4960D0020A1070021
:1052C00008B5F321FFF7A8FF00F0010008BD38B5CD
:1052D00088210446FFF750FF8A21A0822046FFF76D
:1052E0004BFF8C21E0822046FFF746FF8E21208372
:1052F0002046FFF741FF902160832046FFF73CFFE7
:105300009221A0832046FFF737FF9421E0832046B7
:10531000FFF732FF962120842046FFF72DFF9821CA
:1053200060842046FFF728FF9A21A0842046FFF7DB
:1053300023FF9C21E0842046FFF71EFF9E2120854D
:105340002046FFF719FFA12160852046FFF764FF83
:10535000E12184F82C002046FFF70EFFE321E085D1
:105360002046FFF759FFE42184F830002046FFF77C
:1053700053FFE52105462046FFF74EFF00F00F03DF
:1053800043EA05106086E6212046FFF745FFE52148
:1053900005462046FFF740FF031143EA0510A086AB
:1053A000E7212046FFF738FF84F8360038BD0000BB
:1053B0007FB590F91030013304460E46154612D1E0
:1053C0000179006801F078FA2068036831469B682B
:1053D00098472068036829469B689847206801F031
:1053E0008BFA04B070BD90F9133001330CD1144B1B
:1053F000009300238DF80430124B0293684601237A
:10540000ADF80C30FFF7B3FD94F91000002180B225
:1054100003F0ADF906F07F012046FFF76BFD29464A
:105420002046FFF767FD94F91000012180B203F0D8
:105430009EF994F913300133D3D1FFF791FDD0E7F2
:10544000A4960D0020A10700F8B5DB0002F00702CA
:1054500003F03803134343EA81139DF8186080F882
:105460003C3090F840309DF81C509DF8207066F359
:10547000471380F84030ED0090F8383007F0070708
:1054800005F0380523F03F033D4304461D4380F8F3
:10549000385006F00702F221FFF78AFF94F838200F
:1054A000C2F3C20302F007019B0043EA411343EA3F
:1054B000D2122046F521FFF77BFF94F83C20C2F37F
:1054C000C20302F007019B0043EA411343EA921230
:1054D0002046F421BDE8F840FFF76ABF30B5044626
:1054E00090F91000421C85B019D1206801F0B2F982
:1054F000D0212046FFF790FE6028A06045D12046CD
:10550000B622E021FFF754FF4FF4967000F072FCD2
:105510002046FFF7D5FE054628B36420F6E70121B3
:1055200080B203F024F994F91000012180B203F055
:105530000DF994F91300431C04D1FFF7BFFC02F0EE
:1055400059FDD5E7012180B203F000F994F911006B
:10555000012180B203F0FAF894F91200002180B220
:1055600003F0F4F8C4E72046FFF7B1FE05230093EB
:105570001A4603212046CDE90155FFF765FF642057
:1055800000F038FC012005B030BD0020FBE7772398
:1055900010B50371044603F049F920602046FFF777
:1055A0009DFF30B9762323712046BDE81040FFF7F8
:1055B00095BF10BD10B5054B0360037C04461BB9B5
:1055C000406808B100F0E6FB204610BDCC960D0007
:1055D00010B50446FFF7EEFF2046142103F06EF9E4
:1055E000204610BD10B5034B03600446FFF7E2FFF1
:1055F000204610BDDC960D0010B50446FFF7F2FF03
:105600002046302103F05AF9204610BD0023012224
:10561000C3604361028380F82A307047002310B5CD
:10562000C36001230374054B03604FF0FF33C0E9EF
:105630000112C362FFF7EAFF10BD00BFDC960D0048
:10564000D0E9022310B593423FBF42685C1CC4609E
:10565000D15424BF012380F82A3010BD10B543690E
:10566000044643B100EB4303597E09B1FFF7E8FF5D
:105670006369013B6361D4E90210636888424FF0BB
:1056800000022ABF5B181A5403F8012C10BD70B534
:105690000446D0E9025066682D1A134630440A4683
:1056A000294600F087FB85422DBFE368A368E360CD
:1056B000C01836BF0123E06084F82A3070BD0EB4F4
:1056C00003B503AA52F8041B0192FFF7E0FF02B0F2
:1056D0005DF804EB03B070472DE9F84304460E462D
:1056E000174612B12221FFF7ABFFDFF80C8100252E
:1056F000715D06EB0509002974D0D4E902329A42A3
:1057000070D20B0634D501F0F003E02B05F101094E
:105710001DD116F8092002F0C003802B39D105F104
:10572000020916F8093003F0C000802831D103F0D7
:105730003F03920143EA013302F47C621A4392B2BE
:1057400041462046FFF7BBFF4D460135D0E701F04B
:10575000E003C02B1DD116F8093003F0C002802AE7
:1057600017D1890101F4F86203F03F031A43E7E718
:105770000D290AD807290CD9A1F10803052B08D84F
:10578000DFE803F00B231707111D222923D05C2922
:1057900021D02046FFF754FFD7E75C212046FFF7D2
:1057A0004FFF6221F5E75C212046FFF749FF6621A4
:1057B000EFE75C212046FFF743FF6E21E9E75C211C
:1057C0002046FFF73DFF7221E3E75C212046FFF70B
:1057D00037FF7421DDE75C212046FFF731FF99F8A0
:1057E0000010D6E72FB120462221BDE8F843FFF78D
:1057F00027BFBDE8F88300BFB0960D00426900EBFB
:1058000042031A7E12B100221A7670472C21FFF74C
:1058100017BF73B5436901910133082B16460FD8A2
:10582000FFF7ECFF436901995A1C00EB4303012584
:1058300042619D76DE76FFF703FF284602B070BD19
:105840000020FBE707B5C16A002953EC102B08DBE9
:105850000A468DED000B0649FFF731FF03B05DF8F6
:1058600004FB044903B05DF804EBFFF728BF00BF59
:10587000B7960D00BD960D0008B5024B1B685B6C1A
:10588000019308BD7402030008B5024B1B685B6CF2
:10589000019308BD4802030008B5024B1B689B6CCE
:1058A000019308BD4802030008B5024B1B68DB6C7E
:1058B000019308BD4802030008B5024B1B685B6DED
:1058C000019308BD4802030008B5024B1B685B68E2
:1058D000019308BD1802030008B5024B1B68DB6882
:1058E000019308BD1802030008B5024B1B685B69F1
:1058F000019308BD1802030008B5024B1B689B68A2
:10590000019308BD2C02030008B5024B1B68DB683D
:10591000019308BD2C02030008B5024B1B681B69EC
:10592000019308BD2C02030008B5024B1B685B699C
:10593000019308BD2C02030008B5024B1B68DB680D
:10594000019308BD2802030008B5024B1B689B6940
:10595000019308BD2802030008B5024B1B68DB69F0
:10596000019308BD2802030008B5024B1B681B6A9F
:10597000019308BD2802030008B5024B1B685B6A4F
:10598000019308BD2802030008B5024B1B689B6AFF
:10599000019308BD2802030008B5024B1B68DB6AAF
:1059A000019308BD2802030008B5024B1B681B6B5E
:1059B000019308BD2802030008B5024B1B685B6B0E
:1059C000019308BD2802030008B5024B1B681B6C3D
:1059D000019308BD2802030008B5024B1B689B6CAD
:1059E000019308BD2802030008B5024B1B68DB6C5D
:1059F000019308BD2802030008B5024B1B681B6D0C
:105A0000019308BD2802030008B5024B1B685B69BF
:105A1000019308BD6402030008B5024B1B689B6834
:105A2000019308BD6802030008B5024B1B68DB68E0
:105A3000019308BD6802030008B5024B1B681B6890
:105A4000019308BD3002030008B5024B1B685B6977
:105A5000019308BD3002030008B5024B1B68DB69E7
:105A6000019308BD3002030008B5024B1B681B6A96
:105A7000019308BD3002030008B5024B1B685B6A46
:105A8000019308BD3002030008B5024B1B68DB6BB5
:105A9000019308BD3002030008B5024B1B681B6C64
:105AA000019308BD3002030008B5024B1B685B6C14
:105AB000019308BD3002030008B5024B1B681B6848
:105AC000019308BD3C02030008B5024B1B689B68AC
:105AD000019308BD3C02030008B5024B1B68DB685C
:105AE000019308BD3C02030008B5024B1B681B690B
:105AF000019308BD3C02030008B5024B1B685B69BB
:105B0000019308BD3C02030008B5024B1B689B696A
:105B1000019308BD3C02030008B5024B1B68DB691A
:105B2000019308BD3C02030008B5024B1B681B6AC9
:105B3000019308BD3C02030008B5024B1B689B6A39
:105B4000019308BD3C02030008B5024B1B68DB6AE9
:105B5000019308BD3C02030008B5024B1B681B689B
:105B6000019308BD4C02030008B5024B1B685B683B
:105B7000019308BD4C02030008B5024B1B689B68EB
:105B8000019308BD4C02030008B5024B1B681B695A
:105B9000019308BD4C02030008B5024B1B685B690A
:105BA000019308BD4C02030008B5024B1B689B69BA
:105BB000019308BD4C02030008B5024B1B68DB696A
:105BC000019308BD4C02030008B5024B1B681B6A19
:105BD000019308BD4C02030008B5024B1B685B6BC8
:105BE000019308BD6002030008B5024B1B68DB6E21
:105BF000019308BD6002030008B5024B1B681B6FD0
:105C0000019308BD6002030008B5034B1B68D3F87D
:105C10009830019308BD00006002030008B5024BF4
:105C20001B685B68019308BD2002030008B5024BA6
:105C30001B685B69019308BD2002030008B5024B95
:105C40001B68DB6C019308BD2002030008B5024B02
:105C50001B685B6D019308BD2002030008B5034B70
:105C60001B68D3F88830019308BD000020020300B0
:105C700008B5034B1B68D3F89430019308BD0000AE
:105C80002002030008B5024B1B681B68019308BD86
:105C90004402030008B5024B1B685B69019308BD11
:105CA0004402030008B5024B1B681B6A019308BD40
:105CB0004402030008B5024B1B68DB6B019308BD6F
:105CC0004402030008B5024B1B685B68019308BDE2
:105CD0004002030008B5024B1B689B68019308BD96
:105CE0004002030008B5024B1B68DB68019308BD46
:105CF0004002030008B5024B1B681B69019308BDF5
:105D00004002030008B5024B1B685B69019308BDA4
:105D10004002030008B5024B1B689B69019308BD54
:105D20004002030008B5024B1B68DB69019308BD04
:105D30004002030008B5024B1B681B6A019308BDB3
:105D40004002030008B5024B1B681B6B019308BDA2
:105D50004002030008B5024B1B685B6B019308BD52
:105D60004002030008B5024B1B681B6C019308BD81
:105D70004002030008B5024B1B685B6C019308BD31
:105D80004002030008B5024B1B681B68019308BD65
:105D90001C02030008B5024B1B685B68019308BD39
:105DA0001C02030008B5024B1B689B68019308BDE9
:105DB0001C02030008B5024B1B685B6A019308BD17
:105DC0001C02030008B5024B1B68DB6A019308BD87
:105DD0001C02030008B5024B1B681B6B019308BD36
:105DE0001C02030008B5024B1B685B6C019308BDE5
:105DF0001C0203000021FFF719BF10B58368044699
:105E00000BB902F061FDC3689847A3681BB1032278
:105E100021462046984720461021BDE8104002F058
:105E20004DBD10B5036804469B689847A368013BC5
:105E3000A3602BB923682046DB68BDE810401847F3
:105E400010BD0B68036013B15A6801325A60704785
:105E500010B50446006828B14368013B43600BB9A4
:105E6000FFF7DFFF204610BD024800230360FFF765
:105E70000BBD00BF44E50320002240681146FFF738
:105E800039BF002240681146FFF754BF0022406826
:105E90001146FFF75FBF40680022FFF753BF40681D
:105EA000002281F00101FFF73DBF002340681A4640
:105EB0001946FFF72FBF002340681A461946FFF71F
:105EC00021BF002240681146FFF704BF406800224E
:105ED0000221FFF707BF002340681A46FFF7F2BE12
:105EE000F0B51B4B036000250F4630331826C0E980
:105EF000025589B04360324629460446103003F00B
:105F000097F978682A462946FFF7F4FE18B9A06089
:105F1000204609B0F0BD2946324602A8CDE9005519
:105F200003F086F902A96846ADF80860FFF7A4FC03
:105F300010B10123A360EBE7009B019AA360E2602C
:105F40000BB90223A36002A9204600F0C0F8DFE7E6
:105F500028970D00084B10B528242246184600212A
:105F600003F066F9054B04804FF0FF3242600422D3
:105F70005A60034A1A6010BD50E5032048E503202B
:105F8000EC960D007047007D7047037D4BB183692F
:105F9000B3F1004F05D0006AB0F1004018BF0120F6
:105FA00070470020704703681B6A184710B5282106
:105FB000044602F083FC204610BD0000037D7BB147
:105FC000C369002B0CDB07EE903A9FED077AF8EEE1
:105FD000E77A87EE870ADFED057A20EE270A704719
:105FE000BFEE000A704700BF00FF7F470000C842B5
:105FF000037D63B18369B3F1004F08D007EE903A97
:106000009FED047AF8EEE77A87EE870A70479FEDF6
:10601000020A70470000C84200000000037D7BB107
:10602000436A002B0CDB07EE903A9FED077AF8EEFF
:10603000E77A87EE870ADFED057A20EE270A7047B8
:10604000BFEE000A704700BF00FF7F470000C84254
:10605000037D63B1036AB3F1004F08D007EE903AB5
:106060009FED047AF8EEE77A87EE870A70479FED96
:10607000020A70470000C8420000000070B50C1E04
:1060800006460ADA2D2101F037FF614205460A2251
:10609000304601F04AFF284470BD21460025F6E74E
:1060A00070B50C46054681682046FFF7E7FF2C21B6
:1060B0000646204601F020FFE96806442046FFF727
:1060C000DDFF304470BDA0F10400FFF7E9BF30B53B
:1060D0000D4600F110040FCD0FC495E8030084E8CD
:1060E0000300012030BD70470020704710B510211B
:1060F000044602F0E3FB204610BD08B5FFF7F6FFAB
:1061000008BD10B58368044613B1032201469847C1
:10611000204610BD30B500224FF69C74026084808A
:106120008D888C800C68858004600A6030BD10B555
:1061300004460068FFF72EFE204610BD38B5C4683F
:10614000F4B12378022B03D104F10C00FFF7EFFF29
:10615000656835B12846FFF7D4FF1021284602F0C4
:10616000ADFBA56835B12846FFF7CBFF10212846C7
:1061700002F0A4FB20461421BDE8384002F09EBB8B
:1061800038BD73B50E46044656F8043B00930D46E1
:1061900001A83146FFF755FE019A009B626023601B
:1061A00001A8002301930093FFF752FE3046FFF74A
:1061B0004FFE2846082102F081FB204602B070BD48
:1061C00013B50B460246D0E900016C4684E8030093
:1061D00093E8030082E8030094E8030083E80300E7
:1061E00002B010BD826810B50AB902F06DFBBDE8BF
:1061F0001040C368184708B5006800F11001FFF7A8
:10620000F1FF08BD826810B50AB902F05DFBBDE878
:106210001040C368184708B5006800F11001FFF787
:10622000F1FF08BD38B500230446036010200D4679
:10623000FDF731FF28B10123C0E90133024B0360B0
:10624000C5602060204638BD64970D0038B5002336
:1062500083608B6804460D462BB102229847EB6899
:10626000E360AB68A360204638BD0000F0B589B09C
:1062700004686846FFF74EFF4FF00203D4E84F2F43
:10628000002A03D1C4E8413F0029F7D125D104F108
:106290000C0569462846FFF73DFFBFF35B8F0123DE
:1062A0006370002004F10803BFF35B8F53E8006FB5
:1062B00043E80002002AF9D1BFF35B8F6EB1FFF70C
:1062C000BDFC78B129463046FFF78CFF3046FFF71A
:1062D00018FF1021304602F0F1FA6846FFF727FF59
:1062E00009B0F0BD314602A8FFF7B0FFE068B4F98D
:1062F000105008B102F0F2FF06901020ADF81C50CB
:10630000FDF7C9FE0546E8B1002787601820FDF7B4
:10631000C2FE044688B10146876002A8FFF750FF1D
:10632000049BA268A360059B049206A9E268E3604F
:1063300004F110000592FFF7EDFE084BEB60084BEF
:106340002C60AB6006A8FFF7F2FE02A8FFF7D9FEAB
:10635000002229460348FFF779FCB7E7F7610D00F3
:106360008D640D00FB5D0D002DE9F0478AB00546F8
:106370009DF848900C4617469846FFF78BFC07AEF1
:10638000824638BB4FF62E73059005A93046ADF80E
:106390001830FFF7BFFE1420FDF77DFE044648B11C
:1063A000022303700123C0E901AA437031460C3077
:1063B000FFF7B0FE2846214640F8044BFFF732FFB6
:1063C0003046FFF7B4FE05A8FFF7B1FE28460AB035
:1063D000BDE8F0870C234FF0000A1420CDE908AA8D
:1063E0000793FDF758FE014628B1C0E901AA80F8DD
:1063F00000A080F801A004A80391FFF713FF224B2F
:1064000008930820FDF747FE824628B1039B40F819
:10641000043B04A9FFF715FD00965FFA89F3424695
:1064200039462046CDF824A0FFF73CFCB8B9039BC1
:106430005B7803F0FF0293B94FF69C7305A903A89C
:106440000592ADF81830FFF711FF05A8FFF76FFEB2
:1064500005A80999FFF795FE06A8FFF7F9FC039B2D
:10646000059304A906A8FFF7ECFC059B069A2B6090
:106470006A60002306A806930593FFF7E9FC04A8C9
:10648000FFF7E6FCA2E700BF51650D00022AF8B550
:10649000054607D0032A18D0012A01D10B680360F2
:1064A0000020F8BD18200E68FDF7F5FD044650B138
:1064B0003146FFF7CBFE3069B6F9147008B102F02F
:1064C0000DFF2061A7822C60EAE70468002CE7D06A
:1064D00004F11000FFF72BFE2046FFF712FE1821F3
:1064E000204602F0EBF9DBE738B5002383608B68C8
:1064F00004460D462BB102229847EB68E360AB6877
:10650000A360204638BD022A70B5044607D0032A8E
:1065100012D0012A01D10B680360002070BD142045
:106520000E68FDF7B8FD054620B13146FFF7DCFFE8
:10653000337C2B742560F0E70468002CEDD02046F6
:10654000FFF7DFFD1421204602F0B8F9E5E700006F
:10655000F0B589B004460D4601A81146FFF711FEBB
:10656000A4B124B21DB1284602F0B8FE054601A828
:1065700003A90395ADF81040FFF778FE03A8FFF7D5
:10658000D6FD02A8FFF764FC09B0F0BD019D012310
:10659000D5E84F2F002A03D1C5E8413F0029F7D1A4
:1065A000EFD12B73BFF35B8F6B702B1DBFF35B8F32
:1065B00053E8006F43E80042002AF9D1BFF35B8F34
:1065C000002EDED02046FFF739FB074660B105F10B
:1065D0000C013046FFF716FE3046FFF792FD102102
:1065E000304602F06BF9CCE7314603A8FFF77CFF99
:1065F0002B7B8DF81C301020FDF74DFD0546D0B1EA
:1066000087601420FDF747FD044678B18760014696
:1066100003A8FFF7D5FD059BA268A360069B059222
:10662000E268E3609DF81C3006922374064BEB6031
:10663000064B2C60AB6003A8FFF763FD00222946E0
:106640000348FFF703FBC7E717620D0007650D005E
:10665000FB5D0D00002240681146FFF76BBB002276
:1066600040681146FFF776BB40680022FFF76ABB1F
:106670004068002281F00101FFF754BB002340680D
:106680001A461946FFF746BB002340681A461946CA
:10669000FFF738BB002240681146FFF72BBB0022F2
:1066A00040681146FFF716BB406800220221FFF741
:1066B00019BB002340681A46FFF704BB024B0322B4
:1066C0005A60024A1A60704778E5032080970D00EF
:1066D000090941EA001107EE901AB8EEE70ADFED6A
:1066E000027A80EE270A704700004844006800F0F4
:1066F00006B910B50446016002710AB1FFF7F6FF52
:10670000204610BD13B50446019102F0B3F8019A7A
:1067100001462046FFF7EDFF204602B010BD00689D
:1067200000F0F6B82DE9FF4104460D4617461E4617
:10673000FFF7DCFF36238DF800300023206801933B
:106740004FF001080A23694603938DF8088000F092
:10675000B7F82068036829469B6898472068414637
:1067600000F0C6F8054640B16FF09F052046FFF7E0
:10677000D6FF284604B0BDE8F081022320680193CB
:10678000694600F06DF80228EED1206803685B6965
:1067900098473870206803685B6998473070E5E770
:1067A00007B500238DF806308DF807300DF106028D
:1067B0000DF107030221FFF7B5FF40B99DF807105F
:1067C0009DF8060003B05DF804EBFFF781BFBFEE54
:1067D000000A03B05DF804FB7047F8B5064615469D
:1067E0000C468F18BC4206D0336814F8011B9B6816
:1067F00030469847F6E72846F8BD007C0022FFF7B0
:10680000B3B8007C0021FFF7B7B8007C0021FFF788
:10681000BBB8007C0021FFF7BFB8007C0021FFF768
:10682000C3B810B51421044602F048F8204610BD44
:1068300010B54FF47A73044608460021C4E90113E9
:10684000034B236020741146FFF7BEF8204610BDAD
:10685000BC970D000023007C1A461946FFF76CB860
:106860007FB500221423CDE90122ADF804300B7866
:106870008DF808304B680393CB680493007C0B7A47
:10688000059301A9FFF7B8F807B05DF804FB1FB541
:10689000003B8DF800104FF06401039118BF0123F5
:1068A000694601928DF80830FFF7DAFF05B05DF810
:1068B00004FB0123FFF7EBBF007C0022FFF744B885
:1068C0007FB50023CDE901334A6803921423CA68D7
:1068D000ADF804300B7804920A7A0592007C8DF8AA
:1068E000083001AA1946FFF72FF807B05DF804FB3E
:1068F000007C0022FFF730B80121FFF7F9BF08B58F
:106900000021007CFFF768F8B0FA80F0400908BD6C
:1069100008B50021007CFFF767F8B0FA80F0400965
:1069200008BD704710B51821044601F0C7FF204686
:1069300010BDF0B5037D062B8DB00E4600F10407A7
:106940004FF0000412D000F1080515F8011D0A22CD
:10695000304601F0EAFAAF42044419D0002CF4D0DA
:106960002E21304601F0C8FA0444EEE72F236A4690
:1069700039460A208DF80040FFF746F8684602F0D5
:10698000CAFC33680246DB686946304698470446CD
:1069900020460DB0F0BD000010B5054B0446112295
:1069A00040F8043B002102F043FC204610BD00BF2C
:1069B000E4970D000346074A10B543F8042B01F194
:1069C000100251F8044B43F8044B9142F9D10A7874
:1069D0001A7010BDE4970D0010B59DF8084044EA08
:1069E000032343EA024242EA016104234160037542
:1069F00010BD13B5CB7800938B784A780978FFF7F0
:106A0000EBFF02B010BD00F11003012213F8101CBF
:106A10000129184608D153F8041C02EB4102013A3F
:106A200003F11003F2D17047022904BF53F8041C8C
:106A30005218F4E70EB4F0B588B000AF07F1340592
:106A4000102155F8042B7A6004462B467818FD6017
:106A5000FFF7B0F90F287A681AD900F1080323F07C
:106A600007036E46ADEB030D411C2B466846FD60E7
:106A7000FFF7A0F9021E04DD236869469B682046E3
:106A80009847B5462037BD46BDE8F04003B0704793
:106A90000028F7D0236802469B6807F110012046C2
:106AA0009847EFE710B5036804469B689847A368CA
:106AB000013BA3602BB923682046DB68BDE810408A
:106AC000184710BD07B503688DF807109B680122B1
:106AD0000DF10701984703B05DF804FB38B50B686A
:106AE00003604D6843689D4204460CD015B16B6845
:106AF00001336B60606828B14368013B43600BB9A8
:106B0000FFF7D0FF6560204638BD0B4611460022D6
:106B100010B5C0E90022044683600BB9204610BDC1
:106B2000FFF7DCFFFAE78368EBB11A78032A1AD87B
:106B3000DFE802F00417021B0520704702685B685B
:106B40005268D05C2D2812D0A0F13003092B0ED949
:106B500074280ED066280CD0A0F16E03584258411C
:106B600070470620704700207047042070470320BC
:106B700070470220704710B50446FFF7D4FF022883
:106B80000ED0C31EDBB2012B14D82268A368506854
:106B90005B68BDE810400A220021184402F076BC70
:106BA0002268A36852685B68D05CA0F17403584205
:106BB000584110BD0020FCE738B50023C0E9003380
:106BC00004460E48C4E90203A9B10B78032B06D092
:106BD0008BB9136858684B68C35C6E2B07D0136879
:106BE0004D6858688B6828445B1BA060E3601146C1
:106BF0002046FFF773FF204638BD00BF53980D00B5
:106C000038B500250B46C0E90055C0E90255C0E97A
:106C10000455044611464BB11A78012A06D103F1F6
:106C20001002DB6882604361FFF758FF204638BDE1
:106C300010B54369044663B18068E060013B1030E1
:106C4000A0602061636113B1FFF7DDFEA060012049
:106C500000E0184610BD10B57D210446FFF732FF55
:106C600001232371204610BD08B50379012B02D002
:106C7000022B04D008BD2C21FFF724FFFAE73A21AC
:106C8000FAE710B50446FFF7EFFF20467B21FFF738
:106C900019FF00232371204610BD000013B50446E0
:106CA0000191FFF7E1FF2368019ADB680349204661
:106CB000984701232046237102B010BDDA950D00DC
:106CC00013B504460191FFF7CFFF2368019ADB68F3
:106CD00003492046984701232046237102B010BD86
:106CE000F0970D002DE9F0410D4617462221DFF8FF
:106CF000A08004462F44FFF7E5FE2946BD422A4600
:106D000038D015F8016B222E03D05C2E01D01F2E37
:106D1000F4D82368521A9B68204698475C21204685
:106D2000FFF7D0FE0D2E0AD8072E1CD9A6F10803B6
:106D3000052B18D8DFE803F00D0F11171315222EBD
:106D400001D05C2E0FD131462046FFF7BBFE29460D
:106D5000D4E76221F8E77421F6E76E21F4E76621B3
:106D6000F2E77221F0E723683246DB6841462046AD
:106D70009847ECE78D4204D023686A1A9B68204646
:106D8000984722212046FFF79DFEBDE8F08100BF15
:106D9000F3970D0013B50446CDE90021FFF764FF1A
:106DA0002046DDE90021FFF79DFF022320462371E5
:106DB00002B010BD13B50446CDE90021FFF754FF22
:106DC0002046DDE90021FFF78DFF012320462371D6
:106DD00002B010BD80680368DB681847704708463A
:106DE00011B10B685B681847704770477047704770
:106DF000704738B504460D4600682E2102F051FA5E
:106E00002368C31A2B6023B1037803B101302368D0
:106E10002060184638BD10B50C21044601F04EFD27
:106E2000204610BD10B50421044601F047FD204660
:106E300010BD10B50421044601F040FD204610BDF0
:106E400008B502F038FAB0FA80F0400908BD704782
:106E500010B50C4601F062FB844210D001F0D6FA66
:106E6000844205D101F0D2FABDE8104001F0CBBA5E
:106E70002CB1236820465B68BDE81040184710BD60
:106E800013B504460846019102F045FA01990246FD
:106E9000204602B0BDE81040FFF78CBF13B5044692
:106EA0000846019102F037FA23680199DB6802462F
:106EB000204602B0BDE81040184707B503688DF8BA
:106EC0000710DB6801220DF10701984703B05DF858
:106ED00004FB0EB403B503AB002153F8042B006A86
:106EE000019301F040F802B05DF804EB03B0704785
:106EF0002DE9F74FD0E900954FF0140808FB05F590
:106F00000093AB10184D17465D434C46002D23DD12
:106F10006E1008FB06F004EB000A3A46BAF804B01B
:106F2000205801915F4528BF5A4602F0FCF90199AB
:106F3000012378B95F4503D1009A13703546E5E720
:106F40008CBF012000200028F8D0AE1B0AF11404E9
:106F5000013EF3E7C00FF6E7A4EB09040248A410D2
:106F6000604303B0BDE8F08FCDCCCCCC7FB50369D6
:106F7000067E01910BB301B3002500F10C040395CB
:106F800003A901A8FFF735FF0146B0B10DF10B03CE
:106F9000039A8DF80B502046FFF7AAFF9DF80B309F
:106FA0005BB12468142303FB004000F10804B0F92E
:106FB0000630002BA8BFDEB2E2E7304604B070BD59
:106FC00010B5094C2378BFF35B8FDB0709D420464B
:106FD000FDF772F828B12046FDF773F8034802F078
:106FE000F5F8034810BD00BF84E50320EB6D0D00EC
:106FF00030E3032010B5094C2378BFF35B8FDB0728
:1070000009D42046FDF758F828B12046FDF759F875
:10701000034802F0DBF8034810BD00BF88E50320F9
:107020004F6E0D0034E3032038B500250446C0E957
:107030000055C0E904558560856140F8245FFEF77E
:1070400023FCFFF7BDFFE061FFF7D4FF257320624B
:10705000204638BD10B50A4C2378BFF35B8FDB07A1
:107060000CD42046FDF728F840B10648FFF7DCFFB6
:107070002046FDF726F8044802F0A8F8014810BDA4
:1070800080E5032090E5032035750D00024A034991
:1070900003480023FEF7B0BDBD730D0049730D001A
:1070A000C9720D0000231A4619461846FEF7A4BD02
:1070B00037B50D6951F8043B0093044601A8FEF76B
:1070C000C0FE6A4629462046FFF71FFD01A8FEF7CD
:1070D000BFFE204603B030BD37B58D6851F8043B84
:1070E0000093044601A8FEF7ACFE6A4629462046F6
:1070F000FFF786FD01A8FEF7ABFE204603B030BDCA
:1071000037B5CD6851F8043B0093044601A8FEF75B
:1071100098FE6A4629462046FFF74EFD01A8FEF775
:1071200097FE204603B030BD70B58AB00D460146CB
:1071300004A8FFF7D1FF144E04A8FFF779FDE8B1CA
:1071400004A96846FFF7DCFF02983146FFF778FE96
:10715000044610B12C1E18BF012401A8FEF778FECA
:10716000002CE9D004A96846FFF7A2FF6846FFF7A4
:1071700002FD286001A8FEF76BFEDDE705A8FEF71B
:1071800067FE0AB070BD00BFF9970D0037B50C4619
:1071900020461249154602F08EF848B901F0BEF9B2
:1071A0004FF4165101F0AAF901F0B8F903B030BD5F
:1071B0000B49204602F07FF870B94FF4165301A92D
:1071C00028460193FFF7B0FF01F020F9019901F083
:1071D00017F901F01BF9E9E70020E7E7FE970D003A
:1071E00005980D0070B5D0E900531426044606FB3F
:1071F0000356AE4205D005F10800FFF7F3FF143542
:10720000F7E72068FEF7C6FD204670BD70B5D0E9EF
:107210000053044605EB0316AE4204D0284600F0A6
:10722000B5FF1035F8E72068FEF7B4FD204670BDC5
:1072300010B504460C30FFF7D5FF2046FFF7E6FFF8
:10724000204610BD10B5044B044640F8043BFFF740
:10725000EFFF204610BD00BF08960D0010B5044694
:10726000FFF7F0FF2046242101F028FB204610BD47
:1072700010B5034B03600446FFF7E4FF204610BD42
:10728000A4980D0010B50446FFF7F2FF2046242114
:1072900001F014FB204610BD0022C0E9002210B509
:1072A00082600C6804604C6844608C680A604A60C4
:1072B00084608A6010BD10B5036804461868FEF744
:1072C000FBFA204610BD00002DE9F04F87B0804644
:1072D00003931C4B5B68C3F30803894616466BB9DE
:1072E000FFF7B8FE044600F12403406A0593FEF759
:1072F000DBFA237B2BB105A8FFF7DDFF07B0BDE864
:10730000F08F01232373D4E900535FFA89F905EB69
:10731000830AAA4512D055F8047B3146381DFFF781
:1073200025FE8145F5D33B68039A0092D3F808B057
:107330004A46334641463846D847EAE70023237396
:10734000D9E700BF00ED00E02DE9F74F9B461A4B4F
:107350005B68C3F308038046894616466BB9FFF79E
:1073600079FE044600F12403406A0193FEF79CFA7B
:10737000237B2BB101A8FFF79EFF03B0BDE8F08F80
:1073800001232373D4E90053F6B205EB830A554574
:107390000ED055F8047B5946381DFFF7E7FD8642AD
:1073A000F5D33B684A46DB68414638469847EEE7E6
:1073B00000232373DEE700BF00ED00E02DE9F34179
:1073C000164B5B68C3F3080305460F461BBBFFF76C
:1073D00041FE00F124030446406A0193FEF764FA7B
:1073E000D4E90063462406EB8308B04509D101A81F
:1073F000FFF761FFA542B4BF0020012002B0BDE845
:10740000F08156F8040B39460430FFF7AFFD844293
:10741000A8BF0446E9E70020F0E700BF00ED00E068
:1074200070B50446D0E900020B4600EB82028242AE
:1074300007D001461D6851F8046BAE4203D00846E0
:10744000F5E7002070BD521A01F0D8FE6368013BD9
:1074500063600120F6E71FB500F124030446406A8B
:1074600001910393FEF720FA01A92046FFF7D8FF08
:1074700018B163680BB9FFF715FE03A8FFF71BFFF0
:1074800004B010BD70B5D0E904561823044603FBC0
:107490000656AE4215D005F110012046FFF7C0FF99
:1074A00063680BB9FFF7FEFDE06929690368DB68D3
:1074B0009847696919B1206A0368DB6898471835ED
:1074C000E7E7D4E90453182606FB0356AE4204D07E
:1074D000284600F05BFE1835F8E70023636170BDB5
:1074E00073B50446FFF7DEFD04F12403606A0193DF
:1074F000FEF7DAF92046FFF7C5FF01A8FFF7DBFE2C
:10750000606A08B1FEF7C8F9D4E90453182606FBEF
:107510000356AE4204D0284600F038FE1835F8E78E
:107520002069FEF737FC2068FEF734FC204602B0E5
:1075300070BD00000148FFF7D3BF00BF90E50320F6
:107540008842F8B506460C46154627D9904226D201
:10755000A2F114056C1AA1F1140704440026AF42ED
:107560003DD0A4B12B682360AB88A380B5F9063069
:10757000E380C4E902662661AB68A360AE60E3689D
:10758000EA68E260EB6023692A6922612B6105F1F8
:107590000800FFF727FE143D143CE0E71FD000274A
:1075A000AC421CD0A6B123683360A388B380B4F981
:1075B0000630F380C6E902773761A368B360A7603D
:1075C000F368E268F260E360336922693261236143
:1075D00004F10800FFF706FE14341436E0E7F8BDA6
:1075E000F8B5D0E901539D4204460E4617460DDB1F
:1075F0000135002D006804DDA900FEF7D3FB18B9A2
:10760000F8BDFEF7C7FB00202060A5602568626812
:1076100005EB86019200A2EB8602081D01F0EEFD4B
:1076200045F826706368013363600120E8E737B5E9
:1076300000F124030446406A01930D46FEF734F935
:10764000D4E9003103EB810083421A460BD0126863
:10765000AA4203F10403F7D101A8FFF72CFE00258D
:10766000284603B030BD2A462046FFF7B9FF05463D
:107670000028F1D06368012B01D1FFF707FD01A8B5
:10768000FFF719FEECE78842F8B504460D461646AA
:1076900014D9904213D2A2F11006751AA1F1100765
:1076A0002C44B74218D01CB13146204600F0EAFD08
:1076B000304600F06BFD103E103CF2E70CD0B542B6
:1076C0000AD01CB12946204600F0DCFD284600F017
:1076D0005DFD10351034F2E7F8BD70B50E1E05469D
:1076E00011DD3001FEF74EFB044658B1D5E900121A
:1076F00001EB0212FFF7C7FF2868FEF74BFB2C6077
:10770000AE60012070BD0024F6E72DE9F04F9146F0
:1077100097B000230391D9F804100C9346229942A4
:10772000C0E90033C0E90233C0E90433CDE90A33CC
:107730000446027623DCD9E90057142303FB0757DC
:10774000AF423BD029460DA800F09CFD0DA911A821
:107750000B9E00F097FDDDE90B1399421BDA0A9BA3
:107760000B9A03EB061603EB0212314606F11000EA
:10777000FFF789FFEEB90B9B01330B9311E00AA8C9
:10778000FFF7ABFF0028D6D10AA8FFF73FFD204640
:1077900017B0BDE8F08F01310AA8FFF79EFF00285F
:1077A000DDD111A800F0F2FC0DA800F0EFFC1435BB
:1077B000C6E711A9304600F065FDDCE70026CDE9FB
:1077C0000D660F9637464FF0140ADDE90A239E42F4
:1077D00080F297803301D35808930BB90136F4E750
:1077E0000AFB06F3099702930DAD09A908A8FFF754
:1077F00000FB83460028F1D00146099A8DF81F70DE
:107800000DF11F032846FFF773FB9DF81F800190C1
:10781000B8F1000F66D1BDF82430ADF84830CDE99D
:1078200013884FF6FF73CDF844B0ADF84A30CDF869
:107830005480D5E9013293421ADB03F1010BBBF10D
:10784000000F4ADD0AFB0BF0FEF79CFA04900028BB
:1078500045D0D5E900120AFB0212FFF771FE049B26
:1078600028680493FEF796FA049B2B60C5F808B0CD
:10787000019BD5F800B06A680AFB03F30BEB030128
:1078800001F114000AFB02B204910593FFF758FEC0
:107890000499A9B1059B119A4BF80320BDF8483013
:1078A0008B80BDF94A30CB80C1E902770F61139B11
:1078B0008B60149B1397CB60159B14970B611597E6
:1078C0006B6801336B6013A8FFF78CFCB8F1000FF5
:1078D00008D00DA8FFF786FC56E74346C0E74FF0F7
:1078E0000108F0E7019B2D680AFB0355089B1B78F4
:1078F0002BB9D9F80030029A13441B7CEB80083571
:1079000073E72168226062686360A3680B920C9A37
:107910000C93E368A2600D9A0D932369E2600E9ABE
:107920000E93636922610F9A0F93039B0A91626120
:107930002376CEE77FB50546094B45F8043B044660
:107940000E4601A81146FCF7F9FE01AA3146284669
:10795000FFF7DBFE01A8FCF7B9FC204604B070BDC0
:1079600008960D00F0B50F4687B026490C9C3846A6
:1079700016461D4601F09FFC00BBE4B1294668464F
:10798000FFF78AFC2049242000F09AFF054670B1D9
:10799000694603A8FCF7D2FE03AA31462846FFF742
:1079A000C9FF03A8FCF792FC184B2C622B606846B9
:1079B000FCF78CFC2C46204607B0F0BD1449384635
:1079C00001F079FCE0B9002CF5D029466846FFF7B4
:1079D00063FC0D49242000F073FF05460028E6D023
:1079E000694603A8FCF7AAFE03AA31462846FFF71A
:1079F000A1FF03A8FCF76AFC064B2B602C62D6E7BC
:107A00000024D8E70D980D00A4990D00A4980D004E
:107A100011980D008C980D00014B024A1A607047B6
:107A20008CE5032022980D002DE9F047089DD0F841
:107A3000209004460E461746984600F06FFD81459B
:107A40004CD02B79190704D56A6954492046FFF7B1
:107A500040FAB8F1000F0DD05B212046FFF72DFA58
:107A600041462046FFF71AFA23684D49DB68022297
:107A7000204698472B79DA0723D5D5F808802F219F
:107A8000404601F075FC08B100F10108414620466E
:107A9000FFF704FA2B799B0708D53A212046FFF718
:107AA0000CFAEA683F492046FFF713FA2A7923685F
:107AB00012F0040FDB6814BF3B493C490222204608
:107AC00098472B7958071DD529690B461A4613F894
:107AD000010B60B1202808D11946F7E7344800F0BF
:107AE00066F90028ADD0BDE8F0872828EED12368DC
:107AF000521ADB682046984723682E49DB68042227
:107B00002046984700213846FEF76EF80146204689
:107B1000FFF7C4F923682549DB680222204698470D
:107B20001EB131462046FFF7B9F92B7913F0300F1B
:107B30002CD023682049DB680222204698472B7905
:107B4000D9060AD523681D49DB68072220469847D5
:107B5000AA691B492046FFF7BCF92B799A0611D573
:107B6000DB0605D523681049DB68022220469847CA
:107B700023681449DB6820460A229847E9692046B1
:107B8000FFF78CF95D212046FFF797F923680E492E
:107B9000DB6820460222BDE8F047184726980D0012
:107BA0002D980D00DA950D0030980D0035980D00D8
:107BB000B8E5032033980D0038980D003B980D0070
:107BC00043980D0046980D0051980D002DE9F043A3
:107BD00085B0D0F820900C9C05460F4690461E4676
:107BE00000F09CFC814505D1494800F0E0F80028F0
:107BF00040F08A802B6A474A01924FF0000901A8A1
:107C000003938DF80890FFF73CF849464046FDF78E
:107C1000EBFF41498046012201A8FFF7BBF841462E
:107C2000FFF72EF93FB13D49012201A8FFF7B2F855
:107C30003946FFF725F93EB13949012201A8FFF77E
:107C4000A9F83146FFF71CF92379DF070ED5A6689E
:107C50002F21304601F08CFB00B1461C3149012236
:107C600001A8FFF797F83146FFF70AF923799E0735
:107C700007D52D49022201A8FFF78CF8E168FFF72C
:107C80000DF82379580714D5266933461F4613F893
:107C9000012B2AB1202A01D11E46F7E7282AF5D167
:107CA0002249022201A8FFF775F8BA1B3146FFF7F7
:107CB00081F82379190707D51D49012201A8FFF78B
:107CC00069F86169FEF7FCFF2379DA0608D504221A
:107CD00018490DEB0200FFF75DF8A169FEF7DEFF22
:107CE00023799B0607D51449062201A8FFF752F80D
:107CF000E169FFF7C5F801A8FEF7ADFF286A0F4953
:107D000003680222DB68984705B0BDE8F08300BF36
:107D1000B8E5032074980D0003980D0054980D00E9
:107D2000E2950D0085950D0056980D0059980D00AF
:107D30005C980D005E980D0063980D0051980D0041
:107D4000002340681A46FDF7BDBF406800220221AB
:107D5000FDF7C8BF002240681146FDF7BBBF0022F7
:107D600040681146FDF7C6BF002340681A46194611
:107D7000FDF7C8BF002340681A461946FDF7CABF81
:107D800040680021FDF7EEBF40680021FDF7F2BF1B
:107D90004068002281F00101FDF7C4BF4068002265
:107DA000FDF7D0BF002240681146FDF7D3BF002287
:107DB00040681146FDF7BEBF2DE9F043002495B0A1
:107DC00016460D460746FEF7E7FD214618220EA887
:107DD000009401F02DFA4023CDE90C3421466B4686
:107DE0000CAA3046FDF720FE0446002846D1024684
:107DF00001216868FDF77EFF0221804622466868FF
:107E0000FDF778FF009E81462146002E36D00029DE
:107E100034D17368022B03D00A2B0BD0F669F4E738
:107E2000B8F1000F04D0716938460431FEF7E1FD66
:107E30004146F3E7B9F1000F01D14946EEE7746915
:107E4000102201A801F0F4F906238DF8143001ADD9
:107E500004F108031834186859682A4603C2083325
:107E6000A3421546F7D101A906A807ADFEF7A2FD6A
:107E70000FCD3C1D0FC42B682370DEE70098FDF783
:107E8000CBFD384615B0BDE8F0830000024B034A35
:107E90001A6000225A607047B8E50320EC980D0084
:107EA000F8B506460D468F180024BD420CD0336845
:107EB00015F8011B9B6830469847031E01DB1C44E4
:107EC000F3E7002C08BF1C462046F8BD13B5044656
:107ED000084659B1019101F01EFA23680199DB6847
:107EE0000246204602B0BDE81040184702B010BD5F
:107EF00008B5FFF7EBFF08BD03689B68184738B566
:107F00000D210546FFF7F8FF0A2104462846FFF732
:107F1000F3FF204438BD38B50546FFF7D7FF0446C8
:107F20002846FFF7ECFF204438BD30B58BB0002366
:107F30008DF82430012A98BF0A2209AC0D46B1FB06
:107F4000F2F101FB125303F0FF03092B94BF30330E
:107F50003733DBB2AA4204F8013DEFD92146FFF7DF
:107F6000B5FF0BB030BD2DE9F04186B000AF05463E
:107F70000E46381D142114463B60FDF71BFF1328E5
:107F80000ED8391D2846FFF7A1FF04461EB128462A
:107F9000FFF7B5FF044420461837BD46BDE8F08121
:107FA00000F1080323F00703E846ADEB030D22467A
:107FB000411C3B686846FDF7FDFE69462846FFF711
:107FC00085FF0446C546E1E7014B00229A607047F1
:107FD000C0E503200021FDF75FBD0021FDF764BD72
:107FE00010B5044608462170FDF736FD0023636096
:107FF000204610BD10B504460078FFF7EBFF48B9E6
:1080000020784FF6FF71FDF717FD2078BDE810408E
:10801000FFF7E3BF10BD0078FFF7DFBF400830B5C2
:108020001860002418688842E5B206D90134082C8B
:1080300002D040081860F5E70725024B5B5D13701E
:1080400030BD00BF20990D002DE9F04306468FB0EA
:1080500000780C46FFF7BEFF00281BDB35781422A2
:10806000002109A801F0E4F80B23002209A9284601
:10807000ADF82430FDF700FD9DF82D3013B19DF8CB
:108080002C5055B10027B946B846012523795DB17A
:10809000C3B100200FB0BDE8F083DDF830809DF85B
:1080A00034909DF83570F1E7002B35D1A368434536
:1080B00008D18DF820908DF82170BDF82020A3897B
:1080C0009A42E6D00023A1688DF80F300A9804ABDD
:1080D0000DF10F02FFF7A2FF217985B989B9A368D5
:1080E00043450ED38DF820908DF82170BDF82020E7
:1080F000A3899A4205D1049B434502D1C9E70029CF
:10810000F9D100230193637B00939DF80F20237B1B
:108110003078FDF7B9FCBCE7CDE900552B462A467F
:108120000121F5E708B50078FDF78EFCC0B208BD67
:1081300010B50446FDF7D8FBE060236820465B6974
:108140009847002808DAFDF7CFFBE368C01AA36858
:108150009842F2D34FF0FF3010BD000070B50D46CD
:1081600009490446164600F05CF82846FFF7E0FF90
:10817000002806DB864204D0C1B2204600F0BEF8DB
:10818000F3E7204670BD00BF53980D0010B50446BC
:108190000068FDF7FFFD204610BD10B504460068DD
:1081A00008B1FDF7F7FD0023C4E90133236010BDDA
:1081B00038B504460D4600680131FDF7F3FD10B1F6
:1081C000C4E90005012038BD10B50368044623B199
:1081D00043688B4201D3012010BD2046FFF7E8FF22
:1081E0000028F9D0A368002BF5D122681370F2E7BC
:1081F00037B50D46114601920446FFF7E5FF019A97
:1082000028B92046FFF7C9FF204603B030BDA26061
:108210002946206800F0E4FF2268A3680021D154B9
:10822000F2E7002313B5C0E900330446836003730B
:1082300041B10846019101F06EF8019902462046CD
:10824000FFF7D6FF204602B010BD38B505460068DE
:108250000C4668B16A688B689A4207D3096801F0D6
:1082600034F8A368AB600023A36038BDFDF792FD2E
:1082700023682B6063686B60A368AB600023C4E96C
:108280000033F1E710B50023C0E9003304468360F2
:108290000373FFF7DAFF204610BD884210B504468D
:1082A00005D00B682BB18A681946FFF7A1FF20465D
:1082B00010BDFFF772FFFAE710B500230446C0E9CE
:1082C000003383600373FFF7E8FF204610BD70B5ED
:1082D00005460E4609B9002070BD6AB18468144491
:1082E0002146FFF771FF0028F5D02868AB683146BA
:1082F000184400F0EAFFAC600120EDE707B5002369
:108300008DF80410012201A98DF80530FFF7DFFF79
:1083100003B05DF804FB0000054B02221A60054B18
:10832000054A9A600020186098809871FDF776BC25
:10833000DCE50320D0E503200000FFFF024B1A68B4
:10834000024B1A60704700BF38E30320E0E50320CA
:10835000704741747047704708B5007CFDF7ECFB2F
:1083600020EAE07008BD08B5007CFDF7BDFB20EAFF
:10837000E07008BD08B5007CFDF7C6FB40EAE07080
:1083800008BD08B5007CFDF7B7FB40EAE07008BD0A
:10839000007CFDF7C1BB37B5457C04462DB1207C80
:1083A00003B0BDE83040FDF797BB007C0191FDF7BD
:1083B000C3FB00280199F2DC284603B030BD10B59C
:1083C0001421044600F07AFA204610BD10B54FF093
:1083D000000C0446084611464FF47A72C4E901C203
:1083E000044A22600122207462741A46FDF764FB7D
:1083F000204610BD4C990D00007C0023FDF7A4BB66
:108400000022FFF7F9BF007CFDF75EBB13B50D4CF2
:108410002178BFF35B8F11F0010110D1204601914B
:10842000FBF74AFE019950B1074B084A0848FFF78D
:10843000CDFF2046FBF745FE064800F0C7FE044886
:1084400002B010BDE4E503206CE60320E8E503205C
:10845000F0E6032057830D00417470477047704762
:1084600008B50021007CFDF79FFB40EAE07008BDE5
:1084700008B50121007CFDF797FB40EAE07008BDDC
:1084800008B5007CFDF788FB20EAE07008BD08B560
:10849000007CFDF779FB20EAE07008BD13B50446C7
:1084A000007C0191FDF778FB0028019901DC607CDC
:1084B00020B1207CFDF780FB20EAE07002B010BD07
:1084C000007CFDF781BB10B51421044600F0F6F9DD
:1084D000204610BD10B54FF47A73044608460021BB
:1084E000C4E90113044B2360012320746374114613
:1084F000FDF732FB204610BD7C990D00007C002268
:10850000FDF732BB007CFDF737BB10B514220446E3
:10851000002100F08DFE204610BD000010B50F4C6C
:1085200088B003A8FFF7F1FF2178BFF35B8F11F04C
:1085300001010FD120460191FBF7BEFD019948B121
:1085400003AA0748FFF7C6FF2046FBF7BAFD054818
:1085500000F03CFE024808B010BD00BF04E7032055
:1085600008E703205D840D00014B1860704700BFD1
:108570003CE3032008B50B4B43B1FFF7CFFF036883
:108580001B699847002801DDAFF30080064B43B11B
:10859000FFF73CFF03681B699847002801DDAFF334
:1085A000008008BD000000000000000008B5FFF7D3
:1085B000E1FFFDF799F9014B186008BD24E703209E
:1085C0000548064A064908B5121A00F009FE054B8F
:1085D000054A1A6008BD00BF00F4032004F403201C
:1085E000D09A0D0000F403201E1C279A07B5002323
:1085F00000931A466FF07701FDF73AFB03B05DF880
:1086000004FB000007B543880A2B08D0502B0BD180
:10861000094B1B684BB103B05DF804EB1847FFF73B
:10862000E5FF03B05DF804FB002300931A466FF0EA
:108630007701FDF71DFBF4E720E7032010B5124892
:108640000021FDF7CFFB114B1A68114B9A42114BD9
:108650000CBF012200221A7001D0FFF7B1FFFDF715
:1086600033F9044600F0ECFD0B4B13B12046AFF399
:10867000008000210848FDF71DFBBDE810400748B9
:108680000021FDF7EBBA00BF69850D0000F403205F
:108690001E1C279A1CE703200000000005860D0021
:1086A00008B5024B1B681B68019308BD5C02030000
:1086B00008B5024B1B685B68019308BD5C020300B0
:1086C00008B5024B1B689B68019308BD5C02030060
:1086D000232813B502D9002002B010BDA0F10B036E
:1086E000022B1AD8174C2178BFF35B8F11F00101D0
:1086F0000BD120460191FBF7DFFC019928B112480C
:10870000FFF76EFC2046FBF7DCFC0F4B1878FDF7FB
:10871000ABF90028DFD10120DEE7012809D800F0FD
:1087200085F80021007CFDF747F980F00100C0B218
:10873000D2E709380128EED8FFF768FE007CFDF784
:10874000F3F9F2E738E503203CE50320232838B5A8
:1087500004460D460AD8FF2908D0FFF7B9FF28B113
:1087600029462046BDE83840FDF7C6B838BD38B5C3
:1087700004460D46FDF7C8F8FF2810D0062804D897
:108780004D2323FA00F0C30709D42046FFF7A0FFCA
:1087900028B129462046BDE83840FDF7BDB838BDB0
:1087A00010B50446FDF7B0F8031FDBB2012B08D962
:1087B0002046FFF78DFF20B12046BDE81040FDF7B1
:1087C000B3B8002010BD70477047000038B50023D3
:1087D00020254380142304460380856005610649F3
:1087E000284600F06FF804496060284600F06AF8F7
:1087F000E060204638BD00BFA4990D0038B50023C5
:1088000020254380142304460380856005610649C2
:10881000284600F057F804496060284600F052F8F6
:10882000E060204638BD00BFA4990D0030B50E4D64
:108830002978BFF35B8F11F0010487B011D128466E
:10884000FBF73AFC68B101A8FFF7C0FF01AA214677
:108850000648FDF7EDFF2846FBF733FC044800F01F
:10886000B5FC024807B030BD28E7032030E70320FD
:10887000C7870D0010B50E4C2378BFF35B8FDB0765
:1088800086B011D42046FBF717FC68B101A8FFF7AA
:10889000B5FF01AA01210748FDF7CAFF2046FBF7F3
:1088A00010FC054800F092FC024806B010BD00BF65
:1088B0002CE7032044E70320C9870D00FBF7EFBB3B
:1088C000FBF7E9BBFBF7E9BB08B5FDF77BFA000056
:1088D00081F0004102E000BF83F0004330B54FEA71
:1088E00041044FEA430594EA050F08BF90EA020FDE
:1088F0001FBF54EA000C55EA020C7FEA645C7FEA71
:10890000655C00F0E2804FEA5454D4EB5555B8BF93
:108910006D420CDD2C4480EA020281EA030382EA04
:10892000000083EA010180EA020281EA0303362D96
:1089300088BF30BD11F0004F4FEA01314FF4801C69
:108940004CEA113102D0404261EB410113F0004F7B
:108950004FEA03334CEA133302D0524263EB430332
:1089600094EA050F00F0A780A4F10104D5F1200ED0
:108970000DDB02FA0EFC22FA05F2801841F100012B
:1089800003FA0EF2801843FA05F359410EE0A5F1FF
:1089900020050EF1200E012A03FA0EFC28BF4CF030
:1089A000020C43FA05F3C01851EBE37101F00045E6
:1089B00007D54FF0000EDCF1000C7EEB00006EEBF3
:1089C0000101B1F5801F1BD3B1F5001F0CD349087D
:1089D0005FEA30004FEA3C0C04F101044FEA4452D4
:1089E00012F5800F80F09A80BCF1004F08BF5FEA5B
:1089F000500C50F1000041EB045141EA050130BD3B
:108A00005FEA4C0C404141EB0101013C28BFB1F54C
:108A1000801FE9D291F0000F04BF01460020B1FA97
:108A200081F308BF2033A3F10B03B3F120020CDA6A
:108A30000C3208DD02F1140CC2F10C0201FA0CF048
:108A400021FA02F10CE002F11402D8BFC2F1200CAD
:108A500001FA02F120FA0CFCDCBF41EA0C01904063
:108A6000E41AA2BF01EB0451294330BD6FEA0404AC
:108A70001F3C1CDA0C340EDC04F11404C4F1200297
:108A800020FA04F001FA02F340EA030021FA04F3A9
:108A900045EA030130BDC4F10C04C4F1200220FA00
:108AA00002F001FA04F340EA0300294630BD21FA3E
:108AB00004F0294630BD94F0000F83F4801306BF04
:108AC00081F480110134013D4EE77FEA645C18BFF8
:108AD0007FEA655C29D094EA050F08BF90EA020F8F
:108AE00005D054EA000C04BF1946104630BD91EA87
:108AF000030F1EBF0021002030BD5FEA545C05D18A
:108B00004000494128BF41F0004130BD14F58004C8
:108B10003CBF01F5801130BD01F0004545F0FE413C
:108B200041F470014FF0000030BD7FEA645C1ABF71
:108B3000194610467FEA655C1CBF0B46024650EAA8
:108B4000013406BF52EA033591EA030F41F40021D4
:108B500030BD00BF90F0000F04BF0021704730B55A
:108B60004FF4806404F132044FF000054FF000012F
:108B700050E700BF90F0000F04BF0021704730B5F0
:108B80004FF4806404F1320410F0004548BF4042C5
:108B90004FF000013EE700BF42004FEAE2014FEA1A
:108BA00031014FEA02701FBF12F07F4393F07F4FF5
:108BB00081F06051704732F07F4208BF704793F0F8
:108BC0007F4F04BF41F40021704730B54FF460740B
:108BD00001F0004521F000411CE700BF50EA01020E
:108BE00008BF704730B54FF000050AE050EA0102B7
:108BF00008BF704730B511F0004502D5404261EB27
:108C000041014FF4806404F132045FEA915C3FF467
:108C1000D8AE4FF003025FEADC0C18BF03325FEA04
:108C2000DC0C18BF033202EBDC02C2F1200300FAB5
:108C300003FC20FA02F001FA03FE40EA0E0021FADA
:108C400002F11444BDE600BF70B54FF0FF0C4CF4C8
:108C5000E06C1CEA11541DBF1CEA135594EA0C0F7A
:108C600095EA0C0F00F0DEF82C4481EA030621EAB5
:108C70004C5123EA4C5350EA013518BF52EA0335F0
:108C800041F4801143F4801338D0A0FB02CE4FF0A2
:108C90000005E1FB02E506F00042E0FB03E54FF0D2
:108CA0000006E1FB03569CF0000F18BF4EF0010ECA
:108CB000A4F1FF04B6F5007F64F5407404D25FEAC6
:108CC0004E0E6D4146EB060642EAC62141EA555179
:108CD0004FEAC52040EA5E504FEACE2EB4F1FD0CBB
:108CE00088BFBCF5E06F1ED8BEF1004F08BF5FEA39
:108CF000500E50F1000041EB045170BD06F00046EB
:108D000046EA010140EA020081EA0301B4EB5C0497
:108D1000C2BFD4EB0C0541EA045170BD41F480118F
:108D20004FF0000E013C00F3AB8014F1360FDEBFB4
:108D3000002001F0004170BDC4F10004203C35DA90
:108D40000C341BDC04F11404C4F1200500FA05F313
:108D500020FA04F001FA05F240EA020001F00042B4
:108D600021F0004110EBD37021FA04F642EB06012A
:108D70005EEA430E08BF20EAD37070BDC4F10C0454
:108D8000C4F1200500FA04F320FA05F001FA04F218
:108D900040EA020001F0004110EBD37041F1000104
:108DA0005EEA430E08BF20EAD37070BDC4F120050F
:108DB00000FA05F24EEA020E20FA04F301FA05F277
:108DC00043EA020321FA04F001F0004121FA04F21F
:108DD00020EA020000EBD3705EEA430E08BF20EAEF
:108DE000D37070BD94F0000F0FD101F00046400029
:108DF00041EB010111F4801F08BF013CF7D041EAAB
:108E0000060195F0000F18BF704703F000465200AE
:108E100043EB030313F4801F08BF013DF7D043EA7F
:108E20000603704794EA0C0F0CEA135518BF95EA35
:108E30000C0F0CD050EA410618BF52EA4306D1D1BC
:108E400081EA030101F000414FF0000070BD50EADB
:108E5000410606BF1046194652EA430619D094EA65
:108E60000C0F02D150EA013613D195EA0C0F05D14F
:108E700052EA03361CBF104619460AD181EA0301A3
:108E800001F0004141F0FE4141F470014FF000005B
:108E900070BD41F0FE4141F4780170BD70B54FF0F6
:108EA000FF0C4CF4E06C1CEA11541DBF1CEA135576
:108EB00094EA0C0F95EA0C0F00F0A7F8A4EB050458
:108EC00081EA030E52EA03354FEA013100F088804F
:108ED0004FEA03334FF0805545EA131343EA126318
:108EE0004FEA022245EA111545EA10654FEA0026CD
:108EF0000EF000419D4208BF964244F1FD0404F586
:108F0000407402D25B084FEA3202B61A65EB0305E1
:108F10005B084FEA32024FF480104FF4002CB6EB9E
:108F2000020E75EB030E22BFB61A754640EA0C001E
:108F30005B084FEA3202B6EB020E75EB030E22BF5E
:108F4000B61A754640EA5C005B084FEA3202B6EB9F
:108F5000020E75EB030E22BFB61A754640EA9C005E
:108F60005B084FEA3202B6EB020E75EB030E22BF2E
:108F7000B61A754640EADC0055EA060E18D04FEAEC
:108F8000051545EA16754FEA06164FEAC30343EA8C
:108F900052734FEAC2025FEA1C1CC0D111F4801F59
:108FA0000BD141EA00014FF000004FF0004CB6E752
:108FB00011F4801F04BF01430020B4F1FD0C88BFF1
:108FC000BCF5E06F3FF6AFAEB5EB030C04BFB6EBFC
:108FD000020C5FEA500C50F1000041EB045170BDEF
:108FE0000EF0004E4EEA113114EB5C04C2BFD4EB1C
:108FF0000C0541EA045170BD41F480114FF0000EA0
:10900000013C90E645EA060E8DE60CEA135594EA1B
:109010000C0F08BF95EA0C0F3FF43BAF94EA0C0F1E
:109020000AD150EA01347FF434AF95EA0C0F7FF493
:1090300025AF104619462CE795EA0C0F06D152EAE7
:1090400003353FF4FDAE1046194622E750EA4106CB
:1090500018BF52EA43067FF4C5AE50EA41047FF4DC
:109060000DAF52EA43057FF4EBAE12E74FF0FF3C41
:1090700006E000BF4FF0010C02E000BF4FF0010C12
:109080004DF804CD4FEA410C7FEA6C5C4FEA430C8B
:1090900018BF7FEA6C5C1BD001B050EA410C0CBFDA
:1090A00052EA430C91EA030F02BF90EA020F00203C
:1090B000704710F1000F91EA030F58BF994208BFA3
:1090C00090422CBFD8176FEAE37040F00100704760
:1090D0004FEA410C7FEA6C5C02D150EA013C07D1B7
:1090E0004FEA430C7FEA6C5CD6D152EA033CD3D002
:1090F0005DF8040B704700BF8446104662468C46FC
:109100001946634600E000BF01B5FFF7B7FF00282E
:1091100048BF10F1000F01BD4DF808EDFFF7F4FF57
:109120000CBF012000205DF808FB00BF4DF808EDE2
:10913000FFF7EAFF34BF012000205DF808FB00BF05
:109140004DF808EDFFF7E0FF94BF012000205DF827
:1091500008FB00BF4DF808EDFFF7CEFF94BF0120DC
:1091600000205DF808FB00BF4DF808EDFFF7C4FFD5
:1091700034BF012000205DF808FB00BF4FEA410228
:1091800012F5001215D211D56FF47873B3EB625259
:1091900012D94FEAC12343F0004343EA505311F080
:1091A000004F23FA02F018BF404270474FF0000012
:1091B000704750EA013005D111F0004008BF6FF050
:1091C000004070474FF00000704700BF0023014689
:1091D0001A46184600F064B90A22002100F056B978
:1091E0000A44914200F1FF3300D1704710B511F8E5
:1091F000014B03F8014F9142F9D110BD884210B5DF
:1092000001EB020402D98442234607D8431EA1423F
:1092100008D011F8012B03F8012FF8E702440146AA
:109220008A4200D110BD13F8014D02F8014DF7E755
:1092300002440346934200D1704703F8011BF9E74B
:1092400038B50D4B1D68AB6B04467BB91820FCF795
:1092500099FD0A4A0A4BA863C0E90023094B8360C1
:109260000B23838101220023C0E90423AB6B00227E
:109270001C615A6138BD00BF3CE303200E33CDAB07
:1092800034126DE6ECDE0500C9B2034610F8012B7E
:109290001AB18A42F9D118467047002918BF002335
:1092A000F9E710B50446FFF7EFFF18B9204600F0C4
:1092B00032F8204410BD10F8012B11F8013B012AAF
:1092C00028BF9A42F7D0D01A7047034611F8012BF5
:1092D00003F8012B002AF9D170470000024B014628
:1092E000186800F003B800BF3CE3032037B504461C
:1092F00008460D4600F00FF8421C11462046019228
:10930000FCF768FD044618B1019A2946FFF768FF8B
:10931000204603B030BD034613F8012B002AFBD1D1
:10932000181A0138704710B56AB10139841810F85D
:10933000013B11F8012F934203D1A04201D0002B31
:10934000F5D1981A10BD1046FCE710B50139034657
:1093500032B111F8014F03F8014B013A002CF7D15B
:109360001A440021934200D110BD03F8011BF9E714
:1093700038B503460C4669B9BDE83840FFF784BFED
:10938000431C054621461846FFF77EFF0028F7D10B
:10939000284638BD0025F5E72DE9F0473A4E8646C8
:1093A0008C4660461CF8014BA55D15F00805F8D108
:1093B0002D2C33D19CF800404FF0010800F1020C35
:1093C000002B5CD0102B0CD1302C0AD19CF8000063
:1093D00000F0DF0058284DD19CF8014010230CF11B
:1093E000020C08F10047013F0026B7FBF3F93046B5
:1093F00003FB197AA4F13005092D18D82C46A34295
:1094000024DD751C07D081451DD301D1A2451ADB8F
:1094100000FB034001261CF8014BEBE72B2C08BF97
:109420009CF80040A84608BF00F1020CC8E7A4F170
:109430004105192D01D8373CE1E7A4F16105192D4B
:1094400004D8573CDBE74FF0FF36E4E7731C06D146
:109450002223CEF80030384642B9BDE8F087B8F193
:10946000000F00D04042002AF7D00EB10CF1FF31BE
:109470001160F2E73024002BB3D10823B1E7302C80
:10948000A4D00A23ADE700BFA6990D0013460A46F3
:10949000014602480068FFF77FBF00BF3CE303209E
:1094A0002DE9F843DFF8B8800646D8F800001F46DB
:1094B0000D46914600F056F8254B1C6834B9254CF2
:1094C0001C60254B13B11B68C4F8883063681F2BE0
:1094D00007DDD8F8000000F047F84FF0FF30BDE896
:1094E000F8834EB3D4F8880088B91C4B23B9D8F858
:1094F000000000F038F8F0E74FF48470FCF742FC0D
:109500000028F4D00023C0E94033C4F88800636821
:1095100040F8239001229A4000EB8301D0F80031FB
:109520001343022EC0F80031C1F8807002BFD0F89A
:1095300004311A43C0F804216368D8F800005A1CAB
:109540000233626044F8235000F00EF80020C6E7B2
:10955000E4E7032058E7032000000000855D0D00CC
:10956000A0E30320704770477047000021400D00C2
:109570005D400D0085400D0089400D000000000099
:1095800074656D705F660068756D696469747900F3
:109590007369676E616C5F737472656E677468007F
:1095A0007369676E616C5F7175616C697479007065
:1095B000657263656E745F636861726765006C6F86
:1095C0006E676974756465006C617469747564654F
:1095D00000616C7469747564650025640074656D60
:1095E000705F6300766F6C746167650065717569A3
:1095F000706D656E745F72656164696E677300009B
:10960000000000000000000000000000000000005A
:10961000A5400D00C9400D00000000000000000042
:1096200001410D0035410D00297A0D00CB400D00A0
:109630000000000000000000D5400D00E9400D00D2
:109640004750524D4300474E524D43004750474705
:109650004100474E4747410064656661756C742060
:10966000004D5342004C5342003C535049536574E3
:1096700074696E67732064656661756C743E003C46
:1096800053504953657474696E677320257325754B
:10969000202573204D4F444525753E0000000000F5
:1096A00000000000614E0D00334E0D00354E0D00E0
:1096B0005C752530345800252E2A6C6600256C66B2
:1096C000000000000000000000000000B5550D0083
:1096D000D1550D000000000000000000E5550D0010
:1096E000F9550D000000000000000000D75E0D00DD
:1096F000CD5E0D00C35E0D00795E0D00B75E0D00FE
:10970000AB5E0D00817D0D00897D0D009F5E0D001B
:10971000975E0D008D5E0D00835E0D00B97D0D001E
:109720000000000000000000855F0D00AD5F0D002F
:10973000875F0D00BD5F0D00F15F0D001D600D0026
:1097400051600D00A1600D008B5F0D00A75F0D0043
:10975000FCFFFFFF00000000C7600D0000000000DC
:1097600000000000E7600D00ED600D003D610D00A0
:10977000FB600D00E9600D0000000000000000002B
:10978000B3660D00A9660D009F660D0095660D007D
:1097900089660D007D660D00817D0D00897D0D00BF
:1097A00071660D0069660D005F660D0055660D005F
:1097B000B97D0D000000000000000000D9670D0019
:1097C00023680D00FB670D00DB670D0003680D00CB
:1097D0000B680D0013680D001B680D0000000000F1
:1097E0000000000033690D0023690D0025690D009C
:1097F0002575007525303478006261756400536505
:109800007269616C0053657269616C31004A534F33
:109810004E53747265616D4C6F6748616E646C6520
:10982000720061707000253031307520005D2000BD
:109830002C200028293A2000205B00636F646520FB
:109840003D200025690064657461696C73203D20CA
:10985000000D0A006D006C6E00666E007400636F90
:1098600064650064657461696C00000000000000BC
:1098700000000000F16D0D00176E0D00D56D0D009C
:10988000356A0D00000000000000000045720D0068
:109890005D720D00297A0D00CB400D000000000024
:1098A0000000000071720D0085720D00CD7B0D006F
:1098B000DD6D0D000000000000000000EF6D0D00E8
:1098C000256E0D0065790D00DF6D0D0000000000B4
:1098D00000000000ED6D0D00336E0D008D710D0068
:1098E000516E0D000000000000000000417D0D00E1
:1098F0004B7D0D00557D0D005F7D0D00697D0D00D8
:10990000757D0D00817D0D00897D0D00917D0D001F
:109910009D7D0D00A57D0D00AF7D0D00B97D0D0075
:10992000000810182028303825592D256D2D256464
:109930005425483A254D3A2553257A0061736374BE
:10994000696D6500000000000000000051830D00FB
:10995000BF830D0097830D00A17E0D0067830D006E
:1099600083830D0075830D0091830D0053830D00DB
:1099700059830D0000000000000000005F840D000E
:10998000C7840D009D840D00A17E0D008F840D0005
:1099900061840D0071840D00C1840D0081840D006F
:1099A00059840D0000002020202020202020202885
:1099B0002828282820202020202020202020202087
:1099C00020202020202088101010101010101010BF
:1099D00010101010101004040404040404040404FF
:1099E000101010101010104141414141410101017E
:1099F0000101010101010101010101010101010157
:109A00000110101010101042424242424202020263
:109A10000202020202020202020202020202020226
:109A200002101010102000000000000000000000D4
:109A30000000000000000000000000000000000026
:109A40000000000000000000000000000000000016
:109A50000000000000000000000000000000000006
:109A600000000000000000000000000000000000F6
:109A700000000000000000000000000000000000E6
:109A800000000000000000000000000000000000D6
:109A900000000000000000000000000000000000C6
:109AA0000000000000000000A1470D00695E0D00ED
:109AB000555F0D00BD660D00197A0D008D7E0D00FD
:109AC000C97F0D0019830D003D830D0000000000CB
:049AD0000000000092
