:02000002D0002C
:1040000000400D00D08D0D00000006000D000501E0
:0840100004019A080000000001
:0440180038880D00D7
:1040200009480A49884208B505D0094A824202D0A7
:10403000121A04F059FA0748074A0021121A04F02C
:104040007BFA014808BD00BF28E30320248D0D0042
:10405000ACE30320B0E30320F1E7032070B5074E83
:10406000074C03F013FDA41BA4080025A54200D1B2
:1040700070BD56F8043B98470135F7E7F48C0D0006
:10408000188D0D0000F04AB808B500F00DF9BDE834
:10409000084003F0B3BC01F077BB01F075BB01F041
:1040A0007BBB000008B5034A00210C2001F0B6FAE2
:1040B000FEE700BF1D530D000078B0FA80F0400904
:1040C00070470123037070477047006A0368DB681C
:1040D000184700000A4B10B50446036002F0E2F9ED
:1040E000214602F0E0FB03F041FC03F033FC2046E4
:1040F000044B40F8043B02F0C3FA204610BD00BF59
:10410000C8880D00B0880D0010B50446FFF7E2FF27
:104110002046242103F0E2FD204610BD10B503F037
:1041200025FC4FF4165103F011FC03F097FB4FF4FC
:10413000165103F08DFB1A4801F0ADF819491A48E1
:104140000023022201F0B0FA184919480023022284
:1041500001F0AAFA174918480023022201F0A4FA34
:10416000164917480023022201F09EFA1549164805
:104170000023022201F098FA14491548002309226D
:1041800001F092FA134914480023092201F08CFA35
:10419000BDE81040114912480023092201F084BAF9
:1041A000B8E3032030E503204C880D00DCE4032055
:1041B00053880D0028E503205C880D0024E50320CA
:1041C0006C880D0020E503207B880D0018E5032096
:1041D0008A880D00E8E4032094880D00B0E30320F2
:1041E0009D880D00000000002DE9DF432AA7D7E9D4
:1041F0000067254CDFF8A8904FF0000803F02EFB75
:1042000003681B69984700283BD003F027FB03682D
:104210005B699847C1B21C4800F03CFC0028EDD017
:1042200003F01CFB0D220146684603F0BFF903F0C2
:104230009DFB009903F097F8D4F8CC30EBB1204601
:1042400000F07EFA114B204683ED000B00F078FA67
:104250000F4BD4F8800083ED000B002384F87930F5
:1042600003F094FE32463B4603F0FAFE4B464246CC
:1042700004F020F8074BC3E90001684603F0AEF9EB
:10428000BCE704B0BDE8D08304E40320E8E40320E5
:1042900018E50320B0E30320984B4FFD283F0A4068
:1042A0000000594000000000F0B58FB001F03EF86A
:1042B000514B52491A680968514D524E524F821A59
:1042C0008A4203D82A78002A00F0818018604F487B
:1042D00000F046FDFDEEC07ACDED017A9DF90400B7
:1042E000306003F053FE42A3D3E9002303F0B8FE8D
:1042F0000022474B03F0FEFC04F0C4F8454B186065
:10430000424800F0C3FDFCEEC07A4348CDED017A8F
:104310009DF804303B6001F06BFCFCEEC07A3F4A34
:10432000CDED017A9DF80430136003A9002203202B
:10433000039201F08BF9002857D1039C0CB123693B
:1043400023B9374A00210A2001F068F90023ADF8AB
:1043500012300C23ADF8103002AB05930423069302
:10436000236904AA01212046984700283DD1BDF8C1
:10437000083007EE903AFBEECC7AFCEEE77A294A59
:10438000CDED017A9DF804302749136004A801F0AF
:1043900085FA04A801F0F0FAFCEEC07A234ACDEDCC
:1043A000017A9DF80430136004A801F015FBFCEEBF
:1043B000C07A1F4ACDED017A9DF804301360FFF7F3
:1043C00013FF002341F288302B7001F005FA194BDE
:1043D00030681A6839688242174A02D114688C42E0
:1043E00001D0186011600FB0F0BDFFEE007AC4E795
:1043F000CDCCCCCCCCCCFC3FE0E4032028E30320A4
:104400002CE303202CE50320DCE40320B8E30320A5
:104410000000404030E50320FCE3032034E50320A6
:104420001D530D0020E5032048E5032028E5032067
:1044300024E5032034E3032030E3032070B5D0E902
:1044400000531426044606FB0356AE4204D0284609
:1044500003F0C4F81435F8E7206801F09DF9204610
:1044600070BD8842F8B504460D46164616D99042EE
:1044700015D2A2F11406751AA1F114072C44B74203
:104480001CD02CB13146204603F024F9337C237430
:10449000304603F0A3F8143E143CF0E70ED0B542CA
:1044A0000CD02CB12946204603F014F92B7C237440
:1044B000284603F093F814351434F0E7F8BD2DE9DD
:1044C000F0410023C0E9003383604F689F420446F7
:1044D0000E4623DD4FF0140808FB07F001F054F9F5
:1044E0000546D8B1D4E9001208FB0212FFF7B9FF64
:1044F000206801F051F92560A760D6E9007308FB38
:104500000378B84508D03946284603F0FDF83B7CCF
:104510002B7414371435F4E7736863602046BDE8E4
:10452000F0810000F0B58DB00025CDE90055029571
:1045300003F01CFA1F4C0646694603A8FFF7BFFFAD
:10454000274603A906A8FFF7BAFF1B4B47F8043B11
:1045500006A909A8FFF7B3FF09AA1E21384602F0F1
:10456000FCFA09A8FFF76AFF06A8FFF767FF134BDD
:10457000236003A82662FFF761FF114B236003F05D
:10458000F5F94FF4165103F0E1F901F08BFF2146E4
:1045900002F075FA6846FFF751FF0A4800F018F874
:1045A000094800F00BFB2946084801F0D3FA0DB08A
:1045B000F0BD00BFF0E40320B0880D00D88A0D00E4
:1045C000C8880D0004E40320B8E30320FCE30320C3
:1045D00000220221C0E930220280828082600273C0
:1045E0000282426102768283026280F82420028580
:1045F000C26280F830200287C263A0F84820C264FB
:10460000A0F858200266A0F868200267A0F8782079
:10461000C0F88020A0F88820C0F89020A0F898204A
:10462000C0F8A02080F8B910A0F8BA2080F8BC200B
:10463000C0E93222C0E93422A0F8A82080F8AA20DC
:104640007047A1F14103052B02D8A1F13700704753
:10465000A1F16103052B94BFA1F15700A1F1300036
:10466000704738B5057804462D2D08BF0134204623
:1046700003F036FF64235843224614F8013BA3F1AC
:1046800030010929F8D92E2B0BD15378303B092B57
:1046900007D80A2101FB03009378303B092B98BF10
:1046A000C0182D2D08BF404238BD000038B50D465A
:1046B000044603F015FF6422134BB0FBF2F102FB3A
:1046C00011004343298020460278A2F13004092CCE
:1046D000014600F10100F7D92E2A0BD10A480A241D
:1046E00011F8012F303A092A04D8B0FBF4F000FB8E
:1046F0000233F5E703EB830301330322B3FBF2F349
:104700006B6000232B7238BD8096980010B503466D
:10471000044653F81C2F42605A6882601B7A037368
:10472000034653F8282F02615A6842611B7A0376C8
:1047300000F0FCFD40F201136063238010BD000017
:10474000D0B5002304464370806803F00FFC0CA32F
:10475000D3E9002303F0AEFD0646A0880F4603F020
:1047600015FC0B4602463946304603F0C3FA237B5C
:1047700013B101F10043194641EC100BD0BD00BF4D
:104780000000000065CDCD4110B58368436004464C
:1047900000F0CCFD40F20113E060238010BD10B5A5
:1047A00083684360044600F0C1FD40F20113E060FD
:1047B000238010BD10B504460846FFF752FFA060E5
:1047C00010BD10B50446084603F08AFEA06010BD77
:1047D00010B5C3688360044600F0A8FD40F20113E1
:1047E0006060238010BD10B504460846FFF739FF0E
:1047F000E06010BD10B5C3688360044600F096FD0C
:1048000040F201136060238010BD10B504460846D5
:1048100003F066FEE06010BD10B50146044610309E
:1048200003F0D7FE00F082FD40F201132062A38462
:1048300010BD102203F0EFBEF8B590F8A950044661
:10484000002D64D090F8AA10FFF7FBFE94F8AB108F
:1048500002462046FFF7F5FE94F8A83000EB021060
:10486000C0B283424BD1D4F8D4300133C4F8D43031
:1048700094F8BC3023B1D4F8CC300133C4F8CC3038
:1048800094F8B93033B3012B15D104F13800FFF798
:104890007BFF04F14800FFF782FF94F8BC3053B16E
:1048A0002046FFF733FF04F15800FFF791FF04F1B2
:1048B0006800FFF78DFFD4F8C46036B3D4F8C43075
:1048C000B06A996A03F07BFEF8B93046FFF7A4FF9F
:1048D000366BF2E704F14800FFF761FF94F8BC3053
:1048E00033B12046FFF712FF04F17800FFF770FFA5
:1048F00004F18800FFF77EFF04F19800D9E7D4F8AF
:10490000D0300133C4F8D03000252846F8BD90F8E7
:10491000BA206ABB00F1AA065A49304603F04FFE9E
:1049200020B15949304603F04AFE98B9012384F872
:10493000B930D4F8C030C4F8C430D4F8C470002FF3
:10494000E3D0B86A314603F03AFE002880F2948042
:104950003B6BF0E74D49304603F031FE20B14C4946
:10496000304603F02CFE08B90023E0E70223DEE71F
:1049700090F8B910022923D090F8AA3003B342EA84
:104980004112013A282A1BD8DFE802F0153B4249C0
:104990004C63686E721A1A1A1A1A1A1A1A1A1A1A02
:1049A0001A1A1A1A1A1A1A1A1A1A1A1A15343B4209
:1049B000494C53595D0000F1AA014830FFF7FAFE57
:1049C000D4F8C46004F1AA07002E9ED0D4F8C430F5
:1049D000B06A996A03F0F3FD002896D1F26A94F860
:1049E000BA309A4291DC03D139463046FFF721FFB5
:1049F000366BE9E7A3F141004342434184F8BC3000
:104A0000DEE700F11C0104F1AA00FFF74FFED7E733
:104A1000A3F153014B424B4180F82430D0E700F121
:104A20002801F0E7A3F157025342534180F8303098
:104A3000C6E700F1AA015830FFF7D5FEC0E700F144
:104A4000AA016830F8E700F1AA013830FFF7B9FE93
:104A5000B6E7302B94BF00230123CFE700F1AA0172
:104A60008830FFF7D2FEABE700F1AA019830E3E708
:104A700000F1AA017830DFE73FF447AF0023C4F824
:104A8000C43042E7D8880D00DE880D00E4880D00B0
:104A9000EA880D0038B5D0F8C830242903F10103A5
:104AA00004460D46C0F8C8303AD090F8BB3014D850
:104AB0000A291CD00D291AD00D2B9FBF5A1C1B1977
:104AC00084F8BB2083F8AA5094F8A90098BB94F806
:104AD000A8104D4084F8A85021E02A2907D02C299D
:104AE000EAD190F8A82082F02C0280F8A8200E2BA2
:104AF0004FF0000005D8234483F8AA002046FFF7B2
:104B00009BFE94F8BA30013384F8BA30002384F85D
:104B1000BB30A5F12A035D425D4184F8A95038BD40
:104B200000200223A4F8A80084F8B930A4F8BA0041
:104B300084F8BC00F3E70020F1E7704710B51021BE
:104B4000044603F0CBF8204610BD0EB403B503AB0A
:104B5000002153F8042B019302F02DFC02B05DF804
:104B600004EB03B07047000073B504460846227991
:104B7000A36832B1A3B90B4902B0BDE8704002F09E
:104B8000DFBB094A267B094D0949647B012E18BF0A
:104B90002946CDE900140749FFF7D7FF02B070BDE1
:104BA000054AEFE701890D009E8A0D00FD880D0082
:104BB000F9880D0017890D00F0880D004FF0FF33C4
:104BC0000361704713B50B4C2178BFF35B8F11F075
:104BD00001010BD120460191FFF76EFA019928B12E
:104BE000054802F025FC2046FFF76BFA024802B0A8
:104BF00010BD00BF38E503203CE503202DE9F0415E
:104C000090F91330013305460F4606D1FFF7DAFF5E
:104C10003946BDE8F04102F0ADBC002407264FF054
:104C2000010895F91300002180B202F0B0FF95F958
:104C3000110008FA06F1394080B202F0A8FF95F998
:104C40001300012180B202F0A2FF95F91200640066
:104C500080B2E4B202F0B4FF08B144F00104013EB6
:104C6000DFD22046BDE8F08108B5FFF7ABFFBDE815
:104C7000084002F0F8BB07B50190FFF7A3FF0199C8
:104C800003B05DF804EB02F007BC000030B590F90A
:104C90001030013385B004460D4623D101790068F8
:104CA00001F032F82068036829469B68984720681D
:104CB00001F04AF821792068032201F022F82068E7
:104CC00003685B6998470502206803685B69984739
:104CD00028430502206803685B6998470543284616
:104CE00005B030BD90F9133001330CD11A4B00934D
:104CF00000238DF80430194B029368460123ADF868
:104D00000C30FFF7B8FF94F91000002180B202F0D8
:104D10003EFF45F080012046FFF770FF002120464E
:104D2000FFF76CFF002105022046FFF767FF2843CD
:104D3000050200212046FFF761FF054394F91000AA
:104D4000012180B202F023FF94F913300133C6D160
:104D5000FFF78AFFC3E700BF3C890D0020A10700D1
:104D600010B5FA210446FFF791FFB0F5000F1ED0F1
:104D7000A18A9FED107A4B00C1EB2022C3EBE0111A
:104D8000B4F9163052435943B4F91830121353434F
:104D90009B1303EBE123E36003EB830380331B12DC
:104DA00007EE903AF8EEE77A87EE870A10BD9FED9E
:104DB000020AFBE70000C8420000C07F30B590F94E
:104DC0001030013385B004460D461FD101790068CB
:104DD00000F09AFF2068036829469B68984720687E
:104DE00000F0B2FF21792068022200F08AFF2068DB
:104DF00003685B6998470546206803685B699847C4
:104E000040EA052085B2284605B030BD90F9133040
:104E100001330CD1184B009300238DF80430174B4D
:104E2000029368460123ADF80C30FFF724FF94F994
:104E30001000002180B202F0AAFE45F08001204659
:104E4000FFF7DCFE00212046FFF7D8FE00210546D3
:104E50002046FFF7D3FE40EA052085B294F9100002
:104E6000012180B202F093FE94F913300133CAD1CC
:104E7000FFF7FAFEC7E700BF3C890D0020A107003D
:104E800008B5FFF79BFF40BA80B208BD38B50446AD
:104E9000FFF766FFFD212046FFF790FFB0F5004FBA
:104EA00038D0B4F93250E268B4F934302D05A2F5A7
:104EB0009632C5EB803002FB130303F58043D91310
:104EC00094F830305343DB1203F5004094F9363048
:104ED00053439B1243439B1203F50012B4F92E3047
:104EE000534303F500539B134B43DA1394F82C10F0
:104EF0005243D2114A43A3EB221323EAE373B3F1E3
:104F0000C85FA8BF4FF0C8531B1300EE103ABAEEAB
:104F1000CB0A38BD9FED010AFBE700BF0000C07F50
:104F200030B590F91030013385B004460D4618D1E4
:104F30000179006800F0E8FE2068036829469B6854
:104F40009847206800F000FF21792068012200F0D6
:104F5000D8FE206803685B699847C5B2284605B04B
:104F600030BD90F9133001330CD1154B0093002361
:104F70008DF80430134B029368460123ADF80C30D2
:104F8000FFF779FE94F91000002180B202F0FFFDD6
:104F900045F080012046FFF731FE00212046FFF753
:104FA0002DFE054694F91000012180B202F0EFFDBC
:104FB00094F913300133D1D1FFF756FECEE700BF8D
:104FC0003C890D0020A1070008B5F321FFF7A8FFD9
:104FD00000F0010008BD38B588210446FFF750FFF6
:104FE0008A21A0822046FFF74BFF8C21E0822046D9
:104FF000FFF746FF8E2120832046FFF741FF9021D7
:1050000060832046FFF73CFF9221A0832046FFF7F4
:1050100037FF9421E0832046FFF732FF962120845A
:105020002046FFF72DFF982160842046FFF728FFD8
:105030009A21A0842046FFF723FF9C21E08420468C
:10504000FFF71EFF9E2120852046FFF719FFA121B3
:1050500060852046FFF764FFE12184F82C0020469C
:10506000FFF70EFFE321E0852046FFF759FFE4211B
:1050700084F830002046FFF753FFE521054620461F
:10508000FFF74EFF00F00F0343EA05106086E621AC
:105090002046FFF745FFE52105462046FFF740FF84
:1050A000031143EA0510A086E7212046FFF738FFE9
:1050B00084F8360038BD00007FB590F91030013318
:1050C00004460E46154612D10179006800F01CFE18
:1050D0002068036831469B68984720680368294622
:1050E0009B689847206800F02FFE04B070BD90F9CF
:1050F000133001330CD1144B009300238DF804308E
:10510000124B029368460123ADF80C30FFF7B3FD54
:1051100094F91000002180B202F039FD06F07F0101
:105120002046FFF76BFD29462046FFF767FD94F9FF
:105130001000012180B202F02AFD94F913300133EE
:10514000D3D1FFF791FDD0E73C890D0020A10700E6
:10515000F8B5DB0002F0070203F03803134343EA1B
:1051600081139DF8186080F83C3090F840309DF82D
:105170001C509DF8207066F3471380F84030ED0016
:1051800090F8383007F0070705F0380523F03F03A3
:105190003D4304461D4380F8385006F00702F221D3
:1051A000FFF78AFF94F83820C2F3C20302F0070128
:1051B0009B0043EA411343EAD2122046F521FFF750
:1051C0007BFF94F83C20C2F3C20302F007019B006E
:1051D00043EA411343EA92122046F421BDE8F84025
:1051E000FFF76ABF30B5044690F91000421C85B045
:1051F00019D1206800F056FDD0212046FFF790FE1F
:105200006028A06045D12046B622E021FFF754FF78
:105210004FF4967000F0E0FA2046FFF7D5FE054601
:1052200028B36420F6E7012180B202F0B0FC94F9C3
:105230001000012180B202F099FC94F91300431C84
:1052400004D1FFF7BFFC02F0FDF8D5E7012180B2E1
:1052500002F08CFC94F91100012180B202F086FC6E
:1052600094F91200002180B202F080FCC4E72046CD
:10527000FFF7B1FE052300931A4603212046CDE92E
:105280000155FFF765FF642000F0A6FA012005B084
:1052900030BD0020FBE7772310B50371044602F010
:1052A000D5FC20602046FFF79DFF30B9762323719F
:1052B0002046BDE81040FFF795BF10BD08B5024B72
:1052C0001B685B6C019308BD7402030008B5024BB8
:1052D0001B685B6C019308BD4802030008B5024BD4
:1052E0001B689B6C019308BD4802030008B5024B84
:1052F0001B68DB6C019308BD4802030008B5024B34
:105300001B685B6D019308BD4802030008B5024BA2
:105310001B685B68019308BD1802030008B5024BC7
:105320001B68DB68019308BD1802030008B5024B37
:105330001B685B69019308BD1802030008B5024BA6
:105340001B689B68019308BD2C02030008B5024B43
:105350001B68DB68019308BD2C02030008B5024BF3
:105360001B681B69019308BD2C02030008B5024BA2
:105370001B685B69019308BD2C02030008B5024B52
:105380001B68DB68019308BD2802030008B5024BC7
:105390001B689B69019308BD2802030008B5024BF6
:1053A0001B68DB69019308BD2802030008B5024BA6
:1053B0001B681B6A019308BD2802030008B5024B55
:1053C0001B685B6A019308BD2802030008B5024B05
:1053D0001B689B6A019308BD2802030008B5024BB5
:1053E0001B68DB6A019308BD2802030008B5024B65
:1053F0001B681B6B019308BD2802030008B5024B14
:105400001B685B6B019308BD2802030008B5024BC3
:105410001B681B6C019308BD2802030008B5024BF2
:105420001B689B6C019308BD2802030008B5024B62
:105430001B68DB6C019308BD2802030008B5024B12
:105440001B681B6D019308BD2802030008B5024BC1
:105450001B685B69019308BD6402030008B5024B39
:105460001B689B68019308BD6802030008B5024BE6
:105470001B68DB68019308BD6802030008B5024B96
:105480001B681B68019308BD3002030008B5024B7E
:105490001B685B69019308BD3002030008B5024B2D
:1054A0001B68DB69019308BD3002030008B5024B9D
:1054B0001B681B6A019308BD3002030008B5024B4C
:1054C0001B685B6A019308BD3002030008B5024BFC
:1054D0001B68DB6B019308BD3002030008B5024B6B
:1054E0001B681B6C019308BD3002030008B5024B1A
:1054F0001B685B6C019308BD3002030008B5024BCA
:105500001B681B68019308BD3C02030008B5024BF1
:105510001B689B68019308BD3C02030008B5024B61
:105520001B68DB68019308BD3C02030008B5024B11
:105530001B681B69019308BD3C02030008B5024BC0
:105540001B685B69019308BD3C02030008B5024B70
:105550001B689B69019308BD3C02030008B5024B20
:105560001B68DB69019308BD3C02030008B5024BD0
:105570001B681B6A019308BD3C02030008B5024B7F
:105580001B689B6A019308BD3C02030008B5024BEF
:105590001B68DB6A019308BD3C02030008B5024B9F
:1055A0001B681B68019308BD4C02030008B5024B41
:1055B0001B685B68019308BD4C02030008B5024BF1
:1055C0001B689B68019308BD4C02030008B5024BA1
:1055D0001B681B69019308BD4C02030008B5024B10
:1055E0001B685B69019308BD4C02030008B5024BC0
:1055F0001B689B69019308BD4C02030008B5024B70
:105600001B68DB69019308BD4C02030008B5024B1F
:105610001B681B6A019308BD4C02030008B5024BCE
:105620001B685B6B019308BD6002030008B5024B69
:105630001B68DB6E019308BD6002030008B5024BD6
:105640001B681B6F019308BD6002030008B5034B84
:105650001B68D3F89830019308BD00006002030076
:1056600008B5024B1B685B68019308BD200203006C
:1056700008B5024B1B685B69019308BD200203005B
:1056800008B5034B1B68D3F88830019308BD0000B0
:105690002002030008B5034B1B68D3F89430019334
:1056A00008BD00002002030008B5024B1B681B6800
:1056B000019308BD4402030008B5024B1B68DB6B75
:1056C000019308BD4402030008B5024B1B685B68E8
:1056D000019308BD4002030008B5024B1B689B689C
:1056E000019308BD4002030008B5024B1B68DB684C
:1056F000019308BD4002030008B5024B1B681B69FB
:10570000019308BD4002030008B5024B1B685B69AA
:10571000019308BD4002030008B5024B1B689B695A
:10572000019308BD4002030008B5024B1B68DB690A
:10573000019308BD4002030008B5024B1B681B6AB9
:10574000019308BD4002030008B5024B1B681B6BA8
:10575000019308BD4002030008B5024B1B685B6B58
:10576000019308BD4002030008B5024B1B681B6C87
:10577000019308BD4002030008B5024B1B685B6C37
:10578000019308BD4002030008B5024B1B681B686B
:10579000019308BD1C02030008B5024B1B685B683F
:1057A000019308BD1C02030008B5024B1B689B68EF
:1057B000019308BD1C02030008B5024B1B685B6A1D
:1057C000019308BD1C02030008B5024B1B685B6C0B
:1057D000019308BD1C0203000021FFF749BF10B56B
:1057E000036804469B689847A368013BA3602BB9F4
:1057F00023682046DB68BDE81040184710BD0B68E1
:10580000036013B15A6801325A60704710B50446FC
:10581000006828B14368013B43600BB9FFF7DFFF25
:10582000204610BD024800230360FFF74FBD00BFB4
:1058300044E50320002240681146FFF75DBF0022C7
:1058400040681146FFF778BF002240681146FFF715
:1058500083BF40680022FFF777BF4068002281F0D5
:105860000101FFF761BF002340681A461946FFF7A0
:1058700053BF002340681A461946FFF745BF002270
:1058800040681146FFF728BF406800220221FFF759
:105890002BBF002340681A46FFF716BFF0B51B4B1D
:1058A000036000250F4630331826C0E9025589B041
:1058B0004360324629460446103002F03DFE7868C7
:1058C0002A462946FFF718FF18B9A060204609B0FC
:1058D000F0BD2946324602A8CDE9005502F02CFE63
:1058E00002A96846ADF80860FFF7E8FC10B1012393
:1058F000A360EBE7009B019AA360E2600BB902236F
:10590000A36002A9204600F0C0F8DFE78C890D00F3
:10591000084B10B5282422461846002102F00CFE40
:10592000054B04804FF0FF32426004225A60034A64
:105930001A6010BD50E5032048E5032050890D0092
:105940007047007D7047037D4BB18369B3F1004F11
:1059500005D0006AB0F1004018BF01207047002058
:10596000704703681B6A184710B52821044602F0E7
:10597000B5F9204610BD0000037D7BB1C369002B43
:105980000CDB07EE903A9FED077AF8EEE77A87EEA8
:10599000870ADFED057A20EE270A7047BFEE000A7E
:1059A000704700BF00FF7F470000C842037D63B11E
:1059B0008369B3F1004F08D007EE903A9FED047A67
:1059C000F8EEE77A87EE870A70479FED020A704784
:1059D0000000C84200000000037D7BB1436A002B39
:1059E0000CDB07EE903A9FED077AF8EEE77A87EE48
:1059F000870ADFED057A20EE270A7047BFEE000A1E
:105A0000704700BF00FF7F470000C842037D63B1BD
:105A1000036AB3F1004F08D007EE903A9FED047A85
:105A2000F8EEE77A87EE870A70479FED020A704723
:105A30000000C8420000000070B50C1E06460ADADD
:105A40002D2101F081FC614205460A22304601F019
:105A500094FC284470BD21460025F6E770B50C463D
:105A6000054681682046FFF7E7FF2C2106462046C1
:105A700001F06AFCE96806442046FFF7DDFF304488
:105A800070BDA0F10400FFF7E9BF30B50D4600F18D
:105A900010040FCD0FC495E8030084E80300012033
:105AA00030BD002240681146FFF746BE0022406824
:105AB0001146FFF751BE40680022FFF745BE40681F
:105AC000002281F00101FFF72FBE002340681A4633
:105AD0001946FFF721BE002340681A461946FFF712
:105AE00013BE002240681146FFF706BE0022406840
:105AF0001146FFF7F1BD406800220221FFF7F4BD17
:105B0000002340681A46FFF7DFBD0000024B032266
:105B10005A60024A1A60704778E50320C8890D0070
:105B2000090941EA001107EE901AB8EEE70ADFED25
:105B3000027A80EE270A704700004844006800F0AF
:105B400006B910B50446016002710AB1FFF7F6FF0D
:105B5000204610BD13B50446019102F09BF8019A4E
:105B600001462046FFF7EDFF204602B010BD006859
:105B700000F0F6B82DE9FF4104460D4617461E46D3
:105B8000FFF7DCFF36238DF80030002320680193F7
:105B90004FF001080A23694603938DF8088000F04E
:105BA000B7F82068036829469B68984720684146F3
:105BB00000F0C6F8054640B16FF09F052046FFF79C
:105BC000D6FF284604B0BDE8F08102232068019387
:105BD000694600F06DF80228EED1206803685B6921
:105BE00098473870206803685B6998473070E5E72C
:105BF00007B500238DF806308DF807300DF1060249
:105C00000DF107030221FFF7B5FF40B99DF807101A
:105C10009DF8060003B05DF804EBFFF781BFBFEE0F
:105C2000000A03B05DF804FB7047F8B50646154658
:105C30000C468F18BC4206D0336814F8011B9B68D1
:105C400030469847F6E72846F8BD007C0022FFF76B
:105C5000ADBB007C0021FFF7B1BB007C0021FFF74A
:105C6000B5BB007C0021FFF7B9BB007C0021FFF72A
:105C7000BDBB10B51421044602F030F8204610BD1B
:105C800010B54FF47A73044608460021C4E90113A5
:105C9000034B236020741146FFF7B8FB204610BD6C
:105CA000048A0D000023007C1A461946FFF766BBE4
:105CB0007FB500221423CDE90122ADF804300B7822
:105CC0008DF808304B680393CB680493007C0B7A03
:105CD000059301A9FFF7B2FB07B05DF804FB1FB500
:105CE000003B8DF800104FF06401039118BF0123B1
:105CF000694601928DF80830FFF7DAFF05B05DF8CC
:105D000004FB0123FFF7EBBF007C0022FFF73EBB43
:105D10007FB50023CDE901334A6803921423CA6892
:105D2000ADF804300B7804920A7A0592007C8DF865
:105D3000083001AA1946FFF729FB07B05DF804FBFC
:105D4000007C0022FFF72ABB0121FFF7F9BF08B54D
:105D50000021007CFFF762FBB0FA80F0400908BD2B
:105D600008B50021007CFFF761FBB0FA80F0400924
:105D700008BD704710B51821044601F0AFFF20465A
:105D800010BDF0B5037D062B8DB00E4600F1040763
:105D90004FF0000412D000F1080515F8011D0A2289
:105DA000304601F0EAFAAF42044419D0002CF4D096
:105DB0002E21304601F0C8FA0444EEE72F236A464C
:105DC00039460A208DF80040FFF740FB684602F094
:105DD00008FC33680246DB6869463046984704464B
:105DE00020460DB0F0BD000010B5054B0446112251
:105DF00040F8043B002102F09FFB204610BD00BF8D
:105E00002C8A0D000346074A10B543F8042B01F114
:105E1000100251F8044B43F8044B9142F9D10A782F
:105E20001A7010BD2C8A0D0010B59DF8084044EA88
:105E3000032343EA024242EA0161042341600375FD
:105E400010BD13B5CB7800938B784A780978FFF7AB
:105E5000EBFF02B010BD00F11003012213F8101C7B
:105E60000129184608D153F8041C02EB4102013AFB
:105E700003F11003F2D17047022904BF53F8041C48
:105E80005218F4E70EB4F0B588B000AF07F134054E
:105E9000102155F8042B7A6004462B467818FD60D3
:105EA000FFF78AFC0F287A681AD900F1080323F05B
:105EB00007036E46ADEB030D411C2B466846FD60A3
:105EC000FFF77AFC021E04DD236869469B682046C2
:105ED0009847B5462037BD46BDE8F04003B070474F
:105EE0000028F7D0236802469B6807F1100120467E
:105EF0009847EFE710B5036804469B689847A36886
:105F0000013BA3602BB923682046DB68BDE8104045
:105F1000184710BD07B503688DF807109B6801226C
:105F20000DF10701984703B05DF804FB38B50B6825
:105F300003604D6843689D4204460CD015B16B6800
:105F400001336B60606828B14368013B43600BB963
:105F5000FFF7D0FF6560204638BD0B461146002292
:105F600010B5C0E90022044683600BB9204610BD7D
:105F7000FFF7DCFFFAE78368EBB11A78032A1AD837
:105F8000DFE802F00417021B0520704702685B6817
:105F90005268D05C2D2812D0A0F13003092B0ED905
:105FA00074280ED066280CD0A0F16E0358425841D8
:105FB0007047062070470020704704207047032078
:105FC00070470220704710B50446FFF7D4FF02283F
:105FD0000ED0C31EDBB2012B14D82268A368506810
:105FE0005B68BDE810400A220021184402F0B4BBEF
:105FF0002268A36852685B68D05CA0F174035842C1
:10600000584110BD0020FCE738B50023C0E900333B
:1060100004460E48C4E90203A9B10B78032B06D04D
:106020008BB9136858684B68C35C6E2B07D0136834
:106030004D6858688B6828445B1BA060E36011467C
:106040002046FFF773FF204638BD00BF9E8A0D0033
:1060500038B500250B46C0E90055C0E90255C0E936
:106060000455044611464BB11A78012A06D103F1B2
:106070001002DB6882604361FFF758FF204638BD9D
:1060800010B54369044663B18068E060013B10309D
:10609000A0602061636113B1FFF7DDFEA060012005
:1060A00000E0184610BD10B57D210446FFF732FF11
:1060B00001232371204610BD08B50379012B02D0BE
:1060C000022B04D008BD2C21FFF724FFFAE73A2168
:1060D000FAE710B50446FFF7EFFF20467B21FFF7F4
:1060E00019FF00232371204610BD000013B504469C
:1060F0000191FFF7E1FF2368019ADB68034920461D
:10610000984701232046237102B010BD388A0D0044
:1061100013B504460191FFF7CFFF2368019ADB68AE
:1061200003492046984701232046237102B010BD41
:106130003B8A0D002DE9F0410D4617462221DFF87C
:10614000A08004462F44FFF7E5FE2946BD422A46BB
:1061500038D015F8016B222E03D05C2E01D01F2EF3
:10616000F4D82368521A9B68204698475C21204641
:10617000FFF7D0FE0D2E0AD8072E1CD9A6F1080372
:10618000052B18D8DFE803F00D0F11171315222E79
:1061900001D05C2E0FD131462046FFF7BBFE2946C9
:1061A000D4E76221F8E77421F6E76E21F4E766216F
:1061B000F2E77221F0E723683246DB684146204669
:1061C0009847ECE78D4204D023686A1A9B68204602
:1061D000984722212046FFF79DFEBDE8F08100BFD1
:1061E0003E8A0D0013B50446CDE90021FFF764FF98
:1061F0002046DDE90021FFF79DFF022320462371A1
:1062000002B010BD13B50446CDE90021FFF754FFDD
:106210002046DDE90021FFF78DFF01232046237191
:1062200002B010BD80680368DB68184770470846F5
:1062300011B10B685B68184770477047704770472B
:10624000704738B504460D4600682E2102F0ADF9BE
:106250002368C31A2B6023B1037803B1013023688C
:106260002060184638BD10B50C21044601F036FDFB
:10627000204610BD10B50421044601F02FFD204634
:1062800010BD10B50421044601F028FD204610BDC4
:1062900008B502F094F9B0FA80F0400908BD7047E3
:1062A00010B50C4601F062FB844210D001F0D6FA22
:1062B000844205D101F0D2FABDE8104001F0CBBA1A
:1062C0002CB1236820465B68BDE81040184710BD1C
:1062D00013B504460846019102F083F9019902467C
:1062E000204602B0BDE81040FFF78CBF13B504464E
:1062F0000846019102F075F923680199DB680246AE
:10630000204602B0BDE81040184707B503688DF875
:106310000710DB6801220DF10701984703B05DF813
:1063200004FB0EB403B503AB002153F8042B006A41
:10633000019301F040F802B05DF804EB03B0704740
:106340002DE9F74FD0E900954FF0140808FB05F54B
:106350000093AB10184D17465D434C46002D23DDCE
:106360006E1008FB06F004EB000A3A46BAF804B0D7
:10637000205801915F4528BF5A4602F03AF9019929
:10638000012378B95F4503D1009A13703546E5E7DC
:106390008CBF012000200028F8D0AE1B0AF11404A5
:1063A000013EF3E7C00FF6E7A4EB09040248A4108E
:1063B000604303B0BDE8F08FCDCCCCCC7FB5036992
:1063C000067E01910BB301B3002500F10C04039587
:1063D00003A901A8FFF735FF0146B0B10DF10B038A
:1063E000039A8DF80B502046FFF7AAFF9DF80B305B
:1063F0005BB12468142303FB004000F10804B0F9EA
:106400000630002BA8BFDEB2E2E7304604B070BD14
:1064100010B5094C2378BFF35B8FDB0709D4204606
:10642000FDF74AFE28B12046FDF74BFE034802F077
:1064300051F8034810BD00BF84E503203B620D0006
:1064400038E3032010B5094C2378BFF35B8FDB07DB
:1064500009D42046FDF730FE28B12046FDF731FE75
:10646000034802F037F8034810BD00BF88E5032059
:106470009F620D003CE3032038B500250446C0E9C7
:106480000055C0E904558560856140F8245FFEF73A
:106490001DFFFFF7BDFFE061FFF7D4FF257320620A
:1064A000204638BD10B50A4C2378BFF35B8FDB075D
:1064B0000CD42046FDF700FE40B10648FFF7DCFF94
:1064C0002046FDF7FEFD044802F004F8014810BD27
:1064D00080E5032090E5032085690D00024A034909
:1064E00003480023FFF7AAB80D680D0099670D0057
:1064F00019670D0000231A4619461846FFF79EB883
:1065000037B50D6951F8043B0093044601A8FFF725
:1065100076F96A4629462046FFF71FFD01A8FFF7D6
:1065200075F9204603B030BD37B58D6851F8043B8E
:106530000093044601A8FFF762F96A4629462046FF
:10654000FFF786FD01A8FFF761F9204603B030BDD3
:1065500037B5CD6851F8043B0093044601A8FFF716
:106560004EF96A4629462046FFF74EFD01A8FFF77F
:106570004DF9204603B030BD70B58AB00D460146D6
:1065800004A8FFF7D1FF144E04A8FFF779FDE8B186
:1065900004A96846FFF7DCFF02983146FFF778FE52
:1065A000044610B12C1E18BF012401A8FFF72EF9D4
:1065B000002CE9D004A96846FFF7A2FF6846FFF760
:1065C00002FD286001A8FFF721F9DDE705A8FFF724
:1065D0001DF90AB070BD00BF448A0D0037B50C46E6
:1065E00020461249154601F0EAFF48B901F0BEF90C
:1065F0004FF4165101F0AAF901F0B8F903B030BD1B
:106600000B49204601F0DBFF70B94FF4165301A986
:1066100028460193FFF7B0FF01F020F9019901F03E
:1066200017F901F01BF9E9E70020E7E7498A0D00B7
:10663000508A0D0070B5D0E900531426044606FBBD
:106640000356AE4205D005F10800FFF7F3FF1435FD
:10665000F7E72068FFF7A0F8204670BD70B5D0E9D5
:106660000053044605EB0316AE4204D0284600F062
:10667000B5FF1035F8E72068FFF78EF8204670BDAB
:1066800010B504460C30FFF7D5FF2046FFF7E6FFB4
:10669000204610BD10B5044B044640F8043BFFF7FC
:1066A000EFFF204610BD00BFB0880D0010B50446B6
:1066B000FFF7F0FF2046242101F010FB204610BD1B
:1066C00010B5034B03600446FFF7E4FF204610BDFE
:1066D000F08A0D0010B50446FFF7F2FF2046242192
:1066E00001F0FCFA204610BD0022C0E9002210B5DE
:1066F00082600C6804604C6844608C680A604A6080
:1067000084608A6010BD10B5036804461868FEF7FF
:10671000F5FD204610BD00002DE9F04F87B0804602
:1067200003931C4B5B68C3F30803894616466BB999
:10673000FFF7B8FE044600F12403406A0593FEF714
:10674000D5FD237B2BB105A8FFF7DDFF07B0BDE822
:10675000F08F01232373D4E900535FFA89F905EB25
:10676000830AAA4512D055F8047B3146381DFFF73D
:1067700025FE8145F5D33B68039A0092D3F808B013
:106780004A46334641463846D847EAE70023237352
:10679000D9E700BF00ED00E02DE9F74F9B461A4B0B
:1067A0005B68C3F308038046894616466BB9FFF75A
:1067B00079FE044600F12403406A0193FEF796FD3A
:1067C000237B2BB101A8FFF79EFF03B0BDE8F08F3C
:1067D00001232373D4E90053F6B205EB830A554530
:1067E0000ED055F8047B5946381DFFF7E7FD864269
:1067F000F5D33B684A46DB68414638469847EEE7A2
:1068000000232373DEE700BF00ED00E02DE9F34134
:10681000164B5B68C3F3080305460F461BBBFFF727
:1068200041FE00F124030446406A0193FEF75EFD39
:10683000D4E90063462406EB8308B04509D101A8DA
:10684000FFF761FFA542B4BF0020012002B0BDE800
:10685000F08156F8040B39460430FFF7AFFD84424F
:10686000A8BF0446E9E70020F0E700BF00ED00E024
:1068700070B50446D0E900020B4600EB820282426A
:1068800007D001461D6851F8046BAE4203D008469C
:10689000F5E7002070BD521A01F034FE6368013B39
:1068A00063600120F6E71FB500F124030446406A47
:1068B00001910393FEF71AFD01A92046FFF7D8FFC7
:1068C00018B163680BB9FFF715FE03A8FFF71BFFAC
:1068D00004B010BD70B5D0E904561823044603FB7C
:1068E0000656AE4215D005F110012046FFF7C0FF55
:1068F00063680BB9FFF7FEFDE06929690368DB688F
:106900009847696919B1206A0368DB6898471835A8
:10691000E7E7D4E90453182606FB0356AE4204D039
:10692000284600F05BFE1835F8E70023636170BD70
:1069300073B50446FFF7DEFD04F12403606A01939A
:10694000FEF7D4FC2046FFF7C5FF01A8FFF7DBFEEA
:10695000606A08B1FEF7C2FCD4E90453182606FBAE
:106960000356AE4204D0284600F038FE1835F8E74A
:106970002069FEF711FF2068FEF70EFF204602B0E7
:1069800070BD00000148FFF7D3BF00BF90E50320B2
:106990008842F8B506460C46154627D9904226D2BD
:1069A000A2F114056C1AA1F1140704440026AF42A9
:1069B0003DD0A4B12B682360AB88A380B5F9063025
:1069C000E380C4E902662661AB68A360AE60E36859
:1069D000EA68E260EB6023692A6922612B6105F1B4
:1069E0000800FFF727FE143D143CE0E71FD0002706
:1069F000AC421CD0A6B123683360A388B380B4F93D
:106A00000630F380C6E902773761A368B360A760F8
:106A1000F368E268F260E3603369226932612361FE
:106A200004F10800FFF706FE14341436E0E7F8BD61
:106A3000F8B5D0E901539D4204460E4617460DDBDA
:106A40000135002D006804DDA900FEF7ADFE18B980
:106A5000F8BDFEF7A1FE00202060A56025686268F1
:106A600005EB86019200A2EB8602081D01F04AFDAB
:106A700045F826706368013363600120E8E737B5A5
:106A800000F124030446406A01930D46FEF72EFCF4
:106A9000D4E9003103EB810083421A460BD012681F
:106AA000AA4203F10403F7D101A8FFF72CFE002549
:106AB000284603B030BD2A462046FFF7B9FF0546F9
:106AC0000028F1D06368012B01D1FFF707FD01A871
:106AD000FFF719FEECE78842F8B504460D46164666
:106AE00014D9904213D2A2F11006751AA1F1100721
:106AF0002C44B74218D01CB13146204600F0EAFDC4
:106B0000304600F06BFD103E103CF2E70CD0B54271
:106B10000AD01CB12946204600F0DCFD284600F0D2
:106B20005DFD10351034F2E7F8BD70B50E1E054658
:106B300011DD3001FEF728FE044658B1D5E90012F8
:106B400001EB0212FFF7C7FF2868FEF725FE2C6055
:106B5000AE60012070BD0024F6E72DE9F04F9146AC
:106B600097B000230391D9F804100C934622994260
:106B7000C0E90033C0E90233C0E90433CDE90A3388
:106B80000446027623DCD9E90057142303FB075798
:106B9000AF423BD029460DA800F09CFD0DA911A8DD
:106BA0000B9E00F097FDDDE90B1399421BDA0A9B5F
:106BB0000B9A03EB061603EB0212314606F11000A6
:106BC000FFF789FFEEB90B9B01330B9311E00AA885
:106BD000FFF7ABFF0028D6D10AA8FFF73FFD2046FC
:106BE00017B0BDE8F08F01310AA8FFF79EFF00281B
:106BF000DDD111A800F0F2FC0DA800F0EFFC143577
:106C0000C6E711A9304600F065FDDCE70026CDE9B6
:106C10000D660F9637464FF0140ADDE90A239E42AF
:106C200080F297803301D35808930BB90136F4E70B
:106C30000AFB06F3099702930DAD09A908A8FFF70F
:106C400000FB83460028F1D00146099A8DF81F7099
:106C50000DF11F032846FFF773FB9DF81F8001907D
:106C6000B8F1000F66D1BDF82430ADF84830CDE959
:106C700013884FF6FF73CDF844B0ADF84A30CDF825
:106C80005480D5E9013293421ADB03F1010BBBF1C9
:106C9000000F4ADD0AFB0BF0FEF776FD049000289A
:106CA00045D0D5E900120AFB0212FFF771FE049BE2
:106CB00028680493FEF770FD049B2B60C5F808B0AC
:106CC000019BD5F800B06A680AFB03F30BEB0301E4
:106CD00001F114000AFB02B204910593FFF758FE7C
:106CE0000499A9B1059B119A4BF80320BDF84830CF
:106CF0008B80BDF94A30CB80C1E902770F61139BCD
:106D00008B60149B1397CB60159B14970B611597A1
:106D10006B6801336B6013A8FFF78CFCB8F1000FB0
:106D200008D00DA8FFF786FC56E74346C0E74FF0B2
:106D30000108F0E7019B2D680AFB0355089B1B78AF
:106D40002BB9D9F80030029A13441B7CEB8008352C
:106D500073E72168226062686360A3680B920C9AF3
:106D60000C93E368A2600D9A0D932369E2600E9A7A
:106D70000E93636922610F9A0F93039B0A916261DC
:106D80002376CEE77FB50546094B45F8043B04461C
:106D90000E4601A81146FDF792FB01AA314628468E
:106DA000FFF7DBFE01A8FDF749FB204604B070BDEC
:106DB000B0880D00F0B50F4687B026490C9C3846C8
:106DC00016461D4601F0FBFB00BBE4B129466846B0
:106DD000FFF78AFC2049242000F082FF054670B1AD
:106DE000694603A8FDF76BFB03AA31462846FFF767
:106DF000C9FF03A8FDF722FB184B2C622B606846E5
:106E0000FDF71CFB2C46204607B0F0BD1449384660
:106E100001F0D5FBE0B9002CF5D029466846FFF714
:106E200063FC0D49242000F05BFF05460028E6D0F6
:106E3000694603A8FDF743FB03AA31462846FFF73E
:106E4000A1FF03A8FDF7FAFA064B2B602C62D6E7E8
:106E50000024D8E7588A0D00F08B0D00F08A0D0051
:106E60005C8A0D00D88A0D00014B024A1A607047F7
:106E70008CE503206D8A0D002DE9F047089DD0F8C0
:106E8000209004460E461746984600F06FFD814557
:106E90004CD02B79190704D56A6954492046FFF76D
:106EA00040FAB8F1000F0DD05B212046FFF72DFA14
:106EB00041462046FFF71AFA23684D49DB68022253
:106EC000204698472B79DA0723D5D5F808802F215B
:106ED000404601F0B3FB08B100F1010841462046ED
:106EE000FFF704FA2B799B0708D53A212046FFF7D4
:106EF0000CFAEA683F492046FFF713FA2A7923681B
:106F000012F0040FDB6814BF3B493C4902222046C3
:106F100098472B7958071DD529690B461A4613F84F
:106F2000010B60B1202808D11946F7E7344800F07A
:106F300066F90028ADD0BDE8F0872828EED1236897
:106F4000521ADB682046984723682E49DB680422E2
:106F50002046984700213846FEF768FB0146204648
:106F6000FFF7C4F923682549DB68022220469847C9
:106F70001EB131462046FFF7B9F92B7913F0300FD7
:106F80002CD023682049DB680222204698472B79C1
:106F9000D9060AD523681D49DB6807222046984791
:106FA000AA691B492046FFF7BCF92B799A0611D52F
:106FB000DB0605D523681049DB6802222046984786
:106FC00023681449DB6820460A229847E96920466D
:106FD000FFF78CF95D212046FFF797F923680E49EA
:106FE000DB6820460222BDE8F0471847718A0D0091
:106FF000788A0D00388A0D007B8A0D00808A0D008A
:10700000B8E503207E8A0D00838A0D00868A0D0074
:107010008E8A0D00918A0D009C8A0D002DE9F043A7
:1070200085B0D0F820900C9C05460F4690461E4631
:1070300000F09CFC814505D1494800F0E0F80028AB
:1070400040F08A802B6A474A01924FF0000901A85C
:1070500003938DF80890FFF73CF849464046FEF749
:10706000E5FA41498046012201A8FFF7BBF84146F5
:10707000FFF72EF93FB13D49012201A8FFF7B2F811
:107080003946FFF725F93EB13949012201A8FFF73A
:10709000A9F83146FFF71CF92379DF070ED5A6685A
:1070A0002F21304601F0CAFA00B1461C31490122B5
:1070B00001A8FFF797F83146FFF70AF923799E07F1
:1070C00007D52D49022201A8FFF78CF8E168FFF7E8
:1070D0000DF82379580714D5266933461F4613F84F
:1070E000012B2AB1202A01D11E46F7E7282AF5D123
:1070F0002249022201A8FFF775F8BA1B3146FFF7B3
:1071000081F82379190707D51D49012201A8FFF746
:1071100069F86169FEF7FCFF2379DA0608D50422D5
:1071200018490DEB0200FFF75DF8A169FEF7DEFFDD
:1071300023799B0607D51449062201A8FFF752F8C8
:10714000E169FFF7C5F801A8FEF7ADFF286A0F490E
:1071500003680222DB68984705B0BDE8F08300BFF2
:10716000B8E50320C08A0D004E8A0D009F8A0D00ED
:10717000A18A0D0051880D00A38A0D00A68A0D007A
:10718000A98A0D00AB8A0D00B08A0D009C8A0D0003
:10719000002340681A46FEF797BA40680022022191
:1071A000FEF7A2BA002240681146FEF795BA002207
:1071B00040681146FEF7A0BA002340681A461946F7
:1071C000FEF7A2BA002340681A461946FEF7A4BA91
:1071D00040680021FEF7C8BA40680021FEF7CCBA2B
:1071E0004068002281F00101FEF79EBA406800224B
:1071F000FEF7AABA002240681146FEF7ADBA002297
:1072000040681146FEF798BA2DE9F043002495B086
:1072100016460D460746FEF7E7FD214618220EA842
:10722000009401F089F94023CDE90C3421466B46E6
:107230000CAA3046FEF71AF90446002846D1024649
:1072400001216868FEF758FA0221804622466868E4
:10725000FEF752FA009E81462146002E36D00029C4
:1072600034D17368022B03D00A2B0BD0F669F4E7F4
:10727000B8F1000F04D0716938460431FEF7E1FD22
:107280004146F3E7B9F1000F01D14946EEE77469D1
:10729000102201A801F050F906238DF8143001AD39
:1072A00004F108031834186859682A4603C20833E1
:1072B000A3421546F7D101A906A807ADFEF7A2FD26
:1072C0000FCD3C1D0FC42B682370DEE70098FEF73E
:1072D000C5F8384615B0BDE8F0830000024B034AFC
:1072E0001A6000225A607047B8E50320388B0D0001
:1072F000F8B506460D468F180024BD420CD0336801
:1073000015F8011B9B6830469847031E01DB1C449F
:10731000F3E7002C08BF1C462046F8BD13B5044611
:10732000084659B1019101F05CF923680199DB68C5
:107330000246204602B0BDE81040184702B010BD1A
:1073400008B5FFF7EBFF08BD03689B68184738B521
:107350000D210546FFF7F8FF0A2104462846FFF7EE
:10736000F3FF204438BD38B50546FFF7D7FF044684
:107370002846FFF7ECFF204438BD30B58BB0002322
:107380008DF82430012A98BF0A2209AC0D46B1FBC2
:10739000F2F101FB125303F0FF03092B94BF3033CA
:1073A0003733DBB2AA4204F8013DEFD92146FFF79B
:1073B000B5FF0BB030BD2DE9F04186B000AF0546FA
:1073C0000E46381D142114463B60FEF7F5F91328CC
:1073D0000ED8391D2846FFF7A1FF04461EB12846E6
:1073E000FFF7B5FF044420461837BD46BDE8F081DD
:1073F00000F1080323F00703E846ADEB030D224636
:10740000411C3B686846FEF7D7F969462846FFF7F6
:1074100085FF0446C546E1E7014B00229A607047AC
:10742000C0E503200021FEF759B80021FEF75EB841
:1074300010B5044608462170FEF730F8002363605B
:10744000204610BD10B504460078FFF7EBFF48B9A1
:1074500020784FF6FF71FEF711F82078BDE8104054
:10746000FFF7E3BF10BD0078FFF7DFBF400830B57E
:107470001860002418688842E5B206D90134082C47
:1074800002D040081860F5E70725024B5B5D1370DA
:1074900030BD00BF6C8B0D002DE9F04306468FB068
:1074A00000780C46FFF7BEFF00281BDB357814225E
:1074B000002109A801F040F80B23002209A9284661
:1074C000ADF82430FDF7FAFF9DF82D3013B19DF88B
:1074D0002C5055B10027B946B846012523795DB136
:1074E000C3B100200FB0BDE8F083DDF830809DF817
:1074F00034909DF83570F1E7002B35D1A3684345F2
:1075000008D18DF820908DF82170BDF82020A38936
:107510009A42E6D00023A1688DF80F300A9804AB98
:107520000DF10F02FFF7A2FF217985B989B9A36890
:1075300043450ED38DF820908DF82170BDF82020A2
:10754000A3899A4205D1049B434502D1C9E700298A
:10755000F9D100230193637B00939DF80F20237BD7
:107560003078FDF7B3FFBCE7CDE900552B462A463E
:107570000121F5E708B50078FDF788FFC0B208BD26
:1075800010B50446FDF7D2FEE060236820465B6933
:107590009847002808DAFDF7C9FEE368C01AA36817
:1075A0009842F2D34FF0FF3010BD000070B50D4689
:1075B00009490446164600F05CF82846FFF7E0FF4C
:1075C000002806DB864204D0C1B2204600F0BEF897
:1075D000F3E7204670BD00BF9E8A0D0010B504463B
:1075E0000068FEF7D9F8204610BD10B504460068C3
:1075F00008B1FEF7D1F80023C4E90133236010BDC0
:1076000038B504460D4600680131FEF7CDF810B1DB
:10761000C4E90005012038BD10B50368044623B154
:1076200043688B4201D3012010BD2046FFF7E8FFDD
:107630000028F9D0A368002BF5D122681370F2E777
:1076400037B50D46114601920446FFF7E5FF019A52
:1076500028B92046FFF7C9FF204603B030BDA2601D
:107660002946206800F040FF2268A3680021D15419
:10767000F2E7002313B5C0E90033044683600373C7
:1076800041B10846019100F0ACFF01990246204645
:10769000FFF7D6FF204602B010BD38B5054600689A
:1076A0000C4668B16A688B689A4207D3096800F093
:1076B00090FFA368AB600023A36038BDFEF76CF8B1
:1076C00023682B6063686B60A368AB600023C4E928
:1076D0000033F1E710B50023C0E9003304468360AE
:1076E0000373FFF7DAFF204610BD884210B5044649
:1076F00005D00B682BB18A681946FFF7A1FF204619
:1077000010BDFFF772FFFAE710B500230446C0E989
:10771000003383600373FFF7E8FF204610BD70B5A8
:1077200005460E4609B9002070BD6AB1846814444C
:107730002146FFF771FF0028F5D02868AB68314675
:10774000184400F046FFAC600120EDE707B50023C8
:107750008DF80410012201A98DF80530FFF7DFFF35
:1077600003B05DF804FB0000054B02221A60054BD4
:10777000054A9A600020186098809871FDF770BFE4
:10778000DCE50320D0E503200000FFFF024B1A6870
:10779000024B1A60704700BF40E30320E0E503207E
:1077A000704741747047704708B5007CFDF7E6FEEE
:1077B00020EAE07008BD08B5007CFDF7B7FE20EABE
:1077C000E07008BD08B5007CFDF7C0FE40EAE0703F
:1077D00008BD08B5007CFDF7B1FE40EAE07008BDC9
:1077E000007CFDF7BBBE37B5457C04462DB1207C3F
:1077F00003B0BDE83040FDF791BE007C0191FDF77C
:10780000BDFE00280199F2DC284603B030BD10B55A
:107810001421044600F062FA204610BD10B54FF066
:10782000000C0446084611464FF47A72C4E901C2BE
:10783000044A22600122207462741A46FDF75EFE3B
:10784000204610BD988B0D00007C0023FDF79EBEE6
:107850000022FFF7F9BF007CFDF758BE13B50D4CB1
:107860002178BFF35B8F11F0010110D12046019107
:10787000FCF722FC019950B1074B084A0848FFF772
:10788000CDFF2046FCF71DFC064800F023FE04480F
:1078900002B010BDE4E503206CE60320E8E5032018
:1078A000F0E60320A7770D004174704770477047DA
:1078B00008B50021007CFDF799FE40EAE07008BDA4
:1078C00008B50121007CFDF791FE40EAE07008BD9B
:1078D00008B5007CFDF782FE20EAE07008BD08B51F
:1078E000007CFDF773FE20EAE07008BD13B5044686
:1078F000007C0191FDF772FE0028019901DC607C9B
:1079000020B1207CFDF77AFE20EAE07002B010BDC5
:10791000007CFDF77BBE10B51421044600F0DEF9B3
:10792000204610BD10B54FF47A7304460846002176
:10793000C4E90113044B23600123207463741146CE
:10794000FDF72CFE204610BDC88B0D00007C0022E8
:10795000FDF72CBE007CFDF731BE10B514220446A5
:10796000002100F0E9FD204610BD000010B50F4CCD
:1079700088B003A8FFF7F1FF2178BFF35B8F11F008
:1079800001010FD120460191FCF796FB019948B106
:1079900003AA0748FFF7C6FF2046FCF792FB0548FD
:1079A00000F098FD024808B010BD00BF04E70320B6
:1079B00008E70320AD780D00014B1860704700BF49
:1079C00044E3032008B50B4B43B1FFF7CFFF036837
:1079D0001B699847002801DDAFF30080064B43B1D7
:1079E000FFF73CFF03681B699847002801DDAFF3F0
:1079F000008008BD000000000000000008B5FFF78F
:107A0000E1FFFDF793FC014B186008BD24E703205C
:107A10000548064A064908B5121A00F065FD054BEF
:107A2000054A1A6008BD00BF00F4032004F40320D7
:107A3000208D0D0000F403201E1C279A07B500239B
:107A400000931A466FF07701FDF724FE03B05DF84E
:107A500004FB000007B543880A2B08D0502B0BD13C
:107A6000094B1B684BB103B05DF804EB1847FFF7F7
:107A7000E5FF03B05DF804FB002300931A466FF0A6
:107A80007701FDF707FEF4E720E7032010B5124861
:107A90000021FDF799FE114B1A68114B9A42114BC8
:107AA0000CBF012200221A7001D0FFF7B1FFFDF7D1
:107AB0002DFC044600F048FD0B4B13B12046AFF3FC
:107AC000008000210848FDF7F7FDBDE81040074899
:107AD0000021FDF7D5BD00BFB9790D0000F40320EA
:107AE0001E1C279A1CE7032000000000557A0D0099
:107AF000232813B502D9002002B010BDA0F10B035A
:107B0000022B1AD8174C2178BFF35B8F11F00101BB
:107B10000BD120460191FCF7CFFA019928B1124808
:107B2000FFF786FC2046FCF7CCFA0F4B1878FDF7E0
:107B3000BDFC0028DFD10120DEE7012809D800F0D4
:107B400085F80021007CFDF759FC80F00100C0B2EF
:107B5000D2E709380128EED8FFF780FE007CFDF758
:107B600005FDF2E738E503203CE50320232838B57E
:107B700004460D460AD8FF2908D0FFF7B9FF28B1FF
:107B800029462046BDE83840FDF7D8BB38BD38B59A
:107B900004460D46FDF7DAFBFF2810D0062804D86E
:107BA0004D2323FA00F0C30709D42046FFF7A0FFB6
:107BB00028B129462046BDE83840FDF7CFBB38BD87
:107BC00010B50446FDF7C2FB031FDBB2012B08D939
:107BD0002046FFF78DFF20B12046BDE81040FDF79D
:107BE000C5BB002010BD70477047000038B50023AA
:107BF00020254380142304460380856005610649DF
:107C0000284600F06FF804496060284600F06AF8E2
:107C1000E060204638BD00BFF08B0D0038B5002372
:107C200020254380142304460380856005610649AE
:107C3000284600F057F804496060284600F052F8E2
:107C4000E060204638BD00BFF08B0D0030B50E4D12
:107C50002978BFF35B8F11F0010487B011D128465A
:107C6000FCF72AFA68B101A8FFF7C0FF01AA214674
:107C70000648FEF705F82846FCF723FA044800F00A
:107C800029FC024807B030BD28E7032030E7032075
:107C9000E77B0D0010B50E4C2378BFF35B8FDB073D
:107CA00086B011D42046FCF707FA68B101A8FFF7A7
:107CB000B5FF01AA01210748FDF7E2FF2046FCF7C6
:107CC00000FA054800F006FC024806B010BD00BFEF
:107CD0002CE7032044E70320E97B0D00FCF7DFB924
:107CE000FCF7D9B9FCF7D9B981F0004102E000BF37
:107CF00083F0004330B54FEA41044FEA430594EA6C
:107D0000050F08BF90EA020F1FBF54EA000C55EAA6
:107D1000020C7FEA645C7FEA655C00F0E2804FEA77
:107D20005454D4EB5555B8BF6D420CDD2C4480EA59
:107D3000020281EA030382EA000083EA010180EA89
:107D4000020281EA0303362D88BF30BD11F0004FD7
:107D50004FEA01314FF4801C4CEA113102D040420D
:107D600061EB410113F0004F4FEA03334CEA133348
:107D700002D0524263EB430394EA050F00F0A78060
:107D8000A4F10104D5F1200E0DDB02FA0EFC22FA5B
:107D900005F2801841F1000103FA0EF2801843FA4F
:107DA00005F359410EE0A5F120050EF1200E012A40
:107DB00003FA0EFC28BF4CF0020C43FA05F3C0187E
:107DC00051EBE37101F0004507D54FF0000EDCF1F7
:107DD000000C7EEB00006EEB0101B1F5801F1BD3A0
:107DE000B1F5001F0CD349085FEA30004FEA3C0CA4
:107DF00004F101044FEA445212F5800F80F09A809A
:107E0000BCF1004F08BF5FEA500C50F1000041EB9D
:107E1000045141EA050130BD5FEA4C0C404141EBA1
:107E20000101013C28BFB1F5801FE9D291F0000F9C
:107E300004BF01460020B1FA81F308BF2033A3F14B
:107E40000B03B3F120020CDA0C3208DD02F1140C42
:107E5000C2F10C0201FA0CF021FA02F10CE002F17D
:107E60001402D8BFC2F1200C01FA02F120FA0CFC76
:107E7000DCBF41EA0C019040E41AA2BF01EB0451BF
:107E8000294330BD6FEA04041F3C1CDA0C340EDCBD
:107E900004F11404C4F1200220FA04F001FA02F300
:107EA00040EA030021FA04F345EA030130BDC4F1BE
:107EB0000C04C4F1200220FA02F001FA04F340EAB3
:107EC0000300294630BD21FA04F0294630BD94F064
:107ED000000F83F4801306BF81F480110134013D4B
:107EE0004EE77FEA645C18BF7FEA655C29D094EABC
:107EF000050F08BF90EA020F05D054EA000C04BF3A
:107F00001946104630BD91EA030F1EBF0021002024
:107F100030BD5FEA545C05D14000494128BF41F0C3
:107F2000004130BD14F580043CBF01F5801130BD27
:107F300001F0004545F0FE4141F470014FF00000B2
:107F400030BD7FEA645C1ABF194610467FEA655C63
:107F50001CBF0B46024650EA013406BF52EA033505
:107F600091EA030F41F4002130BD00BF90F0000FF3
:107F700004BF0021704730B54FF4806404F132042F
:107F80004FF000054FF0000150E700BF90F0000FE8
:107F900004BF0021704730B54FF4806404F132040F
:107FA00010F0004548BF40424FF000013EE700BFDF
:107FB00042004FEAE2014FEA31014FEA02701FBF6F
:107FC00012F07F4393F07F4F81F06051704732F0A1
:107FD0007F4208BF704793F07F4F04BF41F40021F8
:107FE000704730B54FF4607401F0004521F0004156
:107FF0001CE700BF50EA010208BF704730B54FF0E0
:1080000000050AE050EA010208BF704730B511F0E0
:10801000004502D5404261EB41014FF4806404F118
:1080200032045FEA915C3FF4D8AE4FF003025FEA9E
:10803000DC0C18BF03325FEADC0C18BF033202EB22
:10804000DC02C2F1200300FA03FC20FA02F001FA7C
:1080500003FE40EA0E0021FA02F11444BDE600BF1F
:1080600070B54FF0FF0C4CF4E06C1CEA11541DBFCE
:108070001CEA135594EA0C0F95EA0C0F00F0DEF899
:108080002C4481EA030621EA4C5123EA4C5350EA7E
:10809000013518BF52EA033541F4801143F48013CF
:1080A00038D0A0FB02CE4FF00005E1FB02E506F060
:1080B0000042E0FB03E54FF00006E1FB03569CF0B5
:1080C000000F18BF4EF0010EA4F1FF04B6F5007FBB
:1080D00064F5407404D25FEA4E0E6D4146EB06062D
:1080E00042EAC62141EA55514FEAC52040EA5E50B6
:1080F0004FEACE2EB4F1FD0C88BFBCF5E06F1ED860
:10810000BEF1004F08BF5FEA500E50F1000041EB96
:10811000045170BD06F0004646EA010140EA020043
:1081200081EA0301B4EB5C04C2BFD4EB0C0541EA65
:10813000045170BD41F480114FF0000E013C00F37A
:10814000AB8014F1360FDEBF002001F0004170BD9E
:10815000C4F10004203C35DA0C341BDC04F11404B7
:10816000C4F1200500FA05F320FA04F001FA05F243
:1081700040EA020001F0004221F0004110EBD37010
:1081800021FA04F642EB06015EEA430E08BF20EA3C
:10819000D37070BDC4F10C04C4F1200500FA04F3DF
:1081A00020FA05F001FA04F240EA020001F0004171
:1081B00010EBD37041F100015EEA430E08BF20EAE4
:1081C000D37070BDC4F1200500FA05F24EEA020E2C
:1081D00020FA04F301FA05F243EA020321FA04F05B
:1081E00001F0004121FA04F220EA020000EBD37012
:1081F0005EEA430E08BF20EAD37070BD94F0000F12
:108200000FD101F00046400041EB010111F4801F45
:1082100008BF013CF7D041EA060195F0000F18BFF6
:10822000704703F00046520043EB030313F4801F32
:1082300008BF013DF7D043EA0603704794EA0C0FEC
:108240000CEA135518BF95EA0C0F0CD050EA410602
:1082500018BF52EA4306D1D181EA030101F000417F
:108260004FF0000070BD50EA410606BF10461946A7
:1082700052EA430619D094EA0C0F02D150EA0136B3
:1082800013D195EA0C0F05D152EA03361CBF1046F4
:1082900019460AD181EA030101F0004141F0FE4193
:1082A00041F470014FF0000070BD41F0FE4141F417
:1082B000780170BD70B54FF0FF0C4CF4E06C1CEA17
:1082C00011541DBF1CEA135594EA0C0F95EA0C0FCC
:1082D00000F0A7F8A4EB050481EA030E52EA033587
:1082E0004FEA013100F088804FEA03334FF08055A8
:1082F00045EA131343EA12634FEA022245EA1115D5
:1083000045EA10654FEA00260EF000419D4208BF85
:10831000964244F1FD0404F5407402D25B084FEA32
:108320003202B61A65EB03055B084FEA32024FF4DE
:1083300080104FF4002CB6EB020E75EB030E22BF3B
:10834000B61A754640EA0C005B084FEA3202B6EBFB
:10835000020E75EB030E22BFB61A754640EA5C00AA
:108360005B084FEA3202B6EB020E75EB030E22BF3A
:10837000B61A754640EA9C005B084FEA3202B6EB3B
:10838000020E75EB030E22BFB61A754640EADC00FA
:1083900055EA060E18D04FEA051545EA16754FEA5C
:1083A00006164FEAC30343EA52734FEAC2025FEA7A
:1083B0001C1CC0D111F4801F0BD141EA00014FF009
:1083C00000004FF0004CB6E711F4801F04BF0143DA
:1083D0000020B4F1FD0C88BFBCF5E06F3FF6AFAEF6
:1083E000B5EB030C04BFB6EB020C5FEA500C50F186
:1083F000000041EB045170BD0EF0004E4EEA113109
:1084000014EB5C04C2BFD4EB0C0541EA045170BD0F
:1084100041F480114FF0000E013C90E645EA060E53
:108420008DE60CEA135594EA0C0F08BF95EA0C0F81
:108430003FF43BAF94EA0C0F0AD150EA01347FF4C9
:1084400034AF95EA0C0F7FF425AF104619462CE7A0
:1084500095EA0C0F06D152EA03353FF4FDAE104603
:10846000194622E750EA410618BF52EA43067FF454
:10847000C5AE50EA41047FF40DAF52EA43057FF4E4
:10848000EBAE12E74FEA410212F5001215D211D5F8
:108490006FF47873B3EB625212D94FEAC12343F001
:1084A000004343EA505311F0004F23FA02F018BF83
:1084B000404270474FF00000704750EA013005D14C
:1084C00011F0004008BF6FF0004070474FF000000F
:1084D000704700BF002301461A46184600F046B90F
:1084E0000A22002100F038B90A44914200F1FF331A
:1084F00000D1704710B511F8014B03F8014F9142BC
:10850000F9D110BD884210B501EB020402D98442B2
:10851000234607D8431EA14208D011F8012B03F8C7
:10852000012FF8E7024401468A4200D110BD13F83A
:10853000014D02F8014DF7E702440346934200D192
:10854000704703F8011BF9E738B50D4B1D68AB6B9D
:1085500004467BB91820FDF717F90A4A0A4BA863AD
:10856000C0E90023094B83600B2383810122002390
:10857000C0E90423AB6B00221C615A6138BD00BF07
:1085800044E303200E33CDAB34126DE6ECDE050080
:10859000C9B2034610F8012B1AB18A42F9D1184624
:1085A0007047002918BF0023F9E710B50446FFF70C
:1085B000EFFF18B9204600F014F8204410BD10F861
:1085C000012B11F8013B012A28BF9A42F7D0D01A9B
:1085D0007047034611F8012B03F8012B002AF9D14B
:1085E0007047034613F8012B002AFBD1181A0138F3
:1085F000704710B56AB10139841810F8013B11F8C1
:10860000012F934203D1A04201D0002BF5D1981A3B
:1086100010BD1046FCE710B50139034632B111F820
:10862000014F03F8014B013A002CF7D11A44002105
:10863000934200D110BD03F8011BF9E738B503469A
:108640000C4669B9BDE83840FFF7A2BF431C054698
:1086500021461846FFF79CFF0028F7D1284638BD71
:108660000025F5E72DE9F0473A4E86468C466046F0
:108670001CF8014BA55D15F00805F8D12D2C33D160
:108680009CF800404FF0010800F1020C002B5CD078
:10869000102B0CD1302C0AD19CF8000000F0DF0028
:1086A00058284DD19CF8014010230CF1020C08F120
:1086B0000047013F0026B7FBF3F9304603FB197A68
:1086C000A4F13005092D18D82C46A34224DD751CD1
:1086D00007D081451DD301D1A2451ADB00FB034021
:1086E00001261CF8014BEBE72B2C08BF9CF800403F
:1086F000A84608BF00F1020CC8E7A4F14105192DF6
:1087000001D8373CE1E7A4F16105192D04D8573CA5
:10871000DBE74FF0FF36E4E7731C06D12223CEF8E7
:108720000030384642B9BDE8F087B8F1000F00D0FC
:108730004042002AF7D00EB10CF1FF311160F2E790
:108740003024002BB3D10823B1E7302CA4D00A2366
:10875000ADE700BFF28B0D0013460A460146024802
:108760000068FFF77FBF00BF44E303202DE9F84313
:10877000DFF8B8800646D8F800001F460D4691463F
:1087800000F056F8254B1C6834B9254C1C60254B6D
:1087900013B11B68C4F8883063681F2B07DDD8F855
:1087A000000000F047F84FF0FF30BDE8F8834EB30B
:1087B000D4F8880088B91C4B23B9D8F8000000F021
:1087C00038F8F0E74FF48470FCF7DEFF0028F4D0AF
:1087D0000023C0E94033C4F88800636840F8239060
:1087E00001229A4000EB8301D0F800311343022E9E
:1087F000C0F80031C1F8807002BFD0F804311A43CC
:10880000C0F804216368D8F800005A1C0233626083
:1088100044F8235000F00EF80020C6E7E4E70320F8
:1088200058E703200000000089570D00A8E303204B
:10883000704770477047000021400D005D400D00FB
:1088400085400D0089400D000000000074656D70CA
:108850005F660068756D6964697479007369676E35
:10886000616C5F737472656E677468007369676EBC
:10887000616C5F7175616C697479007065726365B4
:108880006E745F636861726765006C6F6E676974B0
:10889000756465006C6174697475646500616C74FD
:1088A00069747564650000000000000000000000AD
:1088B0000000000000000000A5400D00C9400D00B0
:1088C0000000000000000000D5400D0009410D002F
:1088D000796E0D00CB400D004750524D4300474E7E
:1088E000524D4300475047474100474E47474100DC
:1088F00064656661756C7420004D5342004C5342B0
:10890000003C53504953657474696E677320646505
:108910006661756C743E003C5350495365747469CC
:108920006E67732025732575202573204D4F4445B0
:1089300025753E000000000000000000694B0D009E
:108940003B4B0D003D4B0D000000000000000000FF
:1089500093580D0089580D007F580D0035580D00B3
:1089600073580D0067580D00D1710D00D9710D00BD
:108970005B580D0053580D0049580D003F580D002D
:1089800009720D00000000000000000041590D00B8
:1089900069590D0043590D0079590D00AD590D006D
:1089A000D9590D000D5A0D005D5A0D0047590D00A3
:1089B00063590D00FCFFFFFF00000000835A0D000B
:1089C0000000000000000000015B0D00F75A0D00E0
:1089D000ED5A0D00E35A0D00D75A0D00CB5A0D0089
:1089E000D1710D00D9710D00BF5A0D00B75A0D009D
:1089F000AD5A0D00A35A0D0009720D0000000000D1
:108A000000000000295C0D00735C0D004B5C0D0044
:108A10002B5C0D00535C0D005B5C0D00635C0D0076
:108A20006B5C0D000000000000000000835D0D0085
:108A3000735D0D00755D0D002564002575007525BD
:108A400030347800626175640053657269616C004E
:108A500053657269616C31004A534F4E53747265AD
:108A6000616D4C6F6748616E646C65720061707017
:108A700000253031307520005D20002C2000282991
:108A80003A2000205B00636F6465203D200025696B
:108A90000064657461696C73203D20000D0A006DEF
:108AA0000063006C6E00666E007400636F646500A6
:108AB00064657461696C0000000000000000000043
:108AC00041620D0067620D0025620D00855E0D009C
:108AD000000000000000000095660D00AD660D006E
:108AE000796E0D00CB400D0000000000000000007A
:108AF000C1660D00D5660D001D700D002D620D00C4
:108B000000000000000000003F620D0075620D00D3
:108B1000B56D0D002F620D00000000000000000088
:108B20003D620D0083620D00DD650D00A1620D0048
:108B3000000000000000000091710D009B710D000D
:108B4000A5710D00AF710D00B9710D00C5710D005B
:108B5000D1710D00D9710D00E1710D00ED710D00A5
:108B6000F5710D00FF710D0009720D00000810185D
:108B70002028303825592D256D2D25645425483A57
:108B8000254D3A2553257A0061736374696D65003C
:108B90000000000000000000A1770D000F780D001C
:108BA000E7770D00F1720D00B7770D00D3770D0058
:108BB000C5770D00E1770D00A3770D00A9770D00B3
:108BC0000000000000000000AF780D0017790D00D4
:108BD000ED780D00F1720D00DF780D00B1780D0019
:108BE000C1780D0011790D00D1780D00A9780D0024
:108BF000000020202020202020202028282828288D
:108C00002020202020202020202020202020202064
:108C100020208810101010101010101010101010BC
:108C200010100404040404040404040410101010BC
:108C30001010104141414141410101010101010177
:108C400001010101010101010101010101101010E7
:108C5000101010424242424242020202020202024A
:108C600002020202020202020202020202101010BA
:108C700010200000000000000000000000000000C4
:108C800000000000000000000000000000000000E4
:108C900000000000000000000000000000000000D4
:108CA00000000000000000000000000000000000C4
:108CB00000000000000000000000000000000000B4
:108CC00000000000000000000000000000000000A4
:108CD0000000000000000000000000000000000094
:108CE0000000000000000000000000000000000084
:108CF0000000000025450D0025580D0011590D00FC
:108D00000D5B0D00696E0D00DD720D0019740D0014
:108D100069770D008D770D00000000000000000055
:048D2000000000004F
:108D2400E0930400010000000100000001000000C5
:108D3400088B0D00208B0D00888B0D0048E3032069
:108D4400000000000000000000000000000000001F
:108D5400000000000000000000000000000000000F
:108D640000000000000000000000000000000000FF
:108D740000000000000000000000000000000000EF
:108D840000000000000000000000000000000000DF
:108D940000000000000000000000000000000000CF
:048DA400E9E70320D8
:108DA800FFFFFFFF00000102030405060708090A88
:108DB8000B0C0D0E0F101112131415161718191A83
:088DC8001B1C1D1E1F202800CA
:048DD000785634128B
:04000003D0004020C9
:00000001FF
